{"contracts/marketPlace.sol":{"NFTMarket":{"abi":[{"inputs":[{"internalType":"address","name":"initialOwner","type":"address"}],"stateMutability":"nonpayable","type":"constructor"},{"inputs":[{"internalType":"address","name":"owner","type":"address"}],"name":"OwnableInvalidOwner","type":"error"},{"inputs":[{"internalType":"address","name":"account","type":"address"}],"name":"OwnableUnauthorizedAccount","type":"error"},{"inputs":[],"name":"ReentrancyGuardReentrantCall","type":"error"},{"anonymous":false,"inputs":[{"indexed":true,"internalType":"uint256","name":"collectionId","type":"uint256"},{"indexed":false,"internalType":"uint256","name":"oldPrice","type":"uint256"},{"indexed":false,"internalType":"uint256","name":"newPrice","type":"uint256"}],"name":"BundlePriceUpdated","type":"event"},{"anonymous":false,"inputs":[{"indexed":true,"internalType":"uint256","name":"collectionId","type":"uint256"},{"indexed":true,"internalType":"address","name":"nftContract","type":"address"},{"indexed":true,"internalType":"address","name":"seller","type":"address"},{"indexed":false,"internalType":"uint256[]","name":"tokenIds","type":"uint256[]"},{"indexed":false,"internalType":"uint256","name":"bundlePrice","type":"uint256"},{"indexed":false,"internalType":"string","name":"collectionName","type":"string"}],"name":"CollectionBundleListed","type":"event"},{"anonymous":false,"inputs":[{"indexed":true,"internalType":"uint256","name":"collectionId","type":"uint256"},{"indexed":true,"internalType":"address","name":"seller","type":"address"},{"indexed":true,"internalType":"address","name":"buyer","type":"address"},{"indexed":false,"internalType":"uint256[]","name":"tokenIds","type":"uint256[]"},{"indexed":false,"internalType":"uint256","name":"bundlePrice","type":"uint256"}],"name":"CollectionBundleSold","type":"event"},{"anonymous":false,"inputs":[{"indexed":true,"internalType":"uint256","name":"collectionId","type":"uint256"},{"indexed":true,"internalType":"address","name":"seller","type":"address"},{"indexed":false,"internalType":"enum NFTMarket.ListingType","name":"listingType","type":"uint8"}],"name":"CollectionCancelled","type":"event"},{"anonymous":false,"inputs":[{"indexed":true,"internalType":"uint256","name":"listingId","type":"uint256"},{"indexed":true,"internalType":"address","name":"seller","type":"address"},{"indexed":false,"internalType":"enum NFTMarket.ListingType","name":"listingType","type":"uint8"}],"name":"ListingCancelled","type":"event"},{"anonymous":false,"inputs":[{"indexed":true,"internalType":"uint256","name":"listingId","type":"uint256"},{"indexed":true,"internalType":"address","name":"nftContract","type":"address"},{"indexed":true,"internalType":"uint256","name":"tokenId","type":"uint256"},{"indexed":false,"internalType":"address","name":"seller","type":"address"},{"indexed":false,"internalType":"uint256","name":"price","type":"uint256"},{"indexed":false,"internalType":"enum NFTMarket.ListingType","name":"listingType","type":"uint8"}],"name":"NFTListed","type":"event"},{"anonymous":false,"inputs":[{"indexed":true,"internalType":"uint256","name":"listingId","type":"uint256"},{"indexed":true,"internalType":"address","name":"seller","type":"address"},{"indexed":true,"internalType":"address","name":"buyer","type":"address"},{"indexed":false,"internalType":"uint256","name":"price","type":"uint256"},{"indexed":false,"internalType":"enum NFTMarket.ListingType","name":"listingType","type":"uint8"}],"name":"NFTSold","type":"event"},{"anonymous":false,"inputs":[{"indexed":true,"internalType":"address","name":"previousOwner","type":"address"},{"indexed":true,"internalType":"address","name":"newOwner","type":"address"}],"name":"OwnershipTransferred","type":"event"},{"anonymous":false,"inputs":[{"indexed":true,"internalType":"uint256","name":"listingId","type":"uint256"},{"indexed":false,"internalType":"uint256","name":"oldPrice","type":"uint256"},{"indexed":false,"internalType":"uint256","name":"newPrice","type":"uint256"}],"name":"PriceUpdated","type":"event"},{"inputs":[{"internalType":"uint256","name":"collectionId","type":"uint256"}],"name":"buyCollectionBundle","outputs":[],"stateMutability":"payable","type":"function"},{"inputs":[{"internalType":"uint256","name":"listingId","type":"uint256"}],"name":"buyNFT","outputs":[],"stateMutability":"payable","type":"function"},{"inputs":[{"internalType":"uint256","name":"collectionId","type":"uint256"}],"name":"cancelCollection","outputs":[],"stateMutability":"nonpayable","type":"function"},{"inputs":[{"internalType":"uint256","name":"listingId","type":"uint256"}],"name":"cancelListing","outputs":[],"stateMutability":"nonpayable","type":"function"},{"inputs":[{"internalType":"uint256","name":"","type":"uint256"}],"name":"collectionListings","outputs":[{"internalType":"uint256","name":"collectionId","type":"uint256"},{"internalType":"address","name":"nftContract","type":"address"},{"internalType":"address","name":"seller","type":"address"},{"internalType":"uint256","name":"bundlePrice","type":"uint256"},{"internalType":"bool","name":"isActive","type":"bool"},{"internalType":"string","name":"collectionName","type":"string"},{"internalType":"enum NFTMarket.ListingType","name":"listingType","type":"uint8"}],"stateMutability":"view","type":"function"},{"inputs":[{"internalType":"address","name":"nftContract","type":"address"},{"internalType":"uint256[]","name":"tokenIds","type":"uint256[]"},{"internalType":"uint256","name":"bundlePrice","type":"uint256"},{"internalType":"string","name":"collectionName","type":"string"}],"name":"listCollectionBundle","outputs":[],"stateMutability":"nonpayable","type":"function"},{"inputs":[{"internalType":"address","name":"nftContract","type":"address"},{"internalType":"uint256","name":"tokenId","type":"uint256"},{"internalType":"uint256","name":"price","type":"uint256"}],"name":"listSingleNFT","outputs":[],"stateMutability":"nonpayable","type":"function"},{"inputs":[{"internalType":"uint256","name":"","type":"uint256"}],"name":"listings","outputs":[{"internalType":"uint256","name":"tokenId","type":"uint256"},{"internalType":"address","name":"nftContract","type":"address"},{"internalType":"address","name":"seller","type":"address"},{"internalType":"uint256","name":"price","type":"uint256"},{"internalType":"bool","name":"isActive","type":"bool"}],"stateMutability":"view","type":"function"},{"inputs":[],"name":"owner","outputs":[{"internalType":"address","name":"","type":"address"}],"stateMutability":"view","type":"function"},{"inputs":[],"name":"renounceOwnership","outputs":[],"stateMutability":"nonpayable","type":"function"},{"inputs":[{"internalType":"address","name":"","type":"address"},{"internalType":"uint256","name":"","type":"uint256"}],"name":"tokenToListingId","outputs":[{"internalType":"uint256","name":"","type":"uint256"}],"stateMutability":"view","type":"function"},{"inputs":[{"internalType":"address","name":"newOwner","type":"address"}],"name":"transferOwnership","outputs":[],"stateMutability":"nonpayable","type":"function"},{"inputs":[{"internalType":"uint256","name":"collectionId","type":"uint256"},{"internalType":"uint256","name":"newBundlePrice","type":"uint256"}],"name":"updateBundlePrice","outputs":[],"stateMutability":"nonpayable","type":"function"},{"inputs":[{"internalType":"uint256","name":"listingId","type":"uint256"},{"internalType":"uint256","name":"newPrice","type":"uint256"}],"name":"updatePrice","outputs":[],"stateMutability":"nonpayable","type":"function"}],"evm":{"bytecode":{"linkReferences":{},"object":"60803460ca57601f611f5c38819003918201601f19168301916001600160401b0383118484101760cf5780849260209460405283398101031260ca57516001600160a01b0381169081900360ca576001600055801560b457600180546001600160a01b03198116831790915560405191906001600160a01b03167f8be0079c531659141344cd1fd0a4f28419497f9722a3daafe3b4186f6b6457e0600080a360016002556001600355611e7690816100e68239f35b631e4fbdf760e01b600052600060045260246000fd5b600080fd5b634e487b7160e01b600052604160045260246000fdfe6080604052600436101561001257600080fd5b6000803560e01c80631796a1851461172e578063305a67a8146115b357806330a40b6c1461140257806351ed828814611165578063715018a61461110a57806378436e011461104c5780637c5180be1461100a57806382367b2d14610f335780638da5cb5b14610f0c5780639b94899414610bc6578063c316a13214610a3f578063de74e57b146109d1578063f2fde38b146109315763fb615906146100b757600080fd5b3461092e57608036600319011261092e576100d06119d9565b60243567ffffffffffffffff811161092c573660238201121561092c5767ffffffffffffffff81600401351161092c576024816004013560051b820101368111610928576064359167ffffffffffffffff831161092457366023840112156109245767ffffffffffffffff836004013511610924573660248460040135850101116109245761015d611cef565b6001816004013511156108e057606481600401351161089c5760443515610832578260040135156107ee57845b8160040135811061061d5750600354916101a383611bdf565b60035560405190610100820182811067ffffffffffffffff82111761060957604052838252848760208401926001600160a01b03891684526040850190338252604051906101fb6020896004013560051b0183611a44565b6004880135825260248801602083015b8282106105f357505050606086019081526001600160a01b036080870192604435845281604060a08a01966001885280602083519a61025782601f19601f84600401350116018d611a44565b6004810135808d5260248201838e0137600401358b01015260c08b01988952600160e08c01528c815260056020522097895189555116826001890191166001600160a01b031982541617905551166001600160a01b036002870191166001600160a01b03198254161790555180519067ffffffffffffffff82116105df576801000000000000000082116105df576020908c60038801548460038a0155848181106105c1575b50505001600386018c5260208c208c5b8381106105ad57505050509061033b91516004850155511515600584019060ff801983541691151516179055565b518051600683019167ffffffffffffffff82116105995761035c8354611a0a565b601f811161055e575b50602090601f83116001146104f55791806007949260e096948d926104ea575b50508160011b916000199060031b1c19161790555b0191015160028110156104d65760ff80198354169116179055845b8160040135811061049a575060405160608152816004013560608201527f07ffffffffffffffffffffffffffffffffffffffffffffffffffffffffffffff826004013511610496576020816080847ff62a26216db7058f6f783fd8278dce1204c87b0f2b394a415d7b24c70561e7d8956004013560051b60248201838501376004013560051b8201604435848401528183820301604084015287600401358282015287600401356024890160a08301378984838a6004013584010101526001600160a01b0333991697601f8019916004013501160101030190a46001815580f35b8580fd5b6001906001600160a01b03861687526006602052604087206104c482856004013560248701611cc8565b358852602052836040882055016103b5565b602487634e487b7160e01b81526021600452fd5b015190503880610385565b838b52818b209190601f1984168c5b818110610546575092600192859260e09896600798961061052d575b505050811b01905561039a565b015160001960f88460031b161c19169055388080610520565b92936020600181928786015181550195019301610504565b61058990848c5260208c20601f850160051c8101916020861061058f575b601f0160051c0190611cd8565b38610365565b909150819061057c565b60248a634e487b7160e01b81526041600452fd5b60019060208451940193818401550161030d565b846105d79360038c018152209182019101611cd8565b8c38846102fd565b60248c634e487b7160e01b81526041600452fd5b813581528b96508d95506020918201910161020b565b602488634e487b7160e01b81526041600452fd5b61062f81836004013560248501611cc8565b35604051906331a9108f60e11b825260048201526020816024816001600160a01b038a165afa8015610797576106779188916107d0575b506001600160a01b03163314611ae6565b6001600160a01b038516865260066020526040862061069e82846004013560248601611cc8565b3587526020526106b2604087205415611b31565b60405163e985e9c560e01b81523360048201523060248201526020816044816001600160a01b038a165afa9081156107975787916107a2575b508015610705575b906106ff600192611b94565b0161018a565b5061071881836004013560248501611cc8565b35906040519163020604bf60e21b835260048301526020826024816001600160a01b038a165afa918215610797576001926106ff918991610769575b50919250506001600160a01b031630146106f3565b61078a915060203d8111610790575b6107828183611a44565b810190611ac7565b38610754565b503d610778565b6040513d89823e3d90fd5b6107c3915060203d81116107c9575b6107bb8183611a44565b810190611b7c565b386106eb565b503d6107b1565b6107e8915060203d8111610790576107828183611a44565b38610666565b606460405162461bcd60e51b815260206004820152601860248201527f436f6c6c656374696f6e206e616d6520726571756972656400000000000000006044820152fd5b608460405162461bcd60e51b815260206004820152602360248201527f42756e646c65207072696365206d75737420626520677265617465722074686160448201527f6e203000000000000000000000000000000000000000000000000000000000006064820152fd5b606460405162461bcd60e51b815260206004820152601460248201527f436f6c6c656374696f6e20746f6f206c617267650000000000000000000000006044820152fd5b606460405162461bcd60e51b815260206004820152602060248201527f42756e646c65206d7573742068617665206174206c656173742032204e4654736044820152fd5b8480fd5b8380fd5b825b80fd5b503461092e57602036600319011261092e576001600160a01b036109536119d9565b61095b611dfe565b1680156109a5576001600160a01b03600154826001600160a01b0319821617600155167f8be0079c531659141344cd1fd0a4f28419497f9722a3daafe3b4186f6b6457e08380a380f35b6024827f1e4fbdf700000000000000000000000000000000000000000000000000000000815280600452fd5b503461092e57602036600319011261092e57604060a09160043581526004602052208054906001600160a01b03600182015416906001600160a01b0360028201541660ff60046003840154930154169260405194855260208501526040840152606083015215156080820152f35b503461092e57602036600319011261092e5760043581526005602052604081208054916001600160a01b03600183015416906001600160a01b03600284015416600484015460ff60058601541691600686019560405180978690805490610aa582611a0a565b8085529160018116908115610b9e5750600114610b61575b505091610ad060079260ff94038a611a44565b015416946040519788526020880152604087015260608601521515608085015260e060a08501528251928360e0860152815b848110610b4a5750508061010084860101526002821015610b36575060c0830152601f01601f191681018190036101000190f35b80634e487b7160e01b602492526021600452fd5b806020809284010151610100828901015201610b02565b8852602088208892505b818310610b835750508101602001610ad06007610abd565b80602092948385600194549201015201910190918992610b6b565b60ff191660208087019190915292151560051b85019092019250610ad0915060079050610abd565b50602036600319011261092e57600435610bde611cef565b808252600560205260408220916005830180549060ff821615610ec857600485018054610c0d81341015611c32565b60028701926001600160a01b0384541690813314610e845786989560038701966001885491019a6001600160a01b038c5416905b828110610dc25750505060ff19169055610c5b9190611d37565b835b8354811015610d3e576001600160a01b038754166001600160a01b0384541690610c878387611c04565b90549060031b1c91813b15610d3a57604051632142170760e11b81526001600160a01b03919091166004820152336024820152604481019290925286908290606490829084905af18015610d2f57908691610d1a575b50506001906001600160a01b038854168652600660205260408620610d028287611c04565b90549060031b1c875260205285604081205501610c5d565b81610d2491611a44565b610924578438610cdd565b6040513d88823e3d90fd5b8780fd5b50906001600160a01b038591541691546040519060408201604083528554809152606083019587526020872090875b818110610dac57505050907f7067ec4d74acf8b7a0c7016b4c760807811b23974808ee0b444e7318862df6fe9160208201528033950390a46001815580f35b8254885260209097019660019283019201610d6d565b610dcc818b611c04565b90549060031b1c604051906331a9108f60e11b82526004820152602081602481865afa908115610e795787916001600160a01b03918e91610e5b575b501603610e1757600101610c41565b606460405162461bcd60e51b815260206004820152601e60248201527f53656c6c6572206e6f206c6f6e676572206f776e7320616c6c204e46547300006044820152fd5b610e73915060203d8111610790576107828183611a44565b38610e08565b6040513d8e823e3d90fd5b606460405162461bcd60e51b815260206004820152601e60248201527f43616e6e6f742062757920796f7572206f776e20636f6c6c656374696f6e00006044820152fd5b606460405162461bcd60e51b815260206004820152601860248201527f436f6c6c656374696f6e206973206e6f742061637469766500000000000000006044820152fd5b503461092e578060031936011261092e5760206001600160a01b0360015416604051908152f35b503461092e57610f42366119f4565b610f4a611cef565b818352600460205260408320610f6e6001600160a01b036002830154163314611c7d565b60ff60048201541615610fc657816003604092610fad7f15819dd2fd9f6418b142e798d08a18d0bf06ea368f4480b7b0d3f75bd966bc48951515611a7c565b0190808254925582519182526020820152a26001815580f35b606460405162461bcd60e51b815260206004820152601260248201527f4c697374696e67206e6f742061637469766500000000000000000000000000006044820152fd5b503461092e57604036600319011261092e5760406020916001600160a01b036110316119d9565b16815260068352818120602435825283522054604051908152f35b503461092e5761105b366119f4565b611063611cef565b8183526005602052604083206110876001600160a01b036002830154163314611c7d565b60ff600582015416156110c657816004604092610fad7f72de6a1593eb666e4946662c2c658c367eae1eef89ecc7124bd6e30f66f646a7951515611a7c565b606460405162461bcd60e51b815260206004820152601560248201527f436f6c6c656374696f6e206e6f742061637469766500000000000000000000006044820152fd5b503461092e578060031936011261092e57611123611dfe565b806001600160a01b036001546001600160a01b03198116600155167f8be0079c531659141344cd1fd0a4f28419497f9722a3daafe3b4186f6b6457e08280a380f35b50602036600319011261092e5760043561117d611cef565b808252600460205260408220600481019081549060ff8216156113be5760038101928354926111ae84341015611c32565b60028301936001600160a01b0385541680331461137a5760018501936001600160a01b03855416602087546024604051809481936331a9108f60e11b835260048301525afa90811561136f5783916001600160a01b03918d91611350575b50160361130c576112229360ff19169055611d37565b6001600160a01b03815416866001600160a01b0385541691845490803b1561092c57604051632142170760e11b81526001600160a01b0394909416600485015233602485015260448401919091528290606490829084905af18015610797576112eb575b50906001600160a01b03809392541686526006602052604086209054865260205284604081205554169054916040519283528360208401527f54b68cf87fc5a8ca9fb6c2907055c98b559710d037e907a8ad031fefa3caa6de60403394a46001815580f35b866113026001600160a01b03959493988693611a44565b9691929350611286565b606460405162461bcd60e51b815260206004820152601e60248201527f53656c6c6572206e6f206c6f6e676572206f776e732074686973204e465400006044820152fd5b611369915060203d602011610790576107828183611a44565b3861120c565b6040513d8d823e3d90fd5b606460405162461bcd60e51b815260206004820152601760248201527f43616e6e6f742062757920796f7572206f776e204e46540000000000000000006044820152fd5b606460405162461bcd60e51b815260206004820152601a60248201527f54686973206c697374696e67206973206e6f74206163746976650000000000006044820152fd5b503461092e57602036600319011261092e5760043561141f611cef565b8082526005602052604082209160028301926001600160a01b038454163314801561159f575b156115355760058101805460ff8116156114f15760ff19169055600181019392600390910190825b82548110156114b1576001906001600160a01b0387541685526006602052604085206114998286611c04565b90549060031b1c86526020528460408120550161146d565b83826001600160a01b03875416907fdc5ead55dd48e8e5efda7cd38e07a916521f6e3c148b3b9e77a9aaeed47ca816602060405160018152a36001815580f35b606460405162461bcd60e51b815260206004820152601b60248201527f436f6c6c656374696f6e20616c726561647920696e61637469766500000000006044820152fd5b608460405162461bcd60e51b815260206004820152602860248201527f4e6f7420617574686f72697a656420746f2063616e63656c207468697320636f60448201527f6c6c656374696f6e0000000000000000000000000000000000000000000000006064820152fd5b506001600160a01b03600154163314611445565b503461092e57602036600319011261092e576004356115d0611cef565b808252600460205260408220600281016001600160a01b038154163314801561171a575b156116b057600482019182549260ff84161561166c576001600160a01b039360ff19169055826001820154168552600660205260408520905485526020528360408120555416907fbcd90e03d79e4632f324d681a7b699d3e20eea44ee9a57e2b556f986151328bf6020604051858152a36001815580f35b606460405162461bcd60e51b815260206004820152601860248201527f4c697374696e6720616c726561647920696e61637469766500000000000000006044820152fd5b608460405162461bcd60e51b815260206004820152602560248201527f4e6f7420617574686f72697a656420746f2063616e63656c2074686973206c6960448201527f7374696e670000000000000000000000000000000000000000000000000000006064820152fd5b506001600160a01b036001541633146115f4565b503461092e57606036600319011261092e576117486119d9565b602435906001600160a01b0360443591611760611cef565b61176b831515611a7c565b16906040516331a9108f60e11b8152836004820152602081602481865afa8015611996576117aa9186916119c057506001600160a01b03163314611ae6565b8184526006602052604084208385526020526117ca604085205415611b31565b60405163e985e9c560e01b8152336004820152306024820152602081604481865afa9081156119965785916119a1575b508015611936575b61180b90611b94565b6002549061181882611bdf565b60025560405160a0810181811067ffffffffffffffff82111761192257916118f06060927fa6730af3fc9c329b107536e5f7c96cab5132ac72b52afac07aaae37e06aca746946040528781526004868a6001600160a01b03602085018b815281604087019133835260408b8901958b875260808a01976001895281528860205220975188555116826001880191166001600160a01b031982541617905551166001600160a01b036002860191166001600160a01b031982541617905551600384015551151591019060ff801983541691151516179055565b848752600660205260408720868852602052836040882055604051903382526020820152866040820152a46001815580f35b602487634e487b7160e01b81526041600452fd5b5060405163020604bf60e21b8152836004820152602081602481865afa80156119965761180b918691611977575b506001600160a01b031630149050611802565b611990915060203d602011610790576107828183611a44565b38611964565b6040513d87823e3d90fd5b6119ba915060203d6020116107c9576107bb8183611a44565b386117fa565b6107e8915060203d602011610790576107828183611a44565b600435906001600160a01b03821682036119ef57565b600080fd5b60409060031901126119ef576004359060243590565b90600182811c92168015611a3a575b6020831014611a2457565b634e487b7160e01b600052602260045260246000fd5b91607f1691611a19565b90601f8019910116810190811067ffffffffffffffff821117611a6657604052565b634e487b7160e01b600052604160045260246000fd5b15611a8357565b606460405162461bcd60e51b815260206004820152601c60248201527f5072696365206d7573742062652067726561746572207468616e2030000000006044820152fd5b908160209103126119ef57516001600160a01b03811681036119ef5790565b15611aed57565b606460405162461bcd60e51b815260206004820152600960248201527f4e6f74206f776e657200000000000000000000000000000000000000000000006044820152fd5b15611b3857565b606460405162461bcd60e51b815260206004820152601260248201527f4e465420616c7265616479206c697374656400000000000000000000000000006044820152fd5b908160209103126119ef575180151581036119ef5790565b15611b9b57565b606460405162461bcd60e51b815260206004820152600c60248201527f4e6f7420617070726f76656400000000000000000000000000000000000000006044820152fd5b6000198114611bee5760010190565b634e487b7160e01b600052601160045260246000fd5b8054821015611c1c5760005260206000200190600090565b634e487b7160e01b600052603260045260246000fd5b15611c3957565b606460405162461bcd60e51b815260206004820152601460248201527f496e73756666696369656e74207061796d656e740000000000000000000000006044820152fd5b15611c8457565b606460405162461bcd60e51b815260206004820152601c60248201527f4f6e6c792073656c6c65722063616e20757064617465207072696365000000006044820152fd5b9190811015611c1c5760051b0190565b818110611ce3575050565b60008155600101611cd8565b600260005414611d00576002600055565b7f3ee5aeb50000000000000000000000000000000000000000000000000000000060005260046000fd5b91908203918211611bee57565b60fa820282810460fa1483151715611bee576000808061271081940494611d5e8688611d2a565b9082908215611df4575b6001600160a01b031690f115611dae5780158015611dc3575b5050803411611d8d5750565b60008080611d9c819434611d2a565b818115611dba575b3390f115611dae57565b6040513d6000823e3d90fd5b506108fc611da4565b600080809381936001600160a01b0360015416908390611deb575bf115611dae573880611d81565b506108fc611dde565b6108fc9150611d68565b6001600160a01b03600154163303611e1257565b7f118cdaa7000000000000000000000000000000000000000000000000000000006000523360045260246000fdfea264697066735822122077dc9bdb75637e5ed97efdf53eb7f66797d03d0e4b93c44b850955ec111d672d64736f6c634300081c0033","opcodes":"PUSH1 0x80 CALLVALUE PUSH1 0xCA JUMPI PUSH1 0x1F PUSH2 0x1F5C CODESIZE DUP2 SWAP1 SUB SWAP2 DUP3 ADD PUSH1 0x1F NOT AND DUP4 ADD SWAP2 PUSH1 0x1 PUSH1 0x1 PUSH1 0x40 SHL SUB DUP4 GT DUP5 DUP5 LT OR PUSH1 0xCF JUMPI DUP1 DUP5 SWAP3 PUSH1 0x20 SWAP5 PUSH1 0x40 MSTORE DUP4 CODECOPY DUP2 ADD SUB SLT PUSH1 0xCA JUMPI MLOAD PUSH1 0x1 PUSH1 0x1 PUSH1 0xA0 SHL SUB DUP2 AND SWAP1 DUP2 SWAP1 SUB PUSH1 0xCA JUMPI PUSH1 0x1 PUSH1 0x0 SSTORE DUP1 ISZERO PUSH1 0xB4 JUMPI PUSH1 0x1 DUP1 SLOAD PUSH1 0x1 PUSH1 0x1 PUSH1 0xA0 SHL SUB NOT DUP2 AND DUP4 OR SWAP1 SWAP2 SSTORE PUSH1 0x40 MLOAD SWAP2 SWAP1 PUSH1 0x1 PUSH1 0x1 PUSH1 0xA0 SHL SUB AND PUSH32 0x8BE0079C531659141344CD1FD0A4F28419497F9722A3DAAFE3B4186F6B6457E0 PUSH1 0x0 DUP1 LOG3 PUSH1 0x1 PUSH1 0x2 SSTORE PUSH1 0x1 PUSH1 0x3 SSTORE PUSH2 0x1E76 SWAP1 DUP2 PUSH2 0xE6 DUP3 CODECOPY RETURN JUMPDEST PUSH4 0x1E4FBDF7 PUSH1 0xE0 SHL PUSH1 0x0 MSTORE PUSH1 0x0 PUSH1 0x4 MSTORE PUSH1 0x24 PUSH1 0x0 REVERT JUMPDEST PUSH1 0x0 DUP1 REVERT JUMPDEST PUSH4 0x4E487B71 PUSH1 0xE0 SHL PUSH1 0x0 MSTORE PUSH1 0x41 PUSH1 0x4 MSTORE PUSH1 0x24 PUSH1 0x0 REVERT INVALID PUSH1 0x80 PUSH1 0x40 MSTORE PUSH1 0x4 CALLDATASIZE LT ISZERO PUSH2 0x12 JUMPI PUSH1 0x0 DUP1 REVERT JUMPDEST PUSH1 0x0 DUP1 CALLDATALOAD PUSH1 0xE0 SHR DUP1 PUSH4 0x1796A185 EQ PUSH2 0x172E JUMPI DUP1 PUSH4 0x305A67A8 EQ PUSH2 0x15B3 JUMPI DUP1 PUSH4 0x30A40B6C EQ PUSH2 0x1402 JUMPI DUP1 PUSH4 0x51ED8288 EQ PUSH2 0x1165 JUMPI DUP1 PUSH4 0x715018A6 EQ PUSH2 0x110A JUMPI DUP1 PUSH4 0x78436E01 EQ PUSH2 0x104C JUMPI DUP1 PUSH4 0x7C5180BE EQ PUSH2 0x100A JUMPI DUP1 PUSH4 0x82367B2D EQ PUSH2 0xF33 JUMPI DUP1 PUSH4 0x8DA5CB5B EQ PUSH2 0xF0C JUMPI DUP1 PUSH4 0x9B948994 EQ PUSH2 0xBC6 JUMPI DUP1 PUSH4 0xC316A132 EQ PUSH2 0xA3F JUMPI DUP1 PUSH4 0xDE74E57B EQ PUSH2 0x9D1 JUMPI DUP1 PUSH4 0xF2FDE38B EQ PUSH2 0x931 JUMPI PUSH4 0xFB615906 EQ PUSH2 0xB7 JUMPI PUSH1 0x0 DUP1 REVERT JUMPDEST CALLVALUE PUSH2 0x92E JUMPI PUSH1 0x80 CALLDATASIZE PUSH1 0x3 NOT ADD SLT PUSH2 0x92E JUMPI PUSH2 0xD0 PUSH2 0x19D9 JUMP JUMPDEST PUSH1 0x24 CALLDATALOAD PUSH8 0xFFFFFFFFFFFFFFFF DUP2 GT PUSH2 0x92C JUMPI CALLDATASIZE PUSH1 0x23 DUP3 ADD SLT ISZERO PUSH2 0x92C JUMPI PUSH8 0xFFFFFFFFFFFFFFFF DUP2 PUSH1 0x4 ADD CALLDATALOAD GT PUSH2 0x92C JUMPI PUSH1 0x24 DUP2 PUSH1 0x4 ADD CALLDATALOAD PUSH1 0x5 SHL DUP3 ADD ADD CALLDATASIZE DUP2 GT PUSH2 0x928 JUMPI PUSH1 0x64 CALLDATALOAD SWAP2 PUSH8 0xFFFFFFFFFFFFFFFF DUP4 GT PUSH2 0x924 JUMPI CALLDATASIZE PUSH1 0x23 DUP5 ADD SLT ISZERO PUSH2 0x924 JUMPI PUSH8 0xFFFFFFFFFFFFFFFF DUP4 PUSH1 0x4 ADD CALLDATALOAD GT PUSH2 0x924 JUMPI CALLDATASIZE PUSH1 0x24 DUP5 PUSH1 0x4 ADD CALLDATALOAD DUP6 ADD ADD GT PUSH2 0x924 JUMPI PUSH2 0x15D PUSH2 0x1CEF JUMP JUMPDEST PUSH1 0x1 DUP2 PUSH1 0x4 ADD CALLDATALOAD GT ISZERO PUSH2 0x8E0 JUMPI PUSH1 0x64 DUP2 PUSH1 0x4 ADD CALLDATALOAD GT PUSH2 0x89C JUMPI PUSH1 0x44 CALLDATALOAD ISZERO PUSH2 0x832 JUMPI DUP3 PUSH1 0x4 ADD CALLDATALOAD ISZERO PUSH2 0x7EE JUMPI DUP5 JUMPDEST DUP2 PUSH1 0x4 ADD CALLDATALOAD DUP2 LT PUSH2 0x61D JUMPI POP PUSH1 0x3 SLOAD SWAP2 PUSH2 0x1A3 DUP4 PUSH2 0x1BDF JUMP JUMPDEST PUSH1 0x3 SSTORE PUSH1 0x40 MLOAD SWAP1 PUSH2 0x100 DUP3 ADD DUP3 DUP2 LT PUSH8 0xFFFFFFFFFFFFFFFF DUP3 GT OR PUSH2 0x609 JUMPI PUSH1 0x40 MSTORE DUP4 DUP3 MSTORE DUP5 DUP8 PUSH1 0x20 DUP5 ADD SWAP3 PUSH1 0x1 PUSH1 0x1 PUSH1 0xA0 SHL SUB DUP10 AND DUP5 MSTORE PUSH1 0x40 DUP6 ADD SWAP1 CALLER DUP3 MSTORE PUSH1 0x40 MLOAD SWAP1 PUSH2 0x1FB PUSH1 0x20 DUP10 PUSH1 0x4 ADD CALLDATALOAD PUSH1 0x5 SHL ADD DUP4 PUSH2 0x1A44 JUMP JUMPDEST PUSH1 0x4 DUP9 ADD CALLDATALOAD DUP3 MSTORE PUSH1 0x24 DUP9 ADD PUSH1 0x20 DUP4 ADD JUMPDEST DUP3 DUP3 LT PUSH2 0x5F3 JUMPI POP POP POP PUSH1 0x60 DUP7 ADD SWAP1 DUP2 MSTORE PUSH1 0x1 PUSH1 0x1 PUSH1 0xA0 SHL SUB PUSH1 0x80 DUP8 ADD SWAP3 PUSH1 0x44 CALLDATALOAD DUP5 MSTORE DUP2 PUSH1 0x40 PUSH1 0xA0 DUP11 ADD SWAP7 PUSH1 0x1 DUP9 MSTORE DUP1 PUSH1 0x20 DUP4 MLOAD SWAP11 PUSH2 0x257 DUP3 PUSH1 0x1F NOT PUSH1 0x1F DUP5 PUSH1 0x4 ADD CALLDATALOAD ADD AND ADD DUP14 PUSH2 0x1A44 JUMP JUMPDEST PUSH1 0x4 DUP2 ADD CALLDATALOAD DUP1 DUP14 MSTORE PUSH1 0x24 DUP3 ADD DUP4 DUP15 ADD CALLDATACOPY PUSH1 0x4 ADD CALLDATALOAD DUP12 ADD ADD MSTORE PUSH1 0xC0 DUP12 ADD SWAP9 DUP10 MSTORE PUSH1 0x1 PUSH1 0xE0 DUP13 ADD MSTORE DUP13 DUP2 MSTORE PUSH1 0x5 PUSH1 0x20 MSTORE KECCAK256 SWAP8 DUP10 MLOAD DUP10 SSTORE MLOAD AND DUP3 PUSH1 0x1 DUP10 ADD SWAP2 AND PUSH1 0x1 PUSH1 0x1 PUSH1 0xA0 SHL SUB NOT DUP3 SLOAD AND OR SWAP1 SSTORE MLOAD AND PUSH1 0x1 PUSH1 0x1 PUSH1 0xA0 SHL SUB PUSH1 0x2 DUP8 ADD SWAP2 AND PUSH1 0x1 PUSH1 0x1 PUSH1 0xA0 SHL SUB NOT DUP3 SLOAD AND OR SWAP1 SSTORE MLOAD DUP1 MLOAD SWAP1 PUSH8 0xFFFFFFFFFFFFFFFF DUP3 GT PUSH2 0x5DF JUMPI PUSH9 0x10000000000000000 DUP3 GT PUSH2 0x5DF JUMPI PUSH1 0x20 SWAP1 DUP13 PUSH1 0x3 DUP9 ADD SLOAD DUP5 PUSH1 0x3 DUP11 ADD SSTORE DUP5 DUP2 DUP2 LT PUSH2 0x5C1 JUMPI JUMPDEST POP POP POP ADD PUSH1 0x3 DUP7 ADD DUP13 MSTORE PUSH1 0x20 DUP13 KECCAK256 DUP13 JUMPDEST DUP4 DUP2 LT PUSH2 0x5AD JUMPI POP POP POP POP SWAP1 PUSH2 0x33B SWAP2 MLOAD PUSH1 0x4 DUP6 ADD SSTORE MLOAD ISZERO ISZERO PUSH1 0x5 DUP5 ADD SWAP1 PUSH1 0xFF DUP1 NOT DUP4 SLOAD AND SWAP2 ISZERO ISZERO AND OR SWAP1 SSTORE JUMP JUMPDEST MLOAD DUP1 MLOAD PUSH1 0x6 DUP4 ADD SWAP2 PUSH8 0xFFFFFFFFFFFFFFFF DUP3 GT PUSH2 0x599 JUMPI PUSH2 0x35C DUP4 SLOAD PUSH2 0x1A0A JUMP JUMPDEST PUSH1 0x1F DUP2 GT PUSH2 0x55E JUMPI JUMPDEST POP PUSH1 0x20 SWAP1 PUSH1 0x1F DUP4 GT PUSH1 0x1 EQ PUSH2 0x4F5 JUMPI SWAP2 DUP1 PUSH1 0x7 SWAP5 SWAP3 PUSH1 0xE0 SWAP7 SWAP5 DUP14 SWAP3 PUSH2 0x4EA JUMPI JUMPDEST POP POP DUP2 PUSH1 0x1 SHL SWAP2 PUSH1 0x0 NOT SWAP1 PUSH1 0x3 SHL SHR NOT AND OR SWAP1 SSTORE JUMPDEST ADD SWAP2 ADD MLOAD PUSH1 0x2 DUP2 LT ISZERO PUSH2 0x4D6 JUMPI PUSH1 0xFF DUP1 NOT DUP4 SLOAD AND SWAP2 AND OR SWAP1 SSTORE DUP5 JUMPDEST DUP2 PUSH1 0x4 ADD CALLDATALOAD DUP2 LT PUSH2 0x49A JUMPI POP PUSH1 0x40 MLOAD PUSH1 0x60 DUP2 MSTORE DUP2 PUSH1 0x4 ADD CALLDATALOAD PUSH1 0x60 DUP3 ADD MSTORE PUSH32 0x7FFFFFFFFFFFFFFFFFFFFFFFFFFFFFFFFFFFFFFFFFFFFFFFFFFFFFFFFFFFFFF DUP3 PUSH1 0x4 ADD CALLDATALOAD GT PUSH2 0x496 JUMPI PUSH1 0x20 DUP2 PUSH1 0x80 DUP5 PUSH32 0xF62A26216DB7058F6F783FD8278DCE1204C87B0F2B394A415D7B24C70561E7D8 SWAP6 PUSH1 0x4 ADD CALLDATALOAD PUSH1 0x5 SHL PUSH1 0x24 DUP3 ADD DUP4 DUP6 ADD CALLDATACOPY PUSH1 0x4 ADD CALLDATALOAD PUSH1 0x5 SHL DUP3 ADD PUSH1 0x44 CALLDATALOAD DUP5 DUP5 ADD MSTORE DUP2 DUP4 DUP3 SUB ADD PUSH1 0x40 DUP5 ADD MSTORE DUP8 PUSH1 0x4 ADD CALLDATALOAD DUP3 DUP3 ADD MSTORE DUP8 PUSH1 0x4 ADD CALLDATALOAD PUSH1 0x24 DUP10 ADD PUSH1 0xA0 DUP4 ADD CALLDATACOPY DUP10 DUP5 DUP4 DUP11 PUSH1 0x4 ADD CALLDATALOAD DUP5 ADD ADD ADD MSTORE PUSH1 0x1 PUSH1 0x1 PUSH1 0xA0 SHL SUB CALLER SWAP10 AND SWAP8 PUSH1 0x1F DUP1 NOT SWAP2 PUSH1 0x4 ADD CALLDATALOAD ADD AND ADD ADD SUB ADD SWAP1 LOG4 PUSH1 0x1 DUP2 SSTORE DUP1 RETURN JUMPDEST DUP6 DUP1 REVERT JUMPDEST PUSH1 0x1 SWAP1 PUSH1 0x1 PUSH1 0x1 PUSH1 0xA0 SHL SUB DUP7 AND DUP8 MSTORE PUSH1 0x6 PUSH1 0x20 MSTORE PUSH1 0x40 DUP8 KECCAK256 PUSH2 0x4C4 DUP3 DUP6 PUSH1 0x4 ADD CALLDATALOAD PUSH1 0x24 DUP8 ADD PUSH2 0x1CC8 JUMP JUMPDEST CALLDATALOAD DUP9 MSTORE PUSH1 0x20 MSTORE DUP4 PUSH1 0x40 DUP9 KECCAK256 SSTORE ADD PUSH2 0x3B5 JUMP JUMPDEST PUSH1 0x24 DUP8 PUSH4 0x4E487B71 PUSH1 0xE0 SHL DUP2 MSTORE PUSH1 0x21 PUSH1 0x4 MSTORE REVERT JUMPDEST ADD MLOAD SWAP1 POP CODESIZE DUP1 PUSH2 0x385 JUMP JUMPDEST DUP4 DUP12 MSTORE DUP2 DUP12 KECCAK256 SWAP2 SWAP1 PUSH1 0x1F NOT DUP5 AND DUP13 JUMPDEST DUP2 DUP2 LT PUSH2 0x546 JUMPI POP SWAP3 PUSH1 0x1 SWAP3 DUP6 SWAP3 PUSH1 0xE0 SWAP9 SWAP7 PUSH1 0x7 SWAP9 SWAP7 LT PUSH2 0x52D JUMPI JUMPDEST POP POP POP DUP2 SHL ADD SWAP1 SSTORE PUSH2 0x39A JUMP JUMPDEST ADD MLOAD PUSH1 0x0 NOT PUSH1 0xF8 DUP5 PUSH1 0x3 SHL AND SHR NOT AND SWAP1 SSTORE CODESIZE DUP1 DUP1 PUSH2 0x520 JUMP JUMPDEST SWAP3 SWAP4 PUSH1 0x20 PUSH1 0x1 DUP2 SWAP3 DUP8 DUP7 ADD MLOAD DUP2 SSTORE ADD SWAP6 ADD SWAP4 ADD PUSH2 0x504 JUMP JUMPDEST PUSH2 0x589 SWAP1 DUP5 DUP13 MSTORE PUSH1 0x20 DUP13 KECCAK256 PUSH1 0x1F DUP6 ADD PUSH1 0x5 SHR DUP2 ADD SWAP2 PUSH1 0x20 DUP7 LT PUSH2 0x58F JUMPI JUMPDEST PUSH1 0x1F ADD PUSH1 0x5 SHR ADD SWAP1 PUSH2 0x1CD8 JUMP JUMPDEST CODESIZE PUSH2 0x365 JUMP JUMPDEST SWAP1 SWAP2 POP DUP2 SWAP1 PUSH2 0x57C JUMP JUMPDEST PUSH1 0x24 DUP11 PUSH4 0x4E487B71 PUSH1 0xE0 SHL DUP2 MSTORE PUSH1 0x41 PUSH1 0x4 MSTORE REVERT JUMPDEST PUSH1 0x1 SWAP1 PUSH1 0x20 DUP5 MLOAD SWAP5 ADD SWAP4 DUP2 DUP5 ADD SSTORE ADD PUSH2 0x30D JUMP JUMPDEST DUP5 PUSH2 0x5D7 SWAP4 PUSH1 0x3 DUP13 ADD DUP2 MSTORE KECCAK256 SWAP2 DUP3 ADD SWAP2 ADD PUSH2 0x1CD8 JUMP JUMPDEST DUP13 CODESIZE DUP5 PUSH2 0x2FD JUMP JUMPDEST PUSH1 0x24 DUP13 PUSH4 0x4E487B71 PUSH1 0xE0 SHL DUP2 MSTORE PUSH1 0x41 PUSH1 0x4 MSTORE REVERT JUMPDEST DUP2 CALLDATALOAD DUP2 MSTORE DUP12 SWAP7 POP DUP14 SWAP6 POP PUSH1 0x20 SWAP2 DUP3 ADD SWAP2 ADD PUSH2 0x20B JUMP JUMPDEST PUSH1 0x24 DUP9 PUSH4 0x4E487B71 PUSH1 0xE0 SHL DUP2 MSTORE PUSH1 0x41 PUSH1 0x4 MSTORE REVERT JUMPDEST PUSH2 0x62F DUP2 DUP4 PUSH1 0x4 ADD CALLDATALOAD PUSH1 0x24 DUP6 ADD PUSH2 0x1CC8 JUMP JUMPDEST CALLDATALOAD PUSH1 0x40 MLOAD SWAP1 PUSH4 0x31A9108F PUSH1 0xE1 SHL DUP3 MSTORE PUSH1 0x4 DUP3 ADD MSTORE PUSH1 0x20 DUP2 PUSH1 0x24 DUP2 PUSH1 0x1 PUSH1 0x1 PUSH1 0xA0 SHL SUB DUP11 AND GAS STATICCALL DUP1 ISZERO PUSH2 0x797 JUMPI PUSH2 0x677 SWAP2 DUP9 SWAP2 PUSH2 0x7D0 JUMPI JUMPDEST POP PUSH1 0x1 PUSH1 0x1 PUSH1 0xA0 SHL SUB AND CALLER EQ PUSH2 0x1AE6 JUMP JUMPDEST PUSH1 0x1 PUSH1 0x1 PUSH1 0xA0 SHL SUB DUP6 AND DUP7 MSTORE PUSH1 0x6 PUSH1 0x20 MSTORE PUSH1 0x40 DUP7 KECCAK256 PUSH2 0x69E DUP3 DUP5 PUSH1 0x4 ADD CALLDATALOAD PUSH1 0x24 DUP7 ADD PUSH2 0x1CC8 JUMP JUMPDEST CALLDATALOAD DUP8 MSTORE PUSH1 0x20 MSTORE PUSH2 0x6B2 PUSH1 0x40 DUP8 KECCAK256 SLOAD ISZERO PUSH2 0x1B31 JUMP JUMPDEST PUSH1 0x40 MLOAD PUSH4 0xE985E9C5 PUSH1 0xE0 SHL DUP2 MSTORE CALLER PUSH1 0x4 DUP3 ADD MSTORE ADDRESS PUSH1 0x24 DUP3 ADD MSTORE PUSH1 0x20 DUP2 PUSH1 0x44 DUP2 PUSH1 0x1 PUSH1 0x1 PUSH1 0xA0 SHL SUB DUP11 AND GAS STATICCALL SWAP1 DUP2 ISZERO PUSH2 0x797 JUMPI DUP8 SWAP2 PUSH2 0x7A2 JUMPI JUMPDEST POP DUP1 ISZERO PUSH2 0x705 JUMPI JUMPDEST SWAP1 PUSH2 0x6FF PUSH1 0x1 SWAP3 PUSH2 0x1B94 JUMP JUMPDEST ADD PUSH2 0x18A JUMP JUMPDEST POP PUSH2 0x718 DUP2 DUP4 PUSH1 0x4 ADD CALLDATALOAD PUSH1 0x24 DUP6 ADD PUSH2 0x1CC8 JUMP JUMPDEST CALLDATALOAD SWAP1 PUSH1 0x40 MLOAD SWAP2 PUSH4 0x20604BF PUSH1 0xE2 SHL DUP4 MSTORE PUSH1 0x4 DUP4 ADD MSTORE PUSH1 0x20 DUP3 PUSH1 0x24 DUP2 PUSH1 0x1 PUSH1 0x1 PUSH1 0xA0 SHL SUB DUP11 AND GAS STATICCALL SWAP2 DUP3 ISZERO PUSH2 0x797 JUMPI PUSH1 0x1 SWAP3 PUSH2 0x6FF SWAP2 DUP10 SWAP2 PUSH2 0x769 JUMPI JUMPDEST POP SWAP2 SWAP3 POP POP PUSH1 0x1 PUSH1 0x1 PUSH1 0xA0 SHL SUB AND ADDRESS EQ PUSH2 0x6F3 JUMP JUMPDEST PUSH2 0x78A SWAP2 POP PUSH1 0x20 RETURNDATASIZE DUP2 GT PUSH2 0x790 JUMPI JUMPDEST PUSH2 0x782 DUP2 DUP4 PUSH2 0x1A44 JUMP JUMPDEST DUP2 ADD SWAP1 PUSH2 0x1AC7 JUMP JUMPDEST CODESIZE PUSH2 0x754 JUMP JUMPDEST POP RETURNDATASIZE PUSH2 0x778 JUMP JUMPDEST PUSH1 0x40 MLOAD RETURNDATASIZE DUP10 DUP3 RETURNDATACOPY RETURNDATASIZE SWAP1 REVERT JUMPDEST PUSH2 0x7C3 SWAP2 POP PUSH1 0x20 RETURNDATASIZE DUP2 GT PUSH2 0x7C9 JUMPI JUMPDEST PUSH2 0x7BB DUP2 DUP4 PUSH2 0x1A44 JUMP JUMPDEST DUP2 ADD SWAP1 PUSH2 0x1B7C JUMP JUMPDEST CODESIZE PUSH2 0x6EB JUMP JUMPDEST POP RETURNDATASIZE PUSH2 0x7B1 JUMP JUMPDEST PUSH2 0x7E8 SWAP2 POP PUSH1 0x20 RETURNDATASIZE DUP2 GT PUSH2 0x790 JUMPI PUSH2 0x782 DUP2 DUP4 PUSH2 0x1A44 JUMP JUMPDEST CODESIZE PUSH2 0x666 JUMP JUMPDEST PUSH1 0x64 PUSH1 0x40 MLOAD PUSH3 0x461BCD PUSH1 0xE5 SHL DUP2 MSTORE PUSH1 0x20 PUSH1 0x4 DUP3 ADD MSTORE PUSH1 0x18 PUSH1 0x24 DUP3 ADD MSTORE PUSH32 0x436F6C6C656374696F6E206E616D652072657175697265640000000000000000 PUSH1 0x44 DUP3 ADD MSTORE REVERT JUMPDEST PUSH1 0x84 PUSH1 0x40 MLOAD PUSH3 0x461BCD PUSH1 0xE5 SHL DUP2 MSTORE PUSH1 0x20 PUSH1 0x4 DUP3 ADD MSTORE PUSH1 0x23 PUSH1 0x24 DUP3 ADD MSTORE PUSH32 0x42756E646C65207072696365206D757374206265206772656174657220746861 PUSH1 0x44 DUP3 ADD MSTORE PUSH32 0x6E20300000000000000000000000000000000000000000000000000000000000 PUSH1 0x64 DUP3 ADD MSTORE REVERT JUMPDEST PUSH1 0x64 PUSH1 0x40 MLOAD PUSH3 0x461BCD PUSH1 0xE5 SHL DUP2 MSTORE PUSH1 0x20 PUSH1 0x4 DUP3 ADD MSTORE PUSH1 0x14 PUSH1 0x24 DUP3 ADD MSTORE PUSH32 0x436F6C6C656374696F6E20746F6F206C61726765000000000000000000000000 PUSH1 0x44 DUP3 ADD MSTORE REVERT JUMPDEST PUSH1 0x64 PUSH1 0x40 MLOAD PUSH3 0x461BCD PUSH1 0xE5 SHL DUP2 MSTORE PUSH1 0x20 PUSH1 0x4 DUP3 ADD MSTORE PUSH1 0x20 PUSH1 0x24 DUP3 ADD MSTORE PUSH32 0x42756E646C65206D7573742068617665206174206C656173742032204E465473 PUSH1 0x44 DUP3 ADD MSTORE REVERT JUMPDEST DUP5 DUP1 REVERT JUMPDEST DUP4 DUP1 REVERT JUMPDEST DUP3 JUMPDEST DUP1 REVERT JUMPDEST POP CALLVALUE PUSH2 0x92E JUMPI PUSH1 0x20 CALLDATASIZE PUSH1 0x3 NOT ADD SLT PUSH2 0x92E JUMPI PUSH1 0x1 PUSH1 0x1 PUSH1 0xA0 SHL SUB PUSH2 0x953 PUSH2 0x19D9 JUMP JUMPDEST PUSH2 0x95B PUSH2 0x1DFE JUMP JUMPDEST AND DUP1 ISZERO PUSH2 0x9A5 JUMPI PUSH1 0x1 PUSH1 0x1 PUSH1 0xA0 SHL SUB PUSH1 0x1 SLOAD DUP3 PUSH1 0x1 PUSH1 0x1 PUSH1 0xA0 SHL SUB NOT DUP3 AND OR PUSH1 0x1 SSTORE AND PUSH32 0x8BE0079C531659141344CD1FD0A4F28419497F9722A3DAAFE3B4186F6B6457E0 DUP4 DUP1 LOG3 DUP1 RETURN JUMPDEST PUSH1 0x24 DUP3 PUSH32 0x1E4FBDF700000000000000000000000000000000000000000000000000000000 DUP2 MSTORE DUP1 PUSH1 0x4 MSTORE REVERT JUMPDEST POP CALLVALUE PUSH2 0x92E JUMPI PUSH1 0x20 CALLDATASIZE PUSH1 0x3 NOT ADD SLT PUSH2 0x92E JUMPI PUSH1 0x40 PUSH1 0xA0 SWAP2 PUSH1 0x4 CALLDATALOAD DUP2 MSTORE PUSH1 0x4 PUSH1 0x20 MSTORE KECCAK256 DUP1 SLOAD SWAP1 PUSH1 0x1 PUSH1 0x1 PUSH1 0xA0 SHL SUB PUSH1 0x1 DUP3 ADD SLOAD AND SWAP1 PUSH1 0x1 PUSH1 0x1 PUSH1 0xA0 SHL SUB PUSH1 0x2 DUP3 ADD SLOAD AND PUSH1 0xFF PUSH1 0x4 PUSH1 0x3 DUP5 ADD SLOAD SWAP4 ADD SLOAD AND SWAP3 PUSH1 0x40 MLOAD SWAP5 DUP6 MSTORE PUSH1 0x20 DUP6 ADD MSTORE PUSH1 0x40 DUP5 ADD MSTORE PUSH1 0x60 DUP4 ADD MSTORE ISZERO ISZERO PUSH1 0x80 DUP3 ADD MSTORE RETURN JUMPDEST POP CALLVALUE PUSH2 0x92E JUMPI PUSH1 0x20 CALLDATASIZE PUSH1 0x3 NOT ADD SLT PUSH2 0x92E JUMPI PUSH1 0x4 CALLDATALOAD DUP2 MSTORE PUSH1 0x5 PUSH1 0x20 MSTORE PUSH1 0x40 DUP2 KECCAK256 DUP1 SLOAD SWAP2 PUSH1 0x1 PUSH1 0x1 PUSH1 0xA0 SHL SUB PUSH1 0x1 DUP4 ADD SLOAD AND SWAP1 PUSH1 0x1 PUSH1 0x1 PUSH1 0xA0 SHL SUB PUSH1 0x2 DUP5 ADD SLOAD AND PUSH1 0x4 DUP5 ADD SLOAD PUSH1 0xFF PUSH1 0x5 DUP7 ADD SLOAD AND SWAP2 PUSH1 0x6 DUP7 ADD SWAP6 PUSH1 0x40 MLOAD DUP1 SWAP8 DUP7 SWAP1 DUP1 SLOAD SWAP1 PUSH2 0xAA5 DUP3 PUSH2 0x1A0A JUMP JUMPDEST DUP1 DUP6 MSTORE SWAP2 PUSH1 0x1 DUP2 AND SWAP1 DUP2 ISZERO PUSH2 0xB9E JUMPI POP PUSH1 0x1 EQ PUSH2 0xB61 JUMPI JUMPDEST POP POP SWAP2 PUSH2 0xAD0 PUSH1 0x7 SWAP3 PUSH1 0xFF SWAP5 SUB DUP11 PUSH2 0x1A44 JUMP JUMPDEST ADD SLOAD AND SWAP5 PUSH1 0x40 MLOAD SWAP8 DUP9 MSTORE PUSH1 0x20 DUP9 ADD MSTORE PUSH1 0x40 DUP8 ADD MSTORE PUSH1 0x60 DUP7 ADD MSTORE ISZERO ISZERO PUSH1 0x80 DUP6 ADD MSTORE PUSH1 0xE0 PUSH1 0xA0 DUP6 ADD MSTORE DUP3 MLOAD SWAP3 DUP4 PUSH1 0xE0 DUP7 ADD MSTORE DUP2 JUMPDEST DUP5 DUP2 LT PUSH2 0xB4A JUMPI POP POP DUP1 PUSH2 0x100 DUP5 DUP7 ADD ADD MSTORE PUSH1 0x2 DUP3 LT ISZERO PUSH2 0xB36 JUMPI POP PUSH1 0xC0 DUP4 ADD MSTORE PUSH1 0x1F ADD PUSH1 0x1F NOT AND DUP2 ADD DUP2 SWAP1 SUB PUSH2 0x100 ADD SWAP1 RETURN JUMPDEST DUP1 PUSH4 0x4E487B71 PUSH1 0xE0 SHL PUSH1 0x24 SWAP3 MSTORE PUSH1 0x21 PUSH1 0x4 MSTORE REVERT JUMPDEST DUP1 PUSH1 0x20 DUP1 SWAP3 DUP5 ADD ADD MLOAD PUSH2 0x100 DUP3 DUP10 ADD ADD MSTORE ADD PUSH2 0xB02 JUMP JUMPDEST DUP9 MSTORE PUSH1 0x20 DUP9 KECCAK256 DUP9 SWAP3 POP JUMPDEST DUP2 DUP4 LT PUSH2 0xB83 JUMPI POP POP DUP2 ADD PUSH1 0x20 ADD PUSH2 0xAD0 PUSH1 0x7 PUSH2 0xABD JUMP JUMPDEST DUP1 PUSH1 0x20 SWAP3 SWAP5 DUP4 DUP6 PUSH1 0x1 SWAP5 SLOAD SWAP3 ADD ADD MSTORE ADD SWAP2 ADD SWAP1 SWAP2 DUP10 SWAP3 PUSH2 0xB6B JUMP JUMPDEST PUSH1 0xFF NOT AND PUSH1 0x20 DUP1 DUP8 ADD SWAP2 SWAP1 SWAP2 MSTORE SWAP3 ISZERO ISZERO PUSH1 0x5 SHL DUP6 ADD SWAP1 SWAP3 ADD SWAP3 POP PUSH2 0xAD0 SWAP2 POP PUSH1 0x7 SWAP1 POP PUSH2 0xABD JUMP JUMPDEST POP PUSH1 0x20 CALLDATASIZE PUSH1 0x3 NOT ADD SLT PUSH2 0x92E JUMPI PUSH1 0x4 CALLDATALOAD PUSH2 0xBDE PUSH2 0x1CEF JUMP JUMPDEST DUP1 DUP3 MSTORE PUSH1 0x5 PUSH1 0x20 MSTORE PUSH1 0x40 DUP3 KECCAK256 SWAP2 PUSH1 0x5 DUP4 ADD DUP1 SLOAD SWAP1 PUSH1 0xFF DUP3 AND ISZERO PUSH2 0xEC8 JUMPI PUSH1 0x4 DUP6 ADD DUP1 SLOAD PUSH2 0xC0D DUP2 CALLVALUE LT ISZERO PUSH2 0x1C32 JUMP JUMPDEST PUSH1 0x2 DUP8 ADD SWAP3 PUSH1 0x1 PUSH1 0x1 PUSH1 0xA0 SHL SUB DUP5 SLOAD AND SWAP1 DUP2 CALLER EQ PUSH2 0xE84 JUMPI DUP7 SWAP9 SWAP6 PUSH1 0x3 DUP8 ADD SWAP7 PUSH1 0x1 DUP9 SLOAD SWAP2 ADD SWAP11 PUSH1 0x1 PUSH1 0x1 PUSH1 0xA0 SHL SUB DUP13 SLOAD AND SWAP1 JUMPDEST DUP3 DUP2 LT PUSH2 0xDC2 JUMPI POP POP POP PUSH1 0xFF NOT AND SWAP1 SSTORE PUSH2 0xC5B SWAP2 SWAP1 PUSH2 0x1D37 JUMP JUMPDEST DUP4 JUMPDEST DUP4 SLOAD DUP2 LT ISZERO PUSH2 0xD3E JUMPI PUSH1 0x1 PUSH1 0x1 PUSH1 0xA0 SHL SUB DUP8 SLOAD AND PUSH1 0x1 PUSH1 0x1 PUSH1 0xA0 SHL SUB DUP5 SLOAD AND SWAP1 PUSH2 0xC87 DUP4 DUP8 PUSH2 0x1C04 JUMP JUMPDEST SWAP1 SLOAD SWAP1 PUSH1 0x3 SHL SHR SWAP2 DUP2 EXTCODESIZE ISZERO PUSH2 0xD3A JUMPI PUSH1 0x40 MLOAD PUSH4 0x21421707 PUSH1 0xE1 SHL DUP2 MSTORE PUSH1 0x1 PUSH1 0x1 PUSH1 0xA0 SHL SUB SWAP2 SWAP1 SWAP2 AND PUSH1 0x4 DUP3 ADD MSTORE CALLER PUSH1 0x24 DUP3 ADD MSTORE PUSH1 0x44 DUP2 ADD SWAP3 SWAP1 SWAP3 MSTORE DUP7 SWAP1 DUP3 SWAP1 PUSH1 0x64 SWAP1 DUP3 SWAP1 DUP5 SWAP1 GAS CALL DUP1 ISZERO PUSH2 0xD2F JUMPI SWAP1 DUP7 SWAP2 PUSH2 0xD1A JUMPI JUMPDEST POP POP PUSH1 0x1 SWAP1 PUSH1 0x1 PUSH1 0x1 PUSH1 0xA0 SHL SUB DUP9 SLOAD AND DUP7 MSTORE PUSH1 0x6 PUSH1 0x20 MSTORE PUSH1 0x40 DUP7 KECCAK256 PUSH2 0xD02 DUP3 DUP8 PUSH2 0x1C04 JUMP JUMPDEST SWAP1 SLOAD SWAP1 PUSH1 0x3 SHL SHR DUP8 MSTORE PUSH1 0x20 MSTORE DUP6 PUSH1 0x40 DUP2 KECCAK256 SSTORE ADD PUSH2 0xC5D JUMP JUMPDEST DUP2 PUSH2 0xD24 SWAP2 PUSH2 0x1A44 JUMP JUMPDEST PUSH2 0x924 JUMPI DUP5 CODESIZE PUSH2 0xCDD JUMP JUMPDEST PUSH1 0x40 MLOAD RETURNDATASIZE DUP9 DUP3 RETURNDATACOPY RETURNDATASIZE SWAP1 REVERT JUMPDEST DUP8 DUP1 REVERT JUMPDEST POP SWAP1 PUSH1 0x1 PUSH1 0x1 PUSH1 0xA0 SHL SUB DUP6 SWAP2 SLOAD AND SWAP2 SLOAD PUSH1 0x40 MLOAD SWAP1 PUSH1 0x40 DUP3 ADD PUSH1 0x40 DUP4 MSTORE DUP6 SLOAD DUP1 SWAP2 MSTORE PUSH1 0x60 DUP4 ADD SWAP6 DUP8 MSTORE PUSH1 0x20 DUP8 KECCAK256 SWAP1 DUP8 JUMPDEST DUP2 DUP2 LT PUSH2 0xDAC JUMPI POP POP POP SWAP1 PUSH32 0x7067EC4D74ACF8B7A0C7016B4C760807811B23974808EE0B444E7318862DF6FE SWAP2 PUSH1 0x20 DUP3 ADD MSTORE DUP1 CALLER SWAP6 SUB SWAP1 LOG4 PUSH1 0x1 DUP2 SSTORE DUP1 RETURN JUMPDEST DUP3 SLOAD DUP9 MSTORE PUSH1 0x20 SWAP1 SWAP8 ADD SWAP7 PUSH1 0x1 SWAP3 DUP4 ADD SWAP3 ADD PUSH2 0xD6D JUMP JUMPDEST PUSH2 0xDCC DUP2 DUP12 PUSH2 0x1C04 JUMP JUMPDEST SWAP1 SLOAD SWAP1 PUSH1 0x3 SHL SHR PUSH1 0x40 MLOAD SWAP1 PUSH4 0x31A9108F PUSH1 0xE1 SHL DUP3 MSTORE PUSH1 0x4 DUP3 ADD MSTORE PUSH1 0x20 DUP2 PUSH1 0x24 DUP2 DUP7 GAS STATICCALL SWAP1 DUP2 ISZERO PUSH2 0xE79 JUMPI DUP8 SWAP2 PUSH1 0x1 PUSH1 0x1 PUSH1 0xA0 SHL SUB SWAP2 DUP15 SWAP2 PUSH2 0xE5B JUMPI JUMPDEST POP AND SUB PUSH2 0xE17 JUMPI PUSH1 0x1 ADD PUSH2 0xC41 JUMP JUMPDEST PUSH1 0x64 PUSH1 0x40 MLOAD PUSH3 0x461BCD PUSH1 0xE5 SHL DUP2 MSTORE PUSH1 0x20 PUSH1 0x4 DUP3 ADD MSTORE PUSH1 0x1E PUSH1 0x24 DUP3 ADD MSTORE PUSH32 0x53656C6C6572206E6F206C6F6E676572206F776E7320616C6C204E4654730000 PUSH1 0x44 DUP3 ADD MSTORE REVERT JUMPDEST PUSH2 0xE73 SWAP2 POP PUSH1 0x20 RETURNDATASIZE DUP2 GT PUSH2 0x790 JUMPI PUSH2 0x782 DUP2 DUP4 PUSH2 0x1A44 JUMP JUMPDEST CODESIZE PUSH2 0xE08 JUMP JUMPDEST PUSH1 0x40 MLOAD RETURNDATASIZE DUP15 DUP3 RETURNDATACOPY RETURNDATASIZE SWAP1 REVERT JUMPDEST PUSH1 0x64 PUSH1 0x40 MLOAD PUSH3 0x461BCD PUSH1 0xE5 SHL DUP2 MSTORE PUSH1 0x20 PUSH1 0x4 DUP3 ADD MSTORE PUSH1 0x1E PUSH1 0x24 DUP3 ADD MSTORE PUSH32 0x43616E6E6F742062757920796F7572206F776E20636F6C6C656374696F6E0000 PUSH1 0x44 DUP3 ADD MSTORE REVERT JUMPDEST PUSH1 0x64 PUSH1 0x40 MLOAD PUSH3 0x461BCD PUSH1 0xE5 SHL DUP2 MSTORE PUSH1 0x20 PUSH1 0x4 DUP3 ADD MSTORE PUSH1 0x18 PUSH1 0x24 DUP3 ADD MSTORE PUSH32 0x436F6C6C656374696F6E206973206E6F74206163746976650000000000000000 PUSH1 0x44 DUP3 ADD MSTORE REVERT JUMPDEST POP CALLVALUE PUSH2 0x92E JUMPI DUP1 PUSH1 0x3 NOT CALLDATASIZE ADD SLT PUSH2 0x92E JUMPI PUSH1 0x20 PUSH1 0x1 PUSH1 0x1 PUSH1 0xA0 SHL SUB PUSH1 0x1 SLOAD AND PUSH1 0x40 MLOAD SWAP1 DUP2 MSTORE RETURN JUMPDEST POP CALLVALUE PUSH2 0x92E JUMPI PUSH2 0xF42 CALLDATASIZE PUSH2 0x19F4 JUMP JUMPDEST PUSH2 0xF4A PUSH2 0x1CEF JUMP JUMPDEST DUP2 DUP4 MSTORE PUSH1 0x4 PUSH1 0x20 MSTORE PUSH1 0x40 DUP4 KECCAK256 PUSH2 0xF6E PUSH1 0x1 PUSH1 0x1 PUSH1 0xA0 SHL SUB PUSH1 0x2 DUP4 ADD SLOAD AND CALLER EQ PUSH2 0x1C7D JUMP JUMPDEST PUSH1 0xFF PUSH1 0x4 DUP3 ADD SLOAD AND ISZERO PUSH2 0xFC6 JUMPI DUP2 PUSH1 0x3 PUSH1 0x40 SWAP3 PUSH2 0xFAD PUSH32 0x15819DD2FD9F6418B142E798D08A18D0BF06EA368F4480B7B0D3F75BD966BC48 SWAP6 ISZERO ISZERO PUSH2 0x1A7C JUMP JUMPDEST ADD SWAP1 DUP1 DUP3 SLOAD SWAP3 SSTORE DUP3 MLOAD SWAP2 DUP3 MSTORE PUSH1 0x20 DUP3 ADD MSTORE LOG2 PUSH1 0x1 DUP2 SSTORE DUP1 RETURN JUMPDEST PUSH1 0x64 PUSH1 0x40 MLOAD PUSH3 0x461BCD PUSH1 0xE5 SHL DUP2 MSTORE PUSH1 0x20 PUSH1 0x4 DUP3 ADD MSTORE PUSH1 0x12 PUSH1 0x24 DUP3 ADD MSTORE PUSH32 0x4C697374696E67206E6F74206163746976650000000000000000000000000000 PUSH1 0x44 DUP3 ADD MSTORE REVERT JUMPDEST POP CALLVALUE PUSH2 0x92E JUMPI PUSH1 0x40 CALLDATASIZE PUSH1 0x3 NOT ADD SLT PUSH2 0x92E JUMPI PUSH1 0x40 PUSH1 0x20 SWAP2 PUSH1 0x1 PUSH1 0x1 PUSH1 0xA0 SHL SUB PUSH2 0x1031 PUSH2 0x19D9 JUMP JUMPDEST AND DUP2 MSTORE PUSH1 0x6 DUP4 MSTORE DUP2 DUP2 KECCAK256 PUSH1 0x24 CALLDATALOAD DUP3 MSTORE DUP4 MSTORE KECCAK256 SLOAD PUSH1 0x40 MLOAD SWAP1 DUP2 MSTORE RETURN JUMPDEST POP CALLVALUE PUSH2 0x92E JUMPI PUSH2 0x105B CALLDATASIZE PUSH2 0x19F4 JUMP JUMPDEST PUSH2 0x1063 PUSH2 0x1CEF JUMP JUMPDEST DUP2 DUP4 MSTORE PUSH1 0x5 PUSH1 0x20 MSTORE PUSH1 0x40 DUP4 KECCAK256 PUSH2 0x1087 PUSH1 0x1 PUSH1 0x1 PUSH1 0xA0 SHL SUB PUSH1 0x2 DUP4 ADD SLOAD AND CALLER EQ PUSH2 0x1C7D JUMP JUMPDEST PUSH1 0xFF PUSH1 0x5 DUP3 ADD SLOAD AND ISZERO PUSH2 0x10C6 JUMPI DUP2 PUSH1 0x4 PUSH1 0x40 SWAP3 PUSH2 0xFAD PUSH32 0x72DE6A1593EB666E4946662C2C658C367EAE1EEF89ECC7124BD6E30F66F646A7 SWAP6 ISZERO ISZERO PUSH2 0x1A7C JUMP JUMPDEST PUSH1 0x64 PUSH1 0x40 MLOAD PUSH3 0x461BCD PUSH1 0xE5 SHL DUP2 MSTORE PUSH1 0x20 PUSH1 0x4 DUP3 ADD MSTORE PUSH1 0x15 PUSH1 0x24 DUP3 ADD MSTORE PUSH32 0x436F6C6C656374696F6E206E6F74206163746976650000000000000000000000 PUSH1 0x44 DUP3 ADD MSTORE REVERT JUMPDEST POP CALLVALUE PUSH2 0x92E JUMPI DUP1 PUSH1 0x3 NOT CALLDATASIZE ADD SLT PUSH2 0x92E JUMPI PUSH2 0x1123 PUSH2 0x1DFE JUMP JUMPDEST DUP1 PUSH1 0x1 PUSH1 0x1 PUSH1 0xA0 SHL SUB PUSH1 0x1 SLOAD PUSH1 0x1 PUSH1 0x1 PUSH1 0xA0 SHL SUB NOT DUP2 AND PUSH1 0x1 SSTORE AND PUSH32 0x8BE0079C531659141344CD1FD0A4F28419497F9722A3DAAFE3B4186F6B6457E0 DUP3 DUP1 LOG3 DUP1 RETURN JUMPDEST POP PUSH1 0x20 CALLDATASIZE PUSH1 0x3 NOT ADD SLT PUSH2 0x92E JUMPI PUSH1 0x4 CALLDATALOAD PUSH2 0x117D PUSH2 0x1CEF JUMP JUMPDEST DUP1 DUP3 MSTORE PUSH1 0x4 PUSH1 0x20 MSTORE PUSH1 0x40 DUP3 KECCAK256 PUSH1 0x4 DUP2 ADD SWAP1 DUP2 SLOAD SWAP1 PUSH1 0xFF DUP3 AND ISZERO PUSH2 0x13BE JUMPI PUSH1 0x3 DUP2 ADD SWAP3 DUP4 SLOAD SWAP3 PUSH2 0x11AE DUP5 CALLVALUE LT ISZERO PUSH2 0x1C32 JUMP JUMPDEST PUSH1 0x2 DUP4 ADD SWAP4 PUSH1 0x1 PUSH1 0x1 PUSH1 0xA0 SHL SUB DUP6 SLOAD AND DUP1 CALLER EQ PUSH2 0x137A JUMPI PUSH1 0x1 DUP6 ADD SWAP4 PUSH1 0x1 PUSH1 0x1 PUSH1 0xA0 SHL SUB DUP6 SLOAD AND PUSH1 0x20 DUP8 SLOAD PUSH1 0x24 PUSH1 0x40 MLOAD DUP1 SWAP5 DUP2 SWAP4 PUSH4 0x31A9108F PUSH1 0xE1 SHL DUP4 MSTORE PUSH1 0x4 DUP4 ADD MSTORE GAS STATICCALL SWAP1 DUP2 ISZERO PUSH2 0x136F JUMPI DUP4 SWAP2 PUSH1 0x1 PUSH1 0x1 PUSH1 0xA0 SHL SUB SWAP2 DUP14 SWAP2 PUSH2 0x1350 JUMPI JUMPDEST POP AND SUB PUSH2 0x130C JUMPI PUSH2 0x1222 SWAP4 PUSH1 0xFF NOT AND SWAP1 SSTORE PUSH2 0x1D37 JUMP JUMPDEST PUSH1 0x1 PUSH1 0x1 PUSH1 0xA0 SHL SUB DUP2 SLOAD AND DUP7 PUSH1 0x1 PUSH1 0x1 PUSH1 0xA0 SHL SUB DUP6 SLOAD AND SWAP2 DUP5 SLOAD SWAP1 DUP1 EXTCODESIZE ISZERO PUSH2 0x92C JUMPI PUSH1 0x40 MLOAD PUSH4 0x21421707 PUSH1 0xE1 SHL DUP2 MSTORE PUSH1 0x1 PUSH1 0x1 PUSH1 0xA0 SHL SUB SWAP5 SWAP1 SWAP5 AND PUSH1 0x4 DUP6 ADD MSTORE CALLER PUSH1 0x24 DUP6 ADD MSTORE PUSH1 0x44 DUP5 ADD SWAP2 SWAP1 SWAP2 MSTORE DUP3 SWAP1 PUSH1 0x64 SWAP1 DUP3 SWAP1 DUP5 SWAP1 GAS CALL DUP1 ISZERO PUSH2 0x797 JUMPI PUSH2 0x12EB JUMPI JUMPDEST POP SWAP1 PUSH1 0x1 PUSH1 0x1 PUSH1 0xA0 SHL SUB DUP1 SWAP4 SWAP3 SLOAD AND DUP7 MSTORE PUSH1 0x6 PUSH1 0x20 MSTORE PUSH1 0x40 DUP7 KECCAK256 SWAP1 SLOAD DUP7 MSTORE PUSH1 0x20 MSTORE DUP5 PUSH1 0x40 DUP2 KECCAK256 SSTORE SLOAD AND SWAP1 SLOAD SWAP2 PUSH1 0x40 MLOAD SWAP3 DUP4 MSTORE DUP4 PUSH1 0x20 DUP5 ADD MSTORE PUSH32 0x54B68CF87FC5A8CA9FB6C2907055C98B559710D037E907A8AD031FEFA3CAA6DE PUSH1 0x40 CALLER SWAP5 LOG4 PUSH1 0x1 DUP2 SSTORE DUP1 RETURN JUMPDEST DUP7 PUSH2 0x1302 PUSH1 0x1 PUSH1 0x1 PUSH1 0xA0 SHL SUB SWAP6 SWAP5 SWAP4 SWAP9 DUP7 SWAP4 PUSH2 0x1A44 JUMP JUMPDEST SWAP7 SWAP2 SWAP3 SWAP4 POP PUSH2 0x1286 JUMP JUMPDEST PUSH1 0x64 PUSH1 0x40 MLOAD PUSH3 0x461BCD PUSH1 0xE5 SHL DUP2 MSTORE PUSH1 0x20 PUSH1 0x4 DUP3 ADD MSTORE PUSH1 0x1E PUSH1 0x24 DUP3 ADD MSTORE PUSH32 0x53656C6C6572206E6F206C6F6E676572206F776E732074686973204E46540000 PUSH1 0x44 DUP3 ADD MSTORE REVERT JUMPDEST PUSH2 0x1369 SWAP2 POP PUSH1 0x20 RETURNDATASIZE PUSH1 0x20 GT PUSH2 0x790 JUMPI PUSH2 0x782 DUP2 DUP4 PUSH2 0x1A44 JUMP JUMPDEST CODESIZE PUSH2 0x120C JUMP JUMPDEST PUSH1 0x40 MLOAD RETURNDATASIZE DUP14 DUP3 RETURNDATACOPY RETURNDATASIZE SWAP1 REVERT JUMPDEST PUSH1 0x64 PUSH1 0x40 MLOAD PUSH3 0x461BCD PUSH1 0xE5 SHL DUP2 MSTORE PUSH1 0x20 PUSH1 0x4 DUP3 ADD MSTORE PUSH1 0x17 PUSH1 0x24 DUP3 ADD MSTORE PUSH32 0x43616E6E6F742062757920796F7572206F776E204E4654000000000000000000 PUSH1 0x44 DUP3 ADD MSTORE REVERT JUMPDEST PUSH1 0x64 PUSH1 0x40 MLOAD PUSH3 0x461BCD PUSH1 0xE5 SHL DUP2 MSTORE PUSH1 0x20 PUSH1 0x4 DUP3 ADD MSTORE PUSH1 0x1A PUSH1 0x24 DUP3 ADD MSTORE PUSH32 0x54686973206C697374696E67206973206E6F7420616374697665000000000000 PUSH1 0x44 DUP3 ADD MSTORE REVERT JUMPDEST POP CALLVALUE PUSH2 0x92E JUMPI PUSH1 0x20 CALLDATASIZE PUSH1 0x3 NOT ADD SLT PUSH2 0x92E JUMPI PUSH1 0x4 CALLDATALOAD PUSH2 0x141F PUSH2 0x1CEF JUMP JUMPDEST DUP1 DUP3 MSTORE PUSH1 0x5 PUSH1 0x20 MSTORE PUSH1 0x40 DUP3 KECCAK256 SWAP2 PUSH1 0x2 DUP4 ADD SWAP3 PUSH1 0x1 PUSH1 0x1 PUSH1 0xA0 SHL SUB DUP5 SLOAD AND CALLER EQ DUP1 ISZERO PUSH2 0x159F JUMPI JUMPDEST ISZERO PUSH2 0x1535 JUMPI PUSH1 0x5 DUP2 ADD DUP1 SLOAD PUSH1 0xFF DUP2 AND ISZERO PUSH2 0x14F1 JUMPI PUSH1 0xFF NOT AND SWAP1 SSTORE PUSH1 0x1 DUP2 ADD SWAP4 SWAP3 PUSH1 0x3 SWAP1 SWAP2 ADD SWAP1 DUP3 JUMPDEST DUP3 SLOAD DUP2 LT ISZERO PUSH2 0x14B1 JUMPI PUSH1 0x1 SWAP1 PUSH1 0x1 PUSH1 0x1 PUSH1 0xA0 SHL SUB DUP8 SLOAD AND DUP6 MSTORE PUSH1 0x6 PUSH1 0x20 MSTORE PUSH1 0x40 DUP6 KECCAK256 PUSH2 0x1499 DUP3 DUP7 PUSH2 0x1C04 JUMP JUMPDEST SWAP1 SLOAD SWAP1 PUSH1 0x3 SHL SHR DUP7 MSTORE PUSH1 0x20 MSTORE DUP5 PUSH1 0x40 DUP2 KECCAK256 SSTORE ADD PUSH2 0x146D JUMP JUMPDEST DUP4 DUP3 PUSH1 0x1 PUSH1 0x1 PUSH1 0xA0 SHL SUB DUP8 SLOAD AND SWAP1 PUSH32 0xDC5EAD55DD48E8E5EFDA7CD38E07A916521F6E3C148B3B9E77A9AAEED47CA816 PUSH1 0x20 PUSH1 0x40 MLOAD PUSH1 0x1 DUP2 MSTORE LOG3 PUSH1 0x1 DUP2 SSTORE DUP1 RETURN JUMPDEST PUSH1 0x64 PUSH1 0x40 MLOAD PUSH3 0x461BCD PUSH1 0xE5 SHL DUP2 MSTORE PUSH1 0x20 PUSH1 0x4 DUP3 ADD MSTORE PUSH1 0x1B PUSH1 0x24 DUP3 ADD MSTORE PUSH32 0x436F6C6C656374696F6E20616C726561647920696E6163746976650000000000 PUSH1 0x44 DUP3 ADD MSTORE REVERT JUMPDEST PUSH1 0x84 PUSH1 0x40 MLOAD PUSH3 0x461BCD PUSH1 0xE5 SHL DUP2 MSTORE PUSH1 0x20 PUSH1 0x4 DUP3 ADD MSTORE PUSH1 0x28 PUSH1 0x24 DUP3 ADD MSTORE PUSH32 0x4E6F7420617574686F72697A656420746F2063616E63656C207468697320636F PUSH1 0x44 DUP3 ADD MSTORE PUSH32 0x6C6C656374696F6E000000000000000000000000000000000000000000000000 PUSH1 0x64 DUP3 ADD MSTORE REVERT JUMPDEST POP PUSH1 0x1 PUSH1 0x1 PUSH1 0xA0 SHL SUB PUSH1 0x1 SLOAD AND CALLER EQ PUSH2 0x1445 JUMP JUMPDEST POP CALLVALUE PUSH2 0x92E JUMPI PUSH1 0x20 CALLDATASIZE PUSH1 0x3 NOT ADD SLT PUSH2 0x92E JUMPI PUSH1 0x4 CALLDATALOAD PUSH2 0x15D0 PUSH2 0x1CEF JUMP JUMPDEST DUP1 DUP3 MSTORE PUSH1 0x4 PUSH1 0x20 MSTORE PUSH1 0x40 DUP3 KECCAK256 PUSH1 0x2 DUP2 ADD PUSH1 0x1 PUSH1 0x1 PUSH1 0xA0 SHL SUB DUP2 SLOAD AND CALLER EQ DUP1 ISZERO PUSH2 0x171A JUMPI JUMPDEST ISZERO PUSH2 0x16B0 JUMPI PUSH1 0x4 DUP3 ADD SWAP2 DUP3 SLOAD SWAP3 PUSH1 0xFF DUP5 AND ISZERO PUSH2 0x166C JUMPI PUSH1 0x1 PUSH1 0x1 PUSH1 0xA0 SHL SUB SWAP4 PUSH1 0xFF NOT AND SWAP1 SSTORE DUP3 PUSH1 0x1 DUP3 ADD SLOAD AND DUP6 MSTORE PUSH1 0x6 PUSH1 0x20 MSTORE PUSH1 0x40 DUP6 KECCAK256 SWAP1 SLOAD DUP6 MSTORE PUSH1 0x20 MSTORE DUP4 PUSH1 0x40 DUP2 KECCAK256 SSTORE SLOAD AND SWAP1 PUSH32 0xBCD90E03D79E4632F324D681A7B699D3E20EEA44EE9A57E2B556F986151328BF PUSH1 0x20 PUSH1 0x40 MLOAD DUP6 DUP2 MSTORE LOG3 PUSH1 0x1 DUP2 SSTORE DUP1 RETURN JUMPDEST PUSH1 0x64 PUSH1 0x40 MLOAD PUSH3 0x461BCD PUSH1 0xE5 SHL DUP2 MSTORE PUSH1 0x20 PUSH1 0x4 DUP3 ADD MSTORE PUSH1 0x18 PUSH1 0x24 DUP3 ADD MSTORE PUSH32 0x4C697374696E6720616C726561647920696E6163746976650000000000000000 PUSH1 0x44 DUP3 ADD MSTORE REVERT JUMPDEST PUSH1 0x84 PUSH1 0x40 MLOAD PUSH3 0x461BCD PUSH1 0xE5 SHL DUP2 MSTORE PUSH1 0x20 PUSH1 0x4 DUP3 ADD MSTORE PUSH1 0x25 PUSH1 0x24 DUP3 ADD MSTORE PUSH32 0x4E6F7420617574686F72697A656420746F2063616E63656C2074686973206C69 PUSH1 0x44 DUP3 ADD MSTORE PUSH32 0x7374696E67000000000000000000000000000000000000000000000000000000 PUSH1 0x64 DUP3 ADD MSTORE REVERT JUMPDEST POP PUSH1 0x1 PUSH1 0x1 PUSH1 0xA0 SHL SUB PUSH1 0x1 SLOAD AND CALLER EQ PUSH2 0x15F4 JUMP JUMPDEST POP CALLVALUE PUSH2 0x92E JUMPI PUSH1 0x60 CALLDATASIZE PUSH1 0x3 NOT ADD SLT PUSH2 0x92E JUMPI PUSH2 0x1748 PUSH2 0x19D9 JUMP JUMPDEST PUSH1 0x24 CALLDATALOAD SWAP1 PUSH1 0x1 PUSH1 0x1 PUSH1 0xA0 SHL SUB PUSH1 0x44 CALLDATALOAD SWAP2 PUSH2 0x1760 PUSH2 0x1CEF JUMP JUMPDEST PUSH2 0x176B DUP4 ISZERO ISZERO PUSH2 0x1A7C JUMP JUMPDEST AND SWAP1 PUSH1 0x40 MLOAD PUSH4 0x31A9108F PUSH1 0xE1 SHL DUP2 MSTORE DUP4 PUSH1 0x4 DUP3 ADD MSTORE PUSH1 0x20 DUP2 PUSH1 0x24 DUP2 DUP7 GAS STATICCALL DUP1 ISZERO PUSH2 0x1996 JUMPI PUSH2 0x17AA SWAP2 DUP7 SWAP2 PUSH2 0x19C0 JUMPI POP PUSH1 0x1 PUSH1 0x1 PUSH1 0xA0 SHL SUB AND CALLER EQ PUSH2 0x1AE6 JUMP JUMPDEST DUP2 DUP5 MSTORE PUSH1 0x6 PUSH1 0x20 MSTORE PUSH1 0x40 DUP5 KECCAK256 DUP4 DUP6 MSTORE PUSH1 0x20 MSTORE PUSH2 0x17CA PUSH1 0x40 DUP6 KECCAK256 SLOAD ISZERO PUSH2 0x1B31 JUMP JUMPDEST PUSH1 0x40 MLOAD PUSH4 0xE985E9C5 PUSH1 0xE0 SHL DUP2 MSTORE CALLER PUSH1 0x4 DUP3 ADD MSTORE ADDRESS PUSH1 0x24 DUP3 ADD MSTORE PUSH1 0x20 DUP2 PUSH1 0x44 DUP2 DUP7 GAS STATICCALL SWAP1 DUP2 ISZERO PUSH2 0x1996 JUMPI DUP6 SWAP2 PUSH2 0x19A1 JUMPI JUMPDEST POP DUP1 ISZERO PUSH2 0x1936 JUMPI JUMPDEST PUSH2 0x180B SWAP1 PUSH2 0x1B94 JUMP JUMPDEST PUSH1 0x2 SLOAD SWAP1 PUSH2 0x1818 DUP3 PUSH2 0x1BDF JUMP JUMPDEST PUSH1 0x2 SSTORE PUSH1 0x40 MLOAD PUSH1 0xA0 DUP2 ADD DUP2 DUP2 LT PUSH8 0xFFFFFFFFFFFFFFFF DUP3 GT OR PUSH2 0x1922 JUMPI SWAP2 PUSH2 0x18F0 PUSH1 0x60 SWAP3 PUSH32 0xA6730AF3FC9C329B107536E5F7C96CAB5132AC72B52AFAC07AAAE37E06ACA746 SWAP5 PUSH1 0x40 MSTORE DUP8 DUP2 MSTORE PUSH1 0x4 DUP7 DUP11 PUSH1 0x1 PUSH1 0x1 PUSH1 0xA0 SHL SUB PUSH1 0x20 DUP6 ADD DUP12 DUP2 MSTORE DUP2 PUSH1 0x40 DUP8 ADD SWAP2 CALLER DUP4 MSTORE PUSH1 0x40 DUP12 DUP10 ADD SWAP6 DUP12 DUP8 MSTORE PUSH1 0x80 DUP11 ADD SWAP8 PUSH1 0x1 DUP10 MSTORE DUP2 MSTORE DUP9 PUSH1 0x20 MSTORE KECCAK256 SWAP8 MLOAD DUP9 SSTORE MLOAD AND DUP3 PUSH1 0x1 DUP9 ADD SWAP2 AND PUSH1 0x1 PUSH1 0x1 PUSH1 0xA0 SHL SUB NOT DUP3 SLOAD AND OR SWAP1 SSTORE MLOAD AND PUSH1 0x1 PUSH1 0x1 PUSH1 0xA0 SHL SUB PUSH1 0x2 DUP7 ADD SWAP2 AND PUSH1 0x1 PUSH1 0x1 PUSH1 0xA0 SHL SUB NOT DUP3 SLOAD AND OR SWAP1 SSTORE MLOAD PUSH1 0x3 DUP5 ADD SSTORE MLOAD ISZERO ISZERO SWAP2 ADD SWAP1 PUSH1 0xFF DUP1 NOT DUP4 SLOAD AND SWAP2 ISZERO ISZERO AND OR SWAP1 SSTORE JUMP JUMPDEST DUP5 DUP8 MSTORE PUSH1 0x6 PUSH1 0x20 MSTORE PUSH1 0x40 DUP8 KECCAK256 DUP7 DUP9 MSTORE PUSH1 0x20 MSTORE DUP4 PUSH1 0x40 DUP9 KECCAK256 SSTORE PUSH1 0x40 MLOAD SWAP1 CALLER DUP3 MSTORE PUSH1 0x20 DUP3 ADD MSTORE DUP7 PUSH1 0x40 DUP3 ADD MSTORE LOG4 PUSH1 0x1 DUP2 SSTORE DUP1 RETURN JUMPDEST PUSH1 0x24 DUP8 PUSH4 0x4E487B71 PUSH1 0xE0 SHL DUP2 MSTORE PUSH1 0x41 PUSH1 0x4 MSTORE REVERT JUMPDEST POP PUSH1 0x40 MLOAD PUSH4 0x20604BF PUSH1 0xE2 SHL DUP2 MSTORE DUP4 PUSH1 0x4 DUP3 ADD MSTORE PUSH1 0x20 DUP2 PUSH1 0x24 DUP2 DUP7 GAS STATICCALL DUP1 ISZERO PUSH2 0x1996 JUMPI PUSH2 0x180B SWAP2 DUP7 SWAP2 PUSH2 0x1977 JUMPI JUMPDEST POP PUSH1 0x1 PUSH1 0x1 PUSH1 0xA0 SHL SUB AND ADDRESS EQ SWAP1 POP PUSH2 0x1802 JUMP JUMPDEST PUSH2 0x1990 SWAP2 POP PUSH1 0x20 RETURNDATASIZE PUSH1 0x20 GT PUSH2 0x790 JUMPI PUSH2 0x782 DUP2 DUP4 PUSH2 0x1A44 JUMP JUMPDEST CODESIZE PUSH2 0x1964 JUMP JUMPDEST PUSH1 0x40 MLOAD RETURNDATASIZE DUP8 DUP3 RETURNDATACOPY RETURNDATASIZE SWAP1 REVERT JUMPDEST PUSH2 0x19BA SWAP2 POP PUSH1 0x20 RETURNDATASIZE PUSH1 0x20 GT PUSH2 0x7C9 JUMPI PUSH2 0x7BB DUP2 DUP4 PUSH2 0x1A44 JUMP JUMPDEST CODESIZE PUSH2 0x17FA JUMP JUMPDEST PUSH2 0x7E8 SWAP2 POP PUSH1 0x20 RETURNDATASIZE PUSH1 0x20 GT PUSH2 0x790 JUMPI PUSH2 0x782 DUP2 DUP4 PUSH2 0x1A44 JUMP JUMPDEST PUSH1 0x4 CALLDATALOAD SWAP1 PUSH1 0x1 PUSH1 0x1 PUSH1 0xA0 SHL SUB DUP3 AND DUP3 SUB PUSH2 0x19EF JUMPI JUMP JUMPDEST PUSH1 0x0 DUP1 REVERT JUMPDEST PUSH1 0x40 SWAP1 PUSH1 0x3 NOT ADD SLT PUSH2 0x19EF JUMPI PUSH1 0x4 CALLDATALOAD SWAP1 PUSH1 0x24 CALLDATALOAD SWAP1 JUMP JUMPDEST SWAP1 PUSH1 0x1 DUP3 DUP2 SHR SWAP3 AND DUP1 ISZERO PUSH2 0x1A3A JUMPI JUMPDEST PUSH1 0x20 DUP4 LT EQ PUSH2 0x1A24 JUMPI JUMP JUMPDEST PUSH4 0x4E487B71 PUSH1 0xE0 SHL PUSH1 0x0 MSTORE PUSH1 0x22 PUSH1 0x4 MSTORE PUSH1 0x24 PUSH1 0x0 REVERT JUMPDEST SWAP2 PUSH1 0x7F AND SWAP2 PUSH2 0x1A19 JUMP JUMPDEST SWAP1 PUSH1 0x1F DUP1 NOT SWAP2 ADD AND DUP2 ADD SWAP1 DUP2 LT PUSH8 0xFFFFFFFFFFFFFFFF DUP3 GT OR PUSH2 0x1A66 JUMPI PUSH1 0x40 MSTORE JUMP JUMPDEST PUSH4 0x4E487B71 PUSH1 0xE0 SHL PUSH1 0x0 MSTORE PUSH1 0x41 PUSH1 0x4 MSTORE PUSH1 0x24 PUSH1 0x0 REVERT JUMPDEST ISZERO PUSH2 0x1A83 JUMPI JUMP JUMPDEST PUSH1 0x64 PUSH1 0x40 MLOAD PUSH3 0x461BCD PUSH1 0xE5 SHL DUP2 MSTORE PUSH1 0x20 PUSH1 0x4 DUP3 ADD MSTORE PUSH1 0x1C PUSH1 0x24 DUP3 ADD MSTORE PUSH32 0x5072696365206D7573742062652067726561746572207468616E203000000000 PUSH1 0x44 DUP3 ADD MSTORE REVERT JUMPDEST SWAP1 DUP2 PUSH1 0x20 SWAP2 SUB SLT PUSH2 0x19EF JUMPI MLOAD PUSH1 0x1 PUSH1 0x1 PUSH1 0xA0 SHL SUB DUP2 AND DUP2 SUB PUSH2 0x19EF JUMPI SWAP1 JUMP JUMPDEST ISZERO PUSH2 0x1AED JUMPI JUMP JUMPDEST PUSH1 0x64 PUSH1 0x40 MLOAD PUSH3 0x461BCD PUSH1 0xE5 SHL DUP2 MSTORE PUSH1 0x20 PUSH1 0x4 DUP3 ADD MSTORE PUSH1 0x9 PUSH1 0x24 DUP3 ADD MSTORE PUSH32 0x4E6F74206F776E65720000000000000000000000000000000000000000000000 PUSH1 0x44 DUP3 ADD MSTORE REVERT JUMPDEST ISZERO PUSH2 0x1B38 JUMPI JUMP JUMPDEST PUSH1 0x64 PUSH1 0x40 MLOAD PUSH3 0x461BCD PUSH1 0xE5 SHL DUP2 MSTORE PUSH1 0x20 PUSH1 0x4 DUP3 ADD MSTORE PUSH1 0x12 PUSH1 0x24 DUP3 ADD MSTORE PUSH32 0x4E465420616C7265616479206C69737465640000000000000000000000000000 PUSH1 0x44 DUP3 ADD MSTORE REVERT JUMPDEST SWAP1 DUP2 PUSH1 0x20 SWAP2 SUB SLT PUSH2 0x19EF JUMPI MLOAD DUP1 ISZERO ISZERO DUP2 SUB PUSH2 0x19EF JUMPI SWAP1 JUMP JUMPDEST ISZERO PUSH2 0x1B9B JUMPI JUMP JUMPDEST PUSH1 0x64 PUSH1 0x40 MLOAD PUSH3 0x461BCD PUSH1 0xE5 SHL DUP2 MSTORE PUSH1 0x20 PUSH1 0x4 DUP3 ADD MSTORE PUSH1 0xC PUSH1 0x24 DUP3 ADD MSTORE PUSH32 0x4E6F7420617070726F7665640000000000000000000000000000000000000000 PUSH1 0x44 DUP3 ADD MSTORE REVERT JUMPDEST PUSH1 0x0 NOT DUP2 EQ PUSH2 0x1BEE JUMPI PUSH1 0x1 ADD SWAP1 JUMP JUMPDEST PUSH4 0x4E487B71 PUSH1 0xE0 SHL PUSH1 0x0 MSTORE PUSH1 0x11 PUSH1 0x4 MSTORE PUSH1 0x24 PUSH1 0x0 REVERT JUMPDEST DUP1 SLOAD DUP3 LT ISZERO PUSH2 0x1C1C JUMPI PUSH1 0x0 MSTORE PUSH1 0x20 PUSH1 0x0 KECCAK256 ADD SWAP1 PUSH1 0x0 SWAP1 JUMP JUMPDEST PUSH4 0x4E487B71 PUSH1 0xE0 SHL PUSH1 0x0 MSTORE PUSH1 0x32 PUSH1 0x4 MSTORE PUSH1 0x24 PUSH1 0x0 REVERT JUMPDEST ISZERO PUSH2 0x1C39 JUMPI JUMP JUMPDEST PUSH1 0x64 PUSH1 0x40 MLOAD PUSH3 0x461BCD PUSH1 0xE5 SHL DUP2 MSTORE PUSH1 0x20 PUSH1 0x4 DUP3 ADD MSTORE PUSH1 0x14 PUSH1 0x24 DUP3 ADD MSTORE PUSH32 0x496E73756666696369656E74207061796D656E74000000000000000000000000 PUSH1 0x44 DUP3 ADD MSTORE REVERT JUMPDEST ISZERO PUSH2 0x1C84 JUMPI JUMP JUMPDEST PUSH1 0x64 PUSH1 0x40 MLOAD PUSH3 0x461BCD PUSH1 0xE5 SHL DUP2 MSTORE PUSH1 0x20 PUSH1 0x4 DUP3 ADD MSTORE PUSH1 0x1C PUSH1 0x24 DUP3 ADD MSTORE PUSH32 0x4F6E6C792073656C6C65722063616E2075706461746520707269636500000000 PUSH1 0x44 DUP3 ADD MSTORE REVERT JUMPDEST SWAP2 SWAP1 DUP2 LT ISZERO PUSH2 0x1C1C JUMPI PUSH1 0x5 SHL ADD SWAP1 JUMP JUMPDEST DUP2 DUP2 LT PUSH2 0x1CE3 JUMPI POP POP JUMP JUMPDEST PUSH1 0x0 DUP2 SSTORE PUSH1 0x1 ADD PUSH2 0x1CD8 JUMP JUMPDEST PUSH1 0x2 PUSH1 0x0 SLOAD EQ PUSH2 0x1D00 JUMPI PUSH1 0x2 PUSH1 0x0 SSTORE JUMP JUMPDEST PUSH32 0x3EE5AEB500000000000000000000000000000000000000000000000000000000 PUSH1 0x0 MSTORE PUSH1 0x4 PUSH1 0x0 REVERT JUMPDEST SWAP2 SWAP1 DUP3 SUB SWAP2 DUP3 GT PUSH2 0x1BEE JUMPI JUMP JUMPDEST PUSH1 0xFA DUP3 MUL DUP3 DUP2 DIV PUSH1 0xFA EQ DUP4 ISZERO OR ISZERO PUSH2 0x1BEE JUMPI PUSH1 0x0 DUP1 DUP1 PUSH2 0x2710 DUP2 SWAP5 DIV SWAP5 PUSH2 0x1D5E DUP7 DUP9 PUSH2 0x1D2A JUMP JUMPDEST SWAP1 DUP3 SWAP1 DUP3 ISZERO PUSH2 0x1DF4 JUMPI JUMPDEST PUSH1 0x1 PUSH1 0x1 PUSH1 0xA0 SHL SUB AND SWAP1 CALL ISZERO PUSH2 0x1DAE JUMPI DUP1 ISZERO DUP1 ISZERO PUSH2 0x1DC3 JUMPI JUMPDEST POP POP DUP1 CALLVALUE GT PUSH2 0x1D8D JUMPI POP JUMP JUMPDEST PUSH1 0x0 DUP1 DUP1 PUSH2 0x1D9C DUP2 SWAP5 CALLVALUE PUSH2 0x1D2A JUMP JUMPDEST DUP2 DUP2 ISZERO PUSH2 0x1DBA JUMPI JUMPDEST CALLER SWAP1 CALL ISZERO PUSH2 0x1DAE JUMPI JUMP JUMPDEST PUSH1 0x40 MLOAD RETURNDATASIZE PUSH1 0x0 DUP3 RETURNDATACOPY RETURNDATASIZE SWAP1 REVERT JUMPDEST POP PUSH2 0x8FC PUSH2 0x1DA4 JUMP JUMPDEST PUSH1 0x0 DUP1 DUP1 SWAP4 DUP2 SWAP4 PUSH1 0x1 PUSH1 0x1 PUSH1 0xA0 SHL SUB PUSH1 0x1 SLOAD AND SWAP1 DUP4 SWAP1 PUSH2 0x1DEB JUMPI JUMPDEST CALL ISZERO PUSH2 0x1DAE JUMPI CODESIZE DUP1 PUSH2 0x1D81 JUMP JUMPDEST POP PUSH2 0x8FC PUSH2 0x1DDE JUMP JUMPDEST PUSH2 0x8FC SWAP2 POP PUSH2 0x1D68 JUMP JUMPDEST PUSH1 0x1 PUSH1 0x1 PUSH1 0xA0 SHL SUB PUSH1 0x1 SLOAD AND CALLER SUB PUSH2 0x1E12 JUMPI JUMP JUMPDEST PUSH32 0x118CDAA700000000000000000000000000000000000000000000000000000000 PUSH1 0x0 MSTORE CALLER PUSH1 0x4 MSTORE PUSH1 0x24 PUSH1 0x0 REVERT INVALID LOG2 PUSH5 0x6970667358 0x22 SLT KECCAK256 PUSH24 0xDC9BDB75637E5ED97EFDF53EB7F66797D03D0E4B93C44B85 MULMOD SSTORE 0xEC GT SAR PUSH8 0x2D64736F6C634300 ADDMOD SHR STOP CALLER "},"methodIdentifiers":{"buyCollectionBundle(uint256)":"9b948994","buyNFT(uint256)":"51ed8288","cancelCollection(uint256)":"30a40b6c","cancelListing(uint256)":"305a67a8","collectionListings(uint256)":"c316a132","listCollectionBundle(address,uint256[],uint256,string)":"fb615906","listSingleNFT(address,uint256,uint256)":"1796a185","listings(uint256)":"de74e57b","owner()":"8da5cb5b","renounceOwnership()":"715018a6","tokenToListingId(address,uint256)":"7c5180be","transferOwnership(address)":"f2fde38b","updateBundlePrice(uint256,uint256)":"78436e01","updatePrice(uint256,uint256)":"82367b2d"}}}}}