{"contracts/mintNFT.sol":{"NFT":{"abi":[{"inputs":[{"internalType":"address","name":"initialOwner","type":"address"}],"stateMutability":"nonpayable","type":"constructor"},{"inputs":[{"internalType":"address","name":"sender","type":"address"},{"internalType":"uint256","name":"tokenId","type":"uint256"},{"internalType":"address","name":"owner","type":"address"}],"name":"ERC721IncorrectOwner","type":"error"},{"inputs":[{"internalType":"address","name":"operator","type":"address"},{"internalType":"uint256","name":"tokenId","type":"uint256"}],"name":"ERC721InsufficientApproval","type":"error"},{"inputs":[{"internalType":"address","name":"approver","type":"address"}],"name":"ERC721InvalidApprover","type":"error"},{"inputs":[{"internalType":"address","name":"operator","type":"address"}],"name":"ERC721InvalidOperator","type":"error"},{"inputs":[{"internalType":"address","name":"owner","type":"address"}],"name":"ERC721InvalidOwner","type":"error"},{"inputs":[{"internalType":"address","name":"receiver","type":"address"}],"name":"ERC721InvalidReceiver","type":"error"},{"inputs":[{"internalType":"address","name":"sender","type":"address"}],"name":"ERC721InvalidSender","type":"error"},{"inputs":[{"internalType":"uint256","name":"tokenId","type":"uint256"}],"name":"ERC721NonexistentToken","type":"error"},{"inputs":[{"internalType":"address","name":"owner","type":"address"}],"name":"OwnableInvalidOwner","type":"error"},{"inputs":[{"internalType":"address","name":"account","type":"address"}],"name":"OwnableUnauthorizedAccount","type":"error"},{"anonymous":false,"inputs":[{"indexed":true,"internalType":"address","name":"owner","type":"address"},{"indexed":true,"internalType":"address","name":"approved","type":"address"},{"indexed":true,"internalType":"uint256","name":"tokenId","type":"uint256"}],"name":"Approval","type":"event"},{"anonymous":false,"inputs":[{"indexed":true,"internalType":"address","name":"owner","type":"address"},{"indexed":true,"internalType":"address","name":"operator","type":"address"},{"indexed":false,"internalType":"bool","name":"approved","type":"bool"}],"name":"ApprovalForAll","type":"event"},{"anonymous":false,"inputs":[{"indexed":false,"internalType":"uint256","name":"_fromTokenId","type":"uint256"},{"indexed":false,"internalType":"uint256","name":"_toTokenId","type":"uint256"}],"name":"BatchMetadataUpdate","type":"event"},{"anonymous":false,"inputs":[{"indexed":false,"internalType":"uint256[]","name":"tokenIDs","type":"uint256[]"},{"indexed":true,"internalType":"address","name":"to","type":"address"},{"indexed":true,"internalType":"address","name":"creator","type":"address"}],"name":"BatchNFTMinted","type":"event"},{"anonymous":false,"inputs":[{"indexed":false,"internalType":"uint256","name":"_tokenId","type":"uint256"}],"name":"MetadataUpdate","type":"event"},{"anonymous":false,"inputs":[{"indexed":true,"internalType":"uint256","name":"tokenID","type":"uint256"},{"indexed":true,"internalType":"address","name":"to","type":"address"},{"indexed":true,"internalType":"address","name":"creator","type":"address"},{"indexed":false,"internalType":"string","name":"tokenURI","type":"string"}],"name":"NFTCreated","type":"event"},{"anonymous":false,"inputs":[{"indexed":true,"internalType":"address","name":"previousOwner","type":"address"},{"indexed":true,"internalType":"address","name":"newOwner","type":"address"}],"name":"OwnershipTransferred","type":"event"},{"anonymous":false,"inputs":[{"indexed":true,"internalType":"address","name":"from","type":"address"},{"indexed":true,"internalType":"address","name":"to","type":"address"},{"indexed":true,"internalType":"uint256","name":"tokenId","type":"uint256"}],"name":"Transfer","type":"event"},{"inputs":[],"name":"MAX_BATCH_SIZE","outputs":[{"internalType":"uint256","name":"","type":"uint256"}],"stateMutability":"view","type":"function"},{"inputs":[],"name":"MAX_NFT","outputs":[{"internalType":"uint256","name":"","type":"uint256"}],"stateMutability":"view","type":"function"},{"inputs":[{"internalType":"address","name":"to","type":"address"},{"internalType":"uint256","name":"tokenId","type":"uint256"}],"name":"approve","outputs":[],"stateMutability":"nonpayable","type":"function"},{"inputs":[{"internalType":"address","name":"owner","type":"address"}],"name":"balanceOf","outputs":[{"internalType":"uint256","name":"","type":"uint256"}],"stateMutability":"view","type":"function"},{"inputs":[{"internalType":"uint256","name":"tokenId","type":"uint256"}],"name":"getApproved","outputs":[{"internalType":"address","name":"","type":"address"}],"stateMutability":"view","type":"function"},{"inputs":[],"name":"getRemainingSupply","outputs":[{"internalType":"uint256","name":"","type":"uint256"}],"stateMutability":"view","type":"function"},{"inputs":[{"internalType":"uint256","name":"tokenID","type":"uint256"}],"name":"getTokenCreator","outputs":[{"internalType":"address","name":"","type":"address"}],"stateMutability":"view","type":"function"},{"inputs":[{"internalType":"address","name":"owner","type":"address"}],"name":"getTokensOfOwner","outputs":[{"internalType":"uint256[]","name":"","type":"uint256[]"}],"stateMutability":"view","type":"function"},{"inputs":[],"name":"getTotalNFT","outputs":[{"internalType":"uint256","name":"","type":"uint256"}],"stateMutability":"view","type":"function"},{"inputs":[{"internalType":"address","name":"owner","type":"address"},{"internalType":"address","name":"operator","type":"address"}],"name":"isApprovedForAll","outputs":[{"internalType":"bool","name":"","type":"bool"}],"stateMutability":"view","type":"function"},{"inputs":[{"internalType":"address","name":"to","type":"address"},{"internalType":"uint256","name":"quantity","type":"uint256"},{"internalType":"string","name":"baseURI","type":"string"}],"name":"mintCollectionWithBaseURI","outputs":[{"internalType":"uint256[]","name":"","type":"uint256[]"}],"stateMutability":"nonpayable","type":"function"},{"inputs":[{"internalType":"string[]","name":"metadataURIs","type":"string[]"}],"name":"mintMyCollection","outputs":[{"internalType":"uint256[]","name":"","type":"uint256[]"}],"stateMutability":"nonpayable","type":"function"},{"inputs":[{"internalType":"string","name":"metadataURI","type":"string"}],"name":"mintNFT","outputs":[{"internalType":"uint256","name":"","type":"uint256"}],"stateMutability":"nonpayable","type":"function"},{"inputs":[{"internalType":"address","name":"to","type":"address"},{"internalType":"string[]","name":"metadataURIs","type":"string[]"}],"name":"mintNFTCollection","outputs":[{"internalType":"uint256[]","name":"","type":"uint256[]"}],"stateMutability":"nonpayable","type":"function"},{"inputs":[{"internalType":"address","name":"toAddress","type":"address"},{"internalType":"string","name":"metadata","type":"string"}],"name":"mintSingleNFT","outputs":[{"internalType":"uint256","name":"","type":"uint256"}],"stateMutability":"nonpayable","type":"function"},{"inputs":[],"name":"name","outputs":[{"internalType":"string","name":"","type":"string"}],"stateMutability":"view","type":"function"},{"inputs":[],"name":"owner","outputs":[{"internalType":"address","name":"","type":"address"}],"stateMutability":"view","type":"function"},{"inputs":[{"internalType":"uint256","name":"tokenId","type":"uint256"}],"name":"ownerOf","outputs":[{"internalType":"address","name":"","type":"address"}],"stateMutability":"view","type":"function"},{"inputs":[],"name":"renounceOwnership","outputs":[],"stateMutability":"nonpayable","type":"function"},{"inputs":[{"internalType":"address","name":"from","type":"address"},{"internalType":"address","name":"to","type":"address"},{"internalType":"uint256","name":"tokenId","type":"uint256"}],"name":"safeTransferFrom","outputs":[],"stateMutability":"nonpayable","type":"function"},{"inputs":[{"internalType":"address","name":"from","type":"address"},{"internalType":"address","name":"to","type":"address"},{"internalType":"uint256","name":"tokenId","type":"uint256"},{"internalType":"bytes","name":"data","type":"bytes"}],"name":"safeTransferFrom","outputs":[],"stateMutability":"nonpayable","type":"function"},{"inputs":[{"internalType":"address","name":"operator","type":"address"},{"internalType":"bool","name":"approved","type":"bool"}],"name":"setApprovalForAll","outputs":[],"stateMutability":"nonpayable","type":"function"},{"inputs":[{"internalType":"bytes4","name":"interfaceId","type":"bytes4"}],"name":"supportsInterface","outputs":[{"internalType":"bool","name":"","type":"bool"}],"stateMutability":"view","type":"function"},{"inputs":[],"name":"symbol","outputs":[{"internalType":"string","name":"","type":"string"}],"stateMutability":"view","type":"function"},{"inputs":[{"internalType":"uint256","name":"","type":"uint256"}],"name":"tokenCreators","outputs":[{"internalType":"address","name":"","type":"address"}],"stateMutability":"view","type":"function"},{"inputs":[{"internalType":"uint256","name":"tokenID","type":"uint256"}],"name":"tokenURI","outputs":[{"internalType":"string","name":"","type":"string"}],"stateMutability":"view","type":"function"},{"inputs":[{"internalType":"address","name":"from","type":"address"},{"internalType":"address","name":"to","type":"address"},{"internalType":"uint256","name":"tokenId","type":"uint256"}],"name":"transferFrom","outputs":[],"stateMutability":"nonpayable","type":"function"},{"inputs":[{"internalType":"address","name":"newOwner","type":"address"}],"name":"transferOwnership","outputs":[],"stateMutability":"nonpayable","type":"function"}],"evm":{"bytecode":{"linkReferences":{},"object":"60806040523461039c576121e56020813803918261001c816103a1565b93849283398101031261039c57516001600160a01b0381169081900361039c5761004660406103a1565b906005825264135e53919560da1b602083015261006360406103a1565b60048152631353919560e21b602082015282519091906001600160401b0381116102a757600054600181811c91168015610392575b602082101461028757601f811161032e575b506020601f82116001146102c857819293946000926102bd575b50508160011b916000199060031b1c1916176000555b81516001600160401b0381116102a757600154600181811c9116801561029d575b602082101461028757601f8111610222575b50602092601f82116001146101bd57928192936000926101b2575b50508160011b916000199060031b1c1916176001555b801561019c57600780546001600160a01b03198116831790915560405191906001600160a01b03167f8be0079c531659141344cd1fd0a4f28419497f9722a3daafe3b4186f6b6457e0600080a36001600855611e1e90816103c78239f35b631e4fbdf760e01b600052600060045260246000fd5b015190503880610128565b601f198216936001600052806000209160005b86811061020a57508360019596106101f1575b505050811b0160015561013e565b015160001960f88460031b161c191690553880806101e3565b919260206001819286850151815501940192016101d0565b60016000527fb10e2d527612073b26eecdfd717e6a320cf44b4afac2b0732d9fcbe2b7fa0cf6601f830160051c8101916020841061027d575b601f0160051c01905b818110610271575061010d565b60008155600101610264565b909150819061025b565b634e487b7160e01b600052602260045260246000fd5b90607f16906100fb565b634e487b7160e01b600052604160045260246000fd5b0151905038806100c4565b601f1982169060008052806000209160005b818110610316575095836001959697106102fd575b505050811b016000556100da565b015160001960f88460031b161c191690553880806102ef565b9192602060018192868b0151815501940192016102da565b600080527f290decd9548b62a8d60345a988386fc84ba6bc95484008f6362f93160ef3e563601f830160051c81019160208410610388575b601f0160051c01905b81811061037c57506100aa565b6000815560010161036f565b9091508190610366565b90607f1690610098565b600080fd5b6040519190601f01601f191682016001600160401b038111838210176102a75760405256fe608080604052600436101561001357600080fd5b60003560e01c90816301ffc9a714610f625750806306fdde0314610ebd578063081812fc14610e7e578063095ea7b314610d6f57806323b872dd14610d5857806342842e0e14610d2e5780635de6dc5514610bfb5780636352211e14610bcc5780636829bbea14610aea57806369f63a66146108105780636fdaddf1146107f357806370a08231146107c8578063715018a61461076d5780638da5cb5b14610746578063934689a9146106b057806395d89b41146105e2578063a22cb46514610528578063b88d4fde146104c6578063b956c33014610480578063bcf16f2d14610455578063c87b56dd14610422578063cfdbf25414610406578063e0fd045f146103d1578063e4b7fb7314610380578063e985e9c514610323578063f2fde38b14610281578063fb37e883146101a55763fc8041ba1461015357600080fd5b346101a05760203660031901126101a05760043567ffffffffffffffff81116101a05761019061018a61019c92369060040161120d565b33611779565b60405191829182611112565b0390f35b600080fd5b346101a05760203660031901126101a05760043567ffffffffffffffff81116101a0576101d860209136906004016111d7565b600854906101ea612710831115611515565b6101f681511515611560565b6101ff826114dc565b60085561020c8233611976565b6102168183611a6c565b816000526009835260406000206001600160a01b0333166001600160a01b031982541617905560405190838252827f67540a320daf33f565534fe9eca83eb771d29ef88dde04b188b0ebf60f40abda339380610276339589830190611087565b0390a4604051908152f35b346101a05760203660031901126101a0576001600160a01b036102a26110ac565b6102aa611cda565b1680156102f4576001600160a01b03600754826001600160a01b0319821617600755167f8be0079c531659141344cd1fd0a4f28419497f9722a3daafe3b4186f6b6457e0600080a3005b7f1e4fbdf700000000000000000000000000000000000000000000000000000000600052600060045260246000fd5b346101a05760403660031901126101a05761033c6110ac565b6001600160a01b0361034c6110c2565b911660005260056020526001600160a01b0360406000209116600052602052602060ff604060002054166040519015158152f35b346101a05760003660031901126101a057600854806000198101116103bb57600190612710030161271081116103bb57602090604051908152f35b634e487b7160e01b600052601160045260246000fd5b346101a05760203660031901126101a057600435600052600960205260206001600160a01b0360406000205416604051908152f35b346101a05760003660031901126101a057602060405160148152f35b346101a05760203660031901126101a05761019c610441600435611d1c565b604051918291602083526020830190611087565b346101a05760003660031901126101a05760085460001981019081116103bb57602090604051908152f35b346101a05760403660031901126101a0576104996110ac565b60243567ffffffffffffffff81116101a05761019c916104c061019092369060040161120d565b90611779565b346101a05760803660031901126101a0576104df6110ac565b6104e76110c2565b6064359167ffffffffffffffff83116101a057366023840112156101a05761051c6105269336906024816004013591016111a0565b9160443591611607565b005b346101a05760403660031901126101a0576105416110ac565b602435908115158092036101a0576001600160a01b03169081156105b457336000526005602052604060002082600052602052604060002060ff1981541660ff83161790556040519081527f17307eab39ab6107e8899845ad3d59bd9653f200f220920489ca2b5937696c3160203392a3005b507f5b08ba180000000000000000000000000000000000000000000000000000000060005260045260246000fd5b346101a05760003660031901126101a05760405160006001546106048161128c565b808452906001811690811561068c575060011461062c575b61019c836104418185038261114c565b91905060016000527fb10e2d527612073b26eecdfd717e6a320cf44b4afac2b0732d9fcbe2b7fa0cf6916000905b8082106106725750909150810160200161044161061c565b91926001816020925483858801015201910190929161065a565b60ff191660208086019190915291151560051b84019091019150610441905061061c565b346101a05760203660031901126101a0576004358060005260026020526001600160a01b03604060002054161561070257600052600960205260206001600160a01b0360406000205416604051908152f35b606460405162461bcd60e51b815260206004820152601460248201527f546f6b656e20646f6573206e6f742065786973740000000000000000000000006044820152fd5b346101a05760003660031901126101a05760206001600160a01b0360075416604051908152f35b346101a05760003660031901126101a057610786611cda565b60006001600160a01b036007546001600160a01b03198116600755167f8be0079c531659141344cd1fd0a4f28419497f9722a3daafe3b4186f6b6457e08280a3005b346101a05760203660031901126101a05760206107eb6107e66110ac565b6115b8565b604051908152f35b346101a05760003660031901126101a05760206040516127108152f35b346101a05760603660031901126101a0576108296110ac565b60243560443567ffffffffffffffff81116101a05761084c9036906004016111d7565b918115610aa65760148211610a6257610867826008546115ab565b60001981019081116103bb5761271010610a1e578251156109da5761088d8293926114aa565b9133906020810160005b8681106108ed5761019c86866040517f0661b624277564510fce496d2133833cc55f2db13c55beda96b44a0952ea3af56001600160a01b0333931691806108de8682611112565b0390a360405191829182611112565b6001906008546108fc816114dc565b6008556109098188611976565b6109ab6109346109a560058689602061092188611bde565b8b60405197889451809285870190611064565b83017f2f000000000000000000000000000000000000000000000000000000000000008382015261096e8251809385602185019101611064565b01017f2e6a736f6e000000000000000000000000000000000000000000000000000000838201520301601a1981018452018261114c565b82611a6c565b8060005260096020526040600020866001600160a01b03198254161790556109d382896114eb565b5201610897565b606460405162461bcd60e51b815260206004820152601860248201527f42617365205552492063616e6e6f7420626520656d70747900000000000000006044820152fd5b606460405162461bcd60e51b815260206004820152601760248201527f576f756c6420657863656564206d617820737570706c790000000000000000006044820152fd5b606460405162461bcd60e51b815260206004820152601660248201527f45786365656473206d61782062617463682073697a65000000000000000000006044820152fd5b606460405162461bcd60e51b815260206004820152601860248201527f4d757374206d696e74206174206c656173742031204e465400000000000000006044820152fd5b346101a05760403660031901126101a057610b036110ac565b6024359067ffffffffffffffff82116101a057610b2660209236906004016111d7565b9060085491610b39612710841115611515565b610b4581511515611560565b610b4e836114dc565b600855610b5b8383611976565b610b658184611a6c565b826000526009845260406000206001600160a01b0333166001600160a01b0319825416179055827f67540a320daf33f565534fe9eca83eb771d29ef88dde04b188b0ebf60f40abda604051868152806102766001600160a01b033397169589830190611087565b346101a05760203660031901126101a0576020610bea60043561193f565b6001600160a01b0360405191168152f35b346101a05760203660031901126101a057610c146110ac565b610c1d816115b8565b610c26816114aa565b6000600192600854935b84811080610d25575b15610d17576040517f6352211e000000000000000000000000000000000000000000000000000000008152816004820152602081602481305afa8091600091610ccf575b5090610c925750610c8d906114dc565b610c30565b6001600160a01b03808816911614610cae575b610c8d906114dc565b91610cc78184610cc1610c8d94886114eb565b526114dc565b929050610ca5565b6020813d8211610d0f575b81610ce76020938361114c565b81010312610d0b5751906001600160a01b0382168203610d08575088610c7d565b80fd5b5080fd5b3d9150610cda565b6040518061019c8682611112565b50818310610c39565b346101a057610526610d3f366110d8565b9060405192610d4f60208561114c565b60008452611607565b346101a057610526610d69366110d8565b916112c6565b346101a05760403660031901126101a057610d886110ac565b602435610d948161193f565b33151580610e6b575b80610e34575b610e065781906001600160a01b0380851691167f8c5be1e5ebec7d5bd14f71427d1e84f3dd0314c0f7b2291e5b200ac8c7c3b925600080a460005260046020526001600160a01b03604060002091166001600160a01b0319825416179055600080f35b7fa9fbf51f000000000000000000000000000000000000000000000000000000006000523360045260246000fd5b506001600160a01b038116600052600560205260406000206001600160a01b03331660005260205260ff6040600020541615610da3565b50336001600160a01b0382161415610d9d565b346101a05760203660031901126101a057600435610e9b8161193f565b50600052600460205260206001600160a01b0360406000205416604051908152f35b346101a05760003660031901126101a05760405160008054610ede8161128c565b808452906001811690811561068c5750600114610f055761019c836104418185038261114c565b60008080527f290decd9548b62a8d60345a988386fc84ba6bc95484008f6362f93160ef3e563939250905b808210610f485750909150810160200161044161061c565b919260018160209254838588010152019101909291610f30565b346101a05760203660031901126101a057600435907fffffffff0000000000000000000000000000000000000000000000000000000082168092036101a057817f490649060000000000000000000000000000000000000000000000000000000060209314908115610fd6575b5015158152f35b7f80ac58cd0000000000000000000000000000000000000000000000000000000081149150811561103a575b8115611010575b5083610fcf565b7f01ffc9a70000000000000000000000000000000000000000000000000000000091501483611009565b7f5b5e139f0000000000000000000000000000000000000000000000000000000081149150611002565b60005b8381106110775750506000910152565b8181015183820152602001611067565b906020916110a081518092818552858086019101611064565b601f01601f1916010190565b600435906001600160a01b03821682036101a057565b602435906001600160a01b03821682036101a057565b60609060031901126101a0576004356001600160a01b03811681036101a057906024356001600160a01b03811681036101a0579060443590565b602060408183019282815284518094520192019060005b8181106111365750505090565b8251845260209384019390920191600101611129565b90601f8019910116810190811067ffffffffffffffff82111761116e57604052565b634e487b7160e01b600052604160045260246000fd5b67ffffffffffffffff811161116e57601f01601f191660200190565b9291926111ac82611184565b916111ba604051938461114c565b8294818452818301116101a0578281602093846000960137010152565b9080601f830112156101a0578160206111f2933591016111a0565b90565b67ffffffffffffffff811161116e5760051b60200190565b9080601f830112156101a0578135611224816111f5565b92611232604051948561114c565b81845260208085019260051b820101918383116101a05760208201905b83821061125e57505050505090565b813567ffffffffffffffff81116101a057602091611281878480948801016111d7565b81520191019061124f565b90600182811c921680156112bc575b60208310146112a657565b634e487b7160e01b600052602260045260246000fd5b91607f169161129b565b91906001600160a01b0316918215611494576000908282526002602052826001600160a01b036040842054169485331515806113d9575b507fddf252ad1be2c89b69c2b068fc378daa952ba7f163c4a11628f55a4df523b3ef6001600160a01b03958261139f575b83815260036020526040812060018154019055848152600260205260408120846001600160a01b031982541617905580a41680830361136c57505050565b7f64283d7b0000000000000000000000000000000000000000000000000000000060005260045260245260445260646000fd5b6113c085600052600460205260406000206001600160a01b03198154169055565b828152600360205260408120805460001901905561132e565b9193949250508061143d575b156113f5579190839085386112fd565b83908561140e57602491637e27328960e01b8252600452fd5b6044917f177e802f00000000000000000000000000000000000000000000000000000000825233600452602452fd5b50338514801561146b575b806113e557508381526004602052336001600160a01b03604083205416146113e5565b508481526005602052604081206001600160a01b033316825260205260ff604082205416611448565b633250574960e11b600052600060045260246000fd5b906114b4826111f5565b6114c1604051918261114c565b82815280926114d2601f19916111f5565b0190602036910137565b60001981146103bb5760010190565b80518210156114ff5760209160051b010190565b634e487b7160e01b600052603260045260246000fd5b1561151c57565b606460405162461bcd60e51b815260206004820152601960248201527f4d6178696d756d204e4654206c696d69742072656163686564000000000000006044820152fd5b1561156757565b606460405162461bcd60e51b815260206004820152601860248201527f4d657461646174612063616e6e6f7420626520656d70747900000000000000006044820152fd5b919082018092116103bb57565b6001600160a01b031680156115d857600052600360205260406000205490565b7f89c62b6400000000000000000000000000000000000000000000000000000000600052600060045260246000fd5b906116138382846112c6565b803b611620575b50505050565b6020916116666001600160a01b03809316956040519586948594630a85bd0160e11b86523360048701521660248501526044840152608060648401526084830190611087565b03816000865af1809160009161171e575b50906116d057503d156116c9573d61168e81611184565b9061169c604051928361114c565b81523d6000602083013e5b805190816116c45782633250574960e11b60005260045260246000fd5b602001fd5b60606116a7565b7fffffffff00000000000000000000000000000000000000000000000000000000630a85bd0160e11b91160361170a57503880808061161a565b633250574960e11b60005260045260246000fd5b6020813d602011611771575b816117376020938361114c565b81010312610d0b5751907fffffffff0000000000000000000000000000000000000000000000000000000082168203610d08575038611677565b3d915061172a565b8151156118fb5760148251116118b7576117976008548351906115ab565b60001981019081116103bb5761271010611873576117b7829392516114aa565b92339060005b815181101561182c57806117d3600192846114eb565b516117e081511515611560565b6117fd600854916117f0836114dc565b6008556109a58389611976565b8060005260096020526040600020856001600160a01b031982541617905561182582896114eb565b52016117bd565b5050509190916040517f0661b624277564510fce496d2133833cc55f2db13c55beda96b44a0952ea3af56001600160a01b03339316918061186d8682611112565b0390a390565b606460405162461bcd60e51b815260206004820152601960248201527f45786365656473206d6178696d756d204e4654206c696d6974000000000000006044820152fd5b606460405162461bcd60e51b815260206004820152601a60248201527f45786365656473206d6178696d756d2062617463682073697a650000000000006044820152fd5b606460405162461bcd60e51b815260206004820152601d60248201527f4d6574616461746120555249732063616e6e6f7420626520656d7074790000006044820152fd5b8060005260026020526001600160a01b0360406000205416908115611962575090565b637e27328960e01b60005260045260246000fd5b6001600160a01b031680156114945760009180835260026020526001600160a01b0360408420541691827fddf252ad1be2c89b69c2b068fc378daa952ba7f163c4a11628f55a4df523b3ef8115159586611a32575b83815260036020526040812060018154019055848152600260205260408120846001600160a01b031982541617905580a450611a0357565b7f73c6ac6e00000000000000000000000000000000000000000000000000000000600052600060045260246000fd5b611a5385600052600460205260406000206001600160a01b03198154169055565b82815260036020526040812080546000190190556119cb565b9190918060005260066020526040600020835167ffffffffffffffff811161116e57611a98825461128c565b601f8111611b96575b506020601f8211600114611b0a57908060209493927ff8e1a15aba9398e019f0b49df1a4fde98ee17ae345cb5f6b5e2c27f5033e8ce79697600092611aff575b50508160011b916000199060031b1c19161790555b604051908152a1565b015190503880611ae1565b601f1982169583600052816000209660005b818110611b7e575096600192849260209796957ff8e1a15aba9398e019f0b49df1a4fde98ee17ae345cb5f6b5e2c27f5033e8ce7999a10611b65575b505050811b019055611af6565b015160001960f88460031b161c19169055388080611b58565b83830151895560019098019760209384019301611b1c565b826000526020600020601f830160051c81019160208410611bd4575b601f0160051c01905b818110611bc85750611aa1565b60008155600101611bbb565b9091508190611bb2565b8015611c9e57600081805b611c8a5750611bf781611184565b90611c05604051928361114c565b808252601f19611c1482611184565b013660208401375b80928015611c835760001982019182116103bb578193600a820660300192836030116103bb57845111156114ff57601f7fff00000000000000000000000000000000000000000000000000000000000000600a9460f81b1660001a91850101530491611c1c565b5050905090565b90611c96600a916114dc565b910480611be9565b50604051611cad60408261114c565b600181527f3000000000000000000000000000000000000000000000000000000000000000602082015290565b6001600160a01b03600754163303611cee57565b7f118cdaa7000000000000000000000000000000000000000000000000000000006000523360045260246000fd5b611d258161193f565b506000526006602052604060002060405190816000825492611d468461128c565b8084529360018116908115611dc65750600114611d7f575b50611d6b9250038261114c565b6000604051611d7b60208261114c565b5290565b90506000929192526020600020906000915b818310611daa575050906020611d6b9282010138611d5e565b6020919350806001915483858801015201910190918392611d91565b905060209250611d6b94915060ff191682840152151560051b82010138611d5e56fea26469706673582212208c665d22e887625e363b6367881e2a9c078536758c495fd615559d3aa252071864736f6c634300081c0033","opcodes":"PUSH1 0x80 PUSH1 0x40 MSTORE CALLVALUE PUSH2 0x39C JUMPI PUSH2 0x21E5 PUSH1 0x20 DUP2 CODESIZE SUB SWAP2 DUP3 PUSH2 0x1C DUP2 PUSH2 0x3A1 JUMP JUMPDEST SWAP4 DUP5 SWAP3 DUP4 CODECOPY DUP2 ADD SUB SLT PUSH2 0x39C JUMPI MLOAD PUSH1 0x1 PUSH1 0x1 PUSH1 0xA0 SHL SUB DUP2 AND SWAP1 DUP2 SWAP1 SUB PUSH2 0x39C JUMPI PUSH2 0x46 PUSH1 0x40 PUSH2 0x3A1 JUMP JUMPDEST SWAP1 PUSH1 0x5 DUP3 MSTORE PUSH5 0x135E539195 PUSH1 0xDA SHL PUSH1 0x20 DUP4 ADD MSTORE PUSH2 0x63 PUSH1 0x40 PUSH2 0x3A1 JUMP JUMPDEST PUSH1 0x4 DUP2 MSTORE PUSH4 0x13539195 PUSH1 0xE2 SHL PUSH1 0x20 DUP3 ADD MSTORE DUP3 MLOAD SWAP1 SWAP2 SWAP1 PUSH1 0x1 PUSH1 0x1 PUSH1 0x40 SHL SUB DUP2 GT PUSH2 0x2A7 JUMPI PUSH1 0x0 SLOAD PUSH1 0x1 DUP2 DUP2 SHR SWAP2 AND DUP1 ISZERO PUSH2 0x392 JUMPI JUMPDEST PUSH1 0x20 DUP3 LT EQ PUSH2 0x287 JUMPI PUSH1 0x1F DUP2 GT PUSH2 0x32E JUMPI JUMPDEST POP PUSH1 0x20 PUSH1 0x1F DUP3 GT PUSH1 0x1 EQ PUSH2 0x2C8 JUMPI DUP2 SWAP3 SWAP4 SWAP5 PUSH1 0x0 SWAP3 PUSH2 0x2BD JUMPI JUMPDEST POP POP DUP2 PUSH1 0x1 SHL SWAP2 PUSH1 0x0 NOT SWAP1 PUSH1 0x3 SHL SHR NOT AND OR PUSH1 0x0 SSTORE JUMPDEST DUP2 MLOAD PUSH1 0x1 PUSH1 0x1 PUSH1 0x40 SHL SUB DUP2 GT PUSH2 0x2A7 JUMPI PUSH1 0x1 SLOAD PUSH1 0x1 DUP2 DUP2 SHR SWAP2 AND DUP1 ISZERO PUSH2 0x29D JUMPI JUMPDEST PUSH1 0x20 DUP3 LT EQ PUSH2 0x287 JUMPI PUSH1 0x1F DUP2 GT PUSH2 0x222 JUMPI JUMPDEST POP PUSH1 0x20 SWAP3 PUSH1 0x1F DUP3 GT PUSH1 0x1 EQ PUSH2 0x1BD JUMPI SWAP3 DUP2 SWAP3 SWAP4 PUSH1 0x0 SWAP3 PUSH2 0x1B2 JUMPI JUMPDEST POP POP DUP2 PUSH1 0x1 SHL SWAP2 PUSH1 0x0 NOT SWAP1 PUSH1 0x3 SHL SHR NOT AND OR PUSH1 0x1 SSTORE JUMPDEST DUP1 ISZERO PUSH2 0x19C JUMPI PUSH1 0x7 DUP1 SLOAD PUSH1 0x1 PUSH1 0x1 PUSH1 0xA0 SHL SUB NOT DUP2 AND DUP4 OR SWAP1 SWAP2 SSTORE PUSH1 0x40 MLOAD SWAP2 SWAP1 PUSH1 0x1 PUSH1 0x1 PUSH1 0xA0 SHL SUB AND PUSH32 0x8BE0079C531659141344CD1FD0A4F28419497F9722A3DAAFE3B4186F6B6457E0 PUSH1 0x0 DUP1 LOG3 PUSH1 0x1 PUSH1 0x8 SSTORE PUSH2 0x1E1E SWAP1 DUP2 PUSH2 0x3C7 DUP3 CODECOPY RETURN JUMPDEST PUSH4 0x1E4FBDF7 PUSH1 0xE0 SHL PUSH1 0x0 MSTORE PUSH1 0x0 PUSH1 0x4 MSTORE PUSH1 0x24 PUSH1 0x0 REVERT JUMPDEST ADD MLOAD SWAP1 POP CODESIZE DUP1 PUSH2 0x128 JUMP JUMPDEST PUSH1 0x1F NOT DUP3 AND SWAP4 PUSH1 0x1 PUSH1 0x0 MSTORE DUP1 PUSH1 0x0 KECCAK256 SWAP2 PUSH1 0x0 JUMPDEST DUP7 DUP2 LT PUSH2 0x20A JUMPI POP DUP4 PUSH1 0x1 SWAP6 SWAP7 LT PUSH2 0x1F1 JUMPI JUMPDEST POP POP POP DUP2 SHL ADD PUSH1 0x1 SSTORE PUSH2 0x13E JUMP JUMPDEST ADD MLOAD PUSH1 0x0 NOT PUSH1 0xF8 DUP5 PUSH1 0x3 SHL AND SHR NOT AND SWAP1 SSTORE CODESIZE DUP1 DUP1 PUSH2 0x1E3 JUMP JUMPDEST SWAP2 SWAP3 PUSH1 0x20 PUSH1 0x1 DUP2 SWAP3 DUP7 DUP6 ADD MLOAD DUP2 SSTORE ADD SWAP5 ADD SWAP3 ADD PUSH2 0x1D0 JUMP JUMPDEST PUSH1 0x1 PUSH1 0x0 MSTORE PUSH32 0xB10E2D527612073B26EECDFD717E6A320CF44B4AFAC2B0732D9FCBE2B7FA0CF6 PUSH1 0x1F DUP4 ADD PUSH1 0x5 SHR DUP2 ADD SWAP2 PUSH1 0x20 DUP5 LT PUSH2 0x27D JUMPI JUMPDEST PUSH1 0x1F ADD PUSH1 0x5 SHR ADD SWAP1 JUMPDEST DUP2 DUP2 LT PUSH2 0x271 JUMPI POP PUSH2 0x10D JUMP JUMPDEST PUSH1 0x0 DUP2 SSTORE PUSH1 0x1 ADD PUSH2 0x264 JUMP JUMPDEST SWAP1 SWAP2 POP DUP2 SWAP1 PUSH2 0x25B JUMP JUMPDEST PUSH4 0x4E487B71 PUSH1 0xE0 SHL PUSH1 0x0 MSTORE PUSH1 0x22 PUSH1 0x4 MSTORE PUSH1 0x24 PUSH1 0x0 REVERT JUMPDEST SWAP1 PUSH1 0x7F AND SWAP1 PUSH2 0xFB JUMP JUMPDEST PUSH4 0x4E487B71 PUSH1 0xE0 SHL PUSH1 0x0 MSTORE PUSH1 0x41 PUSH1 0x4 MSTORE PUSH1 0x24 PUSH1 0x0 REVERT JUMPDEST ADD MLOAD SWAP1 POP CODESIZE DUP1 PUSH2 0xC4 JUMP JUMPDEST PUSH1 0x1F NOT DUP3 AND SWAP1 PUSH1 0x0 DUP1 MSTORE DUP1 PUSH1 0x0 KECCAK256 SWAP2 PUSH1 0x0 JUMPDEST DUP2 DUP2 LT PUSH2 0x316 JUMPI POP SWAP6 DUP4 PUSH1 0x1 SWAP6 SWAP7 SWAP8 LT PUSH2 0x2FD JUMPI JUMPDEST POP POP POP DUP2 SHL ADD PUSH1 0x0 SSTORE PUSH2 0xDA JUMP JUMPDEST ADD MLOAD PUSH1 0x0 NOT PUSH1 0xF8 DUP5 PUSH1 0x3 SHL AND SHR NOT AND SWAP1 SSTORE CODESIZE DUP1 DUP1 PUSH2 0x2EF JUMP JUMPDEST SWAP2 SWAP3 PUSH1 0x20 PUSH1 0x1 DUP2 SWAP3 DUP7 DUP12 ADD MLOAD DUP2 SSTORE ADD SWAP5 ADD SWAP3 ADD PUSH2 0x2DA JUMP JUMPDEST PUSH1 0x0 DUP1 MSTORE PUSH32 0x290DECD9548B62A8D60345A988386FC84BA6BC95484008F6362F93160EF3E563 PUSH1 0x1F DUP4 ADD PUSH1 0x5 SHR DUP2 ADD SWAP2 PUSH1 0x20 DUP5 LT PUSH2 0x388 JUMPI JUMPDEST PUSH1 0x1F ADD PUSH1 0x5 SHR ADD SWAP1 JUMPDEST DUP2 DUP2 LT PUSH2 0x37C JUMPI POP PUSH2 0xAA JUMP JUMPDEST PUSH1 0x0 DUP2 SSTORE PUSH1 0x1 ADD PUSH2 0x36F JUMP JUMPDEST SWAP1 SWAP2 POP DUP2 SWAP1 PUSH2 0x366 JUMP JUMPDEST SWAP1 PUSH1 0x7F AND SWAP1 PUSH2 0x98 JUMP JUMPDEST PUSH1 0x0 DUP1 REVERT JUMPDEST PUSH1 0x40 MLOAD SWAP2 SWAP1 PUSH1 0x1F ADD PUSH1 0x1F NOT AND DUP3 ADD PUSH1 0x1 PUSH1 0x1 PUSH1 0x40 SHL SUB DUP2 GT DUP4 DUP3 LT OR PUSH2 0x2A7 JUMPI PUSH1 0x40 MSTORE JUMP INVALID PUSH1 0x80 DUP1 PUSH1 0x40 MSTORE PUSH1 0x4 CALLDATASIZE LT ISZERO PUSH2 0x13 JUMPI PUSH1 0x0 DUP1 REVERT JUMPDEST PUSH1 0x0 CALLDATALOAD PUSH1 0xE0 SHR SWAP1 DUP2 PUSH4 0x1FFC9A7 EQ PUSH2 0xF62 JUMPI POP DUP1 PUSH4 0x6FDDE03 EQ PUSH2 0xEBD JUMPI DUP1 PUSH4 0x81812FC EQ PUSH2 0xE7E JUMPI DUP1 PUSH4 0x95EA7B3 EQ PUSH2 0xD6F JUMPI DUP1 PUSH4 0x23B872DD EQ PUSH2 0xD58 JUMPI DUP1 PUSH4 0x42842E0E EQ PUSH2 0xD2E JUMPI DUP1 PUSH4 0x5DE6DC55 EQ PUSH2 0xBFB JUMPI DUP1 PUSH4 0x6352211E EQ PUSH2 0xBCC JUMPI DUP1 PUSH4 0x6829BBEA EQ PUSH2 0xAEA JUMPI DUP1 PUSH4 0x69F63A66 EQ PUSH2 0x810 JUMPI DUP1 PUSH4 0x6FDADDF1 EQ PUSH2 0x7F3 JUMPI DUP1 PUSH4 0x70A08231 EQ PUSH2 0x7C8 JUMPI DUP1 PUSH4 0x715018A6 EQ PUSH2 0x76D JUMPI DUP1 PUSH4 0x8DA5CB5B EQ PUSH2 0x746 JUMPI DUP1 PUSH4 0x934689A9 EQ PUSH2 0x6B0 JUMPI DUP1 PUSH4 0x95D89B41 EQ PUSH2 0x5E2 JUMPI DUP1 PUSH4 0xA22CB465 EQ PUSH2 0x528 JUMPI DUP1 PUSH4 0xB88D4FDE EQ PUSH2 0x4C6 JUMPI DUP1 PUSH4 0xB956C330 EQ PUSH2 0x480 JUMPI DUP1 PUSH4 0xBCF16F2D EQ PUSH2 0x455 JUMPI DUP1 PUSH4 0xC87B56DD EQ PUSH2 0x422 JUMPI DUP1 PUSH4 0xCFDBF254 EQ PUSH2 0x406 JUMPI DUP1 PUSH4 0xE0FD045F EQ PUSH2 0x3D1 JUMPI DUP1 PUSH4 0xE4B7FB73 EQ PUSH2 0x380 JUMPI DUP1 PUSH4 0xE985E9C5 EQ PUSH2 0x323 JUMPI DUP1 PUSH4 0xF2FDE38B EQ PUSH2 0x281 JUMPI DUP1 PUSH4 0xFB37E883 EQ PUSH2 0x1A5 JUMPI PUSH4 0xFC8041BA EQ PUSH2 0x153 JUMPI PUSH1 0x0 DUP1 REVERT JUMPDEST CALLVALUE PUSH2 0x1A0 JUMPI PUSH1 0x20 CALLDATASIZE PUSH1 0x3 NOT ADD SLT PUSH2 0x1A0 JUMPI PUSH1 0x4 CALLDATALOAD PUSH8 0xFFFFFFFFFFFFFFFF DUP2 GT PUSH2 0x1A0 JUMPI PUSH2 0x190 PUSH2 0x18A PUSH2 0x19C SWAP3 CALLDATASIZE SWAP1 PUSH1 0x4 ADD PUSH2 0x120D JUMP JUMPDEST CALLER PUSH2 0x1779 JUMP JUMPDEST PUSH1 0x40 MLOAD SWAP2 DUP3 SWAP2 DUP3 PUSH2 0x1112 JUMP JUMPDEST SUB SWAP1 RETURN JUMPDEST PUSH1 0x0 DUP1 REVERT JUMPDEST CALLVALUE PUSH2 0x1A0 JUMPI PUSH1 0x20 CALLDATASIZE PUSH1 0x3 NOT ADD SLT PUSH2 0x1A0 JUMPI PUSH1 0x4 CALLDATALOAD PUSH8 0xFFFFFFFFFFFFFFFF DUP2 GT PUSH2 0x1A0 JUMPI PUSH2 0x1D8 PUSH1 0x20 SWAP2 CALLDATASIZE SWAP1 PUSH1 0x4 ADD PUSH2 0x11D7 JUMP JUMPDEST PUSH1 0x8 SLOAD SWAP1 PUSH2 0x1EA PUSH2 0x2710 DUP4 GT ISZERO PUSH2 0x1515 JUMP JUMPDEST PUSH2 0x1F6 DUP2 MLOAD ISZERO ISZERO PUSH2 0x1560 JUMP JUMPDEST PUSH2 0x1FF DUP3 PUSH2 0x14DC JUMP JUMPDEST PUSH1 0x8 SSTORE PUSH2 0x20C DUP3 CALLER PUSH2 0x1976 JUMP JUMPDEST PUSH2 0x216 DUP2 DUP4 PUSH2 0x1A6C JUMP JUMPDEST DUP2 PUSH1 0x0 MSTORE PUSH1 0x9 DUP4 MSTORE PUSH1 0x40 PUSH1 0x0 KECCAK256 PUSH1 0x1 PUSH1 0x1 PUSH1 0xA0 SHL SUB CALLER AND PUSH1 0x1 PUSH1 0x1 PUSH1 0xA0 SHL SUB NOT DUP3 SLOAD AND OR SWAP1 SSTORE PUSH1 0x40 MLOAD SWAP1 DUP4 DUP3 MSTORE DUP3 PUSH32 0x67540A320DAF33F565534FE9ECA83EB771D29EF88DDE04B188B0EBF60F40ABDA CALLER SWAP4 DUP1 PUSH2 0x276 CALLER SWAP6 DUP10 DUP4 ADD SWAP1 PUSH2 0x1087 JUMP JUMPDEST SUB SWAP1 LOG4 PUSH1 0x40 MLOAD SWAP1 DUP2 MSTORE RETURN JUMPDEST CALLVALUE PUSH2 0x1A0 JUMPI PUSH1 0x20 CALLDATASIZE PUSH1 0x3 NOT ADD SLT PUSH2 0x1A0 JUMPI PUSH1 0x1 PUSH1 0x1 PUSH1 0xA0 SHL SUB PUSH2 0x2A2 PUSH2 0x10AC JUMP JUMPDEST PUSH2 0x2AA PUSH2 0x1CDA JUMP JUMPDEST AND DUP1 ISZERO PUSH2 0x2F4 JUMPI PUSH1 0x1 PUSH1 0x1 PUSH1 0xA0 SHL SUB PUSH1 0x7 SLOAD DUP3 PUSH1 0x1 PUSH1 0x1 PUSH1 0xA0 SHL SUB NOT DUP3 AND OR PUSH1 0x7 SSTORE AND PUSH32 0x8BE0079C531659141344CD1FD0A4F28419497F9722A3DAAFE3B4186F6B6457E0 PUSH1 0x0 DUP1 LOG3 STOP JUMPDEST PUSH32 0x1E4FBDF700000000000000000000000000000000000000000000000000000000 PUSH1 0x0 MSTORE PUSH1 0x0 PUSH1 0x4 MSTORE PUSH1 0x24 PUSH1 0x0 REVERT JUMPDEST CALLVALUE PUSH2 0x1A0 JUMPI PUSH1 0x40 CALLDATASIZE PUSH1 0x3 NOT ADD SLT PUSH2 0x1A0 JUMPI PUSH2 0x33C PUSH2 0x10AC JUMP JUMPDEST PUSH1 0x1 PUSH1 0x1 PUSH1 0xA0 SHL SUB PUSH2 0x34C PUSH2 0x10C2 JUMP JUMPDEST SWAP2 AND PUSH1 0x0 MSTORE PUSH1 0x5 PUSH1 0x20 MSTORE PUSH1 0x1 PUSH1 0x1 PUSH1 0xA0 SHL SUB PUSH1 0x40 PUSH1 0x0 KECCAK256 SWAP2 AND PUSH1 0x0 MSTORE PUSH1 0x20 MSTORE PUSH1 0x20 PUSH1 0xFF PUSH1 0x40 PUSH1 0x0 KECCAK256 SLOAD AND PUSH1 0x40 MLOAD SWAP1 ISZERO ISZERO DUP2 MSTORE RETURN JUMPDEST CALLVALUE PUSH2 0x1A0 JUMPI PUSH1 0x0 CALLDATASIZE PUSH1 0x3 NOT ADD SLT PUSH2 0x1A0 JUMPI PUSH1 0x8 SLOAD DUP1 PUSH1 0x0 NOT DUP2 ADD GT PUSH2 0x3BB JUMPI PUSH1 0x1 SWAP1 PUSH2 0x2710 SUB ADD PUSH2 0x2710 DUP2 GT PUSH2 0x3BB JUMPI PUSH1 0x20 SWAP1 PUSH1 0x40 MLOAD SWAP1 DUP2 MSTORE RETURN JUMPDEST PUSH4 0x4E487B71 PUSH1 0xE0 SHL PUSH1 0x0 MSTORE PUSH1 0x11 PUSH1 0x4 MSTORE PUSH1 0x24 PUSH1 0x0 REVERT JUMPDEST CALLVALUE PUSH2 0x1A0 JUMPI PUSH1 0x20 CALLDATASIZE PUSH1 0x3 NOT ADD SLT PUSH2 0x1A0 JUMPI PUSH1 0x4 CALLDATALOAD PUSH1 0x0 MSTORE PUSH1 0x9 PUSH1 0x20 MSTORE PUSH1 0x20 PUSH1 0x1 PUSH1 0x1 PUSH1 0xA0 SHL SUB PUSH1 0x40 PUSH1 0x0 KECCAK256 SLOAD AND PUSH1 0x40 MLOAD SWAP1 DUP2 MSTORE RETURN JUMPDEST CALLVALUE PUSH2 0x1A0 JUMPI PUSH1 0x0 CALLDATASIZE PUSH1 0x3 NOT ADD SLT PUSH2 0x1A0 JUMPI PUSH1 0x20 PUSH1 0x40 MLOAD PUSH1 0x14 DUP2 MSTORE RETURN JUMPDEST CALLVALUE PUSH2 0x1A0 JUMPI PUSH1 0x20 CALLDATASIZE PUSH1 0x3 NOT ADD SLT PUSH2 0x1A0 JUMPI PUSH2 0x19C PUSH2 0x441 PUSH1 0x4 CALLDATALOAD PUSH2 0x1D1C JUMP JUMPDEST PUSH1 0x40 MLOAD SWAP2 DUP3 SWAP2 PUSH1 0x20 DUP4 MSTORE PUSH1 0x20 DUP4 ADD SWAP1 PUSH2 0x1087 JUMP JUMPDEST CALLVALUE PUSH2 0x1A0 JUMPI PUSH1 0x0 CALLDATASIZE PUSH1 0x3 NOT ADD SLT PUSH2 0x1A0 JUMPI PUSH1 0x8 SLOAD PUSH1 0x0 NOT DUP2 ADD SWAP1 DUP2 GT PUSH2 0x3BB JUMPI PUSH1 0x20 SWAP1 PUSH1 0x40 MLOAD SWAP1 DUP2 MSTORE RETURN JUMPDEST CALLVALUE PUSH2 0x1A0 JUMPI PUSH1 0x40 CALLDATASIZE PUSH1 0x3 NOT ADD SLT PUSH2 0x1A0 JUMPI PUSH2 0x499 PUSH2 0x10AC JUMP JUMPDEST PUSH1 0x24 CALLDATALOAD PUSH8 0xFFFFFFFFFFFFFFFF DUP2 GT PUSH2 0x1A0 JUMPI PUSH2 0x19C SWAP2 PUSH2 0x4C0 PUSH2 0x190 SWAP3 CALLDATASIZE SWAP1 PUSH1 0x4 ADD PUSH2 0x120D JUMP JUMPDEST SWAP1 PUSH2 0x1779 JUMP JUMPDEST CALLVALUE PUSH2 0x1A0 JUMPI PUSH1 0x80 CALLDATASIZE PUSH1 0x3 NOT ADD SLT PUSH2 0x1A0 JUMPI PUSH2 0x4DF PUSH2 0x10AC JUMP JUMPDEST PUSH2 0x4E7 PUSH2 0x10C2 JUMP JUMPDEST PUSH1 0x64 CALLDATALOAD SWAP2 PUSH8 0xFFFFFFFFFFFFFFFF DUP4 GT PUSH2 0x1A0 JUMPI CALLDATASIZE PUSH1 0x23 DUP5 ADD SLT ISZERO PUSH2 0x1A0 JUMPI PUSH2 0x51C PUSH2 0x526 SWAP4 CALLDATASIZE SWAP1 PUSH1 0x24 DUP2 PUSH1 0x4 ADD CALLDATALOAD SWAP2 ADD PUSH2 0x11A0 JUMP JUMPDEST SWAP2 PUSH1 0x44 CALLDATALOAD SWAP2 PUSH2 0x1607 JUMP JUMPDEST STOP JUMPDEST CALLVALUE PUSH2 0x1A0 JUMPI PUSH1 0x40 CALLDATASIZE PUSH1 0x3 NOT ADD SLT PUSH2 0x1A0 JUMPI PUSH2 0x541 PUSH2 0x10AC JUMP JUMPDEST PUSH1 0x24 CALLDATALOAD SWAP1 DUP2 ISZERO ISZERO DUP1 SWAP3 SUB PUSH2 0x1A0 JUMPI PUSH1 0x1 PUSH1 0x1 PUSH1 0xA0 SHL SUB AND SWAP1 DUP2 ISZERO PUSH2 0x5B4 JUMPI CALLER PUSH1 0x0 MSTORE PUSH1 0x5 PUSH1 0x20 MSTORE PUSH1 0x40 PUSH1 0x0 KECCAK256 DUP3 PUSH1 0x0 MSTORE PUSH1 0x20 MSTORE PUSH1 0x40 PUSH1 0x0 KECCAK256 PUSH1 0xFF NOT DUP2 SLOAD AND PUSH1 0xFF DUP4 AND OR SWAP1 SSTORE PUSH1 0x40 MLOAD SWAP1 DUP2 MSTORE PUSH32 0x17307EAB39AB6107E8899845AD3D59BD9653F200F220920489CA2B5937696C31 PUSH1 0x20 CALLER SWAP3 LOG3 STOP JUMPDEST POP PUSH32 0x5B08BA1800000000000000000000000000000000000000000000000000000000 PUSH1 0x0 MSTORE PUSH1 0x4 MSTORE PUSH1 0x24 PUSH1 0x0 REVERT JUMPDEST CALLVALUE PUSH2 0x1A0 JUMPI PUSH1 0x0 CALLDATASIZE PUSH1 0x3 NOT ADD SLT PUSH2 0x1A0 JUMPI PUSH1 0x40 MLOAD PUSH1 0x0 PUSH1 0x1 SLOAD PUSH2 0x604 DUP2 PUSH2 0x128C JUMP JUMPDEST DUP1 DUP5 MSTORE SWAP1 PUSH1 0x1 DUP2 AND SWAP1 DUP2 ISZERO PUSH2 0x68C JUMPI POP PUSH1 0x1 EQ PUSH2 0x62C JUMPI JUMPDEST PUSH2 0x19C DUP4 PUSH2 0x441 DUP2 DUP6 SUB DUP3 PUSH2 0x114C JUMP JUMPDEST SWAP2 SWAP1 POP PUSH1 0x1 PUSH1 0x0 MSTORE PUSH32 0xB10E2D527612073B26EECDFD717E6A320CF44B4AFAC2B0732D9FCBE2B7FA0CF6 SWAP2 PUSH1 0x0 SWAP1 JUMPDEST DUP1 DUP3 LT PUSH2 0x672 JUMPI POP SWAP1 SWAP2 POP DUP2 ADD PUSH1 0x20 ADD PUSH2 0x441 PUSH2 0x61C JUMP JUMPDEST SWAP2 SWAP3 PUSH1 0x1 DUP2 PUSH1 0x20 SWAP3 SLOAD DUP4 DUP6 DUP9 ADD ADD MSTORE ADD SWAP2 ADD SWAP1 SWAP3 SWAP2 PUSH2 0x65A JUMP JUMPDEST PUSH1 0xFF NOT AND PUSH1 0x20 DUP1 DUP7 ADD SWAP2 SWAP1 SWAP2 MSTORE SWAP2 ISZERO ISZERO PUSH1 0x5 SHL DUP5 ADD SWAP1 SWAP2 ADD SWAP2 POP PUSH2 0x441 SWAP1 POP PUSH2 0x61C JUMP JUMPDEST CALLVALUE PUSH2 0x1A0 JUMPI PUSH1 0x20 CALLDATASIZE PUSH1 0x3 NOT ADD SLT PUSH2 0x1A0 JUMPI PUSH1 0x4 CALLDATALOAD DUP1 PUSH1 0x0 MSTORE PUSH1 0x2 PUSH1 0x20 MSTORE PUSH1 0x1 PUSH1 0x1 PUSH1 0xA0 SHL SUB PUSH1 0x40 PUSH1 0x0 KECCAK256 SLOAD AND ISZERO PUSH2 0x702 JUMPI PUSH1 0x0 MSTORE PUSH1 0x9 PUSH1 0x20 MSTORE PUSH1 0x20 PUSH1 0x1 PUSH1 0x1 PUSH1 0xA0 SHL SUB PUSH1 0x40 PUSH1 0x0 KECCAK256 SLOAD AND PUSH1 0x40 MLOAD SWAP1 DUP2 MSTORE RETURN JUMPDEST PUSH1 0x64 PUSH1 0x40 MLOAD PUSH3 0x461BCD PUSH1 0xE5 SHL DUP2 MSTORE PUSH1 0x20 PUSH1 0x4 DUP3 ADD MSTORE PUSH1 0x14 PUSH1 0x24 DUP3 ADD MSTORE PUSH32 0x546F6B656E20646F6573206E6F74206578697374000000000000000000000000 PUSH1 0x44 DUP3 ADD MSTORE REVERT JUMPDEST CALLVALUE PUSH2 0x1A0 JUMPI PUSH1 0x0 CALLDATASIZE PUSH1 0x3 NOT ADD SLT PUSH2 0x1A0 JUMPI PUSH1 0x20 PUSH1 0x1 PUSH1 0x1 PUSH1 0xA0 SHL SUB PUSH1 0x7 SLOAD AND PUSH1 0x40 MLOAD SWAP1 DUP2 MSTORE RETURN JUMPDEST CALLVALUE PUSH2 0x1A0 JUMPI PUSH1 0x0 CALLDATASIZE PUSH1 0x3 NOT ADD SLT PUSH2 0x1A0 JUMPI PUSH2 0x786 PUSH2 0x1CDA JUMP JUMPDEST PUSH1 0x0 PUSH1 0x1 PUSH1 0x1 PUSH1 0xA0 SHL SUB PUSH1 0x7 SLOAD PUSH1 0x1 PUSH1 0x1 PUSH1 0xA0 SHL SUB NOT DUP2 AND PUSH1 0x7 SSTORE AND PUSH32 0x8BE0079C531659141344CD1FD0A4F28419497F9722A3DAAFE3B4186F6B6457E0 DUP3 DUP1 LOG3 STOP JUMPDEST CALLVALUE PUSH2 0x1A0 JUMPI PUSH1 0x20 CALLDATASIZE PUSH1 0x3 NOT ADD SLT PUSH2 0x1A0 JUMPI PUSH1 0x20 PUSH2 0x7EB PUSH2 0x7E6 PUSH2 0x10AC JUMP JUMPDEST PUSH2 0x15B8 JUMP JUMPDEST PUSH1 0x40 MLOAD SWAP1 DUP2 MSTORE RETURN JUMPDEST CALLVALUE PUSH2 0x1A0 JUMPI PUSH1 0x0 CALLDATASIZE PUSH1 0x3 NOT ADD SLT PUSH2 0x1A0 JUMPI PUSH1 0x20 PUSH1 0x40 MLOAD PUSH2 0x2710 DUP2 MSTORE RETURN JUMPDEST CALLVALUE PUSH2 0x1A0 JUMPI PUSH1 0x60 CALLDATASIZE PUSH1 0x3 NOT ADD SLT PUSH2 0x1A0 JUMPI PUSH2 0x829 PUSH2 0x10AC JUMP JUMPDEST PUSH1 0x24 CALLDATALOAD PUSH1 0x44 CALLDATALOAD PUSH8 0xFFFFFFFFFFFFFFFF DUP2 GT PUSH2 0x1A0 JUMPI PUSH2 0x84C SWAP1 CALLDATASIZE SWAP1 PUSH1 0x4 ADD PUSH2 0x11D7 JUMP JUMPDEST SWAP2 DUP2 ISZERO PUSH2 0xAA6 JUMPI PUSH1 0x14 DUP3 GT PUSH2 0xA62 JUMPI PUSH2 0x867 DUP3 PUSH1 0x8 SLOAD PUSH2 0x15AB JUMP JUMPDEST PUSH1 0x0 NOT DUP2 ADD SWAP1 DUP2 GT PUSH2 0x3BB JUMPI PUSH2 0x2710 LT PUSH2 0xA1E JUMPI DUP3 MLOAD ISZERO PUSH2 0x9DA JUMPI PUSH2 0x88D DUP3 SWAP4 SWAP3 PUSH2 0x14AA JUMP JUMPDEST SWAP2 CALLER SWAP1 PUSH1 0x20 DUP2 ADD PUSH1 0x0 JUMPDEST DUP7 DUP2 LT PUSH2 0x8ED JUMPI PUSH2 0x19C DUP7 DUP7 PUSH1 0x40 MLOAD PUSH32 0x661B624277564510FCE496D2133833CC55F2DB13C55BEDA96B44A0952EA3AF5 PUSH1 0x1 PUSH1 0x1 PUSH1 0xA0 SHL SUB CALLER SWAP4 AND SWAP2 DUP1 PUSH2 0x8DE DUP7 DUP3 PUSH2 0x1112 JUMP JUMPDEST SUB SWAP1 LOG3 PUSH1 0x40 MLOAD SWAP2 DUP3 SWAP2 DUP3 PUSH2 0x1112 JUMP JUMPDEST PUSH1 0x1 SWAP1 PUSH1 0x8 SLOAD PUSH2 0x8FC DUP2 PUSH2 0x14DC JUMP JUMPDEST PUSH1 0x8 SSTORE PUSH2 0x909 DUP2 DUP9 PUSH2 0x1976 JUMP JUMPDEST PUSH2 0x9AB PUSH2 0x934 PUSH2 0x9A5 PUSH1 0x5 DUP7 DUP10 PUSH1 0x20 PUSH2 0x921 DUP9 PUSH2 0x1BDE JUMP JUMPDEST DUP12 PUSH1 0x40 MLOAD SWAP8 DUP9 SWAP5 MLOAD DUP1 SWAP3 DUP6 DUP8 ADD SWAP1 PUSH2 0x1064 JUMP JUMPDEST DUP4 ADD PUSH32 0x2F00000000000000000000000000000000000000000000000000000000000000 DUP4 DUP3 ADD MSTORE PUSH2 0x96E DUP3 MLOAD DUP1 SWAP4 DUP6 PUSH1 0x21 DUP6 ADD SWAP2 ADD PUSH2 0x1064 JUMP JUMPDEST ADD ADD PUSH32 0x2E6A736F6E000000000000000000000000000000000000000000000000000000 DUP4 DUP3 ADD MSTORE SUB ADD PUSH1 0x1A NOT DUP2 ADD DUP5 MSTORE ADD DUP3 PUSH2 0x114C JUMP JUMPDEST DUP3 PUSH2 0x1A6C JUMP JUMPDEST DUP1 PUSH1 0x0 MSTORE PUSH1 0x9 PUSH1 0x20 MSTORE PUSH1 0x40 PUSH1 0x0 KECCAK256 DUP7 PUSH1 0x1 PUSH1 0x1 PUSH1 0xA0 SHL SUB NOT DUP3 SLOAD AND OR SWAP1 SSTORE PUSH2 0x9D3 DUP3 DUP10 PUSH2 0x14EB JUMP JUMPDEST MSTORE ADD PUSH2 0x897 JUMP JUMPDEST PUSH1 0x64 PUSH1 0x40 MLOAD PUSH3 0x461BCD PUSH1 0xE5 SHL DUP2 MSTORE PUSH1 0x20 PUSH1 0x4 DUP3 ADD MSTORE PUSH1 0x18 PUSH1 0x24 DUP3 ADD MSTORE PUSH32 0x42617365205552492063616E6E6F7420626520656D7074790000000000000000 PUSH1 0x44 DUP3 ADD MSTORE REVERT JUMPDEST PUSH1 0x64 PUSH1 0x40 MLOAD PUSH3 0x461BCD PUSH1 0xE5 SHL DUP2 MSTORE PUSH1 0x20 PUSH1 0x4 DUP3 ADD MSTORE PUSH1 0x17 PUSH1 0x24 DUP3 ADD MSTORE PUSH32 0x576F756C6420657863656564206D617820737570706C79000000000000000000 PUSH1 0x44 DUP3 ADD MSTORE REVERT JUMPDEST PUSH1 0x64 PUSH1 0x40 MLOAD PUSH3 0x461BCD PUSH1 0xE5 SHL DUP2 MSTORE PUSH1 0x20 PUSH1 0x4 DUP3 ADD MSTORE PUSH1 0x16 PUSH1 0x24 DUP3 ADD MSTORE PUSH32 0x45786365656473206D61782062617463682073697A6500000000000000000000 PUSH1 0x44 DUP3 ADD MSTORE REVERT JUMPDEST PUSH1 0x64 PUSH1 0x40 MLOAD PUSH3 0x461BCD PUSH1 0xE5 SHL DUP2 MSTORE PUSH1 0x20 PUSH1 0x4 DUP3 ADD MSTORE PUSH1 0x18 PUSH1 0x24 DUP3 ADD MSTORE PUSH32 0x4D757374206D696E74206174206C656173742031204E46540000000000000000 PUSH1 0x44 DUP3 ADD MSTORE REVERT JUMPDEST CALLVALUE PUSH2 0x1A0 JUMPI PUSH1 0x40 CALLDATASIZE PUSH1 0x3 NOT ADD SLT PUSH2 0x1A0 JUMPI PUSH2 0xB03 PUSH2 0x10AC JUMP JUMPDEST PUSH1 0x24 CALLDATALOAD SWAP1 PUSH8 0xFFFFFFFFFFFFFFFF DUP3 GT PUSH2 0x1A0 JUMPI PUSH2 0xB26 PUSH1 0x20 SWAP3 CALLDATASIZE SWAP1 PUSH1 0x4 ADD PUSH2 0x11D7 JUMP JUMPDEST SWAP1 PUSH1 0x8 SLOAD SWAP2 PUSH2 0xB39 PUSH2 0x2710 DUP5 GT ISZERO PUSH2 0x1515 JUMP JUMPDEST PUSH2 0xB45 DUP2 MLOAD ISZERO ISZERO PUSH2 0x1560 JUMP JUMPDEST PUSH2 0xB4E DUP4 PUSH2 0x14DC JUMP JUMPDEST PUSH1 0x8 SSTORE PUSH2 0xB5B DUP4 DUP4 PUSH2 0x1976 JUMP JUMPDEST PUSH2 0xB65 DUP2 DUP5 PUSH2 0x1A6C JUMP JUMPDEST DUP3 PUSH1 0x0 MSTORE PUSH1 0x9 DUP5 MSTORE PUSH1 0x40 PUSH1 0x0 KECCAK256 PUSH1 0x1 PUSH1 0x1 PUSH1 0xA0 SHL SUB CALLER AND PUSH1 0x1 PUSH1 0x1 PUSH1 0xA0 SHL SUB NOT DUP3 SLOAD AND OR SWAP1 SSTORE DUP3 PUSH32 0x67540A320DAF33F565534FE9ECA83EB771D29EF88DDE04B188B0EBF60F40ABDA PUSH1 0x40 MLOAD DUP7 DUP2 MSTORE DUP1 PUSH2 0x276 PUSH1 0x1 PUSH1 0x1 PUSH1 0xA0 SHL SUB CALLER SWAP8 AND SWAP6 DUP10 DUP4 ADD SWAP1 PUSH2 0x1087 JUMP JUMPDEST CALLVALUE PUSH2 0x1A0 JUMPI PUSH1 0x20 CALLDATASIZE PUSH1 0x3 NOT ADD SLT PUSH2 0x1A0 JUMPI PUSH1 0x20 PUSH2 0xBEA PUSH1 0x4 CALLDATALOAD PUSH2 0x193F JUMP JUMPDEST PUSH1 0x1 PUSH1 0x1 PUSH1 0xA0 SHL SUB PUSH1 0x40 MLOAD SWAP2 AND DUP2 MSTORE RETURN JUMPDEST CALLVALUE PUSH2 0x1A0 JUMPI PUSH1 0x20 CALLDATASIZE PUSH1 0x3 NOT ADD SLT PUSH2 0x1A0 JUMPI PUSH2 0xC14 PUSH2 0x10AC JUMP JUMPDEST PUSH2 0xC1D DUP2 PUSH2 0x15B8 JUMP JUMPDEST PUSH2 0xC26 DUP2 PUSH2 0x14AA JUMP JUMPDEST PUSH1 0x0 PUSH1 0x1 SWAP3 PUSH1 0x8 SLOAD SWAP4 JUMPDEST DUP5 DUP2 LT DUP1 PUSH2 0xD25 JUMPI JUMPDEST ISZERO PUSH2 0xD17 JUMPI PUSH1 0x40 MLOAD PUSH32 0x6352211E00000000000000000000000000000000000000000000000000000000 DUP2 MSTORE DUP2 PUSH1 0x4 DUP3 ADD MSTORE PUSH1 0x20 DUP2 PUSH1 0x24 DUP2 ADDRESS GAS STATICCALL DUP1 SWAP2 PUSH1 0x0 SWAP2 PUSH2 0xCCF JUMPI JUMPDEST POP SWAP1 PUSH2 0xC92 JUMPI POP PUSH2 0xC8D SWAP1 PUSH2 0x14DC JUMP JUMPDEST PUSH2 0xC30 JUMP JUMPDEST PUSH1 0x1 PUSH1 0x1 PUSH1 0xA0 SHL SUB DUP1 DUP9 AND SWAP2 AND EQ PUSH2 0xCAE JUMPI JUMPDEST PUSH2 0xC8D SWAP1 PUSH2 0x14DC JUMP JUMPDEST SWAP2 PUSH2 0xCC7 DUP2 DUP5 PUSH2 0xCC1 PUSH2 0xC8D SWAP5 DUP9 PUSH2 0x14EB JUMP JUMPDEST MSTORE PUSH2 0x14DC JUMP JUMPDEST SWAP3 SWAP1 POP PUSH2 0xCA5 JUMP JUMPDEST PUSH1 0x20 DUP2 RETURNDATASIZE DUP3 GT PUSH2 0xD0F JUMPI JUMPDEST DUP2 PUSH2 0xCE7 PUSH1 0x20 SWAP4 DUP4 PUSH2 0x114C JUMP JUMPDEST DUP2 ADD SUB SLT PUSH2 0xD0B JUMPI MLOAD SWAP1 PUSH1 0x1 PUSH1 0x1 PUSH1 0xA0 SHL SUB DUP3 AND DUP3 SUB PUSH2 0xD08 JUMPI POP DUP9 PUSH2 0xC7D JUMP JUMPDEST DUP1 REVERT JUMPDEST POP DUP1 REVERT JUMPDEST RETURNDATASIZE SWAP2 POP PUSH2 0xCDA JUMP JUMPDEST PUSH1 0x40 MLOAD DUP1 PUSH2 0x19C DUP7 DUP3 PUSH2 0x1112 JUMP JUMPDEST POP DUP2 DUP4 LT PUSH2 0xC39 JUMP JUMPDEST CALLVALUE PUSH2 0x1A0 JUMPI PUSH2 0x526 PUSH2 0xD3F CALLDATASIZE PUSH2 0x10D8 JUMP JUMPDEST SWAP1 PUSH1 0x40 MLOAD SWAP3 PUSH2 0xD4F PUSH1 0x20 DUP6 PUSH2 0x114C JUMP JUMPDEST PUSH1 0x0 DUP5 MSTORE PUSH2 0x1607 JUMP JUMPDEST CALLVALUE PUSH2 0x1A0 JUMPI PUSH2 0x526 PUSH2 0xD69 CALLDATASIZE PUSH2 0x10D8 JUMP JUMPDEST SWAP2 PUSH2 0x12C6 JUMP JUMPDEST CALLVALUE PUSH2 0x1A0 JUMPI PUSH1 0x40 CALLDATASIZE PUSH1 0x3 NOT ADD SLT PUSH2 0x1A0 JUMPI PUSH2 0xD88 PUSH2 0x10AC JUMP JUMPDEST PUSH1 0x24 CALLDATALOAD PUSH2 0xD94 DUP2 PUSH2 0x193F JUMP JUMPDEST CALLER ISZERO ISZERO DUP1 PUSH2 0xE6B JUMPI JUMPDEST DUP1 PUSH2 0xE34 JUMPI JUMPDEST PUSH2 0xE06 JUMPI DUP2 SWAP1 PUSH1 0x1 PUSH1 0x1 PUSH1 0xA0 SHL SUB DUP1 DUP6 AND SWAP2 AND PUSH32 0x8C5BE1E5EBEC7D5BD14F71427D1E84F3DD0314C0F7B2291E5B200AC8C7C3B925 PUSH1 0x0 DUP1 LOG4 PUSH1 0x0 MSTORE PUSH1 0x4 PUSH1 0x20 MSTORE PUSH1 0x1 PUSH1 0x1 PUSH1 0xA0 SHL SUB PUSH1 0x40 PUSH1 0x0 KECCAK256 SWAP2 AND PUSH1 0x1 PUSH1 0x1 PUSH1 0xA0 SHL SUB NOT DUP3 SLOAD AND OR SWAP1 SSTORE PUSH1 0x0 DUP1 RETURN JUMPDEST PUSH32 0xA9FBF51F00000000000000000000000000000000000000000000000000000000 PUSH1 0x0 MSTORE CALLER PUSH1 0x4 MSTORE PUSH1 0x24 PUSH1 0x0 REVERT JUMPDEST POP PUSH1 0x1 PUSH1 0x1 PUSH1 0xA0 SHL SUB DUP2 AND PUSH1 0x0 MSTORE PUSH1 0x5 PUSH1 0x20 MSTORE PUSH1 0x40 PUSH1 0x0 KECCAK256 PUSH1 0x1 PUSH1 0x1 PUSH1 0xA0 SHL SUB CALLER AND PUSH1 0x0 MSTORE PUSH1 0x20 MSTORE PUSH1 0xFF PUSH1 0x40 PUSH1 0x0 KECCAK256 SLOAD AND ISZERO PUSH2 0xDA3 JUMP JUMPDEST POP CALLER PUSH1 0x1 PUSH1 0x1 PUSH1 0xA0 SHL SUB DUP3 AND EQ ISZERO PUSH2 0xD9D JUMP JUMPDEST CALLVALUE PUSH2 0x1A0 JUMPI PUSH1 0x20 CALLDATASIZE PUSH1 0x3 NOT ADD SLT PUSH2 0x1A0 JUMPI PUSH1 0x4 CALLDATALOAD PUSH2 0xE9B DUP2 PUSH2 0x193F JUMP JUMPDEST POP PUSH1 0x0 MSTORE PUSH1 0x4 PUSH1 0x20 MSTORE PUSH1 0x20 PUSH1 0x1 PUSH1 0x1 PUSH1 0xA0 SHL SUB PUSH1 0x40 PUSH1 0x0 KECCAK256 SLOAD AND PUSH1 0x40 MLOAD SWAP1 DUP2 MSTORE RETURN JUMPDEST CALLVALUE PUSH2 0x1A0 JUMPI PUSH1 0x0 CALLDATASIZE PUSH1 0x3 NOT ADD SLT PUSH2 0x1A0 JUMPI PUSH1 0x40 MLOAD PUSH1 0x0 DUP1 SLOAD PUSH2 0xEDE DUP2 PUSH2 0x128C JUMP JUMPDEST DUP1 DUP5 MSTORE SWAP1 PUSH1 0x1 DUP2 AND SWAP1 DUP2 ISZERO PUSH2 0x68C JUMPI POP PUSH1 0x1 EQ PUSH2 0xF05 JUMPI PUSH2 0x19C DUP4 PUSH2 0x441 DUP2 DUP6 SUB DUP3 PUSH2 0x114C JUMP JUMPDEST PUSH1 0x0 DUP1 DUP1 MSTORE PUSH32 0x290DECD9548B62A8D60345A988386FC84BA6BC95484008F6362F93160EF3E563 SWAP4 SWAP3 POP SWAP1 JUMPDEST DUP1 DUP3 LT PUSH2 0xF48 JUMPI POP SWAP1 SWAP2 POP DUP2 ADD PUSH1 0x20 ADD PUSH2 0x441 PUSH2 0x61C JUMP JUMPDEST SWAP2 SWAP3 PUSH1 0x1 DUP2 PUSH1 0x20 SWAP3 SLOAD DUP4 DUP6 DUP9 ADD ADD MSTORE ADD SWAP2 ADD SWAP1 SWAP3 SWAP2 PUSH2 0xF30 JUMP JUMPDEST CALLVALUE PUSH2 0x1A0 JUMPI PUSH1 0x20 CALLDATASIZE PUSH1 0x3 NOT ADD SLT PUSH2 0x1A0 JUMPI PUSH1 0x4 CALLDATALOAD SWAP1 PUSH32 0xFFFFFFFF00000000000000000000000000000000000000000000000000000000 DUP3 AND DUP1 SWAP3 SUB PUSH2 0x1A0 JUMPI DUP2 PUSH32 0x4906490600000000000000000000000000000000000000000000000000000000 PUSH1 0x20 SWAP4 EQ SWAP1 DUP2 ISZERO PUSH2 0xFD6 JUMPI JUMPDEST POP ISZERO ISZERO DUP2 MSTORE RETURN JUMPDEST PUSH32 0x80AC58CD00000000000000000000000000000000000000000000000000000000 DUP2 EQ SWAP2 POP DUP2 ISZERO PUSH2 0x103A JUMPI JUMPDEST DUP2 ISZERO PUSH2 0x1010 JUMPI JUMPDEST POP DUP4 PUSH2 0xFCF JUMP JUMPDEST PUSH32 0x1FFC9A700000000000000000000000000000000000000000000000000000000 SWAP2 POP EQ DUP4 PUSH2 0x1009 JUMP JUMPDEST PUSH32 0x5B5E139F00000000000000000000000000000000000000000000000000000000 DUP2 EQ SWAP2 POP PUSH2 0x1002 JUMP JUMPDEST PUSH1 0x0 JUMPDEST DUP4 DUP2 LT PUSH2 0x1077 JUMPI POP POP PUSH1 0x0 SWAP2 ADD MSTORE JUMP JUMPDEST DUP2 DUP2 ADD MLOAD DUP4 DUP3 ADD MSTORE PUSH1 0x20 ADD PUSH2 0x1067 JUMP JUMPDEST SWAP1 PUSH1 0x20 SWAP2 PUSH2 0x10A0 DUP2 MLOAD DUP1 SWAP3 DUP2 DUP6 MSTORE DUP6 DUP1 DUP7 ADD SWAP2 ADD PUSH2 0x1064 JUMP JUMPDEST PUSH1 0x1F ADD PUSH1 0x1F NOT AND ADD ADD SWAP1 JUMP JUMPDEST PUSH1 0x4 CALLDATALOAD SWAP1 PUSH1 0x1 PUSH1 0x1 PUSH1 0xA0 SHL SUB DUP3 AND DUP3 SUB PUSH2 0x1A0 JUMPI JUMP JUMPDEST PUSH1 0x24 CALLDATALOAD SWAP1 PUSH1 0x1 PUSH1 0x1 PUSH1 0xA0 SHL SUB DUP3 AND DUP3 SUB PUSH2 0x1A0 JUMPI JUMP JUMPDEST PUSH1 0x60 SWAP1 PUSH1 0x3 NOT ADD SLT PUSH2 0x1A0 JUMPI PUSH1 0x4 CALLDATALOAD PUSH1 0x1 PUSH1 0x1 PUSH1 0xA0 SHL SUB DUP2 AND DUP2 SUB PUSH2 0x1A0 JUMPI SWAP1 PUSH1 0x24 CALLDATALOAD PUSH1 0x1 PUSH1 0x1 PUSH1 0xA0 SHL SUB DUP2 AND DUP2 SUB PUSH2 0x1A0 JUMPI SWAP1 PUSH1 0x44 CALLDATALOAD SWAP1 JUMP JUMPDEST PUSH1 0x20 PUSH1 0x40 DUP2 DUP4 ADD SWAP3 DUP3 DUP2 MSTORE DUP5 MLOAD DUP1 SWAP5 MSTORE ADD SWAP3 ADD SWAP1 PUSH1 0x0 JUMPDEST DUP2 DUP2 LT PUSH2 0x1136 JUMPI POP POP POP SWAP1 JUMP JUMPDEST DUP3 MLOAD DUP5 MSTORE PUSH1 0x20 SWAP4 DUP5 ADD SWAP4 SWAP1 SWAP3 ADD SWAP2 PUSH1 0x1 ADD PUSH2 0x1129 JUMP JUMPDEST SWAP1 PUSH1 0x1F DUP1 NOT SWAP2 ADD AND DUP2 ADD SWAP1 DUP2 LT PUSH8 0xFFFFFFFFFFFFFFFF DUP3 GT OR PUSH2 0x116E JUMPI PUSH1 0x40 MSTORE JUMP JUMPDEST PUSH4 0x4E487B71 PUSH1 0xE0 SHL PUSH1 0x0 MSTORE PUSH1 0x41 PUSH1 0x4 MSTORE PUSH1 0x24 PUSH1 0x0 REVERT JUMPDEST PUSH8 0xFFFFFFFFFFFFFFFF DUP2 GT PUSH2 0x116E JUMPI PUSH1 0x1F ADD PUSH1 0x1F NOT AND PUSH1 0x20 ADD SWAP1 JUMP JUMPDEST SWAP3 SWAP2 SWAP3 PUSH2 0x11AC DUP3 PUSH2 0x1184 JUMP JUMPDEST SWAP2 PUSH2 0x11BA PUSH1 0x40 MLOAD SWAP4 DUP5 PUSH2 0x114C JUMP JUMPDEST DUP3 SWAP5 DUP2 DUP5 MSTORE DUP2 DUP4 ADD GT PUSH2 0x1A0 JUMPI DUP3 DUP2 PUSH1 0x20 SWAP4 DUP5 PUSH1 0x0 SWAP7 ADD CALLDATACOPY ADD ADD MSTORE JUMP JUMPDEST SWAP1 DUP1 PUSH1 0x1F DUP4 ADD SLT ISZERO PUSH2 0x1A0 JUMPI DUP2 PUSH1 0x20 PUSH2 0x11F2 SWAP4 CALLDATALOAD SWAP2 ADD PUSH2 0x11A0 JUMP JUMPDEST SWAP1 JUMP JUMPDEST PUSH8 0xFFFFFFFFFFFFFFFF DUP2 GT PUSH2 0x116E JUMPI PUSH1 0x5 SHL PUSH1 0x20 ADD SWAP1 JUMP JUMPDEST SWAP1 DUP1 PUSH1 0x1F DUP4 ADD SLT ISZERO PUSH2 0x1A0 JUMPI DUP2 CALLDATALOAD PUSH2 0x1224 DUP2 PUSH2 0x11F5 JUMP JUMPDEST SWAP3 PUSH2 0x1232 PUSH1 0x40 MLOAD SWAP5 DUP6 PUSH2 0x114C JUMP JUMPDEST DUP2 DUP5 MSTORE PUSH1 0x20 DUP1 DUP6 ADD SWAP3 PUSH1 0x5 SHL DUP3 ADD ADD SWAP2 DUP4 DUP4 GT PUSH2 0x1A0 JUMPI PUSH1 0x20 DUP3 ADD SWAP1 JUMPDEST DUP4 DUP3 LT PUSH2 0x125E JUMPI POP POP POP POP POP SWAP1 JUMP JUMPDEST DUP2 CALLDATALOAD PUSH8 0xFFFFFFFFFFFFFFFF DUP2 GT PUSH2 0x1A0 JUMPI PUSH1 0x20 SWAP2 PUSH2 0x1281 DUP8 DUP5 DUP1 SWAP5 DUP9 ADD ADD PUSH2 0x11D7 JUMP JUMPDEST DUP2 MSTORE ADD SWAP2 ADD SWAP1 PUSH2 0x124F JUMP JUMPDEST SWAP1 PUSH1 0x1 DUP3 DUP2 SHR SWAP3 AND DUP1 ISZERO PUSH2 0x12BC JUMPI JUMPDEST PUSH1 0x20 DUP4 LT EQ PUSH2 0x12A6 JUMPI JUMP JUMPDEST PUSH4 0x4E487B71 PUSH1 0xE0 SHL PUSH1 0x0 MSTORE PUSH1 0x22 PUSH1 0x4 MSTORE PUSH1 0x24 PUSH1 0x0 REVERT JUMPDEST SWAP2 PUSH1 0x7F AND SWAP2 PUSH2 0x129B JUMP JUMPDEST SWAP2 SWAP1 PUSH1 0x1 PUSH1 0x1 PUSH1 0xA0 SHL SUB AND SWAP2 DUP3 ISZERO PUSH2 0x1494 JUMPI PUSH1 0x0 SWAP1 DUP3 DUP3 MSTORE PUSH1 0x2 PUSH1 0x20 MSTORE DUP3 PUSH1 0x1 PUSH1 0x1 PUSH1 0xA0 SHL SUB PUSH1 0x40 DUP5 KECCAK256 SLOAD AND SWAP5 DUP6 CALLER ISZERO ISZERO DUP1 PUSH2 0x13D9 JUMPI JUMPDEST POP PUSH32 0xDDF252AD1BE2C89B69C2B068FC378DAA952BA7F163C4A11628F55A4DF523B3EF PUSH1 0x1 PUSH1 0x1 PUSH1 0xA0 SHL SUB SWAP6 DUP3 PUSH2 0x139F JUMPI JUMPDEST DUP4 DUP2 MSTORE PUSH1 0x3 PUSH1 0x20 MSTORE PUSH1 0x40 DUP2 KECCAK256 PUSH1 0x1 DUP2 SLOAD ADD SWAP1 SSTORE DUP5 DUP2 MSTORE PUSH1 0x2 PUSH1 0x20 MSTORE PUSH1 0x40 DUP2 KECCAK256 DUP5 PUSH1 0x1 PUSH1 0x1 PUSH1 0xA0 SHL SUB NOT DUP3 SLOAD AND OR SWAP1 SSTORE DUP1 LOG4 AND DUP1 DUP4 SUB PUSH2 0x136C JUMPI POP POP POP JUMP JUMPDEST PUSH32 0x64283D7B00000000000000000000000000000000000000000000000000000000 PUSH1 0x0 MSTORE PUSH1 0x4 MSTORE PUSH1 0x24 MSTORE PUSH1 0x44 MSTORE PUSH1 0x64 PUSH1 0x0 REVERT JUMPDEST PUSH2 0x13C0 DUP6 PUSH1 0x0 MSTORE PUSH1 0x4 PUSH1 0x20 MSTORE PUSH1 0x40 PUSH1 0x0 KECCAK256 PUSH1 0x1 PUSH1 0x1 PUSH1 0xA0 SHL SUB NOT DUP2 SLOAD AND SWAP1 SSTORE JUMP JUMPDEST DUP3 DUP2 MSTORE PUSH1 0x3 PUSH1 0x20 MSTORE PUSH1 0x40 DUP2 KECCAK256 DUP1 SLOAD PUSH1 0x0 NOT ADD SWAP1 SSTORE PUSH2 0x132E JUMP JUMPDEST SWAP2 SWAP4 SWAP5 SWAP3 POP POP DUP1 PUSH2 0x143D JUMPI JUMPDEST ISZERO PUSH2 0x13F5 JUMPI SWAP2 SWAP1 DUP4 SWAP1 DUP6 CODESIZE PUSH2 0x12FD JUMP JUMPDEST DUP4 SWAP1 DUP6 PUSH2 0x140E JUMPI PUSH1 0x24 SWAP2 PUSH4 0x7E273289 PUSH1 0xE0 SHL DUP3 MSTORE PUSH1 0x4 MSTORE REVERT JUMPDEST PUSH1 0x44 SWAP2 PUSH32 0x177E802F00000000000000000000000000000000000000000000000000000000 DUP3 MSTORE CALLER PUSH1 0x4 MSTORE PUSH1 0x24 MSTORE REVERT JUMPDEST POP CALLER DUP6 EQ DUP1 ISZERO PUSH2 0x146B JUMPI JUMPDEST DUP1 PUSH2 0x13E5 JUMPI POP DUP4 DUP2 MSTORE PUSH1 0x4 PUSH1 0x20 MSTORE CALLER PUSH1 0x1 PUSH1 0x1 PUSH1 0xA0 SHL SUB PUSH1 0x40 DUP4 KECCAK256 SLOAD AND EQ PUSH2 0x13E5 JUMP JUMPDEST POP DUP5 DUP2 MSTORE PUSH1 0x5 PUSH1 0x20 MSTORE PUSH1 0x40 DUP2 KECCAK256 PUSH1 0x1 PUSH1 0x1 PUSH1 0xA0 SHL SUB CALLER AND DUP3 MSTORE PUSH1 0x20 MSTORE PUSH1 0xFF PUSH1 0x40 DUP3 KECCAK256 SLOAD AND PUSH2 0x1448 JUMP JUMPDEST PUSH4 0x32505749 PUSH1 0xE1 SHL PUSH1 0x0 MSTORE PUSH1 0x0 PUSH1 0x4 MSTORE PUSH1 0x24 PUSH1 0x0 REVERT JUMPDEST SWAP1 PUSH2 0x14B4 DUP3 PUSH2 0x11F5 JUMP JUMPDEST PUSH2 0x14C1 PUSH1 0x40 MLOAD SWAP2 DUP3 PUSH2 0x114C JUMP JUMPDEST DUP3 DUP2 MSTORE DUP1 SWAP3 PUSH2 0x14D2 PUSH1 0x1F NOT SWAP2 PUSH2 0x11F5 JUMP JUMPDEST ADD SWAP1 PUSH1 0x20 CALLDATASIZE SWAP2 ADD CALLDATACOPY JUMP JUMPDEST PUSH1 0x0 NOT DUP2 EQ PUSH2 0x3BB JUMPI PUSH1 0x1 ADD SWAP1 JUMP JUMPDEST DUP1 MLOAD DUP3 LT ISZERO PUSH2 0x14FF JUMPI PUSH1 0x20 SWAP2 PUSH1 0x5 SHL ADD ADD SWAP1 JUMP JUMPDEST PUSH4 0x4E487B71 PUSH1 0xE0 SHL PUSH1 0x0 MSTORE PUSH1 0x32 PUSH1 0x4 MSTORE PUSH1 0x24 PUSH1 0x0 REVERT JUMPDEST ISZERO PUSH2 0x151C JUMPI JUMP JUMPDEST PUSH1 0x64 PUSH1 0x40 MLOAD PUSH3 0x461BCD PUSH1 0xE5 SHL DUP2 MSTORE PUSH1 0x20 PUSH1 0x4 DUP3 ADD MSTORE PUSH1 0x19 PUSH1 0x24 DUP3 ADD MSTORE PUSH32 0x4D6178696D756D204E4654206C696D6974207265616368656400000000000000 PUSH1 0x44 DUP3 ADD MSTORE REVERT JUMPDEST ISZERO PUSH2 0x1567 JUMPI JUMP JUMPDEST PUSH1 0x64 PUSH1 0x40 MLOAD PUSH3 0x461BCD PUSH1 0xE5 SHL DUP2 MSTORE PUSH1 0x20 PUSH1 0x4 DUP3 ADD MSTORE PUSH1 0x18 PUSH1 0x24 DUP3 ADD MSTORE PUSH32 0x4D657461646174612063616E6E6F7420626520656D7074790000000000000000 PUSH1 0x44 DUP3 ADD MSTORE REVERT JUMPDEST SWAP2 SWAP1 DUP3 ADD DUP1 SWAP3 GT PUSH2 0x3BB JUMPI JUMP JUMPDEST PUSH1 0x1 PUSH1 0x1 PUSH1 0xA0 SHL SUB AND DUP1 ISZERO PUSH2 0x15D8 JUMPI PUSH1 0x0 MSTORE PUSH1 0x3 PUSH1 0x20 MSTORE PUSH1 0x40 PUSH1 0x0 KECCAK256 SLOAD SWAP1 JUMP JUMPDEST PUSH32 0x89C62B6400000000000000000000000000000000000000000000000000000000 PUSH1 0x0 MSTORE PUSH1 0x0 PUSH1 0x4 MSTORE PUSH1 0x24 PUSH1 0x0 REVERT JUMPDEST SWAP1 PUSH2 0x1613 DUP4 DUP3 DUP5 PUSH2 0x12C6 JUMP JUMPDEST DUP1 EXTCODESIZE PUSH2 0x1620 JUMPI JUMPDEST POP POP POP POP JUMP JUMPDEST PUSH1 0x20 SWAP2 PUSH2 0x1666 PUSH1 0x1 PUSH1 0x1 PUSH1 0xA0 SHL SUB DUP1 SWAP4 AND SWAP6 PUSH1 0x40 MLOAD SWAP6 DUP7 SWAP5 DUP6 SWAP5 PUSH4 0xA85BD01 PUSH1 0xE1 SHL DUP7 MSTORE CALLER PUSH1 0x4 DUP8 ADD MSTORE AND PUSH1 0x24 DUP6 ADD MSTORE PUSH1 0x44 DUP5 ADD MSTORE PUSH1 0x80 PUSH1 0x64 DUP5 ADD MSTORE PUSH1 0x84 DUP4 ADD SWAP1 PUSH2 0x1087 JUMP JUMPDEST SUB DUP2 PUSH1 0x0 DUP7 GAS CALL DUP1 SWAP2 PUSH1 0x0 SWAP2 PUSH2 0x171E JUMPI JUMPDEST POP SWAP1 PUSH2 0x16D0 JUMPI POP RETURNDATASIZE ISZERO PUSH2 0x16C9 JUMPI RETURNDATASIZE PUSH2 0x168E DUP2 PUSH2 0x1184 JUMP JUMPDEST SWAP1 PUSH2 0x169C PUSH1 0x40 MLOAD SWAP3 DUP4 PUSH2 0x114C JUMP JUMPDEST DUP2 MSTORE RETURNDATASIZE PUSH1 0x0 PUSH1 0x20 DUP4 ADD RETURNDATACOPY JUMPDEST DUP1 MLOAD SWAP1 DUP2 PUSH2 0x16C4 JUMPI DUP3 PUSH4 0x32505749 PUSH1 0xE1 SHL PUSH1 0x0 MSTORE PUSH1 0x4 MSTORE PUSH1 0x24 PUSH1 0x0 REVERT JUMPDEST PUSH1 0x20 ADD REVERT JUMPDEST PUSH1 0x60 PUSH2 0x16A7 JUMP JUMPDEST PUSH32 0xFFFFFFFF00000000000000000000000000000000000000000000000000000000 PUSH4 0xA85BD01 PUSH1 0xE1 SHL SWAP2 AND SUB PUSH2 0x170A JUMPI POP CODESIZE DUP1 DUP1 DUP1 PUSH2 0x161A JUMP JUMPDEST PUSH4 0x32505749 PUSH1 0xE1 SHL PUSH1 0x0 MSTORE PUSH1 0x4 MSTORE PUSH1 0x24 PUSH1 0x0 REVERT JUMPDEST PUSH1 0x20 DUP2 RETURNDATASIZE PUSH1 0x20 GT PUSH2 0x1771 JUMPI JUMPDEST DUP2 PUSH2 0x1737 PUSH1 0x20 SWAP4 DUP4 PUSH2 0x114C JUMP JUMPDEST DUP2 ADD SUB SLT PUSH2 0xD0B JUMPI MLOAD SWAP1 PUSH32 0xFFFFFFFF00000000000000000000000000000000000000000000000000000000 DUP3 AND DUP3 SUB PUSH2 0xD08 JUMPI POP CODESIZE PUSH2 0x1677 JUMP JUMPDEST RETURNDATASIZE SWAP2 POP PUSH2 0x172A JUMP JUMPDEST DUP2 MLOAD ISZERO PUSH2 0x18FB JUMPI PUSH1 0x14 DUP3 MLOAD GT PUSH2 0x18B7 JUMPI PUSH2 0x1797 PUSH1 0x8 SLOAD DUP4 MLOAD SWAP1 PUSH2 0x15AB JUMP JUMPDEST PUSH1 0x0 NOT DUP2 ADD SWAP1 DUP2 GT PUSH2 0x3BB JUMPI PUSH2 0x2710 LT PUSH2 0x1873 JUMPI PUSH2 0x17B7 DUP3 SWAP4 SWAP3 MLOAD PUSH2 0x14AA JUMP JUMPDEST SWAP3 CALLER SWAP1 PUSH1 0x0 JUMPDEST DUP2 MLOAD DUP2 LT ISZERO PUSH2 0x182C JUMPI DUP1 PUSH2 0x17D3 PUSH1 0x1 SWAP3 DUP5 PUSH2 0x14EB JUMP JUMPDEST MLOAD PUSH2 0x17E0 DUP2 MLOAD ISZERO ISZERO PUSH2 0x1560 JUMP JUMPDEST PUSH2 0x17FD PUSH1 0x8 SLOAD SWAP2 PUSH2 0x17F0 DUP4 PUSH2 0x14DC JUMP JUMPDEST PUSH1 0x8 SSTORE PUSH2 0x9A5 DUP4 DUP10 PUSH2 0x1976 JUMP JUMPDEST DUP1 PUSH1 0x0 MSTORE PUSH1 0x9 PUSH1 0x20 MSTORE PUSH1 0x40 PUSH1 0x0 KECCAK256 DUP6 PUSH1 0x1 PUSH1 0x1 PUSH1 0xA0 SHL SUB NOT DUP3 SLOAD AND OR SWAP1 SSTORE PUSH2 0x1825 DUP3 DUP10 PUSH2 0x14EB JUMP JUMPDEST MSTORE ADD PUSH2 0x17BD JUMP JUMPDEST POP POP POP SWAP2 SWAP1 SWAP2 PUSH1 0x40 MLOAD PUSH32 0x661B624277564510FCE496D2133833CC55F2DB13C55BEDA96B44A0952EA3AF5 PUSH1 0x1 PUSH1 0x1 PUSH1 0xA0 SHL SUB CALLER SWAP4 AND SWAP2 DUP1 PUSH2 0x186D DUP7 DUP3 PUSH2 0x1112 JUMP JUMPDEST SUB SWAP1 LOG3 SWAP1 JUMP JUMPDEST PUSH1 0x64 PUSH1 0x40 MLOAD PUSH3 0x461BCD PUSH1 0xE5 SHL DUP2 MSTORE PUSH1 0x20 PUSH1 0x4 DUP3 ADD MSTORE PUSH1 0x19 PUSH1 0x24 DUP3 ADD MSTORE PUSH32 0x45786365656473206D6178696D756D204E4654206C696D697400000000000000 PUSH1 0x44 DUP3 ADD MSTORE REVERT JUMPDEST PUSH1 0x64 PUSH1 0x40 MLOAD PUSH3 0x461BCD PUSH1 0xE5 SHL DUP2 MSTORE PUSH1 0x20 PUSH1 0x4 DUP3 ADD MSTORE PUSH1 0x1A PUSH1 0x24 DUP3 ADD MSTORE PUSH32 0x45786365656473206D6178696D756D2062617463682073697A65000000000000 PUSH1 0x44 DUP3 ADD MSTORE REVERT JUMPDEST PUSH1 0x64 PUSH1 0x40 MLOAD PUSH3 0x461BCD PUSH1 0xE5 SHL DUP2 MSTORE PUSH1 0x20 PUSH1 0x4 DUP3 ADD MSTORE PUSH1 0x1D PUSH1 0x24 DUP3 ADD MSTORE PUSH32 0x4D6574616461746120555249732063616E6E6F7420626520656D707479000000 PUSH1 0x44 DUP3 ADD MSTORE REVERT JUMPDEST DUP1 PUSH1 0x0 MSTORE PUSH1 0x2 PUSH1 0x20 MSTORE PUSH1 0x1 PUSH1 0x1 PUSH1 0xA0 SHL SUB PUSH1 0x40 PUSH1 0x0 KECCAK256 SLOAD AND SWAP1 DUP2 ISZERO PUSH2 0x1962 JUMPI POP SWAP1 JUMP JUMPDEST PUSH4 0x7E273289 PUSH1 0xE0 SHL PUSH1 0x0 MSTORE PUSH1 0x4 MSTORE PUSH1 0x24 PUSH1 0x0 REVERT JUMPDEST PUSH1 0x1 PUSH1 0x1 PUSH1 0xA0 SHL SUB AND DUP1 ISZERO PUSH2 0x1494 JUMPI PUSH1 0x0 SWAP2 DUP1 DUP4 MSTORE PUSH1 0x2 PUSH1 0x20 MSTORE PUSH1 0x1 PUSH1 0x1 PUSH1 0xA0 SHL SUB PUSH1 0x40 DUP5 KECCAK256 SLOAD AND SWAP2 DUP3 PUSH32 0xDDF252AD1BE2C89B69C2B068FC378DAA952BA7F163C4A11628F55A4DF523B3EF DUP2 ISZERO ISZERO SWAP6 DUP7 PUSH2 0x1A32 JUMPI JUMPDEST DUP4 DUP2 MSTORE PUSH1 0x3 PUSH1 0x20 MSTORE PUSH1 0x40 DUP2 KECCAK256 PUSH1 0x1 DUP2 SLOAD ADD SWAP1 SSTORE DUP5 DUP2 MSTORE PUSH1 0x2 PUSH1 0x20 MSTORE PUSH1 0x40 DUP2 KECCAK256 DUP5 PUSH1 0x1 PUSH1 0x1 PUSH1 0xA0 SHL SUB NOT DUP3 SLOAD AND OR SWAP1 SSTORE DUP1 LOG4 POP PUSH2 0x1A03 JUMPI JUMP JUMPDEST PUSH32 0x73C6AC6E00000000000000000000000000000000000000000000000000000000 PUSH1 0x0 MSTORE PUSH1 0x0 PUSH1 0x4 MSTORE PUSH1 0x24 PUSH1 0x0 REVERT JUMPDEST PUSH2 0x1A53 DUP6 PUSH1 0x0 MSTORE PUSH1 0x4 PUSH1 0x20 MSTORE PUSH1 0x40 PUSH1 0x0 KECCAK256 PUSH1 0x1 PUSH1 0x1 PUSH1 0xA0 SHL SUB NOT DUP2 SLOAD AND SWAP1 SSTORE JUMP JUMPDEST DUP3 DUP2 MSTORE PUSH1 0x3 PUSH1 0x20 MSTORE PUSH1 0x40 DUP2 KECCAK256 DUP1 SLOAD PUSH1 0x0 NOT ADD SWAP1 SSTORE PUSH2 0x19CB JUMP JUMPDEST SWAP2 SWAP1 SWAP2 DUP1 PUSH1 0x0 MSTORE PUSH1 0x6 PUSH1 0x20 MSTORE PUSH1 0x40 PUSH1 0x0 KECCAK256 DUP4 MLOAD PUSH8 0xFFFFFFFFFFFFFFFF DUP2 GT PUSH2 0x116E JUMPI PUSH2 0x1A98 DUP3 SLOAD PUSH2 0x128C JUMP JUMPDEST PUSH1 0x1F DUP2 GT PUSH2 0x1B96 JUMPI JUMPDEST POP PUSH1 0x20 PUSH1 0x1F DUP3 GT PUSH1 0x1 EQ PUSH2 0x1B0A JUMPI SWAP1 DUP1 PUSH1 0x20 SWAP5 SWAP4 SWAP3 PUSH32 0xF8E1A15ABA9398E019F0B49DF1A4FDE98EE17AE345CB5F6B5E2C27F5033E8CE7 SWAP7 SWAP8 PUSH1 0x0 SWAP3 PUSH2 0x1AFF JUMPI JUMPDEST POP POP DUP2 PUSH1 0x1 SHL SWAP2 PUSH1 0x0 NOT SWAP1 PUSH1 0x3 SHL SHR NOT AND OR SWAP1 SSTORE JUMPDEST PUSH1 0x40 MLOAD SWAP1 DUP2 MSTORE LOG1 JUMP JUMPDEST ADD MLOAD SWAP1 POP CODESIZE DUP1 PUSH2 0x1AE1 JUMP JUMPDEST PUSH1 0x1F NOT DUP3 AND SWAP6 DUP4 PUSH1 0x0 MSTORE DUP2 PUSH1 0x0 KECCAK256 SWAP7 PUSH1 0x0 JUMPDEST DUP2 DUP2 LT PUSH2 0x1B7E JUMPI POP SWAP7 PUSH1 0x1 SWAP3 DUP5 SWAP3 PUSH1 0x20 SWAP8 SWAP7 SWAP6 PUSH32 0xF8E1A15ABA9398E019F0B49DF1A4FDE98EE17AE345CB5F6B5E2C27F5033E8CE7 SWAP10 SWAP11 LT PUSH2 0x1B65 JUMPI JUMPDEST POP POP POP DUP2 SHL ADD SWAP1 SSTORE PUSH2 0x1AF6 JUMP JUMPDEST ADD MLOAD PUSH1 0x0 NOT PUSH1 0xF8 DUP5 PUSH1 0x3 SHL AND SHR NOT AND SWAP1 SSTORE CODESIZE DUP1 DUP1 PUSH2 0x1B58 JUMP JUMPDEST DUP4 DUP4 ADD MLOAD DUP10 SSTORE PUSH1 0x1 SWAP1 SWAP9 ADD SWAP8 PUSH1 0x20 SWAP4 DUP5 ADD SWAP4 ADD PUSH2 0x1B1C JUMP JUMPDEST DUP3 PUSH1 0x0 MSTORE PUSH1 0x20 PUSH1 0x0 KECCAK256 PUSH1 0x1F DUP4 ADD PUSH1 0x5 SHR DUP2 ADD SWAP2 PUSH1 0x20 DUP5 LT PUSH2 0x1BD4 JUMPI JUMPDEST PUSH1 0x1F ADD PUSH1 0x5 SHR ADD SWAP1 JUMPDEST DUP2 DUP2 LT PUSH2 0x1BC8 JUMPI POP PUSH2 0x1AA1 JUMP JUMPDEST PUSH1 0x0 DUP2 SSTORE PUSH1 0x1 ADD PUSH2 0x1BBB JUMP JUMPDEST SWAP1 SWAP2 POP DUP2 SWAP1 PUSH2 0x1BB2 JUMP JUMPDEST DUP1 ISZERO PUSH2 0x1C9E JUMPI PUSH1 0x0 DUP2 DUP1 JUMPDEST PUSH2 0x1C8A JUMPI POP PUSH2 0x1BF7 DUP2 PUSH2 0x1184 JUMP JUMPDEST SWAP1 PUSH2 0x1C05 PUSH1 0x40 MLOAD SWAP3 DUP4 PUSH2 0x114C JUMP JUMPDEST DUP1 DUP3 MSTORE PUSH1 0x1F NOT PUSH2 0x1C14 DUP3 PUSH2 0x1184 JUMP JUMPDEST ADD CALLDATASIZE PUSH1 0x20 DUP5 ADD CALLDATACOPY JUMPDEST DUP1 SWAP3 DUP1 ISZERO PUSH2 0x1C83 JUMPI PUSH1 0x0 NOT DUP3 ADD SWAP2 DUP3 GT PUSH2 0x3BB JUMPI DUP2 SWAP4 PUSH1 0xA DUP3 MOD PUSH1 0x30 ADD SWAP3 DUP4 PUSH1 0x30 GT PUSH2 0x3BB JUMPI DUP5 MLOAD GT ISZERO PUSH2 0x14FF JUMPI PUSH1 0x1F PUSH32 0xFF00000000000000000000000000000000000000000000000000000000000000 PUSH1 0xA SWAP5 PUSH1 0xF8 SHL AND PUSH1 0x0 BYTE SWAP2 DUP6 ADD ADD MSTORE8 DIV SWAP2 PUSH2 0x1C1C JUMP JUMPDEST POP POP SWAP1 POP SWAP1 JUMP JUMPDEST SWAP1 PUSH2 0x1C96 PUSH1 0xA SWAP2 PUSH2 0x14DC JUMP JUMPDEST SWAP2 DIV DUP1 PUSH2 0x1BE9 JUMP JUMPDEST POP PUSH1 0x40 MLOAD PUSH2 0x1CAD PUSH1 0x40 DUP3 PUSH2 0x114C JUMP JUMPDEST PUSH1 0x1 DUP2 MSTORE PUSH32 0x3000000000000000000000000000000000000000000000000000000000000000 PUSH1 0x20 DUP3 ADD MSTORE SWAP1 JUMP JUMPDEST PUSH1 0x1 PUSH1 0x1 PUSH1 0xA0 SHL SUB PUSH1 0x7 SLOAD AND CALLER SUB PUSH2 0x1CEE JUMPI JUMP JUMPDEST PUSH32 0x118CDAA700000000000000000000000000000000000000000000000000000000 PUSH1 0x0 MSTORE CALLER PUSH1 0x4 MSTORE PUSH1 0x24 PUSH1 0x0 REVERT JUMPDEST PUSH2 0x1D25 DUP2 PUSH2 0x193F JUMP JUMPDEST POP PUSH1 0x0 MSTORE PUSH1 0x6 PUSH1 0x20 MSTORE PUSH1 0x40 PUSH1 0x0 KECCAK256 PUSH1 0x40 MLOAD SWAP1 DUP2 PUSH1 0x0 DUP3 SLOAD SWAP3 PUSH2 0x1D46 DUP5 PUSH2 0x128C JUMP JUMPDEST DUP1 DUP5 MSTORE SWAP4 PUSH1 0x1 DUP2 AND SWAP1 DUP2 ISZERO PUSH2 0x1DC6 JUMPI POP PUSH1 0x1 EQ PUSH2 0x1D7F JUMPI JUMPDEST POP PUSH2 0x1D6B SWAP3 POP SUB DUP3 PUSH2 0x114C JUMP JUMPDEST PUSH1 0x0 PUSH1 0x40 MLOAD PUSH2 0x1D7B PUSH1 0x20 DUP3 PUSH2 0x114C JUMP JUMPDEST MSTORE SWAP1 JUMP JUMPDEST SWAP1 POP PUSH1 0x0 SWAP3 SWAP2 SWAP3 MSTORE PUSH1 0x20 PUSH1 0x0 KECCAK256 SWAP1 PUSH1 0x0 SWAP2 JUMPDEST DUP2 DUP4 LT PUSH2 0x1DAA JUMPI POP POP SWAP1 PUSH1 0x20 PUSH2 0x1D6B SWAP3 DUP3 ADD ADD CODESIZE PUSH2 0x1D5E JUMP JUMPDEST PUSH1 0x20 SWAP2 SWAP4 POP DUP1 PUSH1 0x1 SWAP2 SLOAD DUP4 DUP6 DUP9 ADD ADD MSTORE ADD SWAP2 ADD SWAP1 SWAP2 DUP4 SWAP3 PUSH2 0x1D91 JUMP JUMPDEST SWAP1 POP PUSH1 0x20 SWAP3 POP PUSH2 0x1D6B SWAP5 SWAP2 POP PUSH1 0xFF NOT AND DUP3 DUP5 ADD MSTORE ISZERO ISZERO PUSH1 0x5 SHL DUP3 ADD ADD CODESIZE PUSH2 0x1D5E JUMP INVALID LOG2 PUSH5 0x6970667358 0x22 SLT KECCAK256 DUP13 PUSH7 0x5D22E887625E36 EXTCODESIZE PUSH4 0x67881E2A SWAP13 SMOD DUP6 CALLDATASIZE PUSH22 0x8C495FD615559D3AA252071864736F6C634300081C00 CALLER "},"methodIdentifiers":{"MAX_BATCH_SIZE()":"cfdbf254","MAX_NFT()":"6fdaddf1","approve(address,uint256)":"095ea7b3","balanceOf(address)":"70a08231","getApproved(uint256)":"081812fc","getRemainingSupply()":"e4b7fb73","getTokenCreator(uint256)":"934689a9","getTokensOfOwner(address)":"5de6dc55","getTotalNFT()":"bcf16f2d","isApprovedForAll(address,address)":"e985e9c5","mintCollectionWithBaseURI(address,uint256,string)":"69f63a66","mintMyCollection(string[])":"fc8041ba","mintNFT(string)":"fb37e883","mintNFTCollection(address,string[])":"b956c330","mintSingleNFT(address,string)":"6829bbea","name()":"06fdde03","owner()":"8da5cb5b","ownerOf(uint256)":"6352211e","renounceOwnership()":"715018a6","safeTransferFrom(address,address,uint256)":"42842e0e","safeTransferFrom(address,address,uint256,bytes)":"b88d4fde","setApprovalForAll(address,bool)":"a22cb465","supportsInterface(bytes4)":"01ffc9a7","symbol()":"95d89b41","tokenCreators(uint256)":"e0fd045f","tokenURI(uint256)":"c87b56dd","transferFrom(address,address,uint256)":"23b872dd","transferOwnership(address)":"f2fde38b"}}}}}