{"contracts/sealedBidAuction.sol":{"SealedBidAuction":{"abi":[{"inputs":[{"internalType":"address","name":"initialOwner","type":"address"}],"stateMutability":"nonpayable","type":"constructor"},{"inputs":[{"internalType":"address","name":"owner","type":"address"}],"name":"OwnableInvalidOwner","type":"error"},{"inputs":[{"internalType":"address","name":"account","type":"address"}],"name":"OwnableUnauthorizedAccount","type":"error"},{"inputs":[],"name":"ReentrancyGuardReentrantCall","type":"error"},{"anonymous":false,"inputs":[{"indexed":true,"internalType":"uint256","name":"auctionId","type":"uint256"},{"indexed":true,"internalType":"address","name":"seller","type":"address"},{"indexed":false,"internalType":"string","name":"reason","type":"string"}],"name":"AuctionCancelled","type":"event"},{"anonymous":false,"inputs":[{"indexed":true,"internalType":"uint256","name":"auctionId","type":"uint256"},{"indexed":true,"internalType":"address","name":"seller","type":"address"},{"indexed":true,"internalType":"address","name":"nftContract","type":"address"},{"indexed":false,"internalType":"enum SealedBidAuction.AuctionType","name":"auctionType","type":"uint8"},{"indexed":false,"internalType":"uint256","name":"tokenId","type":"uint256"},{"indexed":false,"internalType":"uint256[]","name":"tokenIds","type":"uint256[]"},{"indexed":false,"internalType":"uint256","name":"startingPrice","type":"uint256"},{"indexed":false,"internalType":"uint256","name":"endTime","type":"uint256"},{"indexed":false,"internalType":"string","name":"title","type":"string"}],"name":"AuctionCreated","type":"event"},{"anonymous":false,"inputs":[{"indexed":true,"internalType":"uint256","name":"auctionId","type":"uint256"},{"indexed":true,"internalType":"address","name":"winner","type":"address"},{"indexed":false,"internalType":"uint256","name":"finalPrice","type":"uint256"},{"indexed":false,"internalType":"uint256","name":"platformFeeAmount","type":"uint256"},{"indexed":false,"internalType":"uint256","name":"sellerAmount","type":"uint256"}],"name":"AuctionFinalized","type":"event"},{"anonymous":false,"inputs":[{"indexed":true,"internalType":"uint256","name":"auctionId","type":"uint256"},{"indexed":true,"internalType":"address","name":"bidder","type":"address"},{"indexed":false,"internalType":"uint256","name":"timestamp","type":"uint256"}],"name":"BidPlaced","type":"event"},{"anonymous":false,"inputs":[{"indexed":true,"internalType":"uint256","name":"auctionId","type":"uint256"},{"indexed":true,"internalType":"address","name":"winner","type":"address"},{"indexed":false,"internalType":"uint256","name":"amountPaid","type":"uint256"}],"name":"NFTClaimed","type":"event"},{"anonymous":false,"inputs":[{"indexed":true,"internalType":"uint256","name":"auctionId","type":"uint256"},{"indexed":true,"internalType":"address","name":"seller","type":"address"}],"name":"NFTReclaimed","type":"event"},{"anonymous":false,"inputs":[{"indexed":true,"internalType":"address","name":"previousOwner","type":"address"},{"indexed":true,"internalType":"address","name":"newOwner","type":"address"}],"name":"OwnershipTransferred","type":"event"},{"inputs":[],"name":"BID_EXTENSION_TIME","outputs":[{"internalType":"uint256","name":"","type":"uint256"}],"stateMutability":"view","type":"function"},{"inputs":[],"name":"CLAIM_DURATION","outputs":[{"internalType":"uint256","name":"","type":"uint256"}],"stateMutability":"view","type":"function"},{"inputs":[],"name":"MAX_AUCTION_DURATION","outputs":[{"internalType":"uint256","name":"","type":"uint256"}],"stateMutability":"view","type":"function"},{"inputs":[],"name":"MAX_BIDS_PER_AUCTION","outputs":[{"internalType":"uint256","name":"","type":"uint256"}],"stateMutability":"view","type":"function"},{"inputs":[],"name":"MAX_COLLECTION_SIZE","outputs":[{"internalType":"uint256","name":"","type":"uint256"}],"stateMutability":"view","type":"function"},{"inputs":[],"name":"MAX_EXTENSIONS","outputs":[{"internalType":"uint256","name":"","type":"uint256"}],"stateMutability":"view","type":"function"},{"inputs":[],"name":"MIN_AUCTION_DURATION","outputs":[{"internalType":"uint256","name":"","type":"uint256"}],"stateMutability":"view","type":"function"},{"inputs":[],"name":"MIN_BID_INCREMENT","outputs":[{"internalType":"uint256","name":"","type":"uint256"}],"stateMutability":"view","type":"function"},{"inputs":[],"name":"PLATFORM_FEE","outputs":[{"internalType":"uint256","name":"","type":"uint256"}],"stateMutability":"view","type":"function"},{"inputs":[{"internalType":"uint256","name":"","type":"uint256"}],"name":"auctions","outputs":[{"internalType":"uint256","name":"auctionId","type":"uint256"},{"internalType":"enum SealedBidAuction.AuctionType","name":"auctionType","type":"uint8"},{"internalType":"address","name":"nftContract","type":"address"},{"internalType":"uint256","name":"tokenId","type":"uint256"},{"internalType":"address","name":"seller","type":"address"},{"internalType":"uint256","name":"startingPrice","type":"uint256"},{"internalType":"uint256","name":"reservePrice","type":"uint256"},{"internalType":"uint256","name":"minBidIncrement","type":"uint256"},{"internalType":"uint256","name":"startTime","type":"uint256"},{"internalType":"uint256","name":"endTime","type":"uint256"},{"internalType":"uint256","name":"bidExtensionTime","type":"uint256"},{"internalType":"enum SealedBidAuction.AuctionState","name":"state","type":"uint8"},{"internalType":"uint256","name":"totalBids","type":"uint256"},{"internalType":"address","name":"highestBidder","type":"address"},{"internalType":"uint256","name":"highestBid","type":"uint256"},{"internalType":"string","name":"title","type":"string"},{"internalType":"string","name":"description","type":"string"},{"internalType":"uint256","name":"claimDeadline","type":"uint256"}],"stateMutability":"view","type":"function"},{"inputs":[{"internalType":"uint256","name":"auctionId","type":"uint256"}],"name":"cancelAuction","outputs":[],"stateMutability":"nonpayable","type":"function"},{"inputs":[{"internalType":"uint256","name":"auctionId","type":"uint256"}],"name":"claimNFT","outputs":[],"stateMutability":"payable","type":"function"},{"inputs":[{"internalType":"address","name":"nftContract","type":"address"},{"internalType":"uint256[]","name":"tokenIds","type":"uint256[]"},{"internalType":"uint256","name":"startingPrice","type":"uint256"},{"internalType":"uint256","name":"reservePrice","type":"uint256"},{"internalType":"uint256","name":"minBidIncrement","type":"uint256"},{"internalType":"uint256","name":"duration","type":"uint256"},{"internalType":"string","name":"title","type":"string"},{"internalType":"string","name":"description","type":"string"}],"name":"createCollectionAuction","outputs":[{"internalType":"uint256","name":"","type":"uint256"}],"stateMutability":"nonpayable","type":"function"},{"inputs":[{"internalType":"address","name":"nftContract","type":"address"},{"internalType":"uint256","name":"tokenId","type":"uint256"},{"internalType":"uint256","name":"startingPrice","type":"uint256"},{"internalType":"uint256","name":"reservePrice","type":"uint256"},{"internalType":"uint256","name":"minBidIncrement","type":"uint256"},{"internalType":"uint256","name":"duration","type":"uint256"},{"internalType":"string","name":"title","type":"string"},{"internalType":"string","name":"description","type":"string"}],"name":"createSingleNFTAuction","outputs":[{"internalType":"uint256","name":"","type":"uint256"}],"stateMutability":"nonpayable","type":"function"},{"inputs":[{"internalType":"uint256","name":"auctionId","type":"uint256"}],"name":"finalizeAuction","outputs":[],"stateMutability":"nonpayable","type":"function"},{"inputs":[{"internalType":"uint256","name":"auctionId","type":"uint256"}],"name":"getAuctionBids","outputs":[{"components":[{"internalType":"address","name":"bidder","type":"address"},{"internalType":"uint256","name":"amount","type":"uint256"},{"internalType":"uint256","name":"timestamp","type":"uint256"},{"internalType":"uint256","name":"deposit","type":"uint256"}],"internalType":"struct SealedBidAuction.Bid[]","name":"","type":"tuple[]"}],"stateMutability":"view","type":"function"},{"inputs":[{"internalType":"address","name":"","type":"address"},{"internalType":"address","name":"","type":"address"},{"internalType":"uint256","name":"","type":"uint256"},{"internalType":"bytes","name":"","type":"bytes"}],"name":"onERC721Received","outputs":[{"internalType":"bytes4","name":"","type":"bytes4"}],"stateMutability":"nonpayable","type":"function"},{"inputs":[],"name":"owner","outputs":[{"internalType":"address","name":"","type":"address"}],"stateMutability":"view","type":"function"},{"inputs":[{"internalType":"uint256","name":"auctionId","type":"uint256"},{"internalType":"uint256","name":"bidAmount","type":"uint256"}],"name":"placeBid","outputs":[],"stateMutability":"payable","type":"function"},{"inputs":[{"internalType":"uint256","name":"auctionId","type":"uint256"}],"name":"reclaimNFT","outputs":[],"stateMutability":"nonpayable","type":"function"},{"inputs":[],"name":"renounceOwnership","outputs":[],"stateMutability":"nonpayable","type":"function"},{"inputs":[{"internalType":"address","name":"newOwner","type":"address"}],"name":"transferOwnership","outputs":[],"stateMutability":"nonpayable","type":"function"}],"evm":{"bytecode":{"linkReferences":{},"object":"60803460c557601f61323338819003918201601f19168301916001600160401b0383118484101760ca5780849260209460405283398101031260c557516001600160a01b0381169081900360c5576001600055801560af57600180546001600160a01b03198116831790915560405191906001600160a01b03167f8be0079c531659141344cd1fd0a4f28419497f9722a3daafe3b4186f6b6457e0600080a3600160025561315290816100e18239f35b631e4fbdf760e01b600052600060045260246000fd5b600080fd5b634e487b7160e01b600052604160045260246000fdfe60e0604052600436101561001257600080fd5b60003560e01c8063150b7a02146127985780632b51e6ca14611dd8578063328fbcde14611dbb57806334fbc9a114611d9f5780633fb3517814611d815780634035cc6c14611d65578063571a26a014611bd957806357c90de5146117bf57806364a2243814610ed657806370b4768e14610d3f578063715018a614610ce457806371943bce14610cc25780638da5cb5b14610c9b57806396b5a75514610ba0578063a08db82e146108ed578063b73b959f146108d0578063c07780f6146108b4578063c2f50a7a14610897578063e808386314610544578063f2fde38b146104a2578063fe5c873a146101315763ff844a631461010e57600080fd5b3461012c57600036600319011261012c5760206040516203f4808152f35b600080fd5b602036600319011261012c57600435610148612d9b565b80600052600360205260406000209060ff600b8301541660038110156103aa5760016101749114612d50565b6001600160a01b03600d83015416330361045e576011820154421161041a57600e82015460058301926101a8845483612d43565b938434036103d65760fa830283810460fa14841517156103c0576127106101d191048094612d43565b906001830160ff81541660028110156103aa576102f257546002840154919060081c6001600160a01b0316803b1561012c57604051632142170760e11b815230600482015233602482015260448101939093526000908390606490829084905af19081156102c457610262600095946001600160a01b0360048897889788976102e2575b505b015416925490612d43565b908282156102d9575bf1156102c4576000808080936001600160a01b03600154168282156102d0575bf1156102c4576040519182527f92ffae31901780890e35bdc724fedb7601577492b5d4e3df85f785de59d737ab60203393a36001600055005b6040513d6000823e3d90fd5b506108fc61028b565b506108fc61026b565b876102ec9161287c565b8d610255565b939060009693959260038701975b8854811015610387576001600160a01b03875460081c1690610322818b612c69565b90549060031b1c91803b1561012c57604051632142170760e11b815230600482015233602482015260448101939093526000908390606490829084905af19182156102c457600192610376575b5001610300565b60006103819161287c565b8a61036f565b506000949750849396849396508392916001600160a01b03600461026293610257565b634e487b7160e01b600052602160045260246000fd5b634e487b7160e01b600052601160045260246000fd5b606460405162461bcd60e51b815260206004820152601060248201527f496e636f727265637420616d6f756e74000000000000000000000000000000006044820152fd5b606460405162461bcd60e51b815260206004820152601460248201527f436c61696d20706572696f6420657870697265640000000000000000000000006044820152fd5b606460405162461bcd60e51b815260206004820152600a60248201527f4e6f742077696e6e6572000000000000000000000000000000000000000000006044820152fd5b3461012c57602036600319011261012c576001600160a01b036104c3612817565b6104cb612e64565b168015610515576001600160a01b03600154826001600160a01b0319821617600155167f8be0079c531659141344cd1fd0a4f28419497f9722a3daafe3b4186f6b6457e0600080a3005b7f1e4fbdf700000000000000000000000000000000000000000000000000000000600052600060045260246000fd5b3461012c57602036600319011261012c57600435610560612d9b565b806000526003602052604060002090600b820160ff81541660038110156103aa5761058b9015612cdc565b6009830154421061085357805460ff19166001179055600081815260046020526040812080549192918391600019835b8381106107b957505050506001600160a01b0390600d85018282166001600160a01b031982541617905583600e8601551692831515806107ab575b15610760576203f48042018042116103c057601182015560fa830283810460fa14841517156103c05761271090049261062f8482612d43565b60005b84600052600460205260406000205481101561071f5784600052600460205261065f816040600020612d27565b5080549091906001600160a01b031688146106c957600080808060036001600160a01b038754169601958654908282156106c0575bf1156102c457600191548660005260086020526106b76040600020918254612d43565b90555b01610632565b506108fc610694565b600080808060036001600160a01b0360048b015416960195865490828215610716575bf1156102c4576001915486600052600860205261070f6040600020918254612d43565b90556106ba565b506108fc6106ec565b50606092507f4cf70fe07783506b8e02682ddebd0688a2a16b3373c5fec55f74095cecd67aa8939460405192835260208301526040820152a35b6001600055005b5090506107a691506040519061077760408361287c565b600f82527f52657365727665206e6f74206d657400000000000000000000000000000000006020830152612ea6565b610759565b5060068101548310156105f6565b8660016107c68386612d27565b500154118015610824575b6107de575b6001016105bb565b8260019397508195506107f19250612d27565b500154936001600160a01b036108078483612d27565b50541692600160026108198385612d27565b5001549190506107d6565b508660016108328386612d27565b5001541480156107d1575081600261084a8386612d27565b500154106107d1565b606460405162461bcd60e51b815260206004820152601460248201527f41756374696f6e207374696c6c206163746976650000000000000000000000006044820152fd5b3461012c57600036600319011261012c576020604051610e108152f35b3461012c57600036600319011261012c576020604051600a8152f35b3461012c57600036600319011261012c5760206040516102588152f35b3461012c57602036600319011261012c57600435610909612d9b565b806000526003602052604060002060ff600b8201541660038110156103aa5760016109349114612d50565b600481016001600160a01b038154163303610b5c57601182015442118015610b47575b15610add576001820160ff81541660028110156103aa57610a27576001600160a01b03905460081c169160026001600160a01b03835416910154833b1561012c57604051632142170760e11b81523060048201526001600160a01b039290921660248301526044820152916000908390606490829084905af19182156102c4576001600160a01b0392610a16575b505b5416907f56c922176dd9b2a1fdcf8a3aa048b543fc88a2750fcd5341c0b635bb9d11f817600080a36001600055005b6000610a219161287c565b836109e5565b9092916003019060005b8254811015610acb576001600160a01b03825460081c16906001600160a01b03865416610a5e8286612c69565b90549060031b1c833b1561012c57604051632142170760e11b81523060048201526001600160a01b039290921660248301526044820152916000908390606490829084905af19182156102c457600192610aba575b5001610a31565b6000610ac59161287c565b86610ab3565b505050906001600160a01b03906109e7565b608460405162461bcd60e51b815260206004820152602360248201527f436c61696d20706572696f64206e6f742065787069726564206f72206e6f206260448201527f69647300000000000000000000000000000000000000000000000000000000006064820152fd5b506001600160a01b03600d8301541615610957565b606460405162461bcd60e51b815260206004820152600a60248201527f4e6f742073656c6c6572000000000000000000000000000000000000000000006044820152fd5b3461012c57602036600319011261012c57600435610bbc612d9b565b806000526003602052604060002060ff600b8201541660038110156103aa576001600160a01b0391610bf060049215612cdc565b01541633148015610c87575b15610c43576107599060405190610c1460408361287c565b601c82527f43616e63656c6c65642062792073656c6c6572206f72206f776e6572000000006020830152612ea6565b606460405162461bcd60e51b815260206004820152600e60248201527f4e6f7420617574686f72697a65640000000000000000000000000000000000006044820152fd5b506001600160a01b03600154163314610bfc565b3461012c57600036600319011261012c5760206001600160a01b0360015416604051908152f35b3461012c57600036600319011261012c57602060405166038d7ea4c680008152f35b3461012c57600036600319011261012c57610cfd612e64565b60006001600160a01b036001546001600160a01b03198116600155167f8be0079c531659141344cd1fd0a4f28419497f9722a3daafe3b4186f6b6457e08280a3005b3461012c57602036600319011261012c5760043580151580610ecb575b15610e875780600052600360205260ff600b604060002001541660038110156103aa576001610d8b9114612d50565b60005260046020526040600020805490610da482612c22565b91610db2604051938461287c565b80835260208301809260005260206000206000915b838310610e3d5784866040519182916020830190602084525180915260408301919060005b818110610dfa575050500390f35b9193509160206080600192606087516001600160a01b03815116835284810151858401526040810151604084015201516060820152019401910191849392610dec565b60046020600192604051610e5081612860565b6001600160a01b03865416815284860154838201526002860154604082015260038601546060820152815201920192019190610dc7565b606460405162461bcd60e51b815260206004820152601260248201527f496e76616c69642061756374696f6e20494400000000000000000000000000006044820152fd5b506002548110610d5c565b3461012c5761010036600319011261012c57610ef0612817565b60a43560c43567ffffffffffffffff811161012c57610f139036906004016128e5565b60e49291923567ffffffffffffffff811161012c57610f369036906004016128e5565b919093610f41612d9b565b610f52610f4d87612dd6565b612a32565b610e10841015806117b2575b610f6790612a7d565b6044351515806117a4575b610f7b90612ac8565b610f9066038d7ea4c680006084351015612b13565b8115611760576040516331a9108f60e11b815260243560048201526020816024816001600160a01b038b165afa9081156102c457600091611741575b506001600160a01b03339116036116fd5760405163020604bf60e21b815260243560048201526020816024816001600160a01b038b165afa9081156102c4576000916116ce575b506001600160a01b031630148015611659575b61102f90612bbb565b6001600160a01b0386163b1561012c57604051632142170760e11b815233600482015230602480830191909152356044820152600081606481836001600160a01b038c165af180156102c457611648575b5061109a6002549461109186612c06565b60025542612c15565b611157602096604051956110ae898861287c565b600087526000368137604051966110c488612843565b88885260008a8901526001600160a01b038b166040890152602435606089015260808801523360a088015260443560c088015260643560e08801526084356101008801524261012088015283610140880152610258610160880152600061018088015260006101a088015260006101c088015260006101e088015261114a36878761289e565b610200880152369161289e565b61022085015260006102408501528460005260038652604060002084518155868501519460028610156103aa57600095600183015474ffffffffffffffffffffffffffffffffffffffffff1960ff74ffffffffffffffffffffffffffffffffffffffff00604086015160081b16931691161717600183015560608101516002830155608081015180519067ffffffffffffffff821161154757680100000000000000008211611547578990600385015483600387015580841061162b575b5001600384018852898820885b83811061161957505050506001600160a01b0360a0820151166001600160a01b036004840191166001600160a01b031982541617905560c0810151600583015560e08101516006830155610100810151600783015561012081015160088301556101408101516009830155610160810151600a8301556101808101516003811015611605576112b490600b8401612c51565b6101a0810151600c8301556001600160a01b036101c0820151166001600160a01b03600d840191166001600160a01b03198254161790556101e0810151600e83015561020081015180519067ffffffffffffffff821161154757819061131d600f860154612913565b8b601f82116115d4575b50508a90601f831160011461156657899261155b575b50508160011b916000199060031b1c191617600f8301555b61022081015180519067ffffffffffffffff82116115475761137a6010850154612913565b601f811161150b575b508990601f831160011461149957918060119492610240948b9261148e575b50508160011b916000199060031b1c19161760108501555b0151910155338452600686526113d38560408620612c81565b604051966113e1878961287c565b848852843681376040519160c083018684526024358985015260c0604085015289518091528860e085019a0190875b81811061147a57505050918061146e88999a6001600160a01b037fed64e6c300ab5f25f3a8e69b83450e8787c7246008ffd6b98a2e36ee7aabddb69560019b976044356060870152608086015284830360a086015216973397612cbb565b0390a455604051908152f35b82518c529a8a019a918a0191600101611410565b015190508d806113a2565b906010850189528a892091895b8c601f19861682106114f557505092601194926001926102409583601f198116106114dc575b505050811b0160108501556113ba565b015160001960f88460031b161c191690558d80806114cc565b60018495829395850151815501940192016114a6565b61153790601086018a528b8a20601f850160051c8101918d861061153d575b601f0160051c0190612c3a565b8b611383565b909150819061152a565b602488634e487b7160e01b81526041600452fd5b015190508b8061133d565b9250600f850189528a89209089935b8c601f19851686106115bb57506001945083601f198116106115a2575b505050811b01600f830155611355565b015160001960f88460031b161c191690558b8080611592565b8282015184559485019460019093019290910190611575565b600f87018b52808b206115fe92601f860160051c820192861061153d57601f0160051c0190612c3a565b8c8b611327565b602487634e487b7160e01b81526021600452fd5b825182820155918b0191600101611222565b600386018a52828a20611642918101908501612c3a565b8c611215565b60006116539161287c565b86611080565b5060405163e985e9c560e01b81523360048201523060248201526020816044816001600160a01b038b165afa80156102c45761102f9160009161169f575b509050611026565b6116c1915060203d6020116116c7575b6116b9818361287c565b810190612ba3565b88611697565b503d6116af565b6116f0915060203d6020116116f6575b6116e8818361287c565b810190612b84565b87611013565b503d6116de565b606460405162461bcd60e51b815260206004820152600d60248201527f4e6f74204e4654206f776e6572000000000000000000000000000000000000006044820152fd5b61175a915060203d6020116116f6576116e8818361287c565b87610fcc565b606460405162461bcd60e51b815260206004820152600e60248201527f5469746c652072657175697265640000000000000000000000000000000000006044820152fd5b506044356064351015610f72565b5062278d00841115610f5e565b604036600319011261012c576004356024356117d9612d9b565b816000526003602052604060002060ff600b8201541660038110156103aa576118029015612cdc565b60098101918254421015611b95576001600160a01b036004830154163314611b51576005820154803403611b0d57600783015461183e91612c15565b8110611ac957600c82016103e881541015611a85576000858152600560209081526040808320338452909152902054908115611955575084600052600460205260406000209060001981019081116103c05761189991612d27565b509060018201805482111561191157556002429101555b600a82549101546118c18183612d43565b4210156118fe575b83604051904282527f0e54eff26401bf69b81b26f60bd85ef47f5d85275c1d268d84f68d6897431c4760203393a36001600055005b61190791612c15565b90558180806118c9565b606460405162461bcd60e51b815260206004820152601660248201527f4e657720626964206d75737420626520686967686572000000000000000000006044820152fd5b91905084600052600460205260406000206040519061197382612860565b33825260208201928352604082014281526060830191348352805468010000000000000000811015611a6f576119ae91600182018155612d27565b949094611a59576001600160a01b03806003955116166001600160a01b03198654161785555160018501555160028401555191015583600052600460205260406000205484600052600560205260406000206001600160a01b033316600052602052604060002055611a208154612c06565b9055336000526007602052611a39836040600020612c81565b8260005260086020526040600020611a52348254612c15565b90556118b0565b634e487b7160e01b600052600060045260246000fd5b634e487b7160e01b600052604160045260246000fd5b606460405162461bcd60e51b815260206004820152601060248201527f4d617820626964732072656163686564000000000000000000000000000000006044820152fd5b606460405162461bcd60e51b815260206004820152600b60248201527f42696420746f6f206c6f770000000000000000000000000000000000000000006044820152fd5b606460405162461bcd60e51b815260206004820152601160248201527f496e636f7272656374206465706f7369740000000000000000000000000000006044820152fd5b606460405162461bcd60e51b815260206004820152601160248201527f53656c6c65722063616e6e6f74206269640000000000000000000000000000006044820152fd5b606460405162461bcd60e51b815260206004820152600d60248201527f41756374696f6e20656e646564000000000000000000000000000000000000006044820152fd5b3461012c57602036600319011261012c5760043560005260036020526040600020805460c05260018101549060028101549060048101546001600160a01b031660058201549260068301549160078401546008850154600986015490600a87015492600b88015460ff1696600c89015499600d8a01546001600160a01b0316608052600e8a015496600f8b01611c6e9061294d565b98611c7b60108d0161294d565b9b601101549d60405160a05260c05160a0515260ff8116600211156103aa578060ff6001600160a01b039216602060a051015260081c16604060a0510152606060a0510152608060a051015260a08051015260c060a051015260e060a051015261010060a051015261012060a051015261014060a051015260038310156103aa57611d5294611d3f9361016060a051015261018060a05101526080516101a060a05101526101c060a05101526102406101e060a051015261024060a05101906129f1565b9060a051820361020060a05101526129f1565b9061022060a051015260a051900360a051f35b3461012c57600036600319011261012c57602060405160648152f35b3461012c57600036600319011261012c57602060405162278d008152f35b3461012c57600036600319011261012c57602060405160fa8152f35b3461012c57600036600319011261012c5760206040516103e88152f35b3461012c5761010036600319011261012c57611df2612817565b6024359067ffffffffffffffff821161012c573660238301121561012c5767ffffffffffffffff82600401351161012c57366024836004013560051b8401011161012c5760c43567ffffffffffffffff811161012c57611e569036906004016128e5565b9060e43567ffffffffffffffff811161012c57611e779036906004016128e5565b949091611e82612d9b565b611e8e610f4d86612dd6565b610e1060a435101580612789575b611ea590612a7d565b60443515158061277b575b611eb990612ac8565b611ece66038d7ea4c680006084351015612b13565b8315158061276d575b8061275e575b1561271a5760005b826004013581106124fc575060025494611efe86612c06565b600255611f0d60a43542612c15565b9360405190611f1b82612843565b878252600160208301526001600160a01b038316604083015260006060830152611f488560040135612c22565b98611f566040519a8b61287c565b60048601358a5260009960248701602082015b6024896004013560051b8a010182106124ec57505090611ff3929160808501523360a085015260443560c085015260643560e085015260843561010085015242610120850152876101408501526102586101608501528a6101808501528a6101a08501528a6101c08501528a6101e0850152611fe6368a8861289e565b610200850152369161289e565b6102208201528761024082015286885260036020526040882090805182556020810151600281101561249257600183015474ffffffffffffffffffffffffffffffffffffffffff1960ff74ffffffffffffffffffffffffffffffffffffffff00604086015160081b16931691161717600183015560608101516002830155608081015180519067ffffffffffffffff82116124d8576801000000000000000082116124d8576020908b6003860154846003880155848181106124ba575b50505001600384018b5260208b208b5b8381106124a657505050506001600160a01b0360a0820151166001600160a01b036004840191166001600160a01b031982541617905560c0810151600583015560e08101516006830155610100810151600783015561012081015160088301556101408101516009830155610160810151600a83015561018081015160038110156124925761215290600b8401612c51565b6101a0810151600c8301556001600160a01b036101c0820151166001600160a01b03600d840191166001600160a01b03198254161790556101e0810151600e830155600f820161020082015180519067ffffffffffffffff82116123e05781908c6121bd8554612913565b601f8111612462575b50506020908d601f84116001146123ff57926123f4575b50508160011b916000199060031b1c19161790555b6010820161022082015180519067ffffffffffffffff82116123e0578b6122198454612913565b601f81116123b0575b50506020908c601f8411600114612346579261024094928192601197959261233b575b50508160011b916000199060031b1c19161790555b015191015533875260066020526122748660408920612c81565b604051926001845287602085015260c06040850152806004013560c08501527f07ffffffffffffffffffffffffffffffffffffffffffffffffffffffffffffff81600401351161233757836001969461146e60209a97956001600160a01b038b96867fed64e6c300ab5f25f3a8e69b83450e8787c7246008ffd6b98a2e36ee7aabddb6976004013560051b6024820160e08801376004013560051b8501986044356060870152608086015260e0858a030160a0860152169760e033980191612cbb565b8780fd5b015190508e80612245565b9190601f198416858452828420935b81811061239857509260019285926011989661024098961061237f575b505050811b01905561225a565b015160001960f88460031b161c191690558e8080612372565b92936020600181928786015181550195019301612355565b602082866123d9945220601f850160051c8101916020861061153d57601f0160051c0190612c3a565b8b8d612222565b60248c634e487b7160e01b81526041600452fd5b015190508c806121dd565b8581528281209350601f198516905b81811061244a5750908460019594939210612431575b505050811b0190556121f2565b015160001960f88460031b161c191690558c8080612424565b9293602060018192878601518155019501930161240e565b6020828761248b945220601f850160051c8101916020861061153d57601f0160051c0190612c3a565b8c8e6121c6565b60248a634e487b7160e01b81526021600452fd5b6001906020845194019381840155016120c0565b846124d09360038a018152209182019101612c3a565b8b8d846120b0565b60248b634e487b7160e01b81526041600452fd5b8135815260209182019101611f69565b61250e81846004013560248601612b5e565b35604051906331a9108f60e11b825260048201526020816024816001600160a01b038b165afa9081156102c4576000916126fc575b506001600160a01b03339116036126b85761256681846004013560248601612b5e565b356040519063020604bf60e21b825260048201526020816024816001600160a01b038b165afa9081156102c45760009161269a575b506001600160a01b031630148015612636575b6125b790612bbb565b6125c981846004013560248601612b5e565b35906001600160a01b0387163b1561012c57604051632142170760e11b81523360048201523060248201526044810192909252600082606481836001600160a01b038c165af19182156102c457600192612625575b5001611ee5565b60006126309161287c565b8861261e565b5060405163e985e9c560e01b81523360048201523060248201526020816044816001600160a01b038b165afa80156102c4576125b79160009161267c575b5090506125ae565b612694915060203d81116116c7576116b9818361287c565b89612674565b6126b2915060203d81116116f6576116e8818361287c565b8861259b565b606460405162461bcd60e51b815260206004820152600960248201527f4e6f74206f776e657200000000000000000000000000000000000000000000006044820152fd5b612714915060203d81116116f6576116e8818361287c565b88612543565b606460405162461bcd60e51b815260206004820152601060248201527f496e76616c696420746f6b656e496473000000000000000000000000000000006044820152fd5b50606482600401351115611edd565b506001826004013511611ed7565b506044356064351015611eb0565b5062278d0060a4351115611e9c565b3461012c57608036600319011261012c576127b1612817565b506127ba61282d565b5060643567ffffffffffffffff811161012c573660238201121561012c576127ec90369060248160040135910161289e565b5060206040517f150b7a02000000000000000000000000000000000000000000000000000000008152f35b600435906001600160a01b038216820361012c57565b602435906001600160a01b038216820361012c57565b610260810190811067ffffffffffffffff821117611a6f57604052565b6080810190811067ffffffffffffffff821117611a6f57604052565b90601f8019910116810190811067ffffffffffffffff821117611a6f57604052565b92919267ffffffffffffffff8211611a6f57604051916128c8601f8201601f19166020018461287c565b82948184528183011161012c578281602093846000960137010152565b9181601f8401121561012c5782359167ffffffffffffffff831161012c576020838186019501011161012c57565b90600182811c92168015612943575b602083101461292d57565b634e487b7160e01b600052602260045260246000fd5b91607f1691612922565b906040519182600082549261296184612913565b80845293600181169081156129cf5750600114612988575b506129869250038361287c565b565b90506000929192526020600020906000915b8183106129b35750509060206129869282010138612979565b602091935080600191548385890101520191019091849261299a565b90506020925061298694915060ff191682840152151560051b82010138612979565b919082519283825260005b848110612a1d575050826000602080949584010152601f8019910116010190565b806020809284010151828286010152016129fc565b15612a3957565b606460405162461bcd60e51b815260206004820152601460248201527f496e76616c6964204e465420636f6e74726163740000000000000000000000006044820152fd5b15612a8457565b606460405162461bcd60e51b815260206004820152601060248201527f496e76616c6964206475726174696f6e000000000000000000000000000000006044820152fd5b15612acf57565b606460405162461bcd60e51b815260206004820152600d60248201527f496e76616c6964207072696365000000000000000000000000000000000000006044820152fd5b15612b1a57565b606460405162461bcd60e51b815260206004820152601160248201527f496e6372656d656e7420746f6f206c6f770000000000000000000000000000006044820152fd5b9190811015612b6e5760051b0190565b634e487b7160e01b600052603260045260246000fd5b9081602091031261012c57516001600160a01b038116810361012c5790565b9081602091031261012c5751801515810361012c5790565b15612bc257565b606460405162461bcd60e51b815260206004820152601560248201527f436f6e7472616374206e6f7420617070726f76656400000000000000000000006044820152fd5b60001981146103c05760010190565b919082018092116103c057565b67ffffffffffffffff8111611a6f5760051b60200190565b818110612c45575050565b60008155600101612c3a565b9060038110156103aa5760ff80198354169116179055565b8054821015612b6e5760005260206000200190600090565b805468010000000000000000811015611a6f57612ca391600182018155612c69565b819291549060031b91821b91600019901b1916179055565b908060209392818452848401376000828201840152601f01601f1916010190565b15612ce357565b606460405162461bcd60e51b815260206004820152601260248201527f41756374696f6e206e6f742061637469766500000000000000000000000000006044820152fd5b8054821015612b6e5760005260206000209060021b0190600090565b919082039182116103c057565b15612d5757565b606460405162461bcd60e51b815260206004820152601560248201527f41756374696f6e206e6f742066696e616c697a656400000000000000000000006044820152fd5b600260005414612dac576002600055565b7f3ee5aeb50000000000000000000000000000000000000000000000000000000060005260046000fd5b60206001600160a01b03916024604051809481937f01ffc9a70000000000000000000000000000000000000000000000000000000083527f80ac58cd000000000000000000000000000000000000000000000000000000006004840152165afa9081156102c457600091612e48575090565b612e61915060203d6020116116c7576116b9818361287c565b90565b6001600160a01b03600154163303612e7857565b7f118cdaa7000000000000000000000000000000000000000000000000000000006000523360045260246000fd5b91826000526003602052604060002091600b8301600260ff1982541617905560005b846000526004602052604060002054811015612f4b57846000526004602052612ef5816040600020612d27565b5090600080808060036001600160a01b03875416960195865490828215612f42575bf1156102c45760019154866000526008602052612f3a6040600020918254612d43565b905501612ec8565b506108fc612f17565b50919290926001810160ff81541660028110156103aa57613034576001600160a01b03905460081c16906001600160a01b036004820154166002820154833b1561012c57604051632142170760e11b81523060048201526001600160a01b039290921660248301526044820152916000908390606490829084905af19182156102c457600461301e926001600160a01b03927fcdb034d750ed0c5924ffbc3ee3c5cbca328261d8301d42e9c176788ddca9ac4795613023575b505b015416936040519182916020835260208301906129f1565b0390a3565b600061302e9161287c565b38613004565b909293600094600385019360048601965b85548110156130df576001600160a01b03855460081c16906001600160a01b038954166130728289612c69565b90549060031b1c833b1561012c57604051632142170760e11b81523060048201526001600160a01b039290921660248301526044820152916000908390606490829084905af19182156102c4576001926130ce575b5001613045565b60006130d99161287c565b386130c7565b5093509361301e9195507fcdb034d750ed0c5924ffbc3ee3c5cbca328261d8301d42e9c176788ddca9ac47925060046001600160a01b039161300656fea2646970667358221220272e1af4f121f483b55bd3e85b7630289688af216edc33ddee2d96cf8f1b1c1b64736f6c634300081c0033","opcodes":"PUSH1 0x80 CALLVALUE PUSH1 0xC5 JUMPI PUSH1 0x1F PUSH2 0x3233 CODESIZE DUP2 SWAP1 SUB SWAP2 DUP3 ADD PUSH1 0x1F NOT AND DUP4 ADD SWAP2 PUSH1 0x1 PUSH1 0x1 PUSH1 0x40 SHL SUB DUP4 GT DUP5 DUP5 LT OR PUSH1 0xCA JUMPI DUP1 DUP5 SWAP3 PUSH1 0x20 SWAP5 PUSH1 0x40 MSTORE DUP4 CODECOPY DUP2 ADD SUB SLT PUSH1 0xC5 JUMPI MLOAD PUSH1 0x1 PUSH1 0x1 PUSH1 0xA0 SHL SUB DUP2 AND SWAP1 DUP2 SWAP1 SUB PUSH1 0xC5 JUMPI PUSH1 0x1 PUSH1 0x0 SSTORE DUP1 ISZERO PUSH1 0xAF JUMPI PUSH1 0x1 DUP1 SLOAD PUSH1 0x1 PUSH1 0x1 PUSH1 0xA0 SHL SUB NOT DUP2 AND DUP4 OR SWAP1 SWAP2 SSTORE PUSH1 0x40 MLOAD SWAP2 SWAP1 PUSH1 0x1 PUSH1 0x1 PUSH1 0xA0 SHL SUB AND PUSH32 0x8BE0079C531659141344CD1FD0A4F28419497F9722A3DAAFE3B4186F6B6457E0 PUSH1 0x0 DUP1 LOG3 PUSH1 0x1 PUSH1 0x2 SSTORE PUSH2 0x3152 SWAP1 DUP2 PUSH2 0xE1 DUP3 CODECOPY RETURN JUMPDEST PUSH4 0x1E4FBDF7 PUSH1 0xE0 SHL PUSH1 0x0 MSTORE PUSH1 0x0 PUSH1 0x4 MSTORE PUSH1 0x24 PUSH1 0x0 REVERT JUMPDEST PUSH1 0x0 DUP1 REVERT JUMPDEST PUSH4 0x4E487B71 PUSH1 0xE0 SHL PUSH1 0x0 MSTORE PUSH1 0x41 PUSH1 0x4 MSTORE PUSH1 0x24 PUSH1 0x0 REVERT INVALID PUSH1 0xE0 PUSH1 0x40 MSTORE PUSH1 0x4 CALLDATASIZE LT ISZERO PUSH2 0x12 JUMPI PUSH1 0x0 DUP1 REVERT JUMPDEST PUSH1 0x0 CALLDATALOAD PUSH1 0xE0 SHR DUP1 PUSH4 0x150B7A02 EQ PUSH2 0x2798 JUMPI DUP1 PUSH4 0x2B51E6CA EQ PUSH2 0x1DD8 JUMPI DUP1 PUSH4 0x328FBCDE EQ PUSH2 0x1DBB JUMPI DUP1 PUSH4 0x34FBC9A1 EQ PUSH2 0x1D9F JUMPI DUP1 PUSH4 0x3FB35178 EQ PUSH2 0x1D81 JUMPI DUP1 PUSH4 0x4035CC6C EQ PUSH2 0x1D65 JUMPI DUP1 PUSH4 0x571A26A0 EQ PUSH2 0x1BD9 JUMPI DUP1 PUSH4 0x57C90DE5 EQ PUSH2 0x17BF JUMPI DUP1 PUSH4 0x64A22438 EQ PUSH2 0xED6 JUMPI DUP1 PUSH4 0x70B4768E EQ PUSH2 0xD3F JUMPI DUP1 PUSH4 0x715018A6 EQ PUSH2 0xCE4 JUMPI DUP1 PUSH4 0x71943BCE EQ PUSH2 0xCC2 JUMPI DUP1 PUSH4 0x8DA5CB5B EQ PUSH2 0xC9B JUMPI DUP1 PUSH4 0x96B5A755 EQ PUSH2 0xBA0 JUMPI DUP1 PUSH4 0xA08DB82E EQ PUSH2 0x8ED JUMPI DUP1 PUSH4 0xB73B959F EQ PUSH2 0x8D0 JUMPI DUP1 PUSH4 0xC07780F6 EQ PUSH2 0x8B4 JUMPI DUP1 PUSH4 0xC2F50A7A EQ PUSH2 0x897 JUMPI DUP1 PUSH4 0xE8083863 EQ PUSH2 0x544 JUMPI DUP1 PUSH4 0xF2FDE38B EQ PUSH2 0x4A2 JUMPI DUP1 PUSH4 0xFE5C873A EQ PUSH2 0x131 JUMPI PUSH4 0xFF844A63 EQ PUSH2 0x10E JUMPI PUSH1 0x0 DUP1 REVERT JUMPDEST CALLVALUE PUSH2 0x12C JUMPI PUSH1 0x0 CALLDATASIZE PUSH1 0x3 NOT ADD SLT PUSH2 0x12C JUMPI PUSH1 0x20 PUSH1 0x40 MLOAD PUSH3 0x3F480 DUP2 MSTORE RETURN JUMPDEST PUSH1 0x0 DUP1 REVERT JUMPDEST PUSH1 0x20 CALLDATASIZE PUSH1 0x3 NOT ADD SLT PUSH2 0x12C JUMPI PUSH1 0x4 CALLDATALOAD PUSH2 0x148 PUSH2 0x2D9B JUMP JUMPDEST DUP1 PUSH1 0x0 MSTORE PUSH1 0x3 PUSH1 0x20 MSTORE PUSH1 0x40 PUSH1 0x0 KECCAK256 SWAP1 PUSH1 0xFF PUSH1 0xB DUP4 ADD SLOAD AND PUSH1 0x3 DUP2 LT ISZERO PUSH2 0x3AA JUMPI PUSH1 0x1 PUSH2 0x174 SWAP2 EQ PUSH2 0x2D50 JUMP JUMPDEST PUSH1 0x1 PUSH1 0x1 PUSH1 0xA0 SHL SUB PUSH1 0xD DUP4 ADD SLOAD AND CALLER SUB PUSH2 0x45E JUMPI PUSH1 0x11 DUP3 ADD SLOAD TIMESTAMP GT PUSH2 0x41A JUMPI PUSH1 0xE DUP3 ADD SLOAD PUSH1 0x5 DUP4 ADD SWAP3 PUSH2 0x1A8 DUP5 SLOAD DUP4 PUSH2 0x2D43 JUMP JUMPDEST SWAP4 DUP5 CALLVALUE SUB PUSH2 0x3D6 JUMPI PUSH1 0xFA DUP4 MUL DUP4 DUP2 DIV PUSH1 0xFA EQ DUP5 ISZERO OR ISZERO PUSH2 0x3C0 JUMPI PUSH2 0x2710 PUSH2 0x1D1 SWAP2 DIV DUP1 SWAP5 PUSH2 0x2D43 JUMP JUMPDEST SWAP1 PUSH1 0x1 DUP4 ADD PUSH1 0xFF DUP2 SLOAD AND PUSH1 0x2 DUP2 LT ISZERO PUSH2 0x3AA JUMPI PUSH2 0x2F2 JUMPI SLOAD PUSH1 0x2 DUP5 ADD SLOAD SWAP2 SWAP1 PUSH1 0x8 SHR PUSH1 0x1 PUSH1 0x1 PUSH1 0xA0 SHL SUB AND DUP1 EXTCODESIZE ISZERO PUSH2 0x12C JUMPI PUSH1 0x40 MLOAD PUSH4 0x21421707 PUSH1 0xE1 SHL DUP2 MSTORE ADDRESS PUSH1 0x4 DUP3 ADD MSTORE CALLER PUSH1 0x24 DUP3 ADD MSTORE PUSH1 0x44 DUP2 ADD SWAP4 SWAP1 SWAP4 MSTORE PUSH1 0x0 SWAP1 DUP4 SWAP1 PUSH1 0x64 SWAP1 DUP3 SWAP1 DUP5 SWAP1 GAS CALL SWAP1 DUP2 ISZERO PUSH2 0x2C4 JUMPI PUSH2 0x262 PUSH1 0x0 SWAP6 SWAP5 PUSH1 0x1 PUSH1 0x1 PUSH1 0xA0 SHL SUB PUSH1 0x4 DUP9 SWAP8 DUP9 SWAP8 DUP9 SWAP8 PUSH2 0x2E2 JUMPI JUMPDEST POP JUMPDEST ADD SLOAD AND SWAP3 SLOAD SWAP1 PUSH2 0x2D43 JUMP JUMPDEST SWAP1 DUP3 DUP3 ISZERO PUSH2 0x2D9 JUMPI JUMPDEST CALL ISZERO PUSH2 0x2C4 JUMPI PUSH1 0x0 DUP1 DUP1 DUP1 SWAP4 PUSH1 0x1 PUSH1 0x1 PUSH1 0xA0 SHL SUB PUSH1 0x1 SLOAD AND DUP3 DUP3 ISZERO PUSH2 0x2D0 JUMPI JUMPDEST CALL ISZERO PUSH2 0x2C4 JUMPI PUSH1 0x40 MLOAD SWAP2 DUP3 MSTORE PUSH32 0x92FFAE31901780890E35BDC724FEDB7601577492B5D4E3DF85F785DE59D737AB PUSH1 0x20 CALLER SWAP4 LOG3 PUSH1 0x1 PUSH1 0x0 SSTORE STOP JUMPDEST PUSH1 0x40 MLOAD RETURNDATASIZE PUSH1 0x0 DUP3 RETURNDATACOPY RETURNDATASIZE SWAP1 REVERT JUMPDEST POP PUSH2 0x8FC PUSH2 0x28B JUMP JUMPDEST POP PUSH2 0x8FC PUSH2 0x26B JUMP JUMPDEST DUP8 PUSH2 0x2EC SWAP2 PUSH2 0x287C JUMP JUMPDEST DUP14 PUSH2 0x255 JUMP JUMPDEST SWAP4 SWAP1 PUSH1 0x0 SWAP7 SWAP4 SWAP6 SWAP3 PUSH1 0x3 DUP8 ADD SWAP8 JUMPDEST DUP9 SLOAD DUP2 LT ISZERO PUSH2 0x387 JUMPI PUSH1 0x1 PUSH1 0x1 PUSH1 0xA0 SHL SUB DUP8 SLOAD PUSH1 0x8 SHR AND SWAP1 PUSH2 0x322 DUP2 DUP12 PUSH2 0x2C69 JUMP JUMPDEST SWAP1 SLOAD SWAP1 PUSH1 0x3 SHL SHR SWAP2 DUP1 EXTCODESIZE ISZERO PUSH2 0x12C JUMPI PUSH1 0x40 MLOAD PUSH4 0x21421707 PUSH1 0xE1 SHL DUP2 MSTORE ADDRESS PUSH1 0x4 DUP3 ADD MSTORE CALLER PUSH1 0x24 DUP3 ADD MSTORE PUSH1 0x44 DUP2 ADD SWAP4 SWAP1 SWAP4 MSTORE PUSH1 0x0 SWAP1 DUP4 SWAP1 PUSH1 0x64 SWAP1 DUP3 SWAP1 DUP5 SWAP1 GAS CALL SWAP2 DUP3 ISZERO PUSH2 0x2C4 JUMPI PUSH1 0x1 SWAP3 PUSH2 0x376 JUMPI JUMPDEST POP ADD PUSH2 0x300 JUMP JUMPDEST PUSH1 0x0 PUSH2 0x381 SWAP2 PUSH2 0x287C JUMP JUMPDEST DUP11 PUSH2 0x36F JUMP JUMPDEST POP PUSH1 0x0 SWAP5 SWAP8 POP DUP5 SWAP4 SWAP7 DUP5 SWAP4 SWAP7 POP DUP4 SWAP3 SWAP2 PUSH1 0x1 PUSH1 0x1 PUSH1 0xA0 SHL SUB PUSH1 0x4 PUSH2 0x262 SWAP4 PUSH2 0x257 JUMP JUMPDEST PUSH4 0x4E487B71 PUSH1 0xE0 SHL PUSH1 0x0 MSTORE PUSH1 0x21 PUSH1 0x4 MSTORE PUSH1 0x24 PUSH1 0x0 REVERT JUMPDEST PUSH4 0x4E487B71 PUSH1 0xE0 SHL PUSH1 0x0 MSTORE PUSH1 0x11 PUSH1 0x4 MSTORE PUSH1 0x24 PUSH1 0x0 REVERT JUMPDEST PUSH1 0x64 PUSH1 0x40 MLOAD PUSH3 0x461BCD PUSH1 0xE5 SHL DUP2 MSTORE PUSH1 0x20 PUSH1 0x4 DUP3 ADD MSTORE PUSH1 0x10 PUSH1 0x24 DUP3 ADD MSTORE PUSH32 0x496E636F727265637420616D6F756E7400000000000000000000000000000000 PUSH1 0x44 DUP3 ADD MSTORE REVERT JUMPDEST PUSH1 0x64 PUSH1 0x40 MLOAD PUSH3 0x461BCD PUSH1 0xE5 SHL DUP2 MSTORE PUSH1 0x20 PUSH1 0x4 DUP3 ADD MSTORE PUSH1 0x14 PUSH1 0x24 DUP3 ADD MSTORE PUSH32 0x436C61696D20706572696F642065787069726564000000000000000000000000 PUSH1 0x44 DUP3 ADD MSTORE REVERT JUMPDEST PUSH1 0x64 PUSH1 0x40 MLOAD PUSH3 0x461BCD PUSH1 0xE5 SHL DUP2 MSTORE PUSH1 0x20 PUSH1 0x4 DUP3 ADD MSTORE PUSH1 0xA PUSH1 0x24 DUP3 ADD MSTORE PUSH32 0x4E6F742077696E6E657200000000000000000000000000000000000000000000 PUSH1 0x44 DUP3 ADD MSTORE REVERT JUMPDEST CALLVALUE PUSH2 0x12C JUMPI PUSH1 0x20 CALLDATASIZE PUSH1 0x3 NOT ADD SLT PUSH2 0x12C JUMPI PUSH1 0x1 PUSH1 0x1 PUSH1 0xA0 SHL SUB PUSH2 0x4C3 PUSH2 0x2817 JUMP JUMPDEST PUSH2 0x4CB PUSH2 0x2E64 JUMP JUMPDEST AND DUP1 ISZERO PUSH2 0x515 JUMPI PUSH1 0x1 PUSH1 0x1 PUSH1 0xA0 SHL SUB PUSH1 0x1 SLOAD DUP3 PUSH1 0x1 PUSH1 0x1 PUSH1 0xA0 SHL SUB NOT DUP3 AND OR PUSH1 0x1 SSTORE AND PUSH32 0x8BE0079C531659141344CD1FD0A4F28419497F9722A3DAAFE3B4186F6B6457E0 PUSH1 0x0 DUP1 LOG3 STOP JUMPDEST PUSH32 0x1E4FBDF700000000000000000000000000000000000000000000000000000000 PUSH1 0x0 MSTORE PUSH1 0x0 PUSH1 0x4 MSTORE PUSH1 0x24 PUSH1 0x0 REVERT JUMPDEST CALLVALUE PUSH2 0x12C JUMPI PUSH1 0x20 CALLDATASIZE PUSH1 0x3 NOT ADD SLT PUSH2 0x12C JUMPI PUSH1 0x4 CALLDATALOAD PUSH2 0x560 PUSH2 0x2D9B JUMP JUMPDEST DUP1 PUSH1 0x0 MSTORE PUSH1 0x3 PUSH1 0x20 MSTORE PUSH1 0x40 PUSH1 0x0 KECCAK256 SWAP1 PUSH1 0xB DUP3 ADD PUSH1 0xFF DUP2 SLOAD AND PUSH1 0x3 DUP2 LT ISZERO PUSH2 0x3AA JUMPI PUSH2 0x58B SWAP1 ISZERO PUSH2 0x2CDC JUMP JUMPDEST PUSH1 0x9 DUP4 ADD SLOAD TIMESTAMP LT PUSH2 0x853 JUMPI DUP1 SLOAD PUSH1 0xFF NOT AND PUSH1 0x1 OR SWAP1 SSTORE PUSH1 0x0 DUP2 DUP2 MSTORE PUSH1 0x4 PUSH1 0x20 MSTORE PUSH1 0x40 DUP2 KECCAK256 DUP1 SLOAD SWAP2 SWAP3 SWAP2 DUP4 SWAP2 PUSH1 0x0 NOT DUP4 JUMPDEST DUP4 DUP2 LT PUSH2 0x7B9 JUMPI POP POP POP POP PUSH1 0x1 PUSH1 0x1 PUSH1 0xA0 SHL SUB SWAP1 PUSH1 0xD DUP6 ADD DUP3 DUP3 AND PUSH1 0x1 PUSH1 0x1 PUSH1 0xA0 SHL SUB NOT DUP3 SLOAD AND OR SWAP1 SSTORE DUP4 PUSH1 0xE DUP7 ADD SSTORE AND SWAP3 DUP4 ISZERO ISZERO DUP1 PUSH2 0x7AB JUMPI JUMPDEST ISZERO PUSH2 0x760 JUMPI PUSH3 0x3F480 TIMESTAMP ADD DUP1 TIMESTAMP GT PUSH2 0x3C0 JUMPI PUSH1 0x11 DUP3 ADD SSTORE PUSH1 0xFA DUP4 MUL DUP4 DUP2 DIV PUSH1 0xFA EQ DUP5 ISZERO OR ISZERO PUSH2 0x3C0 JUMPI PUSH2 0x2710 SWAP1 DIV SWAP3 PUSH2 0x62F DUP5 DUP3 PUSH2 0x2D43 JUMP JUMPDEST PUSH1 0x0 JUMPDEST DUP5 PUSH1 0x0 MSTORE PUSH1 0x4 PUSH1 0x20 MSTORE PUSH1 0x40 PUSH1 0x0 KECCAK256 SLOAD DUP2 LT ISZERO PUSH2 0x71F JUMPI DUP5 PUSH1 0x0 MSTORE PUSH1 0x4 PUSH1 0x20 MSTORE PUSH2 0x65F DUP2 PUSH1 0x40 PUSH1 0x0 KECCAK256 PUSH2 0x2D27 JUMP JUMPDEST POP DUP1 SLOAD SWAP1 SWAP2 SWAP1 PUSH1 0x1 PUSH1 0x1 PUSH1 0xA0 SHL SUB AND DUP9 EQ PUSH2 0x6C9 JUMPI PUSH1 0x0 DUP1 DUP1 DUP1 PUSH1 0x3 PUSH1 0x1 PUSH1 0x1 PUSH1 0xA0 SHL SUB DUP8 SLOAD AND SWAP7 ADD SWAP6 DUP7 SLOAD SWAP1 DUP3 DUP3 ISZERO PUSH2 0x6C0 JUMPI JUMPDEST CALL ISZERO PUSH2 0x2C4 JUMPI PUSH1 0x1 SWAP2 SLOAD DUP7 PUSH1 0x0 MSTORE PUSH1 0x8 PUSH1 0x20 MSTORE PUSH2 0x6B7 PUSH1 0x40 PUSH1 0x0 KECCAK256 SWAP2 DUP3 SLOAD PUSH2 0x2D43 JUMP JUMPDEST SWAP1 SSTORE JUMPDEST ADD PUSH2 0x632 JUMP JUMPDEST POP PUSH2 0x8FC PUSH2 0x694 JUMP JUMPDEST PUSH1 0x0 DUP1 DUP1 DUP1 PUSH1 0x3 PUSH1 0x1 PUSH1 0x1 PUSH1 0xA0 SHL SUB PUSH1 0x4 DUP12 ADD SLOAD AND SWAP7 ADD SWAP6 DUP7 SLOAD SWAP1 DUP3 DUP3 ISZERO PUSH2 0x716 JUMPI JUMPDEST CALL ISZERO PUSH2 0x2C4 JUMPI PUSH1 0x1 SWAP2 SLOAD DUP7 PUSH1 0x0 MSTORE PUSH1 0x8 PUSH1 0x20 MSTORE PUSH2 0x70F PUSH1 0x40 PUSH1 0x0 KECCAK256 SWAP2 DUP3 SLOAD PUSH2 0x2D43 JUMP JUMPDEST SWAP1 SSTORE PUSH2 0x6BA JUMP JUMPDEST POP PUSH2 0x8FC PUSH2 0x6EC JUMP JUMPDEST POP PUSH1 0x60 SWAP3 POP PUSH32 0x4CF70FE07783506B8E02682DDEBD0688A2A16B3373C5FEC55F74095CECD67AA8 SWAP4 SWAP5 PUSH1 0x40 MLOAD SWAP3 DUP4 MSTORE PUSH1 0x20 DUP4 ADD MSTORE PUSH1 0x40 DUP3 ADD MSTORE LOG3 JUMPDEST PUSH1 0x1 PUSH1 0x0 SSTORE STOP JUMPDEST POP SWAP1 POP PUSH2 0x7A6 SWAP2 POP PUSH1 0x40 MLOAD SWAP1 PUSH2 0x777 PUSH1 0x40 DUP4 PUSH2 0x287C JUMP JUMPDEST PUSH1 0xF DUP3 MSTORE PUSH32 0x52657365727665206E6F74206D65740000000000000000000000000000000000 PUSH1 0x20 DUP4 ADD MSTORE PUSH2 0x2EA6 JUMP JUMPDEST PUSH2 0x759 JUMP JUMPDEST POP PUSH1 0x6 DUP2 ADD SLOAD DUP4 LT ISZERO PUSH2 0x5F6 JUMP JUMPDEST DUP7 PUSH1 0x1 PUSH2 0x7C6 DUP4 DUP7 PUSH2 0x2D27 JUMP JUMPDEST POP ADD SLOAD GT DUP1 ISZERO PUSH2 0x824 JUMPI JUMPDEST PUSH2 0x7DE JUMPI JUMPDEST PUSH1 0x1 ADD PUSH2 0x5BB JUMP JUMPDEST DUP3 PUSH1 0x1 SWAP4 SWAP8 POP DUP2 SWAP6 POP PUSH2 0x7F1 SWAP3 POP PUSH2 0x2D27 JUMP JUMPDEST POP ADD SLOAD SWAP4 PUSH1 0x1 PUSH1 0x1 PUSH1 0xA0 SHL SUB PUSH2 0x807 DUP5 DUP4 PUSH2 0x2D27 JUMP JUMPDEST POP SLOAD AND SWAP3 PUSH1 0x1 PUSH1 0x2 PUSH2 0x819 DUP4 DUP6 PUSH2 0x2D27 JUMP JUMPDEST POP ADD SLOAD SWAP2 SWAP1 POP PUSH2 0x7D6 JUMP JUMPDEST POP DUP7 PUSH1 0x1 PUSH2 0x832 DUP4 DUP7 PUSH2 0x2D27 JUMP JUMPDEST POP ADD SLOAD EQ DUP1 ISZERO PUSH2 0x7D1 JUMPI POP DUP2 PUSH1 0x2 PUSH2 0x84A DUP4 DUP7 PUSH2 0x2D27 JUMP JUMPDEST POP ADD SLOAD LT PUSH2 0x7D1 JUMP JUMPDEST PUSH1 0x64 PUSH1 0x40 MLOAD PUSH3 0x461BCD PUSH1 0xE5 SHL DUP2 MSTORE PUSH1 0x20 PUSH1 0x4 DUP3 ADD MSTORE PUSH1 0x14 PUSH1 0x24 DUP3 ADD MSTORE PUSH32 0x41756374696F6E207374696C6C20616374697665000000000000000000000000 PUSH1 0x44 DUP3 ADD MSTORE REVERT JUMPDEST CALLVALUE PUSH2 0x12C JUMPI PUSH1 0x0 CALLDATASIZE PUSH1 0x3 NOT ADD SLT PUSH2 0x12C JUMPI PUSH1 0x20 PUSH1 0x40 MLOAD PUSH2 0xE10 DUP2 MSTORE RETURN JUMPDEST CALLVALUE PUSH2 0x12C JUMPI PUSH1 0x0 CALLDATASIZE PUSH1 0x3 NOT ADD SLT PUSH2 0x12C JUMPI PUSH1 0x20 PUSH1 0x40 MLOAD PUSH1 0xA DUP2 MSTORE RETURN JUMPDEST CALLVALUE PUSH2 0x12C JUMPI PUSH1 0x0 CALLDATASIZE PUSH1 0x3 NOT ADD SLT PUSH2 0x12C JUMPI PUSH1 0x20 PUSH1 0x40 MLOAD PUSH2 0x258 DUP2 MSTORE RETURN JUMPDEST CALLVALUE PUSH2 0x12C JUMPI PUSH1 0x20 CALLDATASIZE PUSH1 0x3 NOT ADD SLT PUSH2 0x12C JUMPI PUSH1 0x4 CALLDATALOAD PUSH2 0x909 PUSH2 0x2D9B JUMP JUMPDEST DUP1 PUSH1 0x0 MSTORE PUSH1 0x3 PUSH1 0x20 MSTORE PUSH1 0x40 PUSH1 0x0 KECCAK256 PUSH1 0xFF PUSH1 0xB DUP3 ADD SLOAD AND PUSH1 0x3 DUP2 LT ISZERO PUSH2 0x3AA JUMPI PUSH1 0x1 PUSH2 0x934 SWAP2 EQ PUSH2 0x2D50 JUMP JUMPDEST PUSH1 0x4 DUP2 ADD PUSH1 0x1 PUSH1 0x1 PUSH1 0xA0 SHL SUB DUP2 SLOAD AND CALLER SUB PUSH2 0xB5C JUMPI PUSH1 0x11 DUP3 ADD SLOAD TIMESTAMP GT DUP1 ISZERO PUSH2 0xB47 JUMPI JUMPDEST ISZERO PUSH2 0xADD JUMPI PUSH1 0x1 DUP3 ADD PUSH1 0xFF DUP2 SLOAD AND PUSH1 0x2 DUP2 LT ISZERO PUSH2 0x3AA JUMPI PUSH2 0xA27 JUMPI PUSH1 0x1 PUSH1 0x1 PUSH1 0xA0 SHL SUB SWAP1 SLOAD PUSH1 0x8 SHR AND SWAP2 PUSH1 0x2 PUSH1 0x1 PUSH1 0x1 PUSH1 0xA0 SHL SUB DUP4 SLOAD AND SWAP2 ADD SLOAD DUP4 EXTCODESIZE ISZERO PUSH2 0x12C JUMPI PUSH1 0x40 MLOAD PUSH4 0x21421707 PUSH1 0xE1 SHL DUP2 MSTORE ADDRESS PUSH1 0x4 DUP3 ADD MSTORE PUSH1 0x1 PUSH1 0x1 PUSH1 0xA0 SHL SUB SWAP3 SWAP1 SWAP3 AND PUSH1 0x24 DUP4 ADD MSTORE PUSH1 0x44 DUP3 ADD MSTORE SWAP2 PUSH1 0x0 SWAP1 DUP4 SWAP1 PUSH1 0x64 SWAP1 DUP3 SWAP1 DUP5 SWAP1 GAS CALL SWAP2 DUP3 ISZERO PUSH2 0x2C4 JUMPI PUSH1 0x1 PUSH1 0x1 PUSH1 0xA0 SHL SUB SWAP3 PUSH2 0xA16 JUMPI JUMPDEST POP JUMPDEST SLOAD AND SWAP1 PUSH32 0x56C922176DD9B2A1FDCF8A3AA048B543FC88A2750FCD5341C0B635BB9D11F817 PUSH1 0x0 DUP1 LOG3 PUSH1 0x1 PUSH1 0x0 SSTORE STOP JUMPDEST PUSH1 0x0 PUSH2 0xA21 SWAP2 PUSH2 0x287C JUMP JUMPDEST DUP4 PUSH2 0x9E5 JUMP JUMPDEST SWAP1 SWAP3 SWAP2 PUSH1 0x3 ADD SWAP1 PUSH1 0x0 JUMPDEST DUP3 SLOAD DUP2 LT ISZERO PUSH2 0xACB JUMPI PUSH1 0x1 PUSH1 0x1 PUSH1 0xA0 SHL SUB DUP3 SLOAD PUSH1 0x8 SHR AND SWAP1 PUSH1 0x1 PUSH1 0x1 PUSH1 0xA0 SHL SUB DUP7 SLOAD AND PUSH2 0xA5E DUP3 DUP7 PUSH2 0x2C69 JUMP JUMPDEST SWAP1 SLOAD SWAP1 PUSH1 0x3 SHL SHR DUP4 EXTCODESIZE ISZERO PUSH2 0x12C JUMPI PUSH1 0x40 MLOAD PUSH4 0x21421707 PUSH1 0xE1 SHL DUP2 MSTORE ADDRESS PUSH1 0x4 DUP3 ADD MSTORE PUSH1 0x1 PUSH1 0x1 PUSH1 0xA0 SHL SUB SWAP3 SWAP1 SWAP3 AND PUSH1 0x24 DUP4 ADD MSTORE PUSH1 0x44 DUP3 ADD MSTORE SWAP2 PUSH1 0x0 SWAP1 DUP4 SWAP1 PUSH1 0x64 SWAP1 DUP3 SWAP1 DUP5 SWAP1 GAS CALL SWAP2 DUP3 ISZERO PUSH2 0x2C4 JUMPI PUSH1 0x1 SWAP3 PUSH2 0xABA JUMPI JUMPDEST POP ADD PUSH2 0xA31 JUMP JUMPDEST PUSH1 0x0 PUSH2 0xAC5 SWAP2 PUSH2 0x287C JUMP JUMPDEST DUP7 PUSH2 0xAB3 JUMP JUMPDEST POP POP POP SWAP1 PUSH1 0x1 PUSH1 0x1 PUSH1 0xA0 SHL SUB SWAP1 PUSH2 0x9E7 JUMP JUMPDEST PUSH1 0x84 PUSH1 0x40 MLOAD PUSH3 0x461BCD PUSH1 0xE5 SHL DUP2 MSTORE PUSH1 0x20 PUSH1 0x4 DUP3 ADD MSTORE PUSH1 0x23 PUSH1 0x24 DUP3 ADD MSTORE PUSH32 0x436C61696D20706572696F64206E6F742065787069726564206F72206E6F2062 PUSH1 0x44 DUP3 ADD MSTORE PUSH32 0x6964730000000000000000000000000000000000000000000000000000000000 PUSH1 0x64 DUP3 ADD MSTORE REVERT JUMPDEST POP PUSH1 0x1 PUSH1 0x1 PUSH1 0xA0 SHL SUB PUSH1 0xD DUP4 ADD SLOAD AND ISZERO PUSH2 0x957 JUMP JUMPDEST PUSH1 0x64 PUSH1 0x40 MLOAD PUSH3 0x461BCD PUSH1 0xE5 SHL DUP2 MSTORE PUSH1 0x20 PUSH1 0x4 DUP3 ADD MSTORE PUSH1 0xA PUSH1 0x24 DUP3 ADD MSTORE PUSH32 0x4E6F742073656C6C657200000000000000000000000000000000000000000000 PUSH1 0x44 DUP3 ADD MSTORE REVERT JUMPDEST CALLVALUE PUSH2 0x12C JUMPI PUSH1 0x20 CALLDATASIZE PUSH1 0x3 NOT ADD SLT PUSH2 0x12C JUMPI PUSH1 0x4 CALLDATALOAD PUSH2 0xBBC PUSH2 0x2D9B JUMP JUMPDEST DUP1 PUSH1 0x0 MSTORE PUSH1 0x3 PUSH1 0x20 MSTORE PUSH1 0x40 PUSH1 0x0 KECCAK256 PUSH1 0xFF PUSH1 0xB DUP3 ADD SLOAD AND PUSH1 0x3 DUP2 LT ISZERO PUSH2 0x3AA JUMPI PUSH1 0x1 PUSH1 0x1 PUSH1 0xA0 SHL SUB SWAP2 PUSH2 0xBF0 PUSH1 0x4 SWAP3 ISZERO PUSH2 0x2CDC JUMP JUMPDEST ADD SLOAD AND CALLER EQ DUP1 ISZERO PUSH2 0xC87 JUMPI JUMPDEST ISZERO PUSH2 0xC43 JUMPI PUSH2 0x759 SWAP1 PUSH1 0x40 MLOAD SWAP1 PUSH2 0xC14 PUSH1 0x40 DUP4 PUSH2 0x287C JUMP JUMPDEST PUSH1 0x1C DUP3 MSTORE PUSH32 0x43616E63656C6C65642062792073656C6C6572206F72206F776E657200000000 PUSH1 0x20 DUP4 ADD MSTORE PUSH2 0x2EA6 JUMP JUMPDEST PUSH1 0x64 PUSH1 0x40 MLOAD PUSH3 0x461BCD PUSH1 0xE5 SHL DUP2 MSTORE PUSH1 0x20 PUSH1 0x4 DUP3 ADD MSTORE PUSH1 0xE PUSH1 0x24 DUP3 ADD MSTORE PUSH32 0x4E6F7420617574686F72697A6564000000000000000000000000000000000000 PUSH1 0x44 DUP3 ADD MSTORE REVERT JUMPDEST POP PUSH1 0x1 PUSH1 0x1 PUSH1 0xA0 SHL SUB PUSH1 0x1 SLOAD AND CALLER EQ PUSH2 0xBFC JUMP JUMPDEST CALLVALUE PUSH2 0x12C JUMPI PUSH1 0x0 CALLDATASIZE PUSH1 0x3 NOT ADD SLT PUSH2 0x12C JUMPI PUSH1 0x20 PUSH1 0x1 PUSH1 0x1 PUSH1 0xA0 SHL SUB PUSH1 0x1 SLOAD AND PUSH1 0x40 MLOAD SWAP1 DUP2 MSTORE RETURN JUMPDEST CALLVALUE PUSH2 0x12C JUMPI PUSH1 0x0 CALLDATASIZE PUSH1 0x3 NOT ADD SLT PUSH2 0x12C JUMPI PUSH1 0x20 PUSH1 0x40 MLOAD PUSH7 0x38D7EA4C68000 DUP2 MSTORE RETURN JUMPDEST CALLVALUE PUSH2 0x12C JUMPI PUSH1 0x0 CALLDATASIZE PUSH1 0x3 NOT ADD SLT PUSH2 0x12C JUMPI PUSH2 0xCFD PUSH2 0x2E64 JUMP JUMPDEST PUSH1 0x0 PUSH1 0x1 PUSH1 0x1 PUSH1 0xA0 SHL SUB PUSH1 0x1 SLOAD PUSH1 0x1 PUSH1 0x1 PUSH1 0xA0 SHL SUB NOT DUP2 AND PUSH1 0x1 SSTORE AND PUSH32 0x8BE0079C531659141344CD1FD0A4F28419497F9722A3DAAFE3B4186F6B6457E0 DUP3 DUP1 LOG3 STOP JUMPDEST CALLVALUE PUSH2 0x12C JUMPI PUSH1 0x20 CALLDATASIZE PUSH1 0x3 NOT ADD SLT PUSH2 0x12C JUMPI PUSH1 0x4 CALLDATALOAD DUP1 ISZERO ISZERO DUP1 PUSH2 0xECB JUMPI JUMPDEST ISZERO PUSH2 0xE87 JUMPI DUP1 PUSH1 0x0 MSTORE PUSH1 0x3 PUSH1 0x20 MSTORE PUSH1 0xFF PUSH1 0xB PUSH1 0x40 PUSH1 0x0 KECCAK256 ADD SLOAD AND PUSH1 0x3 DUP2 LT ISZERO PUSH2 0x3AA JUMPI PUSH1 0x1 PUSH2 0xD8B SWAP2 EQ PUSH2 0x2D50 JUMP JUMPDEST PUSH1 0x0 MSTORE PUSH1 0x4 PUSH1 0x20 MSTORE PUSH1 0x40 PUSH1 0x0 KECCAK256 DUP1 SLOAD SWAP1 PUSH2 0xDA4 DUP3 PUSH2 0x2C22 JUMP JUMPDEST SWAP2 PUSH2 0xDB2 PUSH1 0x40 MLOAD SWAP4 DUP5 PUSH2 0x287C JUMP JUMPDEST DUP1 DUP4 MSTORE PUSH1 0x20 DUP4 ADD DUP1 SWAP3 PUSH1 0x0 MSTORE PUSH1 0x20 PUSH1 0x0 KECCAK256 PUSH1 0x0 SWAP2 JUMPDEST DUP4 DUP4 LT PUSH2 0xE3D JUMPI DUP5 DUP7 PUSH1 0x40 MLOAD SWAP2 DUP3 SWAP2 PUSH1 0x20 DUP4 ADD SWAP1 PUSH1 0x20 DUP5 MSTORE MLOAD DUP1 SWAP2 MSTORE PUSH1 0x40 DUP4 ADD SWAP2 SWAP1 PUSH1 0x0 JUMPDEST DUP2 DUP2 LT PUSH2 0xDFA JUMPI POP POP POP SUB SWAP1 RETURN JUMPDEST SWAP2 SWAP4 POP SWAP2 PUSH1 0x20 PUSH1 0x80 PUSH1 0x1 SWAP3 PUSH1 0x60 DUP8 MLOAD PUSH1 0x1 PUSH1 0x1 PUSH1 0xA0 SHL SUB DUP2 MLOAD AND DUP4 MSTORE DUP5 DUP2 ADD MLOAD DUP6 DUP5 ADD MSTORE PUSH1 0x40 DUP2 ADD MLOAD PUSH1 0x40 DUP5 ADD MSTORE ADD MLOAD PUSH1 0x60 DUP3 ADD MSTORE ADD SWAP5 ADD SWAP2 ADD SWAP2 DUP5 SWAP4 SWAP3 PUSH2 0xDEC JUMP JUMPDEST PUSH1 0x4 PUSH1 0x20 PUSH1 0x1 SWAP3 PUSH1 0x40 MLOAD PUSH2 0xE50 DUP2 PUSH2 0x2860 JUMP JUMPDEST PUSH1 0x1 PUSH1 0x1 PUSH1 0xA0 SHL SUB DUP7 SLOAD AND DUP2 MSTORE DUP5 DUP7 ADD SLOAD DUP4 DUP3 ADD MSTORE PUSH1 0x2 DUP7 ADD SLOAD PUSH1 0x40 DUP3 ADD MSTORE PUSH1 0x3 DUP7 ADD SLOAD PUSH1 0x60 DUP3 ADD MSTORE DUP2 MSTORE ADD SWAP3 ADD SWAP3 ADD SWAP2 SWAP1 PUSH2 0xDC7 JUMP JUMPDEST PUSH1 0x64 PUSH1 0x40 MLOAD PUSH3 0x461BCD PUSH1 0xE5 SHL DUP2 MSTORE PUSH1 0x20 PUSH1 0x4 DUP3 ADD MSTORE PUSH1 0x12 PUSH1 0x24 DUP3 ADD MSTORE PUSH32 0x496E76616C69642061756374696F6E2049440000000000000000000000000000 PUSH1 0x44 DUP3 ADD MSTORE REVERT JUMPDEST POP PUSH1 0x2 SLOAD DUP2 LT PUSH2 0xD5C JUMP JUMPDEST CALLVALUE PUSH2 0x12C JUMPI PUSH2 0x100 CALLDATASIZE PUSH1 0x3 NOT ADD SLT PUSH2 0x12C JUMPI PUSH2 0xEF0 PUSH2 0x2817 JUMP JUMPDEST PUSH1 0xA4 CALLDATALOAD PUSH1 0xC4 CALLDATALOAD PUSH8 0xFFFFFFFFFFFFFFFF DUP2 GT PUSH2 0x12C JUMPI PUSH2 0xF13 SWAP1 CALLDATASIZE SWAP1 PUSH1 0x4 ADD PUSH2 0x28E5 JUMP JUMPDEST PUSH1 0xE4 SWAP3 SWAP2 SWAP3 CALLDATALOAD PUSH8 0xFFFFFFFFFFFFFFFF DUP2 GT PUSH2 0x12C JUMPI PUSH2 0xF36 SWAP1 CALLDATASIZE SWAP1 PUSH1 0x4 ADD PUSH2 0x28E5 JUMP JUMPDEST SWAP2 SWAP1 SWAP4 PUSH2 0xF41 PUSH2 0x2D9B JUMP JUMPDEST PUSH2 0xF52 PUSH2 0xF4D DUP8 PUSH2 0x2DD6 JUMP JUMPDEST PUSH2 0x2A32 JUMP JUMPDEST PUSH2 0xE10 DUP5 LT ISZERO DUP1 PUSH2 0x17B2 JUMPI JUMPDEST PUSH2 0xF67 SWAP1 PUSH2 0x2A7D JUMP JUMPDEST PUSH1 0x44 CALLDATALOAD ISZERO ISZERO DUP1 PUSH2 0x17A4 JUMPI JUMPDEST PUSH2 0xF7B SWAP1 PUSH2 0x2AC8 JUMP JUMPDEST PUSH2 0xF90 PUSH7 0x38D7EA4C68000 PUSH1 0x84 CALLDATALOAD LT ISZERO PUSH2 0x2B13 JUMP JUMPDEST DUP2 ISZERO PUSH2 0x1760 JUMPI PUSH1 0x40 MLOAD PUSH4 0x31A9108F PUSH1 0xE1 SHL DUP2 MSTORE PUSH1 0x24 CALLDATALOAD PUSH1 0x4 DUP3 ADD MSTORE PUSH1 0x20 DUP2 PUSH1 0x24 DUP2 PUSH1 0x1 PUSH1 0x1 PUSH1 0xA0 SHL SUB DUP12 AND GAS STATICCALL SWAP1 DUP2 ISZERO PUSH2 0x2C4 JUMPI PUSH1 0x0 SWAP2 PUSH2 0x1741 JUMPI JUMPDEST POP PUSH1 0x1 PUSH1 0x1 PUSH1 0xA0 SHL SUB CALLER SWAP2 AND SUB PUSH2 0x16FD JUMPI PUSH1 0x40 MLOAD PUSH4 0x20604BF PUSH1 0xE2 SHL DUP2 MSTORE PUSH1 0x24 CALLDATALOAD PUSH1 0x4 DUP3 ADD MSTORE PUSH1 0x20 DUP2 PUSH1 0x24 DUP2 PUSH1 0x1 PUSH1 0x1 PUSH1 0xA0 SHL SUB DUP12 AND GAS STATICCALL SWAP1 DUP2 ISZERO PUSH2 0x2C4 JUMPI PUSH1 0x0 SWAP2 PUSH2 0x16CE JUMPI JUMPDEST POP PUSH1 0x1 PUSH1 0x1 PUSH1 0xA0 SHL SUB AND ADDRESS EQ DUP1 ISZERO PUSH2 0x1659 JUMPI JUMPDEST PUSH2 0x102F SWAP1 PUSH2 0x2BBB JUMP JUMPDEST PUSH1 0x1 PUSH1 0x1 PUSH1 0xA0 SHL SUB DUP7 AND EXTCODESIZE ISZERO PUSH2 0x12C JUMPI PUSH1 0x40 MLOAD PUSH4 0x21421707 PUSH1 0xE1 SHL DUP2 MSTORE CALLER PUSH1 0x4 DUP3 ADD MSTORE ADDRESS PUSH1 0x24 DUP1 DUP4 ADD SWAP2 SWAP1 SWAP2 MSTORE CALLDATALOAD PUSH1 0x44 DUP3 ADD MSTORE PUSH1 0x0 DUP2 PUSH1 0x64 DUP2 DUP4 PUSH1 0x1 PUSH1 0x1 PUSH1 0xA0 SHL SUB DUP13 AND GAS CALL DUP1 ISZERO PUSH2 0x2C4 JUMPI PUSH2 0x1648 JUMPI JUMPDEST POP PUSH2 0x109A PUSH1 0x2 SLOAD SWAP5 PUSH2 0x1091 DUP7 PUSH2 0x2C06 JUMP JUMPDEST PUSH1 0x2 SSTORE TIMESTAMP PUSH2 0x2C15 JUMP JUMPDEST PUSH2 0x1157 PUSH1 0x20 SWAP7 PUSH1 0x40 MLOAD SWAP6 PUSH2 0x10AE DUP10 DUP9 PUSH2 0x287C JUMP JUMPDEST PUSH1 0x0 DUP8 MSTORE PUSH1 0x0 CALLDATASIZE DUP2 CALLDATACOPY PUSH1 0x40 MLOAD SWAP7 PUSH2 0x10C4 DUP9 PUSH2 0x2843 JUMP JUMPDEST DUP9 DUP9 MSTORE PUSH1 0x0 DUP11 DUP10 ADD MSTORE PUSH1 0x1 PUSH1 0x1 PUSH1 0xA0 SHL SUB DUP12 AND PUSH1 0x40 DUP10 ADD MSTORE PUSH1 0x24 CALLDATALOAD PUSH1 0x60 DUP10 ADD MSTORE PUSH1 0x80 DUP9 ADD MSTORE CALLER PUSH1 0xA0 DUP9 ADD MSTORE PUSH1 0x44 CALLDATALOAD PUSH1 0xC0 DUP9 ADD MSTORE PUSH1 0x64 CALLDATALOAD PUSH1 0xE0 DUP9 ADD MSTORE PUSH1 0x84 CALLDATALOAD PUSH2 0x100 DUP9 ADD MSTORE TIMESTAMP PUSH2 0x120 DUP9 ADD MSTORE DUP4 PUSH2 0x140 DUP9 ADD MSTORE PUSH2 0x258 PUSH2 0x160 DUP9 ADD MSTORE PUSH1 0x0 PUSH2 0x180 DUP9 ADD MSTORE PUSH1 0x0 PUSH2 0x1A0 DUP9 ADD MSTORE PUSH1 0x0 PUSH2 0x1C0 DUP9 ADD MSTORE PUSH1 0x0 PUSH2 0x1E0 DUP9 ADD MSTORE PUSH2 0x114A CALLDATASIZE DUP8 DUP8 PUSH2 0x289E JUMP JUMPDEST PUSH2 0x200 DUP9 ADD MSTORE CALLDATASIZE SWAP2 PUSH2 0x289E JUMP JUMPDEST PUSH2 0x220 DUP6 ADD MSTORE PUSH1 0x0 PUSH2 0x240 DUP6 ADD MSTORE DUP5 PUSH1 0x0 MSTORE PUSH1 0x3 DUP7 MSTORE PUSH1 0x40 PUSH1 0x0 KECCAK256 DUP5 MLOAD DUP2 SSTORE DUP7 DUP6 ADD MLOAD SWAP5 PUSH1 0x2 DUP7 LT ISZERO PUSH2 0x3AA JUMPI PUSH1 0x0 SWAP6 PUSH1 0x1 DUP4 ADD SLOAD PUSH21 0xFFFFFFFFFFFFFFFFFFFFFFFFFFFFFFFFFFFFFFFFFF NOT PUSH1 0xFF PUSH21 0xFFFFFFFFFFFFFFFFFFFFFFFFFFFFFFFFFFFFFFFF00 PUSH1 0x40 DUP7 ADD MLOAD PUSH1 0x8 SHL AND SWAP4 AND SWAP2 AND OR OR PUSH1 0x1 DUP4 ADD SSTORE PUSH1 0x60 DUP2 ADD MLOAD PUSH1 0x2 DUP4 ADD SSTORE PUSH1 0x80 DUP2 ADD MLOAD DUP1 MLOAD SWAP1 PUSH8 0xFFFFFFFFFFFFFFFF DUP3 GT PUSH2 0x1547 JUMPI PUSH9 0x10000000000000000 DUP3 GT PUSH2 0x1547 JUMPI DUP10 SWAP1 PUSH1 0x3 DUP6 ADD SLOAD DUP4 PUSH1 0x3 DUP8 ADD SSTORE DUP1 DUP5 LT PUSH2 0x162B JUMPI JUMPDEST POP ADD PUSH1 0x3 DUP5 ADD DUP9 MSTORE DUP10 DUP9 KECCAK256 DUP9 JUMPDEST DUP4 DUP2 LT PUSH2 0x1619 JUMPI POP POP POP POP PUSH1 0x1 PUSH1 0x1 PUSH1 0xA0 SHL SUB PUSH1 0xA0 DUP3 ADD MLOAD AND PUSH1 0x1 PUSH1 0x1 PUSH1 0xA0 SHL SUB PUSH1 0x4 DUP5 ADD SWAP2 AND PUSH1 0x1 PUSH1 0x1 PUSH1 0xA0 SHL SUB NOT DUP3 SLOAD AND OR SWAP1 SSTORE PUSH1 0xC0 DUP2 ADD MLOAD PUSH1 0x5 DUP4 ADD SSTORE PUSH1 0xE0 DUP2 ADD MLOAD PUSH1 0x6 DUP4 ADD SSTORE PUSH2 0x100 DUP2 ADD MLOAD PUSH1 0x7 DUP4 ADD SSTORE PUSH2 0x120 DUP2 ADD MLOAD PUSH1 0x8 DUP4 ADD SSTORE PUSH2 0x140 DUP2 ADD MLOAD PUSH1 0x9 DUP4 ADD SSTORE PUSH2 0x160 DUP2 ADD MLOAD PUSH1 0xA DUP4 ADD SSTORE PUSH2 0x180 DUP2 ADD MLOAD PUSH1 0x3 DUP2 LT ISZERO PUSH2 0x1605 JUMPI PUSH2 0x12B4 SWAP1 PUSH1 0xB DUP5 ADD PUSH2 0x2C51 JUMP JUMPDEST PUSH2 0x1A0 DUP2 ADD MLOAD PUSH1 0xC DUP4 ADD SSTORE PUSH1 0x1 PUSH1 0x1 PUSH1 0xA0 SHL SUB PUSH2 0x1C0 DUP3 ADD MLOAD AND PUSH1 0x1 PUSH1 0x1 PUSH1 0xA0 SHL SUB PUSH1 0xD DUP5 ADD SWAP2 AND PUSH1 0x1 PUSH1 0x1 PUSH1 0xA0 SHL SUB NOT DUP3 SLOAD AND OR SWAP1 SSTORE PUSH2 0x1E0 DUP2 ADD MLOAD PUSH1 0xE DUP4 ADD SSTORE PUSH2 0x200 DUP2 ADD MLOAD DUP1 MLOAD SWAP1 PUSH8 0xFFFFFFFFFFFFFFFF DUP3 GT PUSH2 0x1547 JUMPI DUP2 SWAP1 PUSH2 0x131D PUSH1 0xF DUP7 ADD SLOAD PUSH2 0x2913 JUMP JUMPDEST DUP12 PUSH1 0x1F DUP3 GT PUSH2 0x15D4 JUMPI JUMPDEST POP POP DUP11 SWAP1 PUSH1 0x1F DUP4 GT PUSH1 0x1 EQ PUSH2 0x1566 JUMPI DUP10 SWAP3 PUSH2 0x155B JUMPI JUMPDEST POP POP DUP2 PUSH1 0x1 SHL SWAP2 PUSH1 0x0 NOT SWAP1 PUSH1 0x3 SHL SHR NOT AND OR PUSH1 0xF DUP4 ADD SSTORE JUMPDEST PUSH2 0x220 DUP2 ADD MLOAD DUP1 MLOAD SWAP1 PUSH8 0xFFFFFFFFFFFFFFFF DUP3 GT PUSH2 0x1547 JUMPI PUSH2 0x137A PUSH1 0x10 DUP6 ADD SLOAD PUSH2 0x2913 JUMP JUMPDEST PUSH1 0x1F DUP2 GT PUSH2 0x150B JUMPI JUMPDEST POP DUP10 SWAP1 PUSH1 0x1F DUP4 GT PUSH1 0x1 EQ PUSH2 0x1499 JUMPI SWAP2 DUP1 PUSH1 0x11 SWAP5 SWAP3 PUSH2 0x240 SWAP5 DUP12 SWAP3 PUSH2 0x148E JUMPI JUMPDEST POP POP DUP2 PUSH1 0x1 SHL SWAP2 PUSH1 0x0 NOT SWAP1 PUSH1 0x3 SHL SHR NOT AND OR PUSH1 0x10 DUP6 ADD SSTORE JUMPDEST ADD MLOAD SWAP2 ADD SSTORE CALLER DUP5 MSTORE PUSH1 0x6 DUP7 MSTORE PUSH2 0x13D3 DUP6 PUSH1 0x40 DUP7 KECCAK256 PUSH2 0x2C81 JUMP JUMPDEST PUSH1 0x40 MLOAD SWAP7 PUSH2 0x13E1 DUP8 DUP10 PUSH2 0x287C JUMP JUMPDEST DUP5 DUP9 MSTORE DUP5 CALLDATASIZE DUP2 CALLDATACOPY PUSH1 0x40 MLOAD SWAP2 PUSH1 0xC0 DUP4 ADD DUP7 DUP5 MSTORE PUSH1 0x24 CALLDATALOAD DUP10 DUP6 ADD MSTORE PUSH1 0xC0 PUSH1 0x40 DUP6 ADD MSTORE DUP10 MLOAD DUP1 SWAP2 MSTORE DUP9 PUSH1 0xE0 DUP6 ADD SWAP11 ADD SWAP1 DUP8 JUMPDEST DUP2 DUP2 LT PUSH2 0x147A JUMPI POP POP POP SWAP2 DUP1 PUSH2 0x146E DUP9 SWAP10 SWAP11 PUSH1 0x1 PUSH1 0x1 PUSH1 0xA0 SHL SUB PUSH32 0xED64E6C300AB5F25F3A8E69B83450E8787C7246008FFD6B98A2E36EE7AABDDB6 SWAP6 PUSH1 0x1 SWAP12 SWAP8 PUSH1 0x44 CALLDATALOAD PUSH1 0x60 DUP8 ADD MSTORE PUSH1 0x80 DUP7 ADD MSTORE DUP5 DUP4 SUB PUSH1 0xA0 DUP7 ADD MSTORE AND SWAP8 CALLER SWAP8 PUSH2 0x2CBB JUMP JUMPDEST SUB SWAP1 LOG4 SSTORE PUSH1 0x40 MLOAD SWAP1 DUP2 MSTORE RETURN JUMPDEST DUP3 MLOAD DUP13 MSTORE SWAP11 DUP11 ADD SWAP11 SWAP2 DUP11 ADD SWAP2 PUSH1 0x1 ADD PUSH2 0x1410 JUMP JUMPDEST ADD MLOAD SWAP1 POP DUP14 DUP1 PUSH2 0x13A2 JUMP JUMPDEST SWAP1 PUSH1 0x10 DUP6 ADD DUP10 MSTORE DUP11 DUP10 KECCAK256 SWAP2 DUP10 JUMPDEST DUP13 PUSH1 0x1F NOT DUP7 AND DUP3 LT PUSH2 0x14F5 JUMPI POP POP SWAP3 PUSH1 0x11 SWAP5 SWAP3 PUSH1 0x1 SWAP3 PUSH2 0x240 SWAP6 DUP4 PUSH1 0x1F NOT DUP2 AND LT PUSH2 0x14DC JUMPI JUMPDEST POP POP POP DUP2 SHL ADD PUSH1 0x10 DUP6 ADD SSTORE PUSH2 0x13BA JUMP JUMPDEST ADD MLOAD PUSH1 0x0 NOT PUSH1 0xF8 DUP5 PUSH1 0x3 SHL AND SHR NOT AND SWAP1 SSTORE DUP14 DUP1 DUP1 PUSH2 0x14CC JUMP JUMPDEST PUSH1 0x1 DUP5 SWAP6 DUP3 SWAP4 SWAP6 DUP6 ADD MLOAD DUP2 SSTORE ADD SWAP5 ADD SWAP3 ADD PUSH2 0x14A6 JUMP JUMPDEST PUSH2 0x1537 SWAP1 PUSH1 0x10 DUP7 ADD DUP11 MSTORE DUP12 DUP11 KECCAK256 PUSH1 0x1F DUP6 ADD PUSH1 0x5 SHR DUP2 ADD SWAP2 DUP14 DUP7 LT PUSH2 0x153D JUMPI JUMPDEST PUSH1 0x1F ADD PUSH1 0x5 SHR ADD SWAP1 PUSH2 0x2C3A JUMP JUMPDEST DUP12 PUSH2 0x1383 JUMP JUMPDEST SWAP1 SWAP2 POP DUP2 SWAP1 PUSH2 0x152A JUMP JUMPDEST PUSH1 0x24 DUP9 PUSH4 0x4E487B71 PUSH1 0xE0 SHL DUP2 MSTORE PUSH1 0x41 PUSH1 0x4 MSTORE REVERT JUMPDEST ADD MLOAD SWAP1 POP DUP12 DUP1 PUSH2 0x133D JUMP JUMPDEST SWAP3 POP PUSH1 0xF DUP6 ADD DUP10 MSTORE DUP11 DUP10 KECCAK256 SWAP1 DUP10 SWAP4 JUMPDEST DUP13 PUSH1 0x1F NOT DUP6 AND DUP7 LT PUSH2 0x15BB JUMPI POP PUSH1 0x1 SWAP5 POP DUP4 PUSH1 0x1F NOT DUP2 AND LT PUSH2 0x15A2 JUMPI JUMPDEST POP POP POP DUP2 SHL ADD PUSH1 0xF DUP4 ADD SSTORE PUSH2 0x1355 JUMP JUMPDEST ADD MLOAD PUSH1 0x0 NOT PUSH1 0xF8 DUP5 PUSH1 0x3 SHL AND SHR NOT AND SWAP1 SSTORE DUP12 DUP1 DUP1 PUSH2 0x1592 JUMP JUMPDEST DUP3 DUP3 ADD MLOAD DUP5 SSTORE SWAP5 DUP6 ADD SWAP5 PUSH1 0x1 SWAP1 SWAP4 ADD SWAP3 SWAP1 SWAP2 ADD SWAP1 PUSH2 0x1575 JUMP JUMPDEST PUSH1 0xF DUP8 ADD DUP12 MSTORE DUP1 DUP12 KECCAK256 PUSH2 0x15FE SWAP3 PUSH1 0x1F DUP7 ADD PUSH1 0x5 SHR DUP3 ADD SWAP3 DUP7 LT PUSH2 0x153D JUMPI PUSH1 0x1F ADD PUSH1 0x5 SHR ADD SWAP1 PUSH2 0x2C3A JUMP JUMPDEST DUP13 DUP12 PUSH2 0x1327 JUMP JUMPDEST PUSH1 0x24 DUP8 PUSH4 0x4E487B71 PUSH1 0xE0 SHL DUP2 MSTORE PUSH1 0x21 PUSH1 0x4 MSTORE REVERT JUMPDEST DUP3 MLOAD DUP3 DUP3 ADD SSTORE SWAP2 DUP12 ADD SWAP2 PUSH1 0x1 ADD PUSH2 0x1222 JUMP JUMPDEST PUSH1 0x3 DUP7 ADD DUP11 MSTORE DUP3 DUP11 KECCAK256 PUSH2 0x1642 SWAP2 DUP2 ADD SWAP1 DUP6 ADD PUSH2 0x2C3A JUMP JUMPDEST DUP13 PUSH2 0x1215 JUMP JUMPDEST PUSH1 0x0 PUSH2 0x1653 SWAP2 PUSH2 0x287C JUMP JUMPDEST DUP7 PUSH2 0x1080 JUMP JUMPDEST POP PUSH1 0x40 MLOAD PUSH4 0xE985E9C5 PUSH1 0xE0 SHL DUP2 MSTORE CALLER PUSH1 0x4 DUP3 ADD MSTORE ADDRESS PUSH1 0x24 DUP3 ADD MSTORE PUSH1 0x20 DUP2 PUSH1 0x44 DUP2 PUSH1 0x1 PUSH1 0x1 PUSH1 0xA0 SHL SUB DUP12 AND GAS STATICCALL DUP1 ISZERO PUSH2 0x2C4 JUMPI PUSH2 0x102F SWAP2 PUSH1 0x0 SWAP2 PUSH2 0x169F JUMPI JUMPDEST POP SWAP1 POP PUSH2 0x1026 JUMP JUMPDEST PUSH2 0x16C1 SWAP2 POP PUSH1 0x20 RETURNDATASIZE PUSH1 0x20 GT PUSH2 0x16C7 JUMPI JUMPDEST PUSH2 0x16B9 DUP2 DUP4 PUSH2 0x287C JUMP JUMPDEST DUP2 ADD SWAP1 PUSH2 0x2BA3 JUMP JUMPDEST DUP9 PUSH2 0x1697 JUMP JUMPDEST POP RETURNDATASIZE PUSH2 0x16AF JUMP JUMPDEST PUSH2 0x16F0 SWAP2 POP PUSH1 0x20 RETURNDATASIZE PUSH1 0x20 GT PUSH2 0x16F6 JUMPI JUMPDEST PUSH2 0x16E8 DUP2 DUP4 PUSH2 0x287C JUMP JUMPDEST DUP2 ADD SWAP1 PUSH2 0x2B84 JUMP JUMPDEST DUP8 PUSH2 0x1013 JUMP JUMPDEST POP RETURNDATASIZE PUSH2 0x16DE JUMP JUMPDEST PUSH1 0x64 PUSH1 0x40 MLOAD PUSH3 0x461BCD PUSH1 0xE5 SHL DUP2 MSTORE PUSH1 0x20 PUSH1 0x4 DUP3 ADD MSTORE PUSH1 0xD PUSH1 0x24 DUP3 ADD MSTORE PUSH32 0x4E6F74204E4654206F776E657200000000000000000000000000000000000000 PUSH1 0x44 DUP3 ADD MSTORE REVERT JUMPDEST PUSH2 0x175A SWAP2 POP PUSH1 0x20 RETURNDATASIZE PUSH1 0x20 GT PUSH2 0x16F6 JUMPI PUSH2 0x16E8 DUP2 DUP4 PUSH2 0x287C JUMP JUMPDEST DUP8 PUSH2 0xFCC JUMP JUMPDEST PUSH1 0x64 PUSH1 0x40 MLOAD PUSH3 0x461BCD PUSH1 0xE5 SHL DUP2 MSTORE PUSH1 0x20 PUSH1 0x4 DUP3 ADD MSTORE PUSH1 0xE PUSH1 0x24 DUP3 ADD MSTORE PUSH32 0x5469746C65207265717569726564000000000000000000000000000000000000 PUSH1 0x44 DUP3 ADD MSTORE REVERT JUMPDEST POP PUSH1 0x44 CALLDATALOAD PUSH1 0x64 CALLDATALOAD LT ISZERO PUSH2 0xF72 JUMP JUMPDEST POP PUSH3 0x278D00 DUP5 GT ISZERO PUSH2 0xF5E JUMP JUMPDEST PUSH1 0x40 CALLDATASIZE PUSH1 0x3 NOT ADD SLT PUSH2 0x12C JUMPI PUSH1 0x4 CALLDATALOAD PUSH1 0x24 CALLDATALOAD PUSH2 0x17D9 PUSH2 0x2D9B JUMP JUMPDEST DUP2 PUSH1 0x0 MSTORE PUSH1 0x3 PUSH1 0x20 MSTORE PUSH1 0x40 PUSH1 0x0 KECCAK256 PUSH1 0xFF PUSH1 0xB DUP3 ADD SLOAD AND PUSH1 0x3 DUP2 LT ISZERO PUSH2 0x3AA JUMPI PUSH2 0x1802 SWAP1 ISZERO PUSH2 0x2CDC JUMP JUMPDEST PUSH1 0x9 DUP2 ADD SWAP2 DUP3 SLOAD TIMESTAMP LT ISZERO PUSH2 0x1B95 JUMPI PUSH1 0x1 PUSH1 0x1 PUSH1 0xA0 SHL SUB PUSH1 0x4 DUP4 ADD SLOAD AND CALLER EQ PUSH2 0x1B51 JUMPI PUSH1 0x5 DUP3 ADD SLOAD DUP1 CALLVALUE SUB PUSH2 0x1B0D JUMPI PUSH1 0x7 DUP4 ADD SLOAD PUSH2 0x183E SWAP2 PUSH2 0x2C15 JUMP JUMPDEST DUP2 LT PUSH2 0x1AC9 JUMPI PUSH1 0xC DUP3 ADD PUSH2 0x3E8 DUP2 SLOAD LT ISZERO PUSH2 0x1A85 JUMPI PUSH1 0x0 DUP6 DUP2 MSTORE PUSH1 0x5 PUSH1 0x20 SWAP1 DUP2 MSTORE PUSH1 0x40 DUP1 DUP4 KECCAK256 CALLER DUP5 MSTORE SWAP1 SWAP2 MSTORE SWAP1 KECCAK256 SLOAD SWAP1 DUP2 ISZERO PUSH2 0x1955 JUMPI POP DUP5 PUSH1 0x0 MSTORE PUSH1 0x4 PUSH1 0x20 MSTORE PUSH1 0x40 PUSH1 0x0 KECCAK256 SWAP1 PUSH1 0x0 NOT DUP2 ADD SWAP1 DUP2 GT PUSH2 0x3C0 JUMPI PUSH2 0x1899 SWAP2 PUSH2 0x2D27 JUMP JUMPDEST POP SWAP1 PUSH1 0x1 DUP3 ADD DUP1 SLOAD DUP3 GT ISZERO PUSH2 0x1911 JUMPI SSTORE PUSH1 0x2 TIMESTAMP SWAP2 ADD SSTORE JUMPDEST PUSH1 0xA DUP3 SLOAD SWAP2 ADD SLOAD PUSH2 0x18C1 DUP2 DUP4 PUSH2 0x2D43 JUMP JUMPDEST TIMESTAMP LT ISZERO PUSH2 0x18FE JUMPI JUMPDEST DUP4 PUSH1 0x40 MLOAD SWAP1 TIMESTAMP DUP3 MSTORE PUSH32 0xE54EFF26401BF69B81B26F60BD85EF47F5D85275C1D268D84F68D6897431C47 PUSH1 0x20 CALLER SWAP4 LOG3 PUSH1 0x1 PUSH1 0x0 SSTORE STOP JUMPDEST PUSH2 0x1907 SWAP2 PUSH2 0x2C15 JUMP JUMPDEST SWAP1 SSTORE DUP2 DUP1 DUP1 PUSH2 0x18C9 JUMP JUMPDEST PUSH1 0x64 PUSH1 0x40 MLOAD PUSH3 0x461BCD PUSH1 0xE5 SHL DUP2 MSTORE PUSH1 0x20 PUSH1 0x4 DUP3 ADD MSTORE PUSH1 0x16 PUSH1 0x24 DUP3 ADD MSTORE PUSH32 0x4E657720626964206D7573742062652068696768657200000000000000000000 PUSH1 0x44 DUP3 ADD MSTORE REVERT JUMPDEST SWAP2 SWAP1 POP DUP5 PUSH1 0x0 MSTORE PUSH1 0x4 PUSH1 0x20 MSTORE PUSH1 0x40 PUSH1 0x0 KECCAK256 PUSH1 0x40 MLOAD SWAP1 PUSH2 0x1973 DUP3 PUSH2 0x2860 JUMP JUMPDEST CALLER DUP3 MSTORE PUSH1 0x20 DUP3 ADD SWAP3 DUP4 MSTORE PUSH1 0x40 DUP3 ADD TIMESTAMP DUP2 MSTORE PUSH1 0x60 DUP4 ADD SWAP2 CALLVALUE DUP4 MSTORE DUP1 SLOAD PUSH9 0x10000000000000000 DUP2 LT ISZERO PUSH2 0x1A6F JUMPI PUSH2 0x19AE SWAP2 PUSH1 0x1 DUP3 ADD DUP2 SSTORE PUSH2 0x2D27 JUMP JUMPDEST SWAP5 SWAP1 SWAP5 PUSH2 0x1A59 JUMPI PUSH1 0x1 PUSH1 0x1 PUSH1 0xA0 SHL SUB DUP1 PUSH1 0x3 SWAP6 MLOAD AND AND PUSH1 0x1 PUSH1 0x1 PUSH1 0xA0 SHL SUB NOT DUP7 SLOAD AND OR DUP6 SSTORE MLOAD PUSH1 0x1 DUP6 ADD SSTORE MLOAD PUSH1 0x2 DUP5 ADD SSTORE MLOAD SWAP2 ADD SSTORE DUP4 PUSH1 0x0 MSTORE PUSH1 0x4 PUSH1 0x20 MSTORE PUSH1 0x40 PUSH1 0x0 KECCAK256 SLOAD DUP5 PUSH1 0x0 MSTORE PUSH1 0x5 PUSH1 0x20 MSTORE PUSH1 0x40 PUSH1 0x0 KECCAK256 PUSH1 0x1 PUSH1 0x1 PUSH1 0xA0 SHL SUB CALLER AND PUSH1 0x0 MSTORE PUSH1 0x20 MSTORE PUSH1 0x40 PUSH1 0x0 KECCAK256 SSTORE PUSH2 0x1A20 DUP2 SLOAD PUSH2 0x2C06 JUMP JUMPDEST SWAP1 SSTORE CALLER PUSH1 0x0 MSTORE PUSH1 0x7 PUSH1 0x20 MSTORE PUSH2 0x1A39 DUP4 PUSH1 0x40 PUSH1 0x0 KECCAK256 PUSH2 0x2C81 JUMP JUMPDEST DUP3 PUSH1 0x0 MSTORE PUSH1 0x8 PUSH1 0x20 MSTORE PUSH1 0x40 PUSH1 0x0 KECCAK256 PUSH2 0x1A52 CALLVALUE DUP3 SLOAD PUSH2 0x2C15 JUMP JUMPDEST SWAP1 SSTORE PUSH2 0x18B0 JUMP JUMPDEST PUSH4 0x4E487B71 PUSH1 0xE0 SHL PUSH1 0x0 MSTORE PUSH1 0x0 PUSH1 0x4 MSTORE PUSH1 0x24 PUSH1 0x0 REVERT JUMPDEST PUSH4 0x4E487B71 PUSH1 0xE0 SHL PUSH1 0x0 MSTORE PUSH1 0x41 PUSH1 0x4 MSTORE PUSH1 0x24 PUSH1 0x0 REVERT JUMPDEST PUSH1 0x64 PUSH1 0x40 MLOAD PUSH3 0x461BCD PUSH1 0xE5 SHL DUP2 MSTORE PUSH1 0x20 PUSH1 0x4 DUP3 ADD MSTORE PUSH1 0x10 PUSH1 0x24 DUP3 ADD MSTORE PUSH32 0x4D61782062696473207265616368656400000000000000000000000000000000 PUSH1 0x44 DUP3 ADD MSTORE REVERT JUMPDEST PUSH1 0x64 PUSH1 0x40 MLOAD PUSH3 0x461BCD PUSH1 0xE5 SHL DUP2 MSTORE PUSH1 0x20 PUSH1 0x4 DUP3 ADD MSTORE PUSH1 0xB PUSH1 0x24 DUP3 ADD MSTORE PUSH32 0x42696420746F6F206C6F77000000000000000000000000000000000000000000 PUSH1 0x44 DUP3 ADD MSTORE REVERT JUMPDEST PUSH1 0x64 PUSH1 0x40 MLOAD PUSH3 0x461BCD PUSH1 0xE5 SHL DUP2 MSTORE PUSH1 0x20 PUSH1 0x4 DUP3 ADD MSTORE PUSH1 0x11 PUSH1 0x24 DUP3 ADD MSTORE PUSH32 0x496E636F7272656374206465706F736974000000000000000000000000000000 PUSH1 0x44 DUP3 ADD MSTORE REVERT JUMPDEST PUSH1 0x64 PUSH1 0x40 MLOAD PUSH3 0x461BCD PUSH1 0xE5 SHL DUP2 MSTORE PUSH1 0x20 PUSH1 0x4 DUP3 ADD MSTORE PUSH1 0x11 PUSH1 0x24 DUP3 ADD MSTORE PUSH32 0x53656C6C65722063616E6E6F7420626964000000000000000000000000000000 PUSH1 0x44 DUP3 ADD MSTORE REVERT JUMPDEST PUSH1 0x64 PUSH1 0x40 MLOAD PUSH3 0x461BCD PUSH1 0xE5 SHL DUP2 MSTORE PUSH1 0x20 PUSH1 0x4 DUP3 ADD MSTORE PUSH1 0xD PUSH1 0x24 DUP3 ADD MSTORE PUSH32 0x41756374696F6E20656E64656400000000000000000000000000000000000000 PUSH1 0x44 DUP3 ADD MSTORE REVERT JUMPDEST CALLVALUE PUSH2 0x12C JUMPI PUSH1 0x20 CALLDATASIZE PUSH1 0x3 NOT ADD SLT PUSH2 0x12C JUMPI PUSH1 0x4 CALLDATALOAD PUSH1 0x0 MSTORE PUSH1 0x3 PUSH1 0x20 MSTORE PUSH1 0x40 PUSH1 0x0 KECCAK256 DUP1 SLOAD PUSH1 0xC0 MSTORE PUSH1 0x1 DUP2 ADD SLOAD SWAP1 PUSH1 0x2 DUP2 ADD SLOAD SWAP1 PUSH1 0x4 DUP2 ADD SLOAD PUSH1 0x1 PUSH1 0x1 PUSH1 0xA0 SHL SUB AND PUSH1 0x5 DUP3 ADD SLOAD SWAP3 PUSH1 0x6 DUP4 ADD SLOAD SWAP2 PUSH1 0x7 DUP5 ADD SLOAD PUSH1 0x8 DUP6 ADD SLOAD PUSH1 0x9 DUP7 ADD SLOAD SWAP1 PUSH1 0xA DUP8 ADD SLOAD SWAP3 PUSH1 0xB DUP9 ADD SLOAD PUSH1 0xFF AND SWAP7 PUSH1 0xC DUP10 ADD SLOAD SWAP10 PUSH1 0xD DUP11 ADD SLOAD PUSH1 0x1 PUSH1 0x1 PUSH1 0xA0 SHL SUB AND PUSH1 0x80 MSTORE PUSH1 0xE DUP11 ADD SLOAD SWAP7 PUSH1 0xF DUP12 ADD PUSH2 0x1C6E SWAP1 PUSH2 0x294D JUMP JUMPDEST SWAP9 PUSH2 0x1C7B PUSH1 0x10 DUP14 ADD PUSH2 0x294D JUMP JUMPDEST SWAP12 PUSH1 0x11 ADD SLOAD SWAP14 PUSH1 0x40 MLOAD PUSH1 0xA0 MSTORE PUSH1 0xC0 MLOAD PUSH1 0xA0 MLOAD MSTORE PUSH1 0xFF DUP2 AND PUSH1 0x2 GT ISZERO PUSH2 0x3AA JUMPI DUP1 PUSH1 0xFF PUSH1 0x1 PUSH1 0x1 PUSH1 0xA0 SHL SUB SWAP3 AND PUSH1 0x20 PUSH1 0xA0 MLOAD ADD MSTORE PUSH1 0x8 SHR AND PUSH1 0x40 PUSH1 0xA0 MLOAD ADD MSTORE PUSH1 0x60 PUSH1 0xA0 MLOAD ADD MSTORE PUSH1 0x80 PUSH1 0xA0 MLOAD ADD MSTORE PUSH1 0xA0 DUP1 MLOAD ADD MSTORE PUSH1 0xC0 PUSH1 0xA0 MLOAD ADD MSTORE PUSH1 0xE0 PUSH1 0xA0 MLOAD ADD MSTORE PUSH2 0x100 PUSH1 0xA0 MLOAD ADD MSTORE PUSH2 0x120 PUSH1 0xA0 MLOAD ADD MSTORE PUSH2 0x140 PUSH1 0xA0 MLOAD ADD MSTORE PUSH1 0x3 DUP4 LT ISZERO PUSH2 0x3AA JUMPI PUSH2 0x1D52 SWAP5 PUSH2 0x1D3F SWAP4 PUSH2 0x160 PUSH1 0xA0 MLOAD ADD MSTORE PUSH2 0x180 PUSH1 0xA0 MLOAD ADD MSTORE PUSH1 0x80 MLOAD PUSH2 0x1A0 PUSH1 0xA0 MLOAD ADD MSTORE PUSH2 0x1C0 PUSH1 0xA0 MLOAD ADD MSTORE PUSH2 0x240 PUSH2 0x1E0 PUSH1 0xA0 MLOAD ADD MSTORE PUSH2 0x240 PUSH1 0xA0 MLOAD ADD SWAP1 PUSH2 0x29F1 JUMP JUMPDEST SWAP1 PUSH1 0xA0 MLOAD DUP3 SUB PUSH2 0x200 PUSH1 0xA0 MLOAD ADD MSTORE PUSH2 0x29F1 JUMP JUMPDEST SWAP1 PUSH2 0x220 PUSH1 0xA0 MLOAD ADD MSTORE PUSH1 0xA0 MLOAD SWAP1 SUB PUSH1 0xA0 MLOAD RETURN JUMPDEST CALLVALUE PUSH2 0x12C JUMPI PUSH1 0x0 CALLDATASIZE PUSH1 0x3 NOT ADD SLT PUSH2 0x12C JUMPI PUSH1 0x20 PUSH1 0x40 MLOAD PUSH1 0x64 DUP2 MSTORE RETURN JUMPDEST CALLVALUE PUSH2 0x12C JUMPI PUSH1 0x0 CALLDATASIZE PUSH1 0x3 NOT ADD SLT PUSH2 0x12C JUMPI PUSH1 0x20 PUSH1 0x40 MLOAD PUSH3 0x278D00 DUP2 MSTORE RETURN JUMPDEST CALLVALUE PUSH2 0x12C JUMPI PUSH1 0x0 CALLDATASIZE PUSH1 0x3 NOT ADD SLT PUSH2 0x12C JUMPI PUSH1 0x20 PUSH1 0x40 MLOAD PUSH1 0xFA DUP2 MSTORE RETURN JUMPDEST CALLVALUE PUSH2 0x12C JUMPI PUSH1 0x0 CALLDATASIZE PUSH1 0x3 NOT ADD SLT PUSH2 0x12C JUMPI PUSH1 0x20 PUSH1 0x40 MLOAD PUSH2 0x3E8 DUP2 MSTORE RETURN JUMPDEST CALLVALUE PUSH2 0x12C JUMPI PUSH2 0x100 CALLDATASIZE PUSH1 0x3 NOT ADD SLT PUSH2 0x12C JUMPI PUSH2 0x1DF2 PUSH2 0x2817 JUMP JUMPDEST PUSH1 0x24 CALLDATALOAD SWAP1 PUSH8 0xFFFFFFFFFFFFFFFF DUP3 GT PUSH2 0x12C JUMPI CALLDATASIZE PUSH1 0x23 DUP4 ADD SLT ISZERO PUSH2 0x12C JUMPI PUSH8 0xFFFFFFFFFFFFFFFF DUP3 PUSH1 0x4 ADD CALLDATALOAD GT PUSH2 0x12C JUMPI CALLDATASIZE PUSH1 0x24 DUP4 PUSH1 0x4 ADD CALLDATALOAD PUSH1 0x5 SHL DUP5 ADD ADD GT PUSH2 0x12C JUMPI PUSH1 0xC4 CALLDATALOAD PUSH8 0xFFFFFFFFFFFFFFFF DUP2 GT PUSH2 0x12C JUMPI PUSH2 0x1E56 SWAP1 CALLDATASIZE SWAP1 PUSH1 0x4 ADD PUSH2 0x28E5 JUMP JUMPDEST SWAP1 PUSH1 0xE4 CALLDATALOAD PUSH8 0xFFFFFFFFFFFFFFFF DUP2 GT PUSH2 0x12C JUMPI PUSH2 0x1E77 SWAP1 CALLDATASIZE SWAP1 PUSH1 0x4 ADD PUSH2 0x28E5 JUMP JUMPDEST SWAP5 SWAP1 SWAP2 PUSH2 0x1E82 PUSH2 0x2D9B JUMP JUMPDEST PUSH2 0x1E8E PUSH2 0xF4D DUP7 PUSH2 0x2DD6 JUMP JUMPDEST PUSH2 0xE10 PUSH1 0xA4 CALLDATALOAD LT ISZERO DUP1 PUSH2 0x2789 JUMPI JUMPDEST PUSH2 0x1EA5 SWAP1 PUSH2 0x2A7D JUMP JUMPDEST PUSH1 0x44 CALLDATALOAD ISZERO ISZERO DUP1 PUSH2 0x277B JUMPI JUMPDEST PUSH2 0x1EB9 SWAP1 PUSH2 0x2AC8 JUMP JUMPDEST PUSH2 0x1ECE PUSH7 0x38D7EA4C68000 PUSH1 0x84 CALLDATALOAD LT ISZERO PUSH2 0x2B13 JUMP JUMPDEST DUP4 ISZERO ISZERO DUP1 PUSH2 0x276D JUMPI JUMPDEST DUP1 PUSH2 0x275E JUMPI JUMPDEST ISZERO PUSH2 0x271A JUMPI PUSH1 0x0 JUMPDEST DUP3 PUSH1 0x4 ADD CALLDATALOAD DUP2 LT PUSH2 0x24FC JUMPI POP PUSH1 0x2 SLOAD SWAP5 PUSH2 0x1EFE DUP7 PUSH2 0x2C06 JUMP JUMPDEST PUSH1 0x2 SSTORE PUSH2 0x1F0D PUSH1 0xA4 CALLDATALOAD TIMESTAMP PUSH2 0x2C15 JUMP JUMPDEST SWAP4 PUSH1 0x40 MLOAD SWAP1 PUSH2 0x1F1B DUP3 PUSH2 0x2843 JUMP JUMPDEST DUP8 DUP3 MSTORE PUSH1 0x1 PUSH1 0x20 DUP4 ADD MSTORE PUSH1 0x1 PUSH1 0x1 PUSH1 0xA0 SHL SUB DUP4 AND PUSH1 0x40 DUP4 ADD MSTORE PUSH1 0x0 PUSH1 0x60 DUP4 ADD MSTORE PUSH2 0x1F48 DUP6 PUSH1 0x4 ADD CALLDATALOAD PUSH2 0x2C22 JUMP JUMPDEST SWAP9 PUSH2 0x1F56 PUSH1 0x40 MLOAD SWAP11 DUP12 PUSH2 0x287C JUMP JUMPDEST PUSH1 0x4 DUP7 ADD CALLDATALOAD DUP11 MSTORE PUSH1 0x0 SWAP10 PUSH1 0x24 DUP8 ADD PUSH1 0x20 DUP3 ADD JUMPDEST PUSH1 0x24 DUP10 PUSH1 0x4 ADD CALLDATALOAD PUSH1 0x5 SHL DUP11 ADD ADD DUP3 LT PUSH2 0x24EC JUMPI POP POP SWAP1 PUSH2 0x1FF3 SWAP3 SWAP2 PUSH1 0x80 DUP6 ADD MSTORE CALLER PUSH1 0xA0 DUP6 ADD MSTORE PUSH1 0x44 CALLDATALOAD PUSH1 0xC0 DUP6 ADD MSTORE PUSH1 0x64 CALLDATALOAD PUSH1 0xE0 DUP6 ADD MSTORE PUSH1 0x84 CALLDATALOAD PUSH2 0x100 DUP6 ADD MSTORE TIMESTAMP PUSH2 0x120 DUP6 ADD MSTORE DUP8 PUSH2 0x140 DUP6 ADD MSTORE PUSH2 0x258 PUSH2 0x160 DUP6 ADD MSTORE DUP11 PUSH2 0x180 DUP6 ADD MSTORE DUP11 PUSH2 0x1A0 DUP6 ADD MSTORE DUP11 PUSH2 0x1C0 DUP6 ADD MSTORE DUP11 PUSH2 0x1E0 DUP6 ADD MSTORE PUSH2 0x1FE6 CALLDATASIZE DUP11 DUP9 PUSH2 0x289E JUMP JUMPDEST PUSH2 0x200 DUP6 ADD MSTORE CALLDATASIZE SWAP2 PUSH2 0x289E JUMP JUMPDEST PUSH2 0x220 DUP3 ADD MSTORE DUP8 PUSH2 0x240 DUP3 ADD MSTORE DUP7 DUP9 MSTORE PUSH1 0x3 PUSH1 0x20 MSTORE PUSH1 0x40 DUP9 KECCAK256 SWAP1 DUP1 MLOAD DUP3 SSTORE PUSH1 0x20 DUP2 ADD MLOAD PUSH1 0x2 DUP2 LT ISZERO PUSH2 0x2492 JUMPI PUSH1 0x1 DUP4 ADD SLOAD PUSH21 0xFFFFFFFFFFFFFFFFFFFFFFFFFFFFFFFFFFFFFFFFFF NOT PUSH1 0xFF PUSH21 0xFFFFFFFFFFFFFFFFFFFFFFFFFFFFFFFFFFFFFFFF00 PUSH1 0x40 DUP7 ADD MLOAD PUSH1 0x8 SHL AND SWAP4 AND SWAP2 AND OR OR PUSH1 0x1 DUP4 ADD SSTORE PUSH1 0x60 DUP2 ADD MLOAD PUSH1 0x2 DUP4 ADD SSTORE PUSH1 0x80 DUP2 ADD MLOAD DUP1 MLOAD SWAP1 PUSH8 0xFFFFFFFFFFFFFFFF DUP3 GT PUSH2 0x24D8 JUMPI PUSH9 0x10000000000000000 DUP3 GT PUSH2 0x24D8 JUMPI PUSH1 0x20 SWAP1 DUP12 PUSH1 0x3 DUP7 ADD SLOAD DUP5 PUSH1 0x3 DUP9 ADD SSTORE DUP5 DUP2 DUP2 LT PUSH2 0x24BA JUMPI JUMPDEST POP POP POP ADD PUSH1 0x3 DUP5 ADD DUP12 MSTORE PUSH1 0x20 DUP12 KECCAK256 DUP12 JUMPDEST DUP4 DUP2 LT PUSH2 0x24A6 JUMPI POP POP POP POP PUSH1 0x1 PUSH1 0x1 PUSH1 0xA0 SHL SUB PUSH1 0xA0 DUP3 ADD MLOAD AND PUSH1 0x1 PUSH1 0x1 PUSH1 0xA0 SHL SUB PUSH1 0x4 DUP5 ADD SWAP2 AND PUSH1 0x1 PUSH1 0x1 PUSH1 0xA0 SHL SUB NOT DUP3 SLOAD AND OR SWAP1 SSTORE PUSH1 0xC0 DUP2 ADD MLOAD PUSH1 0x5 DUP4 ADD SSTORE PUSH1 0xE0 DUP2 ADD MLOAD PUSH1 0x6 DUP4 ADD SSTORE PUSH2 0x100 DUP2 ADD MLOAD PUSH1 0x7 DUP4 ADD SSTORE PUSH2 0x120 DUP2 ADD MLOAD PUSH1 0x8 DUP4 ADD SSTORE PUSH2 0x140 DUP2 ADD MLOAD PUSH1 0x9 DUP4 ADD SSTORE PUSH2 0x160 DUP2 ADD MLOAD PUSH1 0xA DUP4 ADD SSTORE PUSH2 0x180 DUP2 ADD MLOAD PUSH1 0x3 DUP2 LT ISZERO PUSH2 0x2492 JUMPI PUSH2 0x2152 SWAP1 PUSH1 0xB DUP5 ADD PUSH2 0x2C51 JUMP JUMPDEST PUSH2 0x1A0 DUP2 ADD MLOAD PUSH1 0xC DUP4 ADD SSTORE PUSH1 0x1 PUSH1 0x1 PUSH1 0xA0 SHL SUB PUSH2 0x1C0 DUP3 ADD MLOAD AND PUSH1 0x1 PUSH1 0x1 PUSH1 0xA0 SHL SUB PUSH1 0xD DUP5 ADD SWAP2 AND PUSH1 0x1 PUSH1 0x1 PUSH1 0xA0 SHL SUB NOT DUP3 SLOAD AND OR SWAP1 SSTORE PUSH2 0x1E0 DUP2 ADD MLOAD PUSH1 0xE DUP4 ADD SSTORE PUSH1 0xF DUP3 ADD PUSH2 0x200 DUP3 ADD MLOAD DUP1 MLOAD SWAP1 PUSH8 0xFFFFFFFFFFFFFFFF DUP3 GT PUSH2 0x23E0 JUMPI DUP2 SWAP1 DUP13 PUSH2 0x21BD DUP6 SLOAD PUSH2 0x2913 JUMP JUMPDEST PUSH1 0x1F DUP2 GT PUSH2 0x2462 JUMPI JUMPDEST POP POP PUSH1 0x20 SWAP1 DUP14 PUSH1 0x1F DUP5 GT PUSH1 0x1 EQ PUSH2 0x23FF JUMPI SWAP3 PUSH2 0x23F4 JUMPI JUMPDEST POP POP DUP2 PUSH1 0x1 SHL SWAP2 PUSH1 0x0 NOT SWAP1 PUSH1 0x3 SHL SHR NOT AND OR SWAP1 SSTORE JUMPDEST PUSH1 0x10 DUP3 ADD PUSH2 0x220 DUP3 ADD MLOAD DUP1 MLOAD SWAP1 PUSH8 0xFFFFFFFFFFFFFFFF DUP3 GT PUSH2 0x23E0 JUMPI DUP12 PUSH2 0x2219 DUP5 SLOAD PUSH2 0x2913 JUMP JUMPDEST PUSH1 0x1F DUP2 GT PUSH2 0x23B0 JUMPI JUMPDEST POP POP PUSH1 0x20 SWAP1 DUP13 PUSH1 0x1F DUP5 GT PUSH1 0x1 EQ PUSH2 0x2346 JUMPI SWAP3 PUSH2 0x240 SWAP5 SWAP3 DUP2 SWAP3 PUSH1 0x11 SWAP8 SWAP6 SWAP3 PUSH2 0x233B JUMPI JUMPDEST POP POP DUP2 PUSH1 0x1 SHL SWAP2 PUSH1 0x0 NOT SWAP1 PUSH1 0x3 SHL SHR NOT AND OR SWAP1 SSTORE JUMPDEST ADD MLOAD SWAP2 ADD SSTORE CALLER DUP8 MSTORE PUSH1 0x6 PUSH1 0x20 MSTORE PUSH2 0x2274 DUP7 PUSH1 0x40 DUP10 KECCAK256 PUSH2 0x2C81 JUMP JUMPDEST PUSH1 0x40 MLOAD SWAP3 PUSH1 0x1 DUP5 MSTORE DUP8 PUSH1 0x20 DUP6 ADD MSTORE PUSH1 0xC0 PUSH1 0x40 DUP6 ADD MSTORE DUP1 PUSH1 0x4 ADD CALLDATALOAD PUSH1 0xC0 DUP6 ADD MSTORE PUSH32 0x7FFFFFFFFFFFFFFFFFFFFFFFFFFFFFFFFFFFFFFFFFFFFFFFFFFFFFFFFFFFFFF DUP2 PUSH1 0x4 ADD CALLDATALOAD GT PUSH2 0x2337 JUMPI DUP4 PUSH1 0x1 SWAP7 SWAP5 PUSH2 0x146E PUSH1 0x20 SWAP11 SWAP8 SWAP6 PUSH1 0x1 PUSH1 0x1 PUSH1 0xA0 SHL SUB DUP12 SWAP7 DUP7 PUSH32 0xED64E6C300AB5F25F3A8E69B83450E8787C7246008FFD6B98A2E36EE7AABDDB6 SWAP8 PUSH1 0x4 ADD CALLDATALOAD PUSH1 0x5 SHL PUSH1 0x24 DUP3 ADD PUSH1 0xE0 DUP9 ADD CALLDATACOPY PUSH1 0x4 ADD CALLDATALOAD PUSH1 0x5 SHL DUP6 ADD SWAP9 PUSH1 0x44 CALLDATALOAD PUSH1 0x60 DUP8 ADD MSTORE PUSH1 0x80 DUP7 ADD MSTORE PUSH1 0xE0 DUP6 DUP11 SUB ADD PUSH1 0xA0 DUP7 ADD MSTORE AND SWAP8 PUSH1 0xE0 CALLER SWAP9 ADD SWAP2 PUSH2 0x2CBB JUMP JUMPDEST DUP8 DUP1 REVERT JUMPDEST ADD MLOAD SWAP1 POP DUP15 DUP1 PUSH2 0x2245 JUMP JUMPDEST SWAP2 SWAP1 PUSH1 0x1F NOT DUP5 AND DUP6 DUP5 MSTORE DUP3 DUP5 KECCAK256 SWAP4 JUMPDEST DUP2 DUP2 LT PUSH2 0x2398 JUMPI POP SWAP3 PUSH1 0x1 SWAP3 DUP6 SWAP3 PUSH1 0x11 SWAP9 SWAP7 PUSH2 0x240 SWAP9 SWAP7 LT PUSH2 0x237F JUMPI JUMPDEST POP POP POP DUP2 SHL ADD SWAP1 SSTORE PUSH2 0x225A JUMP JUMPDEST ADD MLOAD PUSH1 0x0 NOT PUSH1 0xF8 DUP5 PUSH1 0x3 SHL AND SHR NOT AND SWAP1 SSTORE DUP15 DUP1 DUP1 PUSH2 0x2372 JUMP JUMPDEST SWAP3 SWAP4 PUSH1 0x20 PUSH1 0x1 DUP2 SWAP3 DUP8 DUP7 ADD MLOAD DUP2 SSTORE ADD SWAP6 ADD SWAP4 ADD PUSH2 0x2355 JUMP JUMPDEST PUSH1 0x20 DUP3 DUP7 PUSH2 0x23D9 SWAP5 MSTORE KECCAK256 PUSH1 0x1F DUP6 ADD PUSH1 0x5 SHR DUP2 ADD SWAP2 PUSH1 0x20 DUP7 LT PUSH2 0x153D JUMPI PUSH1 0x1F ADD PUSH1 0x5 SHR ADD SWAP1 PUSH2 0x2C3A JUMP JUMPDEST DUP12 DUP14 PUSH2 0x2222 JUMP JUMPDEST PUSH1 0x24 DUP13 PUSH4 0x4E487B71 PUSH1 0xE0 SHL DUP2 MSTORE PUSH1 0x41 PUSH1 0x4 MSTORE REVERT JUMPDEST ADD MLOAD SWAP1 POP DUP13 DUP1 PUSH2 0x21DD JUMP JUMPDEST DUP6 DUP2 MSTORE DUP3 DUP2 KECCAK256 SWAP4 POP PUSH1 0x1F NOT DUP6 AND SWAP1 JUMPDEST DUP2 DUP2 LT PUSH2 0x244A JUMPI POP SWAP1 DUP5 PUSH1 0x1 SWAP6 SWAP5 SWAP4 SWAP3 LT PUSH2 0x2431 JUMPI JUMPDEST POP POP POP DUP2 SHL ADD SWAP1 SSTORE PUSH2 0x21F2 JUMP JUMPDEST ADD MLOAD PUSH1 0x0 NOT PUSH1 0xF8 DUP5 PUSH1 0x3 SHL AND SHR NOT AND SWAP1 SSTORE DUP13 DUP1 DUP1 PUSH2 0x2424 JUMP JUMPDEST SWAP3 SWAP4 PUSH1 0x20 PUSH1 0x1 DUP2 SWAP3 DUP8 DUP7 ADD MLOAD DUP2 SSTORE ADD SWAP6 ADD SWAP4 ADD PUSH2 0x240E JUMP JUMPDEST PUSH1 0x20 DUP3 DUP8 PUSH2 0x248B SWAP5 MSTORE KECCAK256 PUSH1 0x1F DUP6 ADD PUSH1 0x5 SHR DUP2 ADD SWAP2 PUSH1 0x20 DUP7 LT PUSH2 0x153D JUMPI PUSH1 0x1F ADD PUSH1 0x5 SHR ADD SWAP1 PUSH2 0x2C3A JUMP JUMPDEST DUP13 DUP15 PUSH2 0x21C6 JUMP JUMPDEST PUSH1 0x24 DUP11 PUSH4 0x4E487B71 PUSH1 0xE0 SHL DUP2 MSTORE PUSH1 0x21 PUSH1 0x4 MSTORE REVERT JUMPDEST PUSH1 0x1 SWAP1 PUSH1 0x20 DUP5 MLOAD SWAP5 ADD SWAP4 DUP2 DUP5 ADD SSTORE ADD PUSH2 0x20C0 JUMP JUMPDEST DUP5 PUSH2 0x24D0 SWAP4 PUSH1 0x3 DUP11 ADD DUP2 MSTORE KECCAK256 SWAP2 DUP3 ADD SWAP2 ADD PUSH2 0x2C3A JUMP JUMPDEST DUP12 DUP14 DUP5 PUSH2 0x20B0 JUMP JUMPDEST PUSH1 0x24 DUP12 PUSH4 0x4E487B71 PUSH1 0xE0 SHL DUP2 MSTORE PUSH1 0x41 PUSH1 0x4 MSTORE REVERT JUMPDEST DUP2 CALLDATALOAD DUP2 MSTORE PUSH1 0x20 SWAP2 DUP3 ADD SWAP2 ADD PUSH2 0x1F69 JUMP JUMPDEST PUSH2 0x250E DUP2 DUP5 PUSH1 0x4 ADD CALLDATALOAD PUSH1 0x24 DUP7 ADD PUSH2 0x2B5E JUMP JUMPDEST CALLDATALOAD PUSH1 0x40 MLOAD SWAP1 PUSH4 0x31A9108F PUSH1 0xE1 SHL DUP3 MSTORE PUSH1 0x4 DUP3 ADD MSTORE PUSH1 0x20 DUP2 PUSH1 0x24 DUP2 PUSH1 0x1 PUSH1 0x1 PUSH1 0xA0 SHL SUB DUP12 AND GAS STATICCALL SWAP1 DUP2 ISZERO PUSH2 0x2C4 JUMPI PUSH1 0x0 SWAP2 PUSH2 0x26FC JUMPI JUMPDEST POP PUSH1 0x1 PUSH1 0x1 PUSH1 0xA0 SHL SUB CALLER SWAP2 AND SUB PUSH2 0x26B8 JUMPI PUSH2 0x2566 DUP2 DUP5 PUSH1 0x4 ADD CALLDATALOAD PUSH1 0x24 DUP7 ADD PUSH2 0x2B5E JUMP JUMPDEST CALLDATALOAD PUSH1 0x40 MLOAD SWAP1 PUSH4 0x20604BF PUSH1 0xE2 SHL DUP3 MSTORE PUSH1 0x4 DUP3 ADD MSTORE PUSH1 0x20 DUP2 PUSH1 0x24 DUP2 PUSH1 0x1 PUSH1 0x1 PUSH1 0xA0 SHL SUB DUP12 AND GAS STATICCALL SWAP1 DUP2 ISZERO PUSH2 0x2C4 JUMPI PUSH1 0x0 SWAP2 PUSH2 0x269A JUMPI JUMPDEST POP PUSH1 0x1 PUSH1 0x1 PUSH1 0xA0 SHL SUB AND ADDRESS EQ DUP1 ISZERO PUSH2 0x2636 JUMPI JUMPDEST PUSH2 0x25B7 SWAP1 PUSH2 0x2BBB JUMP JUMPDEST PUSH2 0x25C9 DUP2 DUP5 PUSH1 0x4 ADD CALLDATALOAD PUSH1 0x24 DUP7 ADD PUSH2 0x2B5E JUMP JUMPDEST CALLDATALOAD SWAP1 PUSH1 0x1 PUSH1 0x1 PUSH1 0xA0 SHL SUB DUP8 AND EXTCODESIZE ISZERO PUSH2 0x12C JUMPI PUSH1 0x40 MLOAD PUSH4 0x21421707 PUSH1 0xE1 SHL DUP2 MSTORE CALLER PUSH1 0x4 DUP3 ADD MSTORE ADDRESS PUSH1 0x24 DUP3 ADD MSTORE PUSH1 0x44 DUP2 ADD SWAP3 SWAP1 SWAP3 MSTORE PUSH1 0x0 DUP3 PUSH1 0x64 DUP2 DUP4 PUSH1 0x1 PUSH1 0x1 PUSH1 0xA0 SHL SUB DUP13 AND GAS CALL SWAP2 DUP3 ISZERO PUSH2 0x2C4 JUMPI PUSH1 0x1 SWAP3 PUSH2 0x2625 JUMPI JUMPDEST POP ADD PUSH2 0x1EE5 JUMP JUMPDEST PUSH1 0x0 PUSH2 0x2630 SWAP2 PUSH2 0x287C JUMP JUMPDEST DUP9 PUSH2 0x261E JUMP JUMPDEST POP PUSH1 0x40 MLOAD PUSH4 0xE985E9C5 PUSH1 0xE0 SHL DUP2 MSTORE CALLER PUSH1 0x4 DUP3 ADD MSTORE ADDRESS PUSH1 0x24 DUP3 ADD MSTORE PUSH1 0x20 DUP2 PUSH1 0x44 DUP2 PUSH1 0x1 PUSH1 0x1 PUSH1 0xA0 SHL SUB DUP12 AND GAS STATICCALL DUP1 ISZERO PUSH2 0x2C4 JUMPI PUSH2 0x25B7 SWAP2 PUSH1 0x0 SWAP2 PUSH2 0x267C JUMPI JUMPDEST POP SWAP1 POP PUSH2 0x25AE JUMP JUMPDEST PUSH2 0x2694 SWAP2 POP PUSH1 0x20 RETURNDATASIZE DUP2 GT PUSH2 0x16C7 JUMPI PUSH2 0x16B9 DUP2 DUP4 PUSH2 0x287C JUMP JUMPDEST DUP10 PUSH2 0x2674 JUMP JUMPDEST PUSH2 0x26B2 SWAP2 POP PUSH1 0x20 RETURNDATASIZE DUP2 GT PUSH2 0x16F6 JUMPI PUSH2 0x16E8 DUP2 DUP4 PUSH2 0x287C JUMP JUMPDEST DUP9 PUSH2 0x259B JUMP JUMPDEST PUSH1 0x64 PUSH1 0x40 MLOAD PUSH3 0x461BCD PUSH1 0xE5 SHL DUP2 MSTORE PUSH1 0x20 PUSH1 0x4 DUP3 ADD MSTORE PUSH1 0x9 PUSH1 0x24 DUP3 ADD MSTORE PUSH32 0x4E6F74206F776E65720000000000000000000000000000000000000000000000 PUSH1 0x44 DUP3 ADD MSTORE REVERT JUMPDEST PUSH2 0x2714 SWAP2 POP PUSH1 0x20 RETURNDATASIZE DUP2 GT PUSH2 0x16F6 JUMPI PUSH2 0x16E8 DUP2 DUP4 PUSH2 0x287C JUMP JUMPDEST DUP9 PUSH2 0x2543 JUMP JUMPDEST PUSH1 0x64 PUSH1 0x40 MLOAD PUSH3 0x461BCD PUSH1 0xE5 SHL DUP2 MSTORE PUSH1 0x20 PUSH1 0x4 DUP3 ADD MSTORE PUSH1 0x10 PUSH1 0x24 DUP3 ADD MSTORE PUSH32 0x496E76616C696420746F6B656E49647300000000000000000000000000000000 PUSH1 0x44 DUP3 ADD MSTORE REVERT JUMPDEST POP PUSH1 0x64 DUP3 PUSH1 0x4 ADD CALLDATALOAD GT ISZERO PUSH2 0x1EDD JUMP JUMPDEST POP PUSH1 0x1 DUP3 PUSH1 0x4 ADD CALLDATALOAD GT PUSH2 0x1ED7 JUMP JUMPDEST POP PUSH1 0x44 CALLDATALOAD PUSH1 0x64 CALLDATALOAD LT ISZERO PUSH2 0x1EB0 JUMP JUMPDEST POP PUSH3 0x278D00 PUSH1 0xA4 CALLDATALOAD GT ISZERO PUSH2 0x1E9C JUMP JUMPDEST CALLVALUE PUSH2 0x12C JUMPI PUSH1 0x80 CALLDATASIZE PUSH1 0x3 NOT ADD SLT PUSH2 0x12C JUMPI PUSH2 0x27B1 PUSH2 0x2817 JUMP JUMPDEST POP PUSH2 0x27BA PUSH2 0x282D JUMP JUMPDEST POP PUSH1 0x64 CALLDATALOAD PUSH8 0xFFFFFFFFFFFFFFFF DUP2 GT PUSH2 0x12C JUMPI CALLDATASIZE PUSH1 0x23 DUP3 ADD SLT ISZERO PUSH2 0x12C JUMPI PUSH2 0x27EC SWAP1 CALLDATASIZE SWAP1 PUSH1 0x24 DUP2 PUSH1 0x4 ADD CALLDATALOAD SWAP2 ADD PUSH2 0x289E JUMP JUMPDEST POP PUSH1 0x20 PUSH1 0x40 MLOAD PUSH32 0x150B7A0200000000000000000000000000000000000000000000000000000000 DUP2 MSTORE RETURN JUMPDEST PUSH1 0x4 CALLDATALOAD SWAP1 PUSH1 0x1 PUSH1 0x1 PUSH1 0xA0 SHL SUB DUP3 AND DUP3 SUB PUSH2 0x12C JUMPI JUMP JUMPDEST PUSH1 0x24 CALLDATALOAD SWAP1 PUSH1 0x1 PUSH1 0x1 PUSH1 0xA0 SHL SUB DUP3 AND DUP3 SUB PUSH2 0x12C JUMPI JUMP JUMPDEST PUSH2 0x260 DUP2 ADD SWAP1 DUP2 LT PUSH8 0xFFFFFFFFFFFFFFFF DUP3 GT OR PUSH2 0x1A6F JUMPI PUSH1 0x40 MSTORE JUMP JUMPDEST PUSH1 0x80 DUP2 ADD SWAP1 DUP2 LT PUSH8 0xFFFFFFFFFFFFFFFF DUP3 GT OR PUSH2 0x1A6F JUMPI PUSH1 0x40 MSTORE JUMP JUMPDEST SWAP1 PUSH1 0x1F DUP1 NOT SWAP2 ADD AND DUP2 ADD SWAP1 DUP2 LT PUSH8 0xFFFFFFFFFFFFFFFF DUP3 GT OR PUSH2 0x1A6F JUMPI PUSH1 0x40 MSTORE JUMP JUMPDEST SWAP3 SWAP2 SWAP3 PUSH8 0xFFFFFFFFFFFFFFFF DUP3 GT PUSH2 0x1A6F JUMPI PUSH1 0x40 MLOAD SWAP2 PUSH2 0x28C8 PUSH1 0x1F DUP3 ADD PUSH1 0x1F NOT AND PUSH1 0x20 ADD DUP5 PUSH2 0x287C JUMP JUMPDEST DUP3 SWAP5 DUP2 DUP5 MSTORE DUP2 DUP4 ADD GT PUSH2 0x12C JUMPI DUP3 DUP2 PUSH1 0x20 SWAP4 DUP5 PUSH1 0x0 SWAP7 ADD CALLDATACOPY ADD ADD MSTORE JUMP JUMPDEST SWAP2 DUP2 PUSH1 0x1F DUP5 ADD SLT ISZERO PUSH2 0x12C JUMPI DUP3 CALLDATALOAD SWAP2 PUSH8 0xFFFFFFFFFFFFFFFF DUP4 GT PUSH2 0x12C JUMPI PUSH1 0x20 DUP4 DUP2 DUP7 ADD SWAP6 ADD ADD GT PUSH2 0x12C JUMPI JUMP JUMPDEST SWAP1 PUSH1 0x1 DUP3 DUP2 SHR SWAP3 AND DUP1 ISZERO PUSH2 0x2943 JUMPI JUMPDEST PUSH1 0x20 DUP4 LT EQ PUSH2 0x292D JUMPI JUMP JUMPDEST PUSH4 0x4E487B71 PUSH1 0xE0 SHL PUSH1 0x0 MSTORE PUSH1 0x22 PUSH1 0x4 MSTORE PUSH1 0x24 PUSH1 0x0 REVERT JUMPDEST SWAP2 PUSH1 0x7F AND SWAP2 PUSH2 0x2922 JUMP JUMPDEST SWAP1 PUSH1 0x40 MLOAD SWAP2 DUP3 PUSH1 0x0 DUP3 SLOAD SWAP3 PUSH2 0x2961 DUP5 PUSH2 0x2913 JUMP JUMPDEST DUP1 DUP5 MSTORE SWAP4 PUSH1 0x1 DUP2 AND SWAP1 DUP2 ISZERO PUSH2 0x29CF JUMPI POP PUSH1 0x1 EQ PUSH2 0x2988 JUMPI JUMPDEST POP PUSH2 0x2986 SWAP3 POP SUB DUP4 PUSH2 0x287C JUMP JUMPDEST JUMP JUMPDEST SWAP1 POP PUSH1 0x0 SWAP3 SWAP2 SWAP3 MSTORE PUSH1 0x20 PUSH1 0x0 KECCAK256 SWAP1 PUSH1 0x0 SWAP2 JUMPDEST DUP2 DUP4 LT PUSH2 0x29B3 JUMPI POP POP SWAP1 PUSH1 0x20 PUSH2 0x2986 SWAP3 DUP3 ADD ADD CODESIZE PUSH2 0x2979 JUMP JUMPDEST PUSH1 0x20 SWAP2 SWAP4 POP DUP1 PUSH1 0x1 SWAP2 SLOAD DUP4 DUP6 DUP10 ADD ADD MSTORE ADD SWAP2 ADD SWAP1 SWAP2 DUP5 SWAP3 PUSH2 0x299A JUMP JUMPDEST SWAP1 POP PUSH1 0x20 SWAP3 POP PUSH2 0x2986 SWAP5 SWAP2 POP PUSH1 0xFF NOT AND DUP3 DUP5 ADD MSTORE ISZERO ISZERO PUSH1 0x5 SHL DUP3 ADD ADD CODESIZE PUSH2 0x2979 JUMP JUMPDEST SWAP2 SWAP1 DUP3 MLOAD SWAP3 DUP4 DUP3 MSTORE PUSH1 0x0 JUMPDEST DUP5 DUP2 LT PUSH2 0x2A1D JUMPI POP POP DUP3 PUSH1 0x0 PUSH1 0x20 DUP1 SWAP5 SWAP6 DUP5 ADD ADD MSTORE PUSH1 0x1F DUP1 NOT SWAP2 ADD AND ADD ADD SWAP1 JUMP JUMPDEST DUP1 PUSH1 0x20 DUP1 SWAP3 DUP5 ADD ADD MLOAD DUP3 DUP3 DUP7 ADD ADD MSTORE ADD PUSH2 0x29FC JUMP JUMPDEST ISZERO PUSH2 0x2A39 JUMPI JUMP JUMPDEST PUSH1 0x64 PUSH1 0x40 MLOAD PUSH3 0x461BCD PUSH1 0xE5 SHL DUP2 MSTORE PUSH1 0x20 PUSH1 0x4 DUP3 ADD MSTORE PUSH1 0x14 PUSH1 0x24 DUP3 ADD MSTORE PUSH32 0x496E76616C6964204E465420636F6E7472616374000000000000000000000000 PUSH1 0x44 DUP3 ADD MSTORE REVERT JUMPDEST ISZERO PUSH2 0x2A84 JUMPI JUMP JUMPDEST PUSH1 0x64 PUSH1 0x40 MLOAD PUSH3 0x461BCD PUSH1 0xE5 SHL DUP2 MSTORE PUSH1 0x20 PUSH1 0x4 DUP3 ADD MSTORE PUSH1 0x10 PUSH1 0x24 DUP3 ADD MSTORE PUSH32 0x496E76616C6964206475726174696F6E00000000000000000000000000000000 PUSH1 0x44 DUP3 ADD MSTORE REVERT JUMPDEST ISZERO PUSH2 0x2ACF JUMPI JUMP JUMPDEST PUSH1 0x64 PUSH1 0x40 MLOAD PUSH3 0x461BCD PUSH1 0xE5 SHL DUP2 MSTORE PUSH1 0x20 PUSH1 0x4 DUP3 ADD MSTORE PUSH1 0xD PUSH1 0x24 DUP3 ADD MSTORE PUSH32 0x496E76616C696420707269636500000000000000000000000000000000000000 PUSH1 0x44 DUP3 ADD MSTORE REVERT JUMPDEST ISZERO PUSH2 0x2B1A JUMPI JUMP JUMPDEST PUSH1 0x64 PUSH1 0x40 MLOAD PUSH3 0x461BCD PUSH1 0xE5 SHL DUP2 MSTORE PUSH1 0x20 PUSH1 0x4 DUP3 ADD MSTORE PUSH1 0x11 PUSH1 0x24 DUP3 ADD MSTORE PUSH32 0x496E6372656D656E7420746F6F206C6F77000000000000000000000000000000 PUSH1 0x44 DUP3 ADD MSTORE REVERT JUMPDEST SWAP2 SWAP1 DUP2 LT ISZERO PUSH2 0x2B6E JUMPI PUSH1 0x5 SHL ADD SWAP1 JUMP JUMPDEST PUSH4 0x4E487B71 PUSH1 0xE0 SHL PUSH1 0x0 MSTORE PUSH1 0x32 PUSH1 0x4 MSTORE PUSH1 0x24 PUSH1 0x0 REVERT JUMPDEST SWAP1 DUP2 PUSH1 0x20 SWAP2 SUB SLT PUSH2 0x12C JUMPI MLOAD PUSH1 0x1 PUSH1 0x1 PUSH1 0xA0 SHL SUB DUP2 AND DUP2 SUB PUSH2 0x12C JUMPI SWAP1 JUMP JUMPDEST SWAP1 DUP2 PUSH1 0x20 SWAP2 SUB SLT PUSH2 0x12C JUMPI MLOAD DUP1 ISZERO ISZERO DUP2 SUB PUSH2 0x12C JUMPI SWAP1 JUMP JUMPDEST ISZERO PUSH2 0x2BC2 JUMPI JUMP JUMPDEST PUSH1 0x64 PUSH1 0x40 MLOAD PUSH3 0x461BCD PUSH1 0xE5 SHL DUP2 MSTORE PUSH1 0x20 PUSH1 0x4 DUP3 ADD MSTORE PUSH1 0x15 PUSH1 0x24 DUP3 ADD MSTORE PUSH32 0x436F6E7472616374206E6F7420617070726F7665640000000000000000000000 PUSH1 0x44 DUP3 ADD MSTORE REVERT JUMPDEST PUSH1 0x0 NOT DUP2 EQ PUSH2 0x3C0 JUMPI PUSH1 0x1 ADD SWAP1 JUMP JUMPDEST SWAP2 SWAP1 DUP3 ADD DUP1 SWAP3 GT PUSH2 0x3C0 JUMPI JUMP JUMPDEST PUSH8 0xFFFFFFFFFFFFFFFF DUP2 GT PUSH2 0x1A6F JUMPI PUSH1 0x5 SHL PUSH1 0x20 ADD SWAP1 JUMP JUMPDEST DUP2 DUP2 LT PUSH2 0x2C45 JUMPI POP POP JUMP JUMPDEST PUSH1 0x0 DUP2 SSTORE PUSH1 0x1 ADD PUSH2 0x2C3A JUMP JUMPDEST SWAP1 PUSH1 0x3 DUP2 LT ISZERO PUSH2 0x3AA JUMPI PUSH1 0xFF DUP1 NOT DUP4 SLOAD AND SWAP2 AND OR SWAP1 SSTORE JUMP JUMPDEST DUP1 SLOAD DUP3 LT ISZERO PUSH2 0x2B6E JUMPI PUSH1 0x0 MSTORE PUSH1 0x20 PUSH1 0x0 KECCAK256 ADD SWAP1 PUSH1 0x0 SWAP1 JUMP JUMPDEST DUP1 SLOAD PUSH9 0x10000000000000000 DUP2 LT ISZERO PUSH2 0x1A6F JUMPI PUSH2 0x2CA3 SWAP2 PUSH1 0x1 DUP3 ADD DUP2 SSTORE PUSH2 0x2C69 JUMP JUMPDEST DUP2 SWAP3 SWAP2 SLOAD SWAP1 PUSH1 0x3 SHL SWAP2 DUP3 SHL SWAP2 PUSH1 0x0 NOT SWAP1 SHL NOT AND OR SWAP1 SSTORE JUMP JUMPDEST SWAP1 DUP1 PUSH1 0x20 SWAP4 SWAP3 DUP2 DUP5 MSTORE DUP5 DUP5 ADD CALLDATACOPY PUSH1 0x0 DUP3 DUP3 ADD DUP5 ADD MSTORE PUSH1 0x1F ADD PUSH1 0x1F NOT AND ADD ADD SWAP1 JUMP JUMPDEST ISZERO PUSH2 0x2CE3 JUMPI JUMP JUMPDEST PUSH1 0x64 PUSH1 0x40 MLOAD PUSH3 0x461BCD PUSH1 0xE5 SHL DUP2 MSTORE PUSH1 0x20 PUSH1 0x4 DUP3 ADD MSTORE PUSH1 0x12 PUSH1 0x24 DUP3 ADD MSTORE PUSH32 0x41756374696F6E206E6F74206163746976650000000000000000000000000000 PUSH1 0x44 DUP3 ADD MSTORE REVERT JUMPDEST DUP1 SLOAD DUP3 LT ISZERO PUSH2 0x2B6E JUMPI PUSH1 0x0 MSTORE PUSH1 0x20 PUSH1 0x0 KECCAK256 SWAP1 PUSH1 0x2 SHL ADD SWAP1 PUSH1 0x0 SWAP1 JUMP JUMPDEST SWAP2 SWAP1 DUP3 SUB SWAP2 DUP3 GT PUSH2 0x3C0 JUMPI JUMP JUMPDEST ISZERO PUSH2 0x2D57 JUMPI JUMP JUMPDEST PUSH1 0x64 PUSH1 0x40 MLOAD PUSH3 0x461BCD PUSH1 0xE5 SHL DUP2 MSTORE PUSH1 0x20 PUSH1 0x4 DUP3 ADD MSTORE PUSH1 0x15 PUSH1 0x24 DUP3 ADD MSTORE PUSH32 0x41756374696F6E206E6F742066696E616C697A65640000000000000000000000 PUSH1 0x44 DUP3 ADD MSTORE REVERT JUMPDEST PUSH1 0x2 PUSH1 0x0 SLOAD EQ PUSH2 0x2DAC JUMPI PUSH1 0x2 PUSH1 0x0 SSTORE JUMP JUMPDEST PUSH32 0x3EE5AEB500000000000000000000000000000000000000000000000000000000 PUSH1 0x0 MSTORE PUSH1 0x4 PUSH1 0x0 REVERT JUMPDEST PUSH1 0x20 PUSH1 0x1 PUSH1 0x1 PUSH1 0xA0 SHL SUB SWAP2 PUSH1 0x24 PUSH1 0x40 MLOAD DUP1 SWAP5 DUP2 SWAP4 PUSH32 0x1FFC9A700000000000000000000000000000000000000000000000000000000 DUP4 MSTORE PUSH32 0x80AC58CD00000000000000000000000000000000000000000000000000000000 PUSH1 0x4 DUP5 ADD MSTORE AND GAS STATICCALL SWAP1 DUP2 ISZERO PUSH2 0x2C4 JUMPI PUSH1 0x0 SWAP2 PUSH2 0x2E48 JUMPI POP SWAP1 JUMP JUMPDEST PUSH2 0x2E61 SWAP2 POP PUSH1 0x20 RETURNDATASIZE PUSH1 0x20 GT PUSH2 0x16C7 JUMPI PUSH2 0x16B9 DUP2 DUP4 PUSH2 0x287C JUMP JUMPDEST SWAP1 JUMP JUMPDEST PUSH1 0x1 PUSH1 0x1 PUSH1 0xA0 SHL SUB PUSH1 0x1 SLOAD AND CALLER SUB PUSH2 0x2E78 JUMPI JUMP JUMPDEST PUSH32 0x118CDAA700000000000000000000000000000000000000000000000000000000 PUSH1 0x0 MSTORE CALLER PUSH1 0x4 MSTORE PUSH1 0x24 PUSH1 0x0 REVERT JUMPDEST SWAP2 DUP3 PUSH1 0x0 MSTORE PUSH1 0x3 PUSH1 0x20 MSTORE PUSH1 0x40 PUSH1 0x0 KECCAK256 SWAP2 PUSH1 0xB DUP4 ADD PUSH1 0x2 PUSH1 0xFF NOT DUP3 SLOAD AND OR SWAP1 SSTORE PUSH1 0x0 JUMPDEST DUP5 PUSH1 0x0 MSTORE PUSH1 0x4 PUSH1 0x20 MSTORE PUSH1 0x40 PUSH1 0x0 KECCAK256 SLOAD DUP2 LT ISZERO PUSH2 0x2F4B JUMPI DUP5 PUSH1 0x0 MSTORE PUSH1 0x4 PUSH1 0x20 MSTORE PUSH2 0x2EF5 DUP2 PUSH1 0x40 PUSH1 0x0 KECCAK256 PUSH2 0x2D27 JUMP JUMPDEST POP SWAP1 PUSH1 0x0 DUP1 DUP1 DUP1 PUSH1 0x3 PUSH1 0x1 PUSH1 0x1 PUSH1 0xA0 SHL SUB DUP8 SLOAD AND SWAP7 ADD SWAP6 DUP7 SLOAD SWAP1 DUP3 DUP3 ISZERO PUSH2 0x2F42 JUMPI JUMPDEST CALL ISZERO PUSH2 0x2C4 JUMPI PUSH1 0x1 SWAP2 SLOAD DUP7 PUSH1 0x0 MSTORE PUSH1 0x8 PUSH1 0x20 MSTORE PUSH2 0x2F3A PUSH1 0x40 PUSH1 0x0 KECCAK256 SWAP2 DUP3 SLOAD PUSH2 0x2D43 JUMP JUMPDEST SWAP1 SSTORE ADD PUSH2 0x2EC8 JUMP JUMPDEST POP PUSH2 0x8FC PUSH2 0x2F17 JUMP JUMPDEST POP SWAP2 SWAP3 SWAP1 SWAP3 PUSH1 0x1 DUP2 ADD PUSH1 0xFF DUP2 SLOAD AND PUSH1 0x2 DUP2 LT ISZERO PUSH2 0x3AA JUMPI PUSH2 0x3034 JUMPI PUSH1 0x1 PUSH1 0x1 PUSH1 0xA0 SHL SUB SWAP1 SLOAD PUSH1 0x8 SHR AND SWAP1 PUSH1 0x1 PUSH1 0x1 PUSH1 0xA0 SHL SUB PUSH1 0x4 DUP3 ADD SLOAD AND PUSH1 0x2 DUP3 ADD SLOAD DUP4 EXTCODESIZE ISZERO PUSH2 0x12C JUMPI PUSH1 0x40 MLOAD PUSH4 0x21421707 PUSH1 0xE1 SHL DUP2 MSTORE ADDRESS PUSH1 0x4 DUP3 ADD MSTORE PUSH1 0x1 PUSH1 0x1 PUSH1 0xA0 SHL SUB SWAP3 SWAP1 SWAP3 AND PUSH1 0x24 DUP4 ADD MSTORE PUSH1 0x44 DUP3 ADD MSTORE SWAP2 PUSH1 0x0 SWAP1 DUP4 SWAP1 PUSH1 0x64 SWAP1 DUP3 SWAP1 DUP5 SWAP1 GAS CALL SWAP2 DUP3 ISZERO PUSH2 0x2C4 JUMPI PUSH1 0x4 PUSH2 0x301E SWAP3 PUSH1 0x1 PUSH1 0x1 PUSH1 0xA0 SHL SUB SWAP3 PUSH32 0xCDB034D750ED0C5924FFBC3EE3C5CBCA328261D8301D42E9C176788DDCA9AC47 SWAP6 PUSH2 0x3023 JUMPI JUMPDEST POP JUMPDEST ADD SLOAD AND SWAP4 PUSH1 0x40 MLOAD SWAP2 DUP3 SWAP2 PUSH1 0x20 DUP4 MSTORE PUSH1 0x20 DUP4 ADD SWAP1 PUSH2 0x29F1 JUMP JUMPDEST SUB SWAP1 LOG3 JUMP JUMPDEST PUSH1 0x0 PUSH2 0x302E SWAP2 PUSH2 0x287C JUMP JUMPDEST CODESIZE PUSH2 0x3004 JUMP JUMPDEST SWAP1 SWAP3 SWAP4 PUSH1 0x0 SWAP5 PUSH1 0x3 DUP6 ADD SWAP4 PUSH1 0x4 DUP7 ADD SWAP7 JUMPDEST DUP6 SLOAD DUP2 LT ISZERO PUSH2 0x30DF JUMPI PUSH1 0x1 PUSH1 0x1 PUSH1 0xA0 SHL SUB DUP6 SLOAD PUSH1 0x8 SHR AND SWAP1 PUSH1 0x1 PUSH1 0x1 PUSH1 0xA0 SHL SUB DUP10 SLOAD AND PUSH2 0x3072 DUP3 DUP10 PUSH2 0x2C69 JUMP JUMPDEST SWAP1 SLOAD SWAP1 PUSH1 0x3 SHL SHR DUP4 EXTCODESIZE ISZERO PUSH2 0x12C JUMPI PUSH1 0x40 MLOAD PUSH4 0x21421707 PUSH1 0xE1 SHL DUP2 MSTORE ADDRESS PUSH1 0x4 DUP3 ADD MSTORE PUSH1 0x1 PUSH1 0x1 PUSH1 0xA0 SHL SUB SWAP3 SWAP1 SWAP3 AND PUSH1 0x24 DUP4 ADD MSTORE PUSH1 0x44 DUP3 ADD MSTORE SWAP2 PUSH1 0x0 SWAP1 DUP4 SWAP1 PUSH1 0x64 SWAP1 DUP3 SWAP1 DUP5 SWAP1 GAS CALL SWAP2 DUP3 ISZERO PUSH2 0x2C4 JUMPI PUSH1 0x1 SWAP3 PUSH2 0x30CE JUMPI JUMPDEST POP ADD PUSH2 0x3045 JUMP JUMPDEST PUSH1 0x0 PUSH2 0x30D9 SWAP2 PUSH2 0x287C JUMP JUMPDEST CODESIZE PUSH2 0x30C7 JUMP JUMPDEST POP SWAP4 POP SWAP4 PUSH2 0x301E SWAP2 SWAP6 POP PUSH32 0xCDB034D750ED0C5924FFBC3EE3C5CBCA328261D8301D42E9C176788DDCA9AC47 SWAP3 POP PUSH1 0x4 PUSH1 0x1 PUSH1 0x1 PUSH1 0xA0 SHL SUB SWAP2 PUSH2 0x3006 JUMP INVALID LOG2 PUSH5 0x6970667358 0x22 SLT KECCAK256 0x27 0x2E BYTE DELEGATECALL CALL 0x21 DELEGATECALL DUP4 0xB5 JUMPDEST 0xD3 0xE8 JUMPDEST PUSH23 0x30289688AF216EDC33DDEE2D96CF8F1B1C1B64736F6C63 NUMBER STOP ADDMOD SHR STOP CALLER "},"methodIdentifiers":{"BID_EXTENSION_TIME()":"b73b959f","CLAIM_DURATION()":"ff844a63","MAX_AUCTION_DURATION()":"3fb35178","MAX_BIDS_PER_AUCTION()":"328fbcde","MAX_COLLECTION_SIZE()":"4035cc6c","MAX_EXTENSIONS()":"c07780f6","MIN_AUCTION_DURATION()":"c2f50a7a","MIN_BID_INCREMENT()":"71943bce","PLATFORM_FEE()":"34fbc9a1","auctions(uint256)":"571a26a0","cancelAuction(uint256)":"96b5a755","claimNFT(uint256)":"fe5c873a","createCollectionAuction(address,uint256[],uint256,uint256,uint256,uint256,string,string)":"2b51e6ca","createSingleNFTAuction(address,uint256,uint256,uint256,uint256,uint256,string,string)":"64a22438","finalizeAuction(uint256)":"e8083863","getAuctionBids(uint256)":"70b4768e","onERC721Received(address,address,uint256,bytes)":"150b7a02","owner()":"8da5cb5b","placeBid(uint256,uint256)":"57c90de5","reclaimNFT(uint256)":"a08db82e","renounceOwnership()":"715018a6","transferOwnership(address)":"f2fde38b"}}}}}