{"contracts/sealedBidAuction.sol":{"SealedBidAuction":{"abi":[{"inputs":[{"internalType":"address","name":"initialOwner","type":"address"}],"stateMutability":"nonpayable","type":"constructor"},{"inputs":[{"internalType":"address","name":"owner","type":"address"}],"name":"OwnableInvalidOwner","type":"error"},{"inputs":[{"internalType":"address","name":"account","type":"address"}],"name":"OwnableUnauthorizedAccount","type":"error"},{"inputs":[],"name":"ReentrancyGuardReentrantCall","type":"error"},{"anonymous":false,"inputs":[{"indexed":true,"internalType":"uint256","name":"auctionId","type":"uint256"},{"indexed":true,"internalType":"address","name":"seller","type":"address"},{"indexed":false,"internalType":"string","name":"reason","type":"string"}],"name":"AuctionCancelled","type":"event"},{"anonymous":false,"inputs":[{"indexed":true,"internalType":"uint256","name":"auctionId","type":"uint256"},{"indexed":true,"internalType":"address","name":"seller","type":"address"},{"indexed":true,"internalType":"address","name":"nftContract","type":"address"},{"indexed":false,"internalType":"enum SealedBidAuction.AuctionType","name":"auctionType","type":"uint8"},{"indexed":false,"internalType":"uint256","name":"tokenId","type":"uint256"},{"indexed":false,"internalType":"uint256[]","name":"tokenIds","type":"uint256[]"},{"indexed":false,"internalType":"uint256","name":"startingPrice","type":"uint256"},{"indexed":false,"internalType":"uint256","name":"endTime","type":"uint256"},{"indexed":false,"internalType":"string","name":"title","type":"string"}],"name":"AuctionCreated","type":"event"},{"anonymous":false,"inputs":[{"indexed":true,"internalType":"uint256","name":"auctionId","type":"uint256"},{"indexed":true,"internalType":"address","name":"winner","type":"address"},{"indexed":false,"internalType":"uint256","name":"finalPrice","type":"uint256"},{"indexed":false,"internalType":"uint256","name":"platformFeeAmount","type":"uint256"},{"indexed":false,"internalType":"uint256","name":"sellerAmount","type":"uint256"}],"name":"AuctionFinalized","type":"event"},{"anonymous":false,"inputs":[{"indexed":true,"internalType":"uint256","name":"auctionId","type":"uint256"},{"indexed":true,"internalType":"address","name":"bidder","type":"address"},{"indexed":false,"internalType":"uint256","name":"amount","type":"uint256"},{"indexed":false,"internalType":"uint256","name":"timestamp","type":"uint256"}],"name":"BidPlaced","type":"event"},{"anonymous":false,"inputs":[{"indexed":true,"internalType":"uint256","name":"auctionId","type":"uint256"},{"indexed":true,"internalType":"address","name":"winner","type":"address"},{"indexed":false,"internalType":"uint256","name":"amountPaid","type":"uint256"}],"name":"NFTClaimed","type":"event"},{"anonymous":false,"inputs":[{"indexed":true,"internalType":"uint256","name":"auctionId","type":"uint256"},{"indexed":true,"internalType":"address","name":"seller","type":"address"}],"name":"NFTReclaimed","type":"event"},{"anonymous":false,"inputs":[{"indexed":true,"internalType":"address","name":"previousOwner","type":"address"},{"indexed":true,"internalType":"address","name":"newOwner","type":"address"}],"name":"OwnershipTransferred","type":"event"},{"inputs":[],"name":"BID_EXTENSION_TIME","outputs":[{"internalType":"uint256","name":"","type":"uint256"}],"stateMutability":"view","type":"function"},{"inputs":[],"name":"CLAIM_DURATION","outputs":[{"internalType":"uint256","name":"","type":"uint256"}],"stateMutability":"view","type":"function"},{"inputs":[],"name":"MAX_AUCTION_DURATION","outputs":[{"internalType":"uint256","name":"","type":"uint256"}],"stateMutability":"view","type":"function"},{"inputs":[],"name":"MAX_BIDS_PER_AUCTION","outputs":[{"internalType":"uint256","name":"","type":"uint256"}],"stateMutability":"view","type":"function"},{"inputs":[],"name":"MAX_COLLECTION_SIZE","outputs":[{"internalType":"uint256","name":"","type":"uint256"}],"stateMutability":"view","type":"function"},{"inputs":[],"name":"MAX_EXTENSIONS","outputs":[{"internalType":"uint256","name":"","type":"uint256"}],"stateMutability":"view","type":"function"},{"inputs":[],"name":"MIN_AUCTION_DURATION","outputs":[{"internalType":"uint256","name":"","type":"uint256"}],"stateMutability":"view","type":"function"},{"inputs":[],"name":"MIN_BID_INCREMENT","outputs":[{"internalType":"uint256","name":"","type":"uint256"}],"stateMutability":"view","type":"function"},{"inputs":[],"name":"PLATFORM_FEE","outputs":[{"internalType":"uint256","name":"","type":"uint256"}],"stateMutability":"view","type":"function"},{"inputs":[{"internalType":"uint256","name":"","type":"uint256"},{"internalType":"uint256","name":"","type":"uint256"}],"name":"auctionBids","outputs":[{"internalType":"address","name":"bidder","type":"address"},{"internalType":"uint256","name":"amount","type":"uint256"},{"internalType":"uint256","name":"timestamp","type":"uint256"},{"internalType":"uint256","name":"deposit","type":"uint256"}],"stateMutability":"view","type":"function"},{"inputs":[{"internalType":"uint256","name":"","type":"uint256"}],"name":"auctionDeposits","outputs":[{"internalType":"uint256","name":"","type":"uint256"}],"stateMutability":"view","type":"function"},{"inputs":[{"internalType":"uint256","name":"","type":"uint256"}],"name":"auctions","outputs":[{"internalType":"uint256","name":"auctionId","type":"uint256"},{"internalType":"enum SealedBidAuction.AuctionType","name":"auctionType","type":"uint8"},{"internalType":"address","name":"nftContract","type":"address"},{"internalType":"uint256","name":"tokenId","type":"uint256"},{"internalType":"address","name":"seller","type":"address"},{"internalType":"uint256","name":"startingPrice","type":"uint256"},{"internalType":"uint256","name":"reservePrice","type":"uint256"},{"internalType":"uint256","name":"minBidIncrement","type":"uint256"},{"internalType":"uint256","name":"startTime","type":"uint256"},{"internalType":"uint256","name":"endTime","type":"uint256"},{"internalType":"uint256","name":"bidExtensionTime","type":"uint256"},{"internalType":"enum SealedBidAuction.AuctionState","name":"state","type":"uint8"},{"internalType":"uint256","name":"totalBids","type":"uint256"},{"internalType":"address","name":"highestBidder","type":"address"},{"internalType":"uint256","name":"highestBid","type":"uint256"},{"internalType":"string","name":"title","type":"string"},{"internalType":"string","name":"description","type":"string"},{"internalType":"uint256","name":"claimDeadline","type":"uint256"}],"stateMutability":"view","type":"function"},{"inputs":[{"internalType":"uint256","name":"","type":"uint256"},{"internalType":"address","name":"","type":"address"}],"name":"bidderToIndex","outputs":[{"internalType":"uint256","name":"","type":"uint256"}],"stateMutability":"view","type":"function"},{"inputs":[{"internalType":"uint256","name":"auctionId","type":"uint256"}],"name":"cancelAuction","outputs":[],"stateMutability":"nonpayable","type":"function"},{"inputs":[{"internalType":"uint256","name":"auctionId","type":"uint256"}],"name":"claimNFT","outputs":[],"stateMutability":"payable","type":"function"},{"inputs":[{"internalType":"address","name":"nftContract","type":"address"},{"internalType":"uint256[]","name":"tokenIds","type":"uint256[]"},{"internalType":"uint256","name":"startingPrice","type":"uint256"},{"internalType":"uint256","name":"reservePrice","type":"uint256"},{"internalType":"uint256","name":"minBidIncrement","type":"uint256"},{"internalType":"uint256","name":"duration","type":"uint256"},{"internalType":"string","name":"title","type":"string"},{"internalType":"string","name":"description","type":"string"}],"name":"createCollectionAuction","outputs":[{"internalType":"uint256","name":"","type":"uint256"}],"stateMutability":"nonpayable","type":"function"},{"inputs":[{"internalType":"address","name":"nftContract","type":"address"},{"internalType":"uint256","name":"tokenId","type":"uint256"},{"internalType":"uint256","name":"startingPrice","type":"uint256"},{"internalType":"uint256","name":"reservePrice","type":"uint256"},{"internalType":"uint256","name":"minBidIncrement","type":"uint256"},{"internalType":"uint256","name":"duration","type":"uint256"},{"internalType":"string","name":"title","type":"string"},{"internalType":"string","name":"description","type":"string"}],"name":"createSingleNFTAuction","outputs":[{"internalType":"uint256","name":"","type":"uint256"}],"stateMutability":"nonpayable","type":"function"},{"inputs":[{"internalType":"uint256","name":"auctionId","type":"uint256"}],"name":"finalizeAuction","outputs":[],"stateMutability":"nonpayable","type":"function"},{"inputs":[{"internalType":"uint256","name":"auctionId","type":"uint256"}],"name":"getAuctionBids","outputs":[{"components":[{"internalType":"address","name":"bidder","type":"address"},{"internalType":"uint256","name":"amount","type":"uint256"},{"internalType":"uint256","name":"timestamp","type":"uint256"},{"internalType":"uint256","name":"deposit","type":"uint256"}],"internalType":"struct SealedBidAuction.Bid[]","name":"","type":"tuple[]"}],"stateMutability":"view","type":"function"},{"inputs":[{"internalType":"address","name":"","type":"address"},{"internalType":"address","name":"","type":"address"},{"internalType":"uint256","name":"","type":"uint256"},{"internalType":"bytes","name":"","type":"bytes"}],"name":"onERC721Received","outputs":[{"internalType":"bytes4","name":"","type":"bytes4"}],"stateMutability":"nonpayable","type":"function"},{"inputs":[],"name":"owner","outputs":[{"internalType":"address","name":"","type":"address"}],"stateMutability":"view","type":"function"},{"inputs":[{"internalType":"uint256","name":"auctionId","type":"uint256"},{"internalType":"uint256","name":"bidAmount","type":"uint256"}],"name":"placeBid","outputs":[],"stateMutability":"payable","type":"function"},{"inputs":[{"internalType":"uint256","name":"auctionId","type":"uint256"}],"name":"reclaimNFT","outputs":[],"stateMutability":"nonpayable","type":"function"},{"inputs":[],"name":"renounceOwnership","outputs":[],"stateMutability":"nonpayable","type":"function"},{"inputs":[{"internalType":"address","name":"newOwner","type":"address"}],"name":"transferOwnership","outputs":[],"stateMutability":"nonpayable","type":"function"},{"inputs":[{"internalType":"address","name":"","type":"address"},{"internalType":"uint256","name":"","type":"uint256"}],"name":"userAuctions","outputs":[{"internalType":"uint256","name":"","type":"uint256"}],"stateMutability":"view","type":"function"},{"inputs":[{"internalType":"address","name":"","type":"address"},{"internalType":"uint256","name":"","type":"uint256"}],"name":"userBids","outputs":[{"internalType":"uint256","name":"","type":"uint256"}],"stateMutability":"view","type":"function"}],"evm":{"bytecode":{"linkReferences":{},"object":"60803460c557601f6133cf38819003918201601f19168301916001600160401b0383118484101760ca5780849260209460405283398101031260c557516001600160a01b0381169081900360c5576001600055801560af57600180546001600160a01b03198116831790915560405191906001600160a01b03167f8be0079c531659141344cd1fd0a4f28419497f9722a3daafe3b4186f6b6457e0600080a360016002556132ee90816100e18239f35b631e4fbdf760e01b600052600060045260246000fd5b600080fd5b634e487b7160e01b600052604160045260246000fdfe60e0604052600436101561001257600080fd5b60003560e01c8063150b7a021461291e5780632b51e6ca14611f5e578063328fbcde14611f4157806334fbc9a114611f255780633fb3517814611f075780634035cc6c14611eeb578063571a26a014611d5f57806357c90de5146119465780635f93de49146118e057806364a2243814610ff757806370b4768e14610e8a578063715018a614610e2f57806371943bce14610e0d5780638da5cb5b14610de657806393f1997014610d9d57806396b5a75514610ca257806396ec50c314610c5a578063a08db82e146109a7578063b4fbe80a14610950578063b73b959f14610933578063bba2505814610907578063c07780f6146108eb578063c2f50a7a146108ce578063e80838631461057b578063f2fde38b146104d9578063fe5c873a146101685763ff844a631461014557600080fd5b346101635760003660031901126101635760206040516203f4808152f35b600080fd5b60203660031901126101635760043561017f612f37565b80600052600360205260406000209060ff600b8301541660038110156103e15760016101ab9114612eec565b6001600160a01b03600d830154163303610495576011820154421161045157600e82015460058301926101df845483612edf565b9384340361040d5760fa830283810460fa14841517156103f75761271061020891048094612edf565b906001830160ff81541660028110156103e15761032957546002840154919060081c6001600160a01b0316803b1561016357604051632142170760e11b815230600482015233602482015260448101939093526000908390606490829084905af19081156102fb57610299600095946001600160a01b036004889788978897610319575b505b015416925490612edf565b90828215610310575bf1156102fb576000808080936001600160a01b0360015416828215610307575bf1156102fb576040519182527f92ffae31901780890e35bdc724fedb7601577492b5d4e3df85f785de59d737ab60203393a36001600055005b6040513d6000823e3d90fd5b506108fc6102c2565b506108fc6102a2565b8761032391612a02565b8d61028c565b939060009693959260038701975b88548110156103be576001600160a01b03875460081c1690610359818b612c00565b90549060031b1c91803b1561016357604051632142170760e11b815230600482015233602482015260448101939093526000908390606490829084905af19182156102fb576001926103ad575b5001610337565b60006103b891612a02565b8a6103a6565b506000949750849396849396508392916001600160a01b0360046102999361028e565b634e487b7160e01b600052602160045260246000fd5b634e487b7160e01b600052601160045260246000fd5b606460405162461bcd60e51b815260206004820152601060248201527f496e636f727265637420616d6f756e74000000000000000000000000000000006044820152fd5b606460405162461bcd60e51b815260206004820152601460248201527f436c61696d20706572696f6420657870697265640000000000000000000000006044820152fd5b606460405162461bcd60e51b815260206004820152600a60248201527f4e6f742077696e6e6572000000000000000000000000000000000000000000006044820152fd5b34610163576020366003190112610163576001600160a01b036104fa61299d565b610502613000565b16801561054c576001600160a01b03600154826001600160a01b0319821617600155167f8be0079c531659141344cd1fd0a4f28419497f9722a3daafe3b4186f6b6457e0600080a3005b7f1e4fbdf700000000000000000000000000000000000000000000000000000000600052600060045260246000fd5b3461016357602036600319011261016357600435610597612f37565b806000526003602052604060002090600b820160ff81541660038110156103e1576105c29015612e94565b6009830154421061088a57805460ff19166001179055600081815260046020526040812080549192918391600019835b8381106107f057505050506001600160a01b0390600d85018282166001600160a01b031982541617905583600e8601551692831515806107e2575b15610797576203f48042018042116103f757601182015560fa830283810460fa14841517156103f7576127109004926106668482612edf565b60005b84600052600460205260406000205481101561075657846000526004602052610696816040600020612bce565b5080549091906001600160a01b0316881461070057600080808060036001600160a01b038754169601958654908282156106f7575bf1156102fb57600191548660005260086020526106ee6040600020918254612edf565b90555b01610669565b506108fc6106cb565b600080808060036001600160a01b0360048b01541696019586549082821561074d575bf1156102fb57600191548660005260086020526107466040600020918254612edf565b90556106f1565b506108fc610723565b50606092507f4cf70fe07783506b8e02682ddebd0688a2a16b3373c5fec55f74095cecd67aa8939460405192835260208301526040820152a35b6001600055005b5090506107dd9150604051906107ae604083612a02565b600f82527f52657365727665206e6f74206d657400000000000000000000000000000000006020830152613042565b610790565b50600681015483101561062d565b8660016107fd8386612bce565b50015411801561085b575b610815575b6001016105f2565b8260019397508195506108289250612bce565b500154936001600160a01b0361083e8483612bce565b50541692600160026108508385612bce565b50015491905061080d565b508660016108698386612bce565b50015414801561080857508160026108818386612bce565b50015410610808565b606460405162461bcd60e51b815260206004820152601460248201527f41756374696f6e207374696c6c206163746976650000000000000000000000006044820152fd5b34610163576000366003190112610163576020604051610e108152f35b34610163576000366003190112610163576020604051600a8152f35b346101635760203660031901126101635760043560005260086020526020604060002054604051908152f35b346101635760003660031901126101635760206040516102588152f35b346101635760403660031901126101635761096961299d565b6001600160a01b0360243591166000526006602052604060002080548210156101635760209161099891612c00565b90549060031b1c604051908152f35b34610163576020366003190112610163576004356109c3612f37565b806000526003602052604060002060ff600b8201541660038110156103e15760016109ee9114612eec565b600481016001600160a01b038154163303610c1657601182015442118015610c01575b15610b97576001820160ff81541660028110156103e157610ae1576001600160a01b03905460081c169160026001600160a01b03835416910154833b1561016357604051632142170760e11b81523060048201526001600160a01b039290921660248301526044820152916000908390606490829084905af19182156102fb576001600160a01b0392610ad0575b505b5416907f56c922176dd9b2a1fdcf8a3aa048b543fc88a2750fcd5341c0b635bb9d11f817600080a36001600055005b6000610adb91612a02565b83610a9f565b9092916003019060005b8254811015610b85576001600160a01b03825460081c16906001600160a01b03865416610b188286612c00565b90549060031b1c833b1561016357604051632142170760e11b81523060048201526001600160a01b039290921660248301526044820152916000908390606490829084905af19182156102fb57600192610b74575b5001610aeb565b6000610b7f91612a02565b86610b6d565b505050906001600160a01b0390610aa1565b608460405162461bcd60e51b815260206004820152602360248201527f436c61696d20706572696f64206e6f742065787069726564206f72206e6f206260448201527f69647300000000000000000000000000000000000000000000000000000000006064820152fd5b506001600160a01b03600d8301541615610a11565b606460405162461bcd60e51b815260206004820152600a60248201527f4e6f742073656c6c6572000000000000000000000000000000000000000000006044820152fd5b3461016357604036600319011261016357610c7361299d565b6001600160a01b0360243591166000526007602052604060002080548210156101635760209161099891612c00565b3461016357602036600319011261016357600435610cbe612f37565b806000526003602052604060002060ff600b8201541660038110156103e1576001600160a01b0391610cf260049215612e94565b01541633148015610d89575b15610d45576107909060405190610d16604083612a02565b601c82527f43616e63656c6c65642062792073656c6c6572206f72206f776e6572000000006020830152613042565b606460405162461bcd60e51b815260206004820152600e60248201527f4e6f7420617574686f72697a65640000000000000000000000000000000000006044820152fd5b506001600160a01b03600154163314610cfe565b3461016357604036600319011261016357610db66129b3565b60043560005260056020526001600160a01b03604060002091166000526020526020604060002054604051908152f35b346101635760003660031901126101635760206001600160a01b0360015416604051908152f35b3461016357600036600319011261016357602060405166038d7ea4c680008152f35b3461016357600036600319011261016357610e48613000565b60006001600160a01b036001546001600160a01b03198116600155167f8be0079c531659141344cd1fd0a4f28419497f9722a3daafe3b4186f6b6457e08280a3005b346101635760203660031901126101635760043580151580610fec575b15610fa85760005260046020526040600020805490610ec582612df2565b91610ed36040519384612a02565b80835260208301809260005260206000206000915b838310610f5e5784866040519182916020830190602084525180915260408301919060005b818110610f1b575050500390f35b9193509160206080600192606087516001600160a01b03815116835284810151858401526040810151604084015201516060820152019401910191849392610f0d565b60046020600192604051610f71816129e6565b6001600160a01b03865416815284860154838201526002860154604082015260038601546060820152815201920192019190610ee8565b606460405162461bcd60e51b815260206004820152601260248201527f496e76616c69642061756374696f6e20494400000000000000000000000000006044820152fd5b506002548110610ea7565b34610163576101003660031901126101635761101161299d565b60a43560c43567ffffffffffffffff811161016357611034903690600401612a6b565b60e49291923567ffffffffffffffff811161016357611057903690600401612a6b565b919093611062612f37565b61107361106e87612f72565b612c18565b610e10841015806118d3575b61108890612c63565b6044351515806118c5575b61109c90612cae565b6110b166038d7ea4c680006084351015612cf9565b8115611881576040516331a9108f60e11b815260243560048201526020816024816001600160a01b038b165afa9081156102fb57600091611862575b506001600160a01b033391160361181e5760405163020604bf60e21b815260243560048201526020816024816001600160a01b038b165afa9081156102fb576000916117ef575b506001600160a01b03163014801561177a575b61115090612d8b565b6001600160a01b0386163b1561016357604051632142170760e11b815233600482015230602480830191909152356044820152600081606481836001600160a01b038c165af180156102fb57611769575b506111bb600254946111b286612dd6565b60025542612de5565b611278602096604051956111cf8988612a02565b600087526000368137604051966111e5886129c9565b88885260008a8901526001600160a01b038b166040890152602435606089015260808801523360a088015260443560c088015260643560e08801526084356101008801524261012088015283610140880152610258610160880152600061018088015260006101a088015260006101c088015260006101e088015261126b368787612a24565b6102008801523691612a24565b61022085015260006102408501528460005260038652604060002084518155868501519460028610156103e157600095600183015474ffffffffffffffffffffffffffffffffffffffffff1960ff74ffffffffffffffffffffffffffffffffffffffff00604086015160081b16931691161717600183015560608101516002830155608081015180519067ffffffffffffffff821161166857680100000000000000008211611668578990600385015483600387015580841061174c575b5001600384018852898820885b83811061173a57505050506001600160a01b0360a0820151166001600160a01b036004840191166001600160a01b031982541617905560c0810151600583015560e08101516006830155610100810151600783015561012081015160088301556101408101516009830155610160810151600a8301556101808101516003811015611726576113d590600b8401612e21565b6101a0810151600c8301556001600160a01b036101c0820151166001600160a01b03600d840191166001600160a01b03198254161790556101e0810151600e83015561020081015180519067ffffffffffffffff821161166857819061143e600f860154612a99565b8b601f82116116f5575b50508a90601f831160011461168757899261167c575b50508160011b916000199060031b1c191617600f8301555b61022081015180519067ffffffffffffffff82116116685761149b6010850154612a99565b601f811161162c575b508990601f83116001146115ba57918060119492610240948b926115af575b50508160011b916000199060031b1c19161760108501555b0151910155338452600686526114f48560408620612e39565b604051966115028789612a02565b848852843681376040519160c083018684526024358985015260c0604085015289518091528860e085019a0190875b81811061159b57505050918061158f88999a6001600160a01b037fed64e6c300ab5f25f3a8e69b83450e8787c7246008ffd6b98a2e36ee7aabddb69560019b976044356060870152608086015284830360a086015216973397612e73565b0390a455604051908152f35b82518c529a8a019a918a0191600101611531565b015190508d806114c3565b906010850189528a892091895b8c601f198616821061161657505092601194926001926102409583601f198116106115fd575b505050811b0160108501556114db565b015160001960f88460031b161c191690558d80806115ed565b60018495829395850151815501940192016115c7565b61165890601086018a528b8a20601f850160051c8101918d861061165e575b601f0160051c0190612e0a565b8b6114a4565b909150819061164b565b602488634e487b7160e01b81526041600452fd5b015190508b8061145e565b9250600f850189528a89209089935b8c601f19851686106116dc57506001945083601f198116106116c3575b505050811b01600f830155611476565b015160001960f88460031b161c191690558b80806116b3565b8282015184559485019460019093019290910190611696565b600f87018b52808b2061171f92601f860160051c820192861061165e57601f0160051c0190612e0a565b8c8b611448565b602487634e487b7160e01b81526021600452fd5b825182820155918b0191600101611343565b600386018a52828a20611763918101908501612e0a565b8c611336565b600061177491612a02565b866111a1565b5060405163e985e9c560e01b81523360048201523060248201526020816044816001600160a01b038b165afa80156102fb57611150916000916117c0575b509050611147565b6117e2915060203d6020116117e8575b6117da8183612a02565b810190612d73565b886117b8565b503d6117d0565b611811915060203d602011611817575b6118098183612a02565b810190612d54565b87611134565b503d6117ff565b606460405162461bcd60e51b815260206004820152600d60248201527f4e6f74204e4654206f776e6572000000000000000000000000000000000000006044820152fd5b61187b915060203d602011611817576118098183612a02565b876110ed565b606460405162461bcd60e51b815260206004820152600e60248201527f5469746c652072657175697265640000000000000000000000000000000000006044820152fd5b506044356064351015611093565b5062278d0084111561107f565b34610163576118ee36612bb8565b906000526004602052604060002080548210156101635760809161191191612bce565b506001600160a01b03815416906001810154906003600282015491015491604051938452602084015260408301526060820152f35b61194f36612bb8565b90611958612f37565b806000526003602052604060002060ff600b8201541660038110156103e1576119819015612e94565b60098101908154421015611d1b576001600160a01b036004820154163314611cd7576005810154803403611c935760078201546119bd91612de5565b8410611c4f57600c81016103e881541015611c0b576000848152600560209081526040808320338452909152902054908115611adc575083600052600460205260406000209060001981019081116103f757611a1891612bce565b50600181018054861115611a98578590556002429101555b600a8254910154611a418183612edf565b421015611a85575b5050506040519182524260208301527f51db8e23b3f4479b162fd48823b8402895442b8f6cfd94f66239391881ec7b6f60403393a36001600055005b611a8e91612de5565b9055828080611a49565b606460405162461bcd60e51b815260206004820152601660248201527f4e657720626964206d75737420626520686967686572000000000000000000006044820152fd5b90508360005260046020526040600020604051611af8816129e6565b3381526020810191878352604082014281526060830191348352805468010000000000000000811015611bf557611b3491600182018155612bce565b949094611bdf576001600160a01b03806003955116166001600160a01b03198654161785555160018501555160028401555191015583600052600460205260406000205484600052600560205260406000206001600160a01b033316600052602052604060002055611ba68154612dd6565b9055336000526007602052611bbf836040600020612e39565b8260005260086020526040600020611bd8348254612de5565b9055611a30565b634e487b7160e01b600052600060045260246000fd5b634e487b7160e01b600052604160045260246000fd5b606460405162461bcd60e51b815260206004820152601060248201527f4d617820626964732072656163686564000000000000000000000000000000006044820152fd5b606460405162461bcd60e51b815260206004820152600b60248201527f42696420746f6f206c6f770000000000000000000000000000000000000000006044820152fd5b606460405162461bcd60e51b815260206004820152601160248201527f496e636f7272656374206465706f7369740000000000000000000000000000006044820152fd5b606460405162461bcd60e51b815260206004820152601160248201527f53656c6c65722063616e6e6f74206269640000000000000000000000000000006044820152fd5b606460405162461bcd60e51b815260206004820152600d60248201527f41756374696f6e20656e646564000000000000000000000000000000000000006044820152fd5b346101635760203660031901126101635760043560005260036020526040600020805460c05260018101549060028101549060048101546001600160a01b031660058201549260068301549160078401546008850154600986015490600a87015492600b88015460ff1696600c89015499600d8a01546001600160a01b0316608052600e8a015496600f8b01611df490612ad3565b98611e0160108d01612ad3565b9b601101549d60405160a05260c05160a0515260ff8116600211156103e1578060ff6001600160a01b039216602060a051015260081c16604060a0510152606060a0510152608060a051015260a08051015260c060a051015260e060a051015261010060a051015261012060a051015261014060a051015260038310156103e157611ed894611ec59361016060a051015261018060a05101526080516101a060a05101526101c060a05101526102406101e060a051015261024060a0510190612b77565b9060a051820361020060a0510152612b77565b9061022060a051015260a051900360a051f35b3461016357600036600319011261016357602060405160648152f35b3461016357600036600319011261016357602060405162278d008152f35b3461016357600036600319011261016357602060405160fa8152f35b346101635760003660031901126101635760206040516103e88152f35b346101635761010036600319011261016357611f7861299d565b6024359067ffffffffffffffff821161016357366023830112156101635767ffffffffffffffff82600401351161016357366024836004013560051b840101116101635760c43567ffffffffffffffff811161016357611fdc903690600401612a6b565b9060e43567ffffffffffffffff811161016357611ffd903690600401612a6b565b949091612008612f37565b61201461106e86612f72565b610e1060a43510158061290f575b61202b90612c63565b604435151580612901575b61203f90612cae565b61205466038d7ea4c680006084351015612cf9565b831515806128f3575b806128e4575b156128a05760005b8260040135811061268257506002549461208486612dd6565b60025561209360a43542612de5565b93604051906120a1826129c9565b878252600160208301526001600160a01b0383166040830152600060608301526120ce8560040135612df2565b986120dc6040519a8b612a02565b60048601358a5260009960248701602082015b6024896004013560051b8a0101821061267257505090612179929160808501523360a085015260443560c085015260643560e085015260843561010085015242610120850152876101408501526102586101608501528a6101808501528a6101a08501528a6101c08501528a6101e085015261216c368a88612a24565b6102008501523691612a24565b6102208201528761024082015286885260036020526040882090805182556020810151600281101561261857600183015474ffffffffffffffffffffffffffffffffffffffffff1960ff74ffffffffffffffffffffffffffffffffffffffff00604086015160081b16931691161717600183015560608101516002830155608081015180519067ffffffffffffffff821161265e5768010000000000000000821161265e576020908b600386015484600388015584818110612640575b50505001600384018b5260208b208b5b83811061262c57505050506001600160a01b0360a0820151166001600160a01b036004840191166001600160a01b031982541617905560c0810151600583015560e08101516006830155610100810151600783015561012081015160088301556101408101516009830155610160810151600a8301556101808101516003811015612618576122d890600b8401612e21565b6101a0810151600c8301556001600160a01b036101c0820151166001600160a01b03600d840191166001600160a01b03198254161790556101e0810151600e830155600f820161020082015180519067ffffffffffffffff82116125665781908c6123438554612a99565b601f81116125e8575b50506020908d601f8411600114612585579261257a575b50508160011b916000199060031b1c19161790555b6010820161022082015180519067ffffffffffffffff8211612566578b61239f8454612a99565b601f8111612536575b50506020908c601f84116001146124cc57926102409492819260119795926124c1575b50508160011b916000199060031b1c19161790555b015191015533875260066020526123fa8660408920612e39565b604051926001845287602085015260c06040850152806004013560c08501527f07ffffffffffffffffffffffffffffffffffffffffffffffffffffffffffffff8160040135116124bd57836001969461158f60209a97956001600160a01b038b96867fed64e6c300ab5f25f3a8e69b83450e8787c7246008ffd6b98a2e36ee7aabddb6976004013560051b6024820160e08801376004013560051b8501986044356060870152608086015260e0858a030160a0860152169760e033980191612e73565b8780fd5b015190508e806123cb565b9190601f198416858452828420935b81811061251e575092600192859260119896610240989610612505575b505050811b0190556123e0565b015160001960f88460031b161c191690558e80806124f8565b929360206001819287860151815501950193016124db565b6020828661255f945220601f850160051c8101916020861061165e57601f0160051c0190612e0a565b8b8d6123a8565b60248c634e487b7160e01b81526041600452fd5b015190508c80612363565b8581528281209350601f198516905b8181106125d057509084600195949392106125b7575b505050811b019055612378565b015160001960f88460031b161c191690558c80806125aa565b92936020600181928786015181550195019301612594565b60208287612611945220601f850160051c8101916020861061165e57601f0160051c0190612e0a565b8c8e61234c565b60248a634e487b7160e01b81526021600452fd5b600190602084519401938184015501612246565b846126569360038a018152209182019101612e0a565b8b8d84612236565b60248b634e487b7160e01b81526041600452fd5b81358152602091820191016120ef565b61269481846004013560248601612d44565b35604051906331a9108f60e11b825260048201526020816024816001600160a01b038b165afa9081156102fb57600091612882575b506001600160a01b033391160361283e576126ec81846004013560248601612d44565b356040519063020604bf60e21b825260048201526020816024816001600160a01b038b165afa9081156102fb57600091612820575b506001600160a01b0316301480156127bc575b61273d90612d8b565b61274f81846004013560248601612d44565b35906001600160a01b0387163b1561016357604051632142170760e11b81523360048201523060248201526044810192909252600082606481836001600160a01b038c165af19182156102fb576001926127ab575b500161206b565b60006127b691612a02565b886127a4565b5060405163e985e9c560e01b81523360048201523060248201526020816044816001600160a01b038b165afa80156102fb5761273d91600091612802575b509050612734565b61281a915060203d81116117e8576117da8183612a02565b896127fa565b612838915060203d8111611817576118098183612a02565b88612721565b606460405162461bcd60e51b815260206004820152600960248201527f4e6f74206f776e657200000000000000000000000000000000000000000000006044820152fd5b61289a915060203d8111611817576118098183612a02565b886126c9565b606460405162461bcd60e51b815260206004820152601060248201527f496e76616c696420746f6b656e496473000000000000000000000000000000006044820152fd5b50606482600401351115612063565b50600182600401351161205d565b506044356064351015612036565b5062278d0060a4351115612022565b346101635760803660031901126101635761293761299d565b506129406129b3565b5060643567ffffffffffffffff8111610163573660238201121561016357612972903690602481600401359101612a24565b5060206040517f150b7a02000000000000000000000000000000000000000000000000000000008152f35b600435906001600160a01b038216820361016357565b602435906001600160a01b038216820361016357565b610260810190811067ffffffffffffffff821117611bf557604052565b6080810190811067ffffffffffffffff821117611bf557604052565b90601f8019910116810190811067ffffffffffffffff821117611bf557604052565b92919267ffffffffffffffff8211611bf55760405191612a4e601f8201601f191660200184612a02565b829481845281830111610163578281602093846000960137010152565b9181601f840112156101635782359167ffffffffffffffff8311610163576020838186019501011161016357565b90600182811c92168015612ac9575b6020831014612ab357565b634e487b7160e01b600052602260045260246000fd5b91607f1691612aa8565b9060405191826000825492612ae784612a99565b8084529360018116908115612b555750600114612b0e575b50612b0c92500383612a02565b565b90506000929192526020600020906000915b818310612b39575050906020612b0c9282010138612aff565b6020919350806001915483858901015201910190918492612b20565b905060209250612b0c94915060ff191682840152151560051b82010138612aff565b919082519283825260005b848110612ba3575050826000602080949584010152601f8019910116010190565b80602080928401015182828601015201612b82565b6040906003190112610163576004359060243590565b8054821015612bea5760005260206000209060021b0190600090565b634e487b7160e01b600052603260045260246000fd5b8054821015612bea5760005260206000200190600090565b15612c1f57565b606460405162461bcd60e51b815260206004820152601460248201527f496e76616c6964204e465420636f6e74726163740000000000000000000000006044820152fd5b15612c6a57565b606460405162461bcd60e51b815260206004820152601060248201527f496e76616c6964206475726174696f6e000000000000000000000000000000006044820152fd5b15612cb557565b606460405162461bcd60e51b815260206004820152600d60248201527f496e76616c6964207072696365000000000000000000000000000000000000006044820152fd5b15612d0057565b606460405162461bcd60e51b815260206004820152601160248201527f496e6372656d656e7420746f6f206c6f770000000000000000000000000000006044820152fd5b9190811015612bea5760051b0190565b9081602091031261016357516001600160a01b03811681036101635790565b90816020910312610163575180151581036101635790565b15612d9257565b606460405162461bcd60e51b815260206004820152601560248201527f436f6e7472616374206e6f7420617070726f76656400000000000000000000006044820152fd5b60001981146103f75760010190565b919082018092116103f757565b67ffffffffffffffff8111611bf55760051b60200190565b818110612e15575050565b60008155600101612e0a565b9060038110156103e15760ff80198354169116179055565b805468010000000000000000811015611bf557612e5b91600182018155612c00565b819291549060031b91821b91600019901b1916179055565b908060209392818452848401376000828201840152601f01601f1916010190565b15612e9b57565b606460405162461bcd60e51b815260206004820152601260248201527f41756374696f6e206e6f742061637469766500000000000000000000000000006044820152fd5b919082039182116103f757565b15612ef357565b606460405162461bcd60e51b815260206004820152601560248201527f41756374696f6e206e6f742066696e616c697a656400000000000000000000006044820152fd5b600260005414612f48576002600055565b7f3ee5aeb50000000000000000000000000000000000000000000000000000000060005260046000fd5b60206001600160a01b03916024604051809481937f01ffc9a70000000000000000000000000000000000000000000000000000000083527f80ac58cd000000000000000000000000000000000000000000000000000000006004840152165afa9081156102fb57600091612fe4575090565b612ffd915060203d6020116117e8576117da8183612a02565b90565b6001600160a01b0360015416330361301457565b7f118cdaa7000000000000000000000000000000000000000000000000000000006000523360045260246000fd5b91826000526003602052604060002091600b8301600260ff1982541617905560005b8460005260046020526040600020548110156130e757846000526004602052613091816040600020612bce565b5090600080808060036001600160a01b038754169601958654908282156130de575bf1156102fb57600191548660005260086020526130d66040600020918254612edf565b905501613064565b506108fc6130b3565b50919290926001810160ff81541660028110156103e1576131d0576001600160a01b03905460081c16906001600160a01b036004820154166002820154833b1561016357604051632142170760e11b81523060048201526001600160a01b039290921660248301526044820152916000908390606490829084905af19182156102fb5760046131ba926001600160a01b03927fcdb034d750ed0c5924ffbc3ee3c5cbca328261d8301d42e9c176788ddca9ac47956131bf575b505b01541693604051918291602083526020830190612b77565b0390a3565b60006131ca91612a02565b386131a0565b909293600094600385019360048601965b855481101561327b576001600160a01b03855460081c16906001600160a01b0389541661320e8289612c00565b90549060031b1c833b1561016357604051632142170760e11b81523060048201526001600160a01b039290921660248301526044820152916000908390606490829084905af19182156102fb5760019261326a575b50016131e1565b600061327591612a02565b38613263565b509350936131ba9195507fcdb034d750ed0c5924ffbc3ee3c5cbca328261d8301d42e9c176788ddca9ac47925060046001600160a01b03916131a256fea2646970667358221220aeafd873bc20114948e8d54ca86bf863d1142c08640c47e78e14a9f3c0041a3764736f6c634300081c0033","opcodes":"PUSH1 0x80 CALLVALUE PUSH1 0xC5 JUMPI PUSH1 0x1F PUSH2 0x33CF CODESIZE DUP2 SWAP1 SUB SWAP2 DUP3 ADD PUSH1 0x1F NOT AND DUP4 ADD SWAP2 PUSH1 0x1 PUSH1 0x1 PUSH1 0x40 SHL SUB DUP4 GT DUP5 DUP5 LT OR PUSH1 0xCA JUMPI DUP1 DUP5 SWAP3 PUSH1 0x20 SWAP5 PUSH1 0x40 MSTORE DUP4 CODECOPY DUP2 ADD SUB SLT PUSH1 0xC5 JUMPI MLOAD PUSH1 0x1 PUSH1 0x1 PUSH1 0xA0 SHL SUB DUP2 AND SWAP1 DUP2 SWAP1 SUB PUSH1 0xC5 JUMPI PUSH1 0x1 PUSH1 0x0 SSTORE DUP1 ISZERO PUSH1 0xAF JUMPI PUSH1 0x1 DUP1 SLOAD PUSH1 0x1 PUSH1 0x1 PUSH1 0xA0 SHL SUB NOT DUP2 AND DUP4 OR SWAP1 SWAP2 SSTORE PUSH1 0x40 MLOAD SWAP2 SWAP1 PUSH1 0x1 PUSH1 0x1 PUSH1 0xA0 SHL SUB AND PUSH32 0x8BE0079C531659141344CD1FD0A4F28419497F9722A3DAAFE3B4186F6B6457E0 PUSH1 0x0 DUP1 LOG3 PUSH1 0x1 PUSH1 0x2 SSTORE PUSH2 0x32EE SWAP1 DUP2 PUSH2 0xE1 DUP3 CODECOPY RETURN JUMPDEST PUSH4 0x1E4FBDF7 PUSH1 0xE0 SHL PUSH1 0x0 MSTORE PUSH1 0x0 PUSH1 0x4 MSTORE PUSH1 0x24 PUSH1 0x0 REVERT JUMPDEST PUSH1 0x0 DUP1 REVERT JUMPDEST PUSH4 0x4E487B71 PUSH1 0xE0 SHL PUSH1 0x0 MSTORE PUSH1 0x41 PUSH1 0x4 MSTORE PUSH1 0x24 PUSH1 0x0 REVERT INVALID PUSH1 0xE0 PUSH1 0x40 MSTORE PUSH1 0x4 CALLDATASIZE LT ISZERO PUSH2 0x12 JUMPI PUSH1 0x0 DUP1 REVERT JUMPDEST PUSH1 0x0 CALLDATALOAD PUSH1 0xE0 SHR DUP1 PUSH4 0x150B7A02 EQ PUSH2 0x291E JUMPI DUP1 PUSH4 0x2B51E6CA EQ PUSH2 0x1F5E JUMPI DUP1 PUSH4 0x328FBCDE EQ PUSH2 0x1F41 JUMPI DUP1 PUSH4 0x34FBC9A1 EQ PUSH2 0x1F25 JUMPI DUP1 PUSH4 0x3FB35178 EQ PUSH2 0x1F07 JUMPI DUP1 PUSH4 0x4035CC6C EQ PUSH2 0x1EEB JUMPI DUP1 PUSH4 0x571A26A0 EQ PUSH2 0x1D5F JUMPI DUP1 PUSH4 0x57C90DE5 EQ PUSH2 0x1946 JUMPI DUP1 PUSH4 0x5F93DE49 EQ PUSH2 0x18E0 JUMPI DUP1 PUSH4 0x64A22438 EQ PUSH2 0xFF7 JUMPI DUP1 PUSH4 0x70B4768E EQ PUSH2 0xE8A JUMPI DUP1 PUSH4 0x715018A6 EQ PUSH2 0xE2F JUMPI DUP1 PUSH4 0x71943BCE EQ PUSH2 0xE0D JUMPI DUP1 PUSH4 0x8DA5CB5B EQ PUSH2 0xDE6 JUMPI DUP1 PUSH4 0x93F19970 EQ PUSH2 0xD9D JUMPI DUP1 PUSH4 0x96B5A755 EQ PUSH2 0xCA2 JUMPI DUP1 PUSH4 0x96EC50C3 EQ PUSH2 0xC5A JUMPI DUP1 PUSH4 0xA08DB82E EQ PUSH2 0x9A7 JUMPI DUP1 PUSH4 0xB4FBE80A EQ PUSH2 0x950 JUMPI DUP1 PUSH4 0xB73B959F EQ PUSH2 0x933 JUMPI DUP1 PUSH4 0xBBA25058 EQ PUSH2 0x907 JUMPI DUP1 PUSH4 0xC07780F6 EQ PUSH2 0x8EB JUMPI DUP1 PUSH4 0xC2F50A7A EQ PUSH2 0x8CE JUMPI DUP1 PUSH4 0xE8083863 EQ PUSH2 0x57B JUMPI DUP1 PUSH4 0xF2FDE38B EQ PUSH2 0x4D9 JUMPI DUP1 PUSH4 0xFE5C873A EQ PUSH2 0x168 JUMPI PUSH4 0xFF844A63 EQ PUSH2 0x145 JUMPI PUSH1 0x0 DUP1 REVERT JUMPDEST CALLVALUE PUSH2 0x163 JUMPI PUSH1 0x0 CALLDATASIZE PUSH1 0x3 NOT ADD SLT PUSH2 0x163 JUMPI PUSH1 0x20 PUSH1 0x40 MLOAD PUSH3 0x3F480 DUP2 MSTORE RETURN JUMPDEST PUSH1 0x0 DUP1 REVERT JUMPDEST PUSH1 0x20 CALLDATASIZE PUSH1 0x3 NOT ADD SLT PUSH2 0x163 JUMPI PUSH1 0x4 CALLDATALOAD PUSH2 0x17F PUSH2 0x2F37 JUMP JUMPDEST DUP1 PUSH1 0x0 MSTORE PUSH1 0x3 PUSH1 0x20 MSTORE PUSH1 0x40 PUSH1 0x0 KECCAK256 SWAP1 PUSH1 0xFF PUSH1 0xB DUP4 ADD SLOAD AND PUSH1 0x3 DUP2 LT ISZERO PUSH2 0x3E1 JUMPI PUSH1 0x1 PUSH2 0x1AB SWAP2 EQ PUSH2 0x2EEC JUMP JUMPDEST PUSH1 0x1 PUSH1 0x1 PUSH1 0xA0 SHL SUB PUSH1 0xD DUP4 ADD SLOAD AND CALLER SUB PUSH2 0x495 JUMPI PUSH1 0x11 DUP3 ADD SLOAD TIMESTAMP GT PUSH2 0x451 JUMPI PUSH1 0xE DUP3 ADD SLOAD PUSH1 0x5 DUP4 ADD SWAP3 PUSH2 0x1DF DUP5 SLOAD DUP4 PUSH2 0x2EDF JUMP JUMPDEST SWAP4 DUP5 CALLVALUE SUB PUSH2 0x40D JUMPI PUSH1 0xFA DUP4 MUL DUP4 DUP2 DIV PUSH1 0xFA EQ DUP5 ISZERO OR ISZERO PUSH2 0x3F7 JUMPI PUSH2 0x2710 PUSH2 0x208 SWAP2 DIV DUP1 SWAP5 PUSH2 0x2EDF JUMP JUMPDEST SWAP1 PUSH1 0x1 DUP4 ADD PUSH1 0xFF DUP2 SLOAD AND PUSH1 0x2 DUP2 LT ISZERO PUSH2 0x3E1 JUMPI PUSH2 0x329 JUMPI SLOAD PUSH1 0x2 DUP5 ADD SLOAD SWAP2 SWAP1 PUSH1 0x8 SHR PUSH1 0x1 PUSH1 0x1 PUSH1 0xA0 SHL SUB AND DUP1 EXTCODESIZE ISZERO PUSH2 0x163 JUMPI PUSH1 0x40 MLOAD PUSH4 0x21421707 PUSH1 0xE1 SHL DUP2 MSTORE ADDRESS PUSH1 0x4 DUP3 ADD MSTORE CALLER PUSH1 0x24 DUP3 ADD MSTORE PUSH1 0x44 DUP2 ADD SWAP4 SWAP1 SWAP4 MSTORE PUSH1 0x0 SWAP1 DUP4 SWAP1 PUSH1 0x64 SWAP1 DUP3 SWAP1 DUP5 SWAP1 GAS CALL SWAP1 DUP2 ISZERO PUSH2 0x2FB JUMPI PUSH2 0x299 PUSH1 0x0 SWAP6 SWAP5 PUSH1 0x1 PUSH1 0x1 PUSH1 0xA0 SHL SUB PUSH1 0x4 DUP9 SWAP8 DUP9 SWAP8 DUP9 SWAP8 PUSH2 0x319 JUMPI JUMPDEST POP JUMPDEST ADD SLOAD AND SWAP3 SLOAD SWAP1 PUSH2 0x2EDF JUMP JUMPDEST SWAP1 DUP3 DUP3 ISZERO PUSH2 0x310 JUMPI JUMPDEST CALL ISZERO PUSH2 0x2FB JUMPI PUSH1 0x0 DUP1 DUP1 DUP1 SWAP4 PUSH1 0x1 PUSH1 0x1 PUSH1 0xA0 SHL SUB PUSH1 0x1 SLOAD AND DUP3 DUP3 ISZERO PUSH2 0x307 JUMPI JUMPDEST CALL ISZERO PUSH2 0x2FB JUMPI PUSH1 0x40 MLOAD SWAP2 DUP3 MSTORE PUSH32 0x92FFAE31901780890E35BDC724FEDB7601577492B5D4E3DF85F785DE59D737AB PUSH1 0x20 CALLER SWAP4 LOG3 PUSH1 0x1 PUSH1 0x0 SSTORE STOP JUMPDEST PUSH1 0x40 MLOAD RETURNDATASIZE PUSH1 0x0 DUP3 RETURNDATACOPY RETURNDATASIZE SWAP1 REVERT JUMPDEST POP PUSH2 0x8FC PUSH2 0x2C2 JUMP JUMPDEST POP PUSH2 0x8FC PUSH2 0x2A2 JUMP JUMPDEST DUP8 PUSH2 0x323 SWAP2 PUSH2 0x2A02 JUMP JUMPDEST DUP14 PUSH2 0x28C JUMP JUMPDEST SWAP4 SWAP1 PUSH1 0x0 SWAP7 SWAP4 SWAP6 SWAP3 PUSH1 0x3 DUP8 ADD SWAP8 JUMPDEST DUP9 SLOAD DUP2 LT ISZERO PUSH2 0x3BE JUMPI PUSH1 0x1 PUSH1 0x1 PUSH1 0xA0 SHL SUB DUP8 SLOAD PUSH1 0x8 SHR AND SWAP1 PUSH2 0x359 DUP2 DUP12 PUSH2 0x2C00 JUMP JUMPDEST SWAP1 SLOAD SWAP1 PUSH1 0x3 SHL SHR SWAP2 DUP1 EXTCODESIZE ISZERO PUSH2 0x163 JUMPI PUSH1 0x40 MLOAD PUSH4 0x21421707 PUSH1 0xE1 SHL DUP2 MSTORE ADDRESS PUSH1 0x4 DUP3 ADD MSTORE CALLER PUSH1 0x24 DUP3 ADD MSTORE PUSH1 0x44 DUP2 ADD SWAP4 SWAP1 SWAP4 MSTORE PUSH1 0x0 SWAP1 DUP4 SWAP1 PUSH1 0x64 SWAP1 DUP3 SWAP1 DUP5 SWAP1 GAS CALL SWAP2 DUP3 ISZERO PUSH2 0x2FB JUMPI PUSH1 0x1 SWAP3 PUSH2 0x3AD JUMPI JUMPDEST POP ADD PUSH2 0x337 JUMP JUMPDEST PUSH1 0x0 PUSH2 0x3B8 SWAP2 PUSH2 0x2A02 JUMP JUMPDEST DUP11 PUSH2 0x3A6 JUMP JUMPDEST POP PUSH1 0x0 SWAP5 SWAP8 POP DUP5 SWAP4 SWAP7 DUP5 SWAP4 SWAP7 POP DUP4 SWAP3 SWAP2 PUSH1 0x1 PUSH1 0x1 PUSH1 0xA0 SHL SUB PUSH1 0x4 PUSH2 0x299 SWAP4 PUSH2 0x28E JUMP JUMPDEST PUSH4 0x4E487B71 PUSH1 0xE0 SHL PUSH1 0x0 MSTORE PUSH1 0x21 PUSH1 0x4 MSTORE PUSH1 0x24 PUSH1 0x0 REVERT JUMPDEST PUSH4 0x4E487B71 PUSH1 0xE0 SHL PUSH1 0x0 MSTORE PUSH1 0x11 PUSH1 0x4 MSTORE PUSH1 0x24 PUSH1 0x0 REVERT JUMPDEST PUSH1 0x64 PUSH1 0x40 MLOAD PUSH3 0x461BCD PUSH1 0xE5 SHL DUP2 MSTORE PUSH1 0x20 PUSH1 0x4 DUP3 ADD MSTORE PUSH1 0x10 PUSH1 0x24 DUP3 ADD MSTORE PUSH32 0x496E636F727265637420616D6F756E7400000000000000000000000000000000 PUSH1 0x44 DUP3 ADD MSTORE REVERT JUMPDEST PUSH1 0x64 PUSH1 0x40 MLOAD PUSH3 0x461BCD PUSH1 0xE5 SHL DUP2 MSTORE PUSH1 0x20 PUSH1 0x4 DUP3 ADD MSTORE PUSH1 0x14 PUSH1 0x24 DUP3 ADD MSTORE PUSH32 0x436C61696D20706572696F642065787069726564000000000000000000000000 PUSH1 0x44 DUP3 ADD MSTORE REVERT JUMPDEST PUSH1 0x64 PUSH1 0x40 MLOAD PUSH3 0x461BCD PUSH1 0xE5 SHL DUP2 MSTORE PUSH1 0x20 PUSH1 0x4 DUP3 ADD MSTORE PUSH1 0xA PUSH1 0x24 DUP3 ADD MSTORE PUSH32 0x4E6F742077696E6E657200000000000000000000000000000000000000000000 PUSH1 0x44 DUP3 ADD MSTORE REVERT JUMPDEST CALLVALUE PUSH2 0x163 JUMPI PUSH1 0x20 CALLDATASIZE PUSH1 0x3 NOT ADD SLT PUSH2 0x163 JUMPI PUSH1 0x1 PUSH1 0x1 PUSH1 0xA0 SHL SUB PUSH2 0x4FA PUSH2 0x299D JUMP JUMPDEST PUSH2 0x502 PUSH2 0x3000 JUMP JUMPDEST AND DUP1 ISZERO PUSH2 0x54C JUMPI PUSH1 0x1 PUSH1 0x1 PUSH1 0xA0 SHL SUB PUSH1 0x1 SLOAD DUP3 PUSH1 0x1 PUSH1 0x1 PUSH1 0xA0 SHL SUB NOT DUP3 AND OR PUSH1 0x1 SSTORE AND PUSH32 0x8BE0079C531659141344CD1FD0A4F28419497F9722A3DAAFE3B4186F6B6457E0 PUSH1 0x0 DUP1 LOG3 STOP JUMPDEST PUSH32 0x1E4FBDF700000000000000000000000000000000000000000000000000000000 PUSH1 0x0 MSTORE PUSH1 0x0 PUSH1 0x4 MSTORE PUSH1 0x24 PUSH1 0x0 REVERT JUMPDEST CALLVALUE PUSH2 0x163 JUMPI PUSH1 0x20 CALLDATASIZE PUSH1 0x3 NOT ADD SLT PUSH2 0x163 JUMPI PUSH1 0x4 CALLDATALOAD PUSH2 0x597 PUSH2 0x2F37 JUMP JUMPDEST DUP1 PUSH1 0x0 MSTORE PUSH1 0x3 PUSH1 0x20 MSTORE PUSH1 0x40 PUSH1 0x0 KECCAK256 SWAP1 PUSH1 0xB DUP3 ADD PUSH1 0xFF DUP2 SLOAD AND PUSH1 0x3 DUP2 LT ISZERO PUSH2 0x3E1 JUMPI PUSH2 0x5C2 SWAP1 ISZERO PUSH2 0x2E94 JUMP JUMPDEST PUSH1 0x9 DUP4 ADD SLOAD TIMESTAMP LT PUSH2 0x88A JUMPI DUP1 SLOAD PUSH1 0xFF NOT AND PUSH1 0x1 OR SWAP1 SSTORE PUSH1 0x0 DUP2 DUP2 MSTORE PUSH1 0x4 PUSH1 0x20 MSTORE PUSH1 0x40 DUP2 KECCAK256 DUP1 SLOAD SWAP2 SWAP3 SWAP2 DUP4 SWAP2 PUSH1 0x0 NOT DUP4 JUMPDEST DUP4 DUP2 LT PUSH2 0x7F0 JUMPI POP POP POP POP PUSH1 0x1 PUSH1 0x1 PUSH1 0xA0 SHL SUB SWAP1 PUSH1 0xD DUP6 ADD DUP3 DUP3 AND PUSH1 0x1 PUSH1 0x1 PUSH1 0xA0 SHL SUB NOT DUP3 SLOAD AND OR SWAP1 SSTORE DUP4 PUSH1 0xE DUP7 ADD SSTORE AND SWAP3 DUP4 ISZERO ISZERO DUP1 PUSH2 0x7E2 JUMPI JUMPDEST ISZERO PUSH2 0x797 JUMPI PUSH3 0x3F480 TIMESTAMP ADD DUP1 TIMESTAMP GT PUSH2 0x3F7 JUMPI PUSH1 0x11 DUP3 ADD SSTORE PUSH1 0xFA DUP4 MUL DUP4 DUP2 DIV PUSH1 0xFA EQ DUP5 ISZERO OR ISZERO PUSH2 0x3F7 JUMPI PUSH2 0x2710 SWAP1 DIV SWAP3 PUSH2 0x666 DUP5 DUP3 PUSH2 0x2EDF JUMP JUMPDEST PUSH1 0x0 JUMPDEST DUP5 PUSH1 0x0 MSTORE PUSH1 0x4 PUSH1 0x20 MSTORE PUSH1 0x40 PUSH1 0x0 KECCAK256 SLOAD DUP2 LT ISZERO PUSH2 0x756 JUMPI DUP5 PUSH1 0x0 MSTORE PUSH1 0x4 PUSH1 0x20 MSTORE PUSH2 0x696 DUP2 PUSH1 0x40 PUSH1 0x0 KECCAK256 PUSH2 0x2BCE JUMP JUMPDEST POP DUP1 SLOAD SWAP1 SWAP2 SWAP1 PUSH1 0x1 PUSH1 0x1 PUSH1 0xA0 SHL SUB AND DUP9 EQ PUSH2 0x700 JUMPI PUSH1 0x0 DUP1 DUP1 DUP1 PUSH1 0x3 PUSH1 0x1 PUSH1 0x1 PUSH1 0xA0 SHL SUB DUP8 SLOAD AND SWAP7 ADD SWAP6 DUP7 SLOAD SWAP1 DUP3 DUP3 ISZERO PUSH2 0x6F7 JUMPI JUMPDEST CALL ISZERO PUSH2 0x2FB JUMPI PUSH1 0x1 SWAP2 SLOAD DUP7 PUSH1 0x0 MSTORE PUSH1 0x8 PUSH1 0x20 MSTORE PUSH2 0x6EE PUSH1 0x40 PUSH1 0x0 KECCAK256 SWAP2 DUP3 SLOAD PUSH2 0x2EDF JUMP JUMPDEST SWAP1 SSTORE JUMPDEST ADD PUSH2 0x669 JUMP JUMPDEST POP PUSH2 0x8FC PUSH2 0x6CB JUMP JUMPDEST PUSH1 0x0 DUP1 DUP1 DUP1 PUSH1 0x3 PUSH1 0x1 PUSH1 0x1 PUSH1 0xA0 SHL SUB PUSH1 0x4 DUP12 ADD SLOAD AND SWAP7 ADD SWAP6 DUP7 SLOAD SWAP1 DUP3 DUP3 ISZERO PUSH2 0x74D JUMPI JUMPDEST CALL ISZERO PUSH2 0x2FB JUMPI PUSH1 0x1 SWAP2 SLOAD DUP7 PUSH1 0x0 MSTORE PUSH1 0x8 PUSH1 0x20 MSTORE PUSH2 0x746 PUSH1 0x40 PUSH1 0x0 KECCAK256 SWAP2 DUP3 SLOAD PUSH2 0x2EDF JUMP JUMPDEST SWAP1 SSTORE PUSH2 0x6F1 JUMP JUMPDEST POP PUSH2 0x8FC PUSH2 0x723 JUMP JUMPDEST POP PUSH1 0x60 SWAP3 POP PUSH32 0x4CF70FE07783506B8E02682DDEBD0688A2A16B3373C5FEC55F74095CECD67AA8 SWAP4 SWAP5 PUSH1 0x40 MLOAD SWAP3 DUP4 MSTORE PUSH1 0x20 DUP4 ADD MSTORE PUSH1 0x40 DUP3 ADD MSTORE LOG3 JUMPDEST PUSH1 0x1 PUSH1 0x0 SSTORE STOP JUMPDEST POP SWAP1 POP PUSH2 0x7DD SWAP2 POP PUSH1 0x40 MLOAD SWAP1 PUSH2 0x7AE PUSH1 0x40 DUP4 PUSH2 0x2A02 JUMP JUMPDEST PUSH1 0xF DUP3 MSTORE PUSH32 0x52657365727665206E6F74206D65740000000000000000000000000000000000 PUSH1 0x20 DUP4 ADD MSTORE PUSH2 0x3042 JUMP JUMPDEST PUSH2 0x790 JUMP JUMPDEST POP PUSH1 0x6 DUP2 ADD SLOAD DUP4 LT ISZERO PUSH2 0x62D JUMP JUMPDEST DUP7 PUSH1 0x1 PUSH2 0x7FD DUP4 DUP7 PUSH2 0x2BCE JUMP JUMPDEST POP ADD SLOAD GT DUP1 ISZERO PUSH2 0x85B JUMPI JUMPDEST PUSH2 0x815 JUMPI JUMPDEST PUSH1 0x1 ADD PUSH2 0x5F2 JUMP JUMPDEST DUP3 PUSH1 0x1 SWAP4 SWAP8 POP DUP2 SWAP6 POP PUSH2 0x828 SWAP3 POP PUSH2 0x2BCE JUMP JUMPDEST POP ADD SLOAD SWAP4 PUSH1 0x1 PUSH1 0x1 PUSH1 0xA0 SHL SUB PUSH2 0x83E DUP5 DUP4 PUSH2 0x2BCE JUMP JUMPDEST POP SLOAD AND SWAP3 PUSH1 0x1 PUSH1 0x2 PUSH2 0x850 DUP4 DUP6 PUSH2 0x2BCE JUMP JUMPDEST POP ADD SLOAD SWAP2 SWAP1 POP PUSH2 0x80D JUMP JUMPDEST POP DUP7 PUSH1 0x1 PUSH2 0x869 DUP4 DUP7 PUSH2 0x2BCE JUMP JUMPDEST POP ADD SLOAD EQ DUP1 ISZERO PUSH2 0x808 JUMPI POP DUP2 PUSH1 0x2 PUSH2 0x881 DUP4 DUP7 PUSH2 0x2BCE JUMP JUMPDEST POP ADD SLOAD LT PUSH2 0x808 JUMP JUMPDEST PUSH1 0x64 PUSH1 0x40 MLOAD PUSH3 0x461BCD PUSH1 0xE5 SHL DUP2 MSTORE PUSH1 0x20 PUSH1 0x4 DUP3 ADD MSTORE PUSH1 0x14 PUSH1 0x24 DUP3 ADD MSTORE PUSH32 0x41756374696F6E207374696C6C20616374697665000000000000000000000000 PUSH1 0x44 DUP3 ADD MSTORE REVERT JUMPDEST CALLVALUE PUSH2 0x163 JUMPI PUSH1 0x0 CALLDATASIZE PUSH1 0x3 NOT ADD SLT PUSH2 0x163 JUMPI PUSH1 0x20 PUSH1 0x40 MLOAD PUSH2 0xE10 DUP2 MSTORE RETURN JUMPDEST CALLVALUE PUSH2 0x163 JUMPI PUSH1 0x0 CALLDATASIZE PUSH1 0x3 NOT ADD SLT PUSH2 0x163 JUMPI PUSH1 0x20 PUSH1 0x40 MLOAD PUSH1 0xA DUP2 MSTORE RETURN JUMPDEST CALLVALUE PUSH2 0x163 JUMPI PUSH1 0x20 CALLDATASIZE PUSH1 0x3 NOT ADD SLT PUSH2 0x163 JUMPI PUSH1 0x4 CALLDATALOAD PUSH1 0x0 MSTORE PUSH1 0x8 PUSH1 0x20 MSTORE PUSH1 0x20 PUSH1 0x40 PUSH1 0x0 KECCAK256 SLOAD PUSH1 0x40 MLOAD SWAP1 DUP2 MSTORE RETURN JUMPDEST CALLVALUE PUSH2 0x163 JUMPI PUSH1 0x0 CALLDATASIZE PUSH1 0x3 NOT ADD SLT PUSH2 0x163 JUMPI PUSH1 0x20 PUSH1 0x40 MLOAD PUSH2 0x258 DUP2 MSTORE RETURN JUMPDEST CALLVALUE PUSH2 0x163 JUMPI PUSH1 0x40 CALLDATASIZE PUSH1 0x3 NOT ADD SLT PUSH2 0x163 JUMPI PUSH2 0x969 PUSH2 0x299D JUMP JUMPDEST PUSH1 0x1 PUSH1 0x1 PUSH1 0xA0 SHL SUB PUSH1 0x24 CALLDATALOAD SWAP2 AND PUSH1 0x0 MSTORE PUSH1 0x6 PUSH1 0x20 MSTORE PUSH1 0x40 PUSH1 0x0 KECCAK256 DUP1 SLOAD DUP3 LT ISZERO PUSH2 0x163 JUMPI PUSH1 0x20 SWAP2 PUSH2 0x998 SWAP2 PUSH2 0x2C00 JUMP JUMPDEST SWAP1 SLOAD SWAP1 PUSH1 0x3 SHL SHR PUSH1 0x40 MLOAD SWAP1 DUP2 MSTORE RETURN JUMPDEST CALLVALUE PUSH2 0x163 JUMPI PUSH1 0x20 CALLDATASIZE PUSH1 0x3 NOT ADD SLT PUSH2 0x163 JUMPI PUSH1 0x4 CALLDATALOAD PUSH2 0x9C3 PUSH2 0x2F37 JUMP JUMPDEST DUP1 PUSH1 0x0 MSTORE PUSH1 0x3 PUSH1 0x20 MSTORE PUSH1 0x40 PUSH1 0x0 KECCAK256 PUSH1 0xFF PUSH1 0xB DUP3 ADD SLOAD AND PUSH1 0x3 DUP2 LT ISZERO PUSH2 0x3E1 JUMPI PUSH1 0x1 PUSH2 0x9EE SWAP2 EQ PUSH2 0x2EEC JUMP JUMPDEST PUSH1 0x4 DUP2 ADD PUSH1 0x1 PUSH1 0x1 PUSH1 0xA0 SHL SUB DUP2 SLOAD AND CALLER SUB PUSH2 0xC16 JUMPI PUSH1 0x11 DUP3 ADD SLOAD TIMESTAMP GT DUP1 ISZERO PUSH2 0xC01 JUMPI JUMPDEST ISZERO PUSH2 0xB97 JUMPI PUSH1 0x1 DUP3 ADD PUSH1 0xFF DUP2 SLOAD AND PUSH1 0x2 DUP2 LT ISZERO PUSH2 0x3E1 JUMPI PUSH2 0xAE1 JUMPI PUSH1 0x1 PUSH1 0x1 PUSH1 0xA0 SHL SUB SWAP1 SLOAD PUSH1 0x8 SHR AND SWAP2 PUSH1 0x2 PUSH1 0x1 PUSH1 0x1 PUSH1 0xA0 SHL SUB DUP4 SLOAD AND SWAP2 ADD SLOAD DUP4 EXTCODESIZE ISZERO PUSH2 0x163 JUMPI PUSH1 0x40 MLOAD PUSH4 0x21421707 PUSH1 0xE1 SHL DUP2 MSTORE ADDRESS PUSH1 0x4 DUP3 ADD MSTORE PUSH1 0x1 PUSH1 0x1 PUSH1 0xA0 SHL SUB SWAP3 SWAP1 SWAP3 AND PUSH1 0x24 DUP4 ADD MSTORE PUSH1 0x44 DUP3 ADD MSTORE SWAP2 PUSH1 0x0 SWAP1 DUP4 SWAP1 PUSH1 0x64 SWAP1 DUP3 SWAP1 DUP5 SWAP1 GAS CALL SWAP2 DUP3 ISZERO PUSH2 0x2FB JUMPI PUSH1 0x1 PUSH1 0x1 PUSH1 0xA0 SHL SUB SWAP3 PUSH2 0xAD0 JUMPI JUMPDEST POP JUMPDEST SLOAD AND SWAP1 PUSH32 0x56C922176DD9B2A1FDCF8A3AA048B543FC88A2750FCD5341C0B635BB9D11F817 PUSH1 0x0 DUP1 LOG3 PUSH1 0x1 PUSH1 0x0 SSTORE STOP JUMPDEST PUSH1 0x0 PUSH2 0xADB SWAP2 PUSH2 0x2A02 JUMP JUMPDEST DUP4 PUSH2 0xA9F JUMP JUMPDEST SWAP1 SWAP3 SWAP2 PUSH1 0x3 ADD SWAP1 PUSH1 0x0 JUMPDEST DUP3 SLOAD DUP2 LT ISZERO PUSH2 0xB85 JUMPI PUSH1 0x1 PUSH1 0x1 PUSH1 0xA0 SHL SUB DUP3 SLOAD PUSH1 0x8 SHR AND SWAP1 PUSH1 0x1 PUSH1 0x1 PUSH1 0xA0 SHL SUB DUP7 SLOAD AND PUSH2 0xB18 DUP3 DUP7 PUSH2 0x2C00 JUMP JUMPDEST SWAP1 SLOAD SWAP1 PUSH1 0x3 SHL SHR DUP4 EXTCODESIZE ISZERO PUSH2 0x163 JUMPI PUSH1 0x40 MLOAD PUSH4 0x21421707 PUSH1 0xE1 SHL DUP2 MSTORE ADDRESS PUSH1 0x4 DUP3 ADD MSTORE PUSH1 0x1 PUSH1 0x1 PUSH1 0xA0 SHL SUB SWAP3 SWAP1 SWAP3 AND PUSH1 0x24 DUP4 ADD MSTORE PUSH1 0x44 DUP3 ADD MSTORE SWAP2 PUSH1 0x0 SWAP1 DUP4 SWAP1 PUSH1 0x64 SWAP1 DUP3 SWAP1 DUP5 SWAP1 GAS CALL SWAP2 DUP3 ISZERO PUSH2 0x2FB JUMPI PUSH1 0x1 SWAP3 PUSH2 0xB74 JUMPI JUMPDEST POP ADD PUSH2 0xAEB JUMP JUMPDEST PUSH1 0x0 PUSH2 0xB7F SWAP2 PUSH2 0x2A02 JUMP JUMPDEST DUP7 PUSH2 0xB6D JUMP JUMPDEST POP POP POP SWAP1 PUSH1 0x1 PUSH1 0x1 PUSH1 0xA0 SHL SUB SWAP1 PUSH2 0xAA1 JUMP JUMPDEST PUSH1 0x84 PUSH1 0x40 MLOAD PUSH3 0x461BCD PUSH1 0xE5 SHL DUP2 MSTORE PUSH1 0x20 PUSH1 0x4 DUP3 ADD MSTORE PUSH1 0x23 PUSH1 0x24 DUP3 ADD MSTORE PUSH32 0x436C61696D20706572696F64206E6F742065787069726564206F72206E6F2062 PUSH1 0x44 DUP3 ADD MSTORE PUSH32 0x6964730000000000000000000000000000000000000000000000000000000000 PUSH1 0x64 DUP3 ADD MSTORE REVERT JUMPDEST POP PUSH1 0x1 PUSH1 0x1 PUSH1 0xA0 SHL SUB PUSH1 0xD DUP4 ADD SLOAD AND ISZERO PUSH2 0xA11 JUMP JUMPDEST PUSH1 0x64 PUSH1 0x40 MLOAD PUSH3 0x461BCD PUSH1 0xE5 SHL DUP2 MSTORE PUSH1 0x20 PUSH1 0x4 DUP3 ADD MSTORE PUSH1 0xA PUSH1 0x24 DUP3 ADD MSTORE PUSH32 0x4E6F742073656C6C657200000000000000000000000000000000000000000000 PUSH1 0x44 DUP3 ADD MSTORE REVERT JUMPDEST CALLVALUE PUSH2 0x163 JUMPI PUSH1 0x40 CALLDATASIZE PUSH1 0x3 NOT ADD SLT PUSH2 0x163 JUMPI PUSH2 0xC73 PUSH2 0x299D JUMP JUMPDEST PUSH1 0x1 PUSH1 0x1 PUSH1 0xA0 SHL SUB PUSH1 0x24 CALLDATALOAD SWAP2 AND PUSH1 0x0 MSTORE PUSH1 0x7 PUSH1 0x20 MSTORE PUSH1 0x40 PUSH1 0x0 KECCAK256 DUP1 SLOAD DUP3 LT ISZERO PUSH2 0x163 JUMPI PUSH1 0x20 SWAP2 PUSH2 0x998 SWAP2 PUSH2 0x2C00 JUMP JUMPDEST CALLVALUE PUSH2 0x163 JUMPI PUSH1 0x20 CALLDATASIZE PUSH1 0x3 NOT ADD SLT PUSH2 0x163 JUMPI PUSH1 0x4 CALLDATALOAD PUSH2 0xCBE PUSH2 0x2F37 JUMP JUMPDEST DUP1 PUSH1 0x0 MSTORE PUSH1 0x3 PUSH1 0x20 MSTORE PUSH1 0x40 PUSH1 0x0 KECCAK256 PUSH1 0xFF PUSH1 0xB DUP3 ADD SLOAD AND PUSH1 0x3 DUP2 LT ISZERO PUSH2 0x3E1 JUMPI PUSH1 0x1 PUSH1 0x1 PUSH1 0xA0 SHL SUB SWAP2 PUSH2 0xCF2 PUSH1 0x4 SWAP3 ISZERO PUSH2 0x2E94 JUMP JUMPDEST ADD SLOAD AND CALLER EQ DUP1 ISZERO PUSH2 0xD89 JUMPI JUMPDEST ISZERO PUSH2 0xD45 JUMPI PUSH2 0x790 SWAP1 PUSH1 0x40 MLOAD SWAP1 PUSH2 0xD16 PUSH1 0x40 DUP4 PUSH2 0x2A02 JUMP JUMPDEST PUSH1 0x1C DUP3 MSTORE PUSH32 0x43616E63656C6C65642062792073656C6C6572206F72206F776E657200000000 PUSH1 0x20 DUP4 ADD MSTORE PUSH2 0x3042 JUMP JUMPDEST PUSH1 0x64 PUSH1 0x40 MLOAD PUSH3 0x461BCD PUSH1 0xE5 SHL DUP2 MSTORE PUSH1 0x20 PUSH1 0x4 DUP3 ADD MSTORE PUSH1 0xE PUSH1 0x24 DUP3 ADD MSTORE PUSH32 0x4E6F7420617574686F72697A6564000000000000000000000000000000000000 PUSH1 0x44 DUP3 ADD MSTORE REVERT JUMPDEST POP PUSH1 0x1 PUSH1 0x1 PUSH1 0xA0 SHL SUB PUSH1 0x1 SLOAD AND CALLER EQ PUSH2 0xCFE JUMP JUMPDEST CALLVALUE PUSH2 0x163 JUMPI PUSH1 0x40 CALLDATASIZE PUSH1 0x3 NOT ADD SLT PUSH2 0x163 JUMPI PUSH2 0xDB6 PUSH2 0x29B3 JUMP JUMPDEST PUSH1 0x4 CALLDATALOAD PUSH1 0x0 MSTORE PUSH1 0x5 PUSH1 0x20 MSTORE PUSH1 0x1 PUSH1 0x1 PUSH1 0xA0 SHL SUB PUSH1 0x40 PUSH1 0x0 KECCAK256 SWAP2 AND PUSH1 0x0 MSTORE PUSH1 0x20 MSTORE PUSH1 0x20 PUSH1 0x40 PUSH1 0x0 KECCAK256 SLOAD PUSH1 0x40 MLOAD SWAP1 DUP2 MSTORE RETURN JUMPDEST CALLVALUE PUSH2 0x163 JUMPI PUSH1 0x0 CALLDATASIZE PUSH1 0x3 NOT ADD SLT PUSH2 0x163 JUMPI PUSH1 0x20 PUSH1 0x1 PUSH1 0x1 PUSH1 0xA0 SHL SUB PUSH1 0x1 SLOAD AND PUSH1 0x40 MLOAD SWAP1 DUP2 MSTORE RETURN JUMPDEST CALLVALUE PUSH2 0x163 JUMPI PUSH1 0x0 CALLDATASIZE PUSH1 0x3 NOT ADD SLT PUSH2 0x163 JUMPI PUSH1 0x20 PUSH1 0x40 MLOAD PUSH7 0x38D7EA4C68000 DUP2 MSTORE RETURN JUMPDEST CALLVALUE PUSH2 0x163 JUMPI PUSH1 0x0 CALLDATASIZE PUSH1 0x3 NOT ADD SLT PUSH2 0x163 JUMPI PUSH2 0xE48 PUSH2 0x3000 JUMP JUMPDEST PUSH1 0x0 PUSH1 0x1 PUSH1 0x1 PUSH1 0xA0 SHL SUB PUSH1 0x1 SLOAD PUSH1 0x1 PUSH1 0x1 PUSH1 0xA0 SHL SUB NOT DUP2 AND PUSH1 0x1 SSTORE AND PUSH32 0x8BE0079C531659141344CD1FD0A4F28419497F9722A3DAAFE3B4186F6B6457E0 DUP3 DUP1 LOG3 STOP JUMPDEST CALLVALUE PUSH2 0x163 JUMPI PUSH1 0x20 CALLDATASIZE PUSH1 0x3 NOT ADD SLT PUSH2 0x163 JUMPI PUSH1 0x4 CALLDATALOAD DUP1 ISZERO ISZERO DUP1 PUSH2 0xFEC JUMPI JUMPDEST ISZERO PUSH2 0xFA8 JUMPI PUSH1 0x0 MSTORE PUSH1 0x4 PUSH1 0x20 MSTORE PUSH1 0x40 PUSH1 0x0 KECCAK256 DUP1 SLOAD SWAP1 PUSH2 0xEC5 DUP3 PUSH2 0x2DF2 JUMP JUMPDEST SWAP2 PUSH2 0xED3 PUSH1 0x40 MLOAD SWAP4 DUP5 PUSH2 0x2A02 JUMP JUMPDEST DUP1 DUP4 MSTORE PUSH1 0x20 DUP4 ADD DUP1 SWAP3 PUSH1 0x0 MSTORE PUSH1 0x20 PUSH1 0x0 KECCAK256 PUSH1 0x0 SWAP2 JUMPDEST DUP4 DUP4 LT PUSH2 0xF5E JUMPI DUP5 DUP7 PUSH1 0x40 MLOAD SWAP2 DUP3 SWAP2 PUSH1 0x20 DUP4 ADD SWAP1 PUSH1 0x20 DUP5 MSTORE MLOAD DUP1 SWAP2 MSTORE PUSH1 0x40 DUP4 ADD SWAP2 SWAP1 PUSH1 0x0 JUMPDEST DUP2 DUP2 LT PUSH2 0xF1B JUMPI POP POP POP SUB SWAP1 RETURN JUMPDEST SWAP2 SWAP4 POP SWAP2 PUSH1 0x20 PUSH1 0x80 PUSH1 0x1 SWAP3 PUSH1 0x60 DUP8 MLOAD PUSH1 0x1 PUSH1 0x1 PUSH1 0xA0 SHL SUB DUP2 MLOAD AND DUP4 MSTORE DUP5 DUP2 ADD MLOAD DUP6 DUP5 ADD MSTORE PUSH1 0x40 DUP2 ADD MLOAD PUSH1 0x40 DUP5 ADD MSTORE ADD MLOAD PUSH1 0x60 DUP3 ADD MSTORE ADD SWAP5 ADD SWAP2 ADD SWAP2 DUP5 SWAP4 SWAP3 PUSH2 0xF0D JUMP JUMPDEST PUSH1 0x4 PUSH1 0x20 PUSH1 0x1 SWAP3 PUSH1 0x40 MLOAD PUSH2 0xF71 DUP2 PUSH2 0x29E6 JUMP JUMPDEST PUSH1 0x1 PUSH1 0x1 PUSH1 0xA0 SHL SUB DUP7 SLOAD AND DUP2 MSTORE DUP5 DUP7 ADD SLOAD DUP4 DUP3 ADD MSTORE PUSH1 0x2 DUP7 ADD SLOAD PUSH1 0x40 DUP3 ADD MSTORE PUSH1 0x3 DUP7 ADD SLOAD PUSH1 0x60 DUP3 ADD MSTORE DUP2 MSTORE ADD SWAP3 ADD SWAP3 ADD SWAP2 SWAP1 PUSH2 0xEE8 JUMP JUMPDEST PUSH1 0x64 PUSH1 0x40 MLOAD PUSH3 0x461BCD PUSH1 0xE5 SHL DUP2 MSTORE PUSH1 0x20 PUSH1 0x4 DUP3 ADD MSTORE PUSH1 0x12 PUSH1 0x24 DUP3 ADD MSTORE PUSH32 0x496E76616C69642061756374696F6E2049440000000000000000000000000000 PUSH1 0x44 DUP3 ADD MSTORE REVERT JUMPDEST POP PUSH1 0x2 SLOAD DUP2 LT PUSH2 0xEA7 JUMP JUMPDEST CALLVALUE PUSH2 0x163 JUMPI PUSH2 0x100 CALLDATASIZE PUSH1 0x3 NOT ADD SLT PUSH2 0x163 JUMPI PUSH2 0x1011 PUSH2 0x299D JUMP JUMPDEST PUSH1 0xA4 CALLDATALOAD PUSH1 0xC4 CALLDATALOAD PUSH8 0xFFFFFFFFFFFFFFFF DUP2 GT PUSH2 0x163 JUMPI PUSH2 0x1034 SWAP1 CALLDATASIZE SWAP1 PUSH1 0x4 ADD PUSH2 0x2A6B JUMP JUMPDEST PUSH1 0xE4 SWAP3 SWAP2 SWAP3 CALLDATALOAD PUSH8 0xFFFFFFFFFFFFFFFF DUP2 GT PUSH2 0x163 JUMPI PUSH2 0x1057 SWAP1 CALLDATASIZE SWAP1 PUSH1 0x4 ADD PUSH2 0x2A6B JUMP JUMPDEST SWAP2 SWAP1 SWAP4 PUSH2 0x1062 PUSH2 0x2F37 JUMP JUMPDEST PUSH2 0x1073 PUSH2 0x106E DUP8 PUSH2 0x2F72 JUMP JUMPDEST PUSH2 0x2C18 JUMP JUMPDEST PUSH2 0xE10 DUP5 LT ISZERO DUP1 PUSH2 0x18D3 JUMPI JUMPDEST PUSH2 0x1088 SWAP1 PUSH2 0x2C63 JUMP JUMPDEST PUSH1 0x44 CALLDATALOAD ISZERO ISZERO DUP1 PUSH2 0x18C5 JUMPI JUMPDEST PUSH2 0x109C SWAP1 PUSH2 0x2CAE JUMP JUMPDEST PUSH2 0x10B1 PUSH7 0x38D7EA4C68000 PUSH1 0x84 CALLDATALOAD LT ISZERO PUSH2 0x2CF9 JUMP JUMPDEST DUP2 ISZERO PUSH2 0x1881 JUMPI PUSH1 0x40 MLOAD PUSH4 0x31A9108F PUSH1 0xE1 SHL DUP2 MSTORE PUSH1 0x24 CALLDATALOAD PUSH1 0x4 DUP3 ADD MSTORE PUSH1 0x20 DUP2 PUSH1 0x24 DUP2 PUSH1 0x1 PUSH1 0x1 PUSH1 0xA0 SHL SUB DUP12 AND GAS STATICCALL SWAP1 DUP2 ISZERO PUSH2 0x2FB JUMPI PUSH1 0x0 SWAP2 PUSH2 0x1862 JUMPI JUMPDEST POP PUSH1 0x1 PUSH1 0x1 PUSH1 0xA0 SHL SUB CALLER SWAP2 AND SUB PUSH2 0x181E JUMPI PUSH1 0x40 MLOAD PUSH4 0x20604BF PUSH1 0xE2 SHL DUP2 MSTORE PUSH1 0x24 CALLDATALOAD PUSH1 0x4 DUP3 ADD MSTORE PUSH1 0x20 DUP2 PUSH1 0x24 DUP2 PUSH1 0x1 PUSH1 0x1 PUSH1 0xA0 SHL SUB DUP12 AND GAS STATICCALL SWAP1 DUP2 ISZERO PUSH2 0x2FB JUMPI PUSH1 0x0 SWAP2 PUSH2 0x17EF JUMPI JUMPDEST POP PUSH1 0x1 PUSH1 0x1 PUSH1 0xA0 SHL SUB AND ADDRESS EQ DUP1 ISZERO PUSH2 0x177A JUMPI JUMPDEST PUSH2 0x1150 SWAP1 PUSH2 0x2D8B JUMP JUMPDEST PUSH1 0x1 PUSH1 0x1 PUSH1 0xA0 SHL SUB DUP7 AND EXTCODESIZE ISZERO PUSH2 0x163 JUMPI PUSH1 0x40 MLOAD PUSH4 0x21421707 PUSH1 0xE1 SHL DUP2 MSTORE CALLER PUSH1 0x4 DUP3 ADD MSTORE ADDRESS PUSH1 0x24 DUP1 DUP4 ADD SWAP2 SWAP1 SWAP2 MSTORE CALLDATALOAD PUSH1 0x44 DUP3 ADD MSTORE PUSH1 0x0 DUP2 PUSH1 0x64 DUP2 DUP4 PUSH1 0x1 PUSH1 0x1 PUSH1 0xA0 SHL SUB DUP13 AND GAS CALL DUP1 ISZERO PUSH2 0x2FB JUMPI PUSH2 0x1769 JUMPI JUMPDEST POP PUSH2 0x11BB PUSH1 0x2 SLOAD SWAP5 PUSH2 0x11B2 DUP7 PUSH2 0x2DD6 JUMP JUMPDEST PUSH1 0x2 SSTORE TIMESTAMP PUSH2 0x2DE5 JUMP JUMPDEST PUSH2 0x1278 PUSH1 0x20 SWAP7 PUSH1 0x40 MLOAD SWAP6 PUSH2 0x11CF DUP10 DUP9 PUSH2 0x2A02 JUMP JUMPDEST PUSH1 0x0 DUP8 MSTORE PUSH1 0x0 CALLDATASIZE DUP2 CALLDATACOPY PUSH1 0x40 MLOAD SWAP7 PUSH2 0x11E5 DUP9 PUSH2 0x29C9 JUMP JUMPDEST DUP9 DUP9 MSTORE PUSH1 0x0 DUP11 DUP10 ADD MSTORE PUSH1 0x1 PUSH1 0x1 PUSH1 0xA0 SHL SUB DUP12 AND PUSH1 0x40 DUP10 ADD MSTORE PUSH1 0x24 CALLDATALOAD PUSH1 0x60 DUP10 ADD MSTORE PUSH1 0x80 DUP9 ADD MSTORE CALLER PUSH1 0xA0 DUP9 ADD MSTORE PUSH1 0x44 CALLDATALOAD PUSH1 0xC0 DUP9 ADD MSTORE PUSH1 0x64 CALLDATALOAD PUSH1 0xE0 DUP9 ADD MSTORE PUSH1 0x84 CALLDATALOAD PUSH2 0x100 DUP9 ADD MSTORE TIMESTAMP PUSH2 0x120 DUP9 ADD MSTORE DUP4 PUSH2 0x140 DUP9 ADD MSTORE PUSH2 0x258 PUSH2 0x160 DUP9 ADD MSTORE PUSH1 0x0 PUSH2 0x180 DUP9 ADD MSTORE PUSH1 0x0 PUSH2 0x1A0 DUP9 ADD MSTORE PUSH1 0x0 PUSH2 0x1C0 DUP9 ADD MSTORE PUSH1 0x0 PUSH2 0x1E0 DUP9 ADD MSTORE PUSH2 0x126B CALLDATASIZE DUP8 DUP8 PUSH2 0x2A24 JUMP JUMPDEST PUSH2 0x200 DUP9 ADD MSTORE CALLDATASIZE SWAP2 PUSH2 0x2A24 JUMP JUMPDEST PUSH2 0x220 DUP6 ADD MSTORE PUSH1 0x0 PUSH2 0x240 DUP6 ADD MSTORE DUP5 PUSH1 0x0 MSTORE PUSH1 0x3 DUP7 MSTORE PUSH1 0x40 PUSH1 0x0 KECCAK256 DUP5 MLOAD DUP2 SSTORE DUP7 DUP6 ADD MLOAD SWAP5 PUSH1 0x2 DUP7 LT ISZERO PUSH2 0x3E1 JUMPI PUSH1 0x0 SWAP6 PUSH1 0x1 DUP4 ADD SLOAD PUSH21 0xFFFFFFFFFFFFFFFFFFFFFFFFFFFFFFFFFFFFFFFFFF NOT PUSH1 0xFF PUSH21 0xFFFFFFFFFFFFFFFFFFFFFFFFFFFFFFFFFFFFFFFF00 PUSH1 0x40 DUP7 ADD MLOAD PUSH1 0x8 SHL AND SWAP4 AND SWAP2 AND OR OR PUSH1 0x1 DUP4 ADD SSTORE PUSH1 0x60 DUP2 ADD MLOAD PUSH1 0x2 DUP4 ADD SSTORE PUSH1 0x80 DUP2 ADD MLOAD DUP1 MLOAD SWAP1 PUSH8 0xFFFFFFFFFFFFFFFF DUP3 GT PUSH2 0x1668 JUMPI PUSH9 0x10000000000000000 DUP3 GT PUSH2 0x1668 JUMPI DUP10 SWAP1 PUSH1 0x3 DUP6 ADD SLOAD DUP4 PUSH1 0x3 DUP8 ADD SSTORE DUP1 DUP5 LT PUSH2 0x174C JUMPI JUMPDEST POP ADD PUSH1 0x3 DUP5 ADD DUP9 MSTORE DUP10 DUP9 KECCAK256 DUP9 JUMPDEST DUP4 DUP2 LT PUSH2 0x173A JUMPI POP POP POP POP PUSH1 0x1 PUSH1 0x1 PUSH1 0xA0 SHL SUB PUSH1 0xA0 DUP3 ADD MLOAD AND PUSH1 0x1 PUSH1 0x1 PUSH1 0xA0 SHL SUB PUSH1 0x4 DUP5 ADD SWAP2 AND PUSH1 0x1 PUSH1 0x1 PUSH1 0xA0 SHL SUB NOT DUP3 SLOAD AND OR SWAP1 SSTORE PUSH1 0xC0 DUP2 ADD MLOAD PUSH1 0x5 DUP4 ADD SSTORE PUSH1 0xE0 DUP2 ADD MLOAD PUSH1 0x6 DUP4 ADD SSTORE PUSH2 0x100 DUP2 ADD MLOAD PUSH1 0x7 DUP4 ADD SSTORE PUSH2 0x120 DUP2 ADD MLOAD PUSH1 0x8 DUP4 ADD SSTORE PUSH2 0x140 DUP2 ADD MLOAD PUSH1 0x9 DUP4 ADD SSTORE PUSH2 0x160 DUP2 ADD MLOAD PUSH1 0xA DUP4 ADD SSTORE PUSH2 0x180 DUP2 ADD MLOAD PUSH1 0x3 DUP2 LT ISZERO PUSH2 0x1726 JUMPI PUSH2 0x13D5 SWAP1 PUSH1 0xB DUP5 ADD PUSH2 0x2E21 JUMP JUMPDEST PUSH2 0x1A0 DUP2 ADD MLOAD PUSH1 0xC DUP4 ADD SSTORE PUSH1 0x1 PUSH1 0x1 PUSH1 0xA0 SHL SUB PUSH2 0x1C0 DUP3 ADD MLOAD AND PUSH1 0x1 PUSH1 0x1 PUSH1 0xA0 SHL SUB PUSH1 0xD DUP5 ADD SWAP2 AND PUSH1 0x1 PUSH1 0x1 PUSH1 0xA0 SHL SUB NOT DUP3 SLOAD AND OR SWAP1 SSTORE PUSH2 0x1E0 DUP2 ADD MLOAD PUSH1 0xE DUP4 ADD SSTORE PUSH2 0x200 DUP2 ADD MLOAD DUP1 MLOAD SWAP1 PUSH8 0xFFFFFFFFFFFFFFFF DUP3 GT PUSH2 0x1668 JUMPI DUP2 SWAP1 PUSH2 0x143E PUSH1 0xF DUP7 ADD SLOAD PUSH2 0x2A99 JUMP JUMPDEST DUP12 PUSH1 0x1F DUP3 GT PUSH2 0x16F5 JUMPI JUMPDEST POP POP DUP11 SWAP1 PUSH1 0x1F DUP4 GT PUSH1 0x1 EQ PUSH2 0x1687 JUMPI DUP10 SWAP3 PUSH2 0x167C JUMPI JUMPDEST POP POP DUP2 PUSH1 0x1 SHL SWAP2 PUSH1 0x0 NOT SWAP1 PUSH1 0x3 SHL SHR NOT AND OR PUSH1 0xF DUP4 ADD SSTORE JUMPDEST PUSH2 0x220 DUP2 ADD MLOAD DUP1 MLOAD SWAP1 PUSH8 0xFFFFFFFFFFFFFFFF DUP3 GT PUSH2 0x1668 JUMPI PUSH2 0x149B PUSH1 0x10 DUP6 ADD SLOAD PUSH2 0x2A99 JUMP JUMPDEST PUSH1 0x1F DUP2 GT PUSH2 0x162C JUMPI JUMPDEST POP DUP10 SWAP1 PUSH1 0x1F DUP4 GT PUSH1 0x1 EQ PUSH2 0x15BA JUMPI SWAP2 DUP1 PUSH1 0x11 SWAP5 SWAP3 PUSH2 0x240 SWAP5 DUP12 SWAP3 PUSH2 0x15AF JUMPI JUMPDEST POP POP DUP2 PUSH1 0x1 SHL SWAP2 PUSH1 0x0 NOT SWAP1 PUSH1 0x3 SHL SHR NOT AND OR PUSH1 0x10 DUP6 ADD SSTORE JUMPDEST ADD MLOAD SWAP2 ADD SSTORE CALLER DUP5 MSTORE PUSH1 0x6 DUP7 MSTORE PUSH2 0x14F4 DUP6 PUSH1 0x40 DUP7 KECCAK256 PUSH2 0x2E39 JUMP JUMPDEST PUSH1 0x40 MLOAD SWAP7 PUSH2 0x1502 DUP8 DUP10 PUSH2 0x2A02 JUMP JUMPDEST DUP5 DUP9 MSTORE DUP5 CALLDATASIZE DUP2 CALLDATACOPY PUSH1 0x40 MLOAD SWAP2 PUSH1 0xC0 DUP4 ADD DUP7 DUP5 MSTORE PUSH1 0x24 CALLDATALOAD DUP10 DUP6 ADD MSTORE PUSH1 0xC0 PUSH1 0x40 DUP6 ADD MSTORE DUP10 MLOAD DUP1 SWAP2 MSTORE DUP9 PUSH1 0xE0 DUP6 ADD SWAP11 ADD SWAP1 DUP8 JUMPDEST DUP2 DUP2 LT PUSH2 0x159B JUMPI POP POP POP SWAP2 DUP1 PUSH2 0x158F DUP9 SWAP10 SWAP11 PUSH1 0x1 PUSH1 0x1 PUSH1 0xA0 SHL SUB PUSH32 0xED64E6C300AB5F25F3A8E69B83450E8787C7246008FFD6B98A2E36EE7AABDDB6 SWAP6 PUSH1 0x1 SWAP12 SWAP8 PUSH1 0x44 CALLDATALOAD PUSH1 0x60 DUP8 ADD MSTORE PUSH1 0x80 DUP7 ADD MSTORE DUP5 DUP4 SUB PUSH1 0xA0 DUP7 ADD MSTORE AND SWAP8 CALLER SWAP8 PUSH2 0x2E73 JUMP JUMPDEST SUB SWAP1 LOG4 SSTORE PUSH1 0x40 MLOAD SWAP1 DUP2 MSTORE RETURN JUMPDEST DUP3 MLOAD DUP13 MSTORE SWAP11 DUP11 ADD SWAP11 SWAP2 DUP11 ADD SWAP2 PUSH1 0x1 ADD PUSH2 0x1531 JUMP JUMPDEST ADD MLOAD SWAP1 POP DUP14 DUP1 PUSH2 0x14C3 JUMP JUMPDEST SWAP1 PUSH1 0x10 DUP6 ADD DUP10 MSTORE DUP11 DUP10 KECCAK256 SWAP2 DUP10 JUMPDEST DUP13 PUSH1 0x1F NOT DUP7 AND DUP3 LT PUSH2 0x1616 JUMPI POP POP SWAP3 PUSH1 0x11 SWAP5 SWAP3 PUSH1 0x1 SWAP3 PUSH2 0x240 SWAP6 DUP4 PUSH1 0x1F NOT DUP2 AND LT PUSH2 0x15FD JUMPI JUMPDEST POP POP POP DUP2 SHL ADD PUSH1 0x10 DUP6 ADD SSTORE PUSH2 0x14DB JUMP JUMPDEST ADD MLOAD PUSH1 0x0 NOT PUSH1 0xF8 DUP5 PUSH1 0x3 SHL AND SHR NOT AND SWAP1 SSTORE DUP14 DUP1 DUP1 PUSH2 0x15ED JUMP JUMPDEST PUSH1 0x1 DUP5 SWAP6 DUP3 SWAP4 SWAP6 DUP6 ADD MLOAD DUP2 SSTORE ADD SWAP5 ADD SWAP3 ADD PUSH2 0x15C7 JUMP JUMPDEST PUSH2 0x1658 SWAP1 PUSH1 0x10 DUP7 ADD DUP11 MSTORE DUP12 DUP11 KECCAK256 PUSH1 0x1F DUP6 ADD PUSH1 0x5 SHR DUP2 ADD SWAP2 DUP14 DUP7 LT PUSH2 0x165E JUMPI JUMPDEST PUSH1 0x1F ADD PUSH1 0x5 SHR ADD SWAP1 PUSH2 0x2E0A JUMP JUMPDEST DUP12 PUSH2 0x14A4 JUMP JUMPDEST SWAP1 SWAP2 POP DUP2 SWAP1 PUSH2 0x164B JUMP JUMPDEST PUSH1 0x24 DUP9 PUSH4 0x4E487B71 PUSH1 0xE0 SHL DUP2 MSTORE PUSH1 0x41 PUSH1 0x4 MSTORE REVERT JUMPDEST ADD MLOAD SWAP1 POP DUP12 DUP1 PUSH2 0x145E JUMP JUMPDEST SWAP3 POP PUSH1 0xF DUP6 ADD DUP10 MSTORE DUP11 DUP10 KECCAK256 SWAP1 DUP10 SWAP4 JUMPDEST DUP13 PUSH1 0x1F NOT DUP6 AND DUP7 LT PUSH2 0x16DC JUMPI POP PUSH1 0x1 SWAP5 POP DUP4 PUSH1 0x1F NOT DUP2 AND LT PUSH2 0x16C3 JUMPI JUMPDEST POP POP POP DUP2 SHL ADD PUSH1 0xF DUP4 ADD SSTORE PUSH2 0x1476 JUMP JUMPDEST ADD MLOAD PUSH1 0x0 NOT PUSH1 0xF8 DUP5 PUSH1 0x3 SHL AND SHR NOT AND SWAP1 SSTORE DUP12 DUP1 DUP1 PUSH2 0x16B3 JUMP JUMPDEST DUP3 DUP3 ADD MLOAD DUP5 SSTORE SWAP5 DUP6 ADD SWAP5 PUSH1 0x1 SWAP1 SWAP4 ADD SWAP3 SWAP1 SWAP2 ADD SWAP1 PUSH2 0x1696 JUMP JUMPDEST PUSH1 0xF DUP8 ADD DUP12 MSTORE DUP1 DUP12 KECCAK256 PUSH2 0x171F SWAP3 PUSH1 0x1F DUP7 ADD PUSH1 0x5 SHR DUP3 ADD SWAP3 DUP7 LT PUSH2 0x165E JUMPI PUSH1 0x1F ADD PUSH1 0x5 SHR ADD SWAP1 PUSH2 0x2E0A JUMP JUMPDEST DUP13 DUP12 PUSH2 0x1448 JUMP JUMPDEST PUSH1 0x24 DUP8 PUSH4 0x4E487B71 PUSH1 0xE0 SHL DUP2 MSTORE PUSH1 0x21 PUSH1 0x4 MSTORE REVERT JUMPDEST DUP3 MLOAD DUP3 DUP3 ADD SSTORE SWAP2 DUP12 ADD SWAP2 PUSH1 0x1 ADD PUSH2 0x1343 JUMP JUMPDEST PUSH1 0x3 DUP7 ADD DUP11 MSTORE DUP3 DUP11 KECCAK256 PUSH2 0x1763 SWAP2 DUP2 ADD SWAP1 DUP6 ADD PUSH2 0x2E0A JUMP JUMPDEST DUP13 PUSH2 0x1336 JUMP JUMPDEST PUSH1 0x0 PUSH2 0x1774 SWAP2 PUSH2 0x2A02 JUMP JUMPDEST DUP7 PUSH2 0x11A1 JUMP JUMPDEST POP PUSH1 0x40 MLOAD PUSH4 0xE985E9C5 PUSH1 0xE0 SHL DUP2 MSTORE CALLER PUSH1 0x4 DUP3 ADD MSTORE ADDRESS PUSH1 0x24 DUP3 ADD MSTORE PUSH1 0x20 DUP2 PUSH1 0x44 DUP2 PUSH1 0x1 PUSH1 0x1 PUSH1 0xA0 SHL SUB DUP12 AND GAS STATICCALL DUP1 ISZERO PUSH2 0x2FB JUMPI PUSH2 0x1150 SWAP2 PUSH1 0x0 SWAP2 PUSH2 0x17C0 JUMPI JUMPDEST POP SWAP1 POP PUSH2 0x1147 JUMP JUMPDEST PUSH2 0x17E2 SWAP2 POP PUSH1 0x20 RETURNDATASIZE PUSH1 0x20 GT PUSH2 0x17E8 JUMPI JUMPDEST PUSH2 0x17DA DUP2 DUP4 PUSH2 0x2A02 JUMP JUMPDEST DUP2 ADD SWAP1 PUSH2 0x2D73 JUMP JUMPDEST DUP9 PUSH2 0x17B8 JUMP JUMPDEST POP RETURNDATASIZE PUSH2 0x17D0 JUMP JUMPDEST PUSH2 0x1811 SWAP2 POP PUSH1 0x20 RETURNDATASIZE PUSH1 0x20 GT PUSH2 0x1817 JUMPI JUMPDEST PUSH2 0x1809 DUP2 DUP4 PUSH2 0x2A02 JUMP JUMPDEST DUP2 ADD SWAP1 PUSH2 0x2D54 JUMP JUMPDEST DUP8 PUSH2 0x1134 JUMP JUMPDEST POP RETURNDATASIZE PUSH2 0x17FF JUMP JUMPDEST PUSH1 0x64 PUSH1 0x40 MLOAD PUSH3 0x461BCD PUSH1 0xE5 SHL DUP2 MSTORE PUSH1 0x20 PUSH1 0x4 DUP3 ADD MSTORE PUSH1 0xD PUSH1 0x24 DUP3 ADD MSTORE PUSH32 0x4E6F74204E4654206F776E657200000000000000000000000000000000000000 PUSH1 0x44 DUP3 ADD MSTORE REVERT JUMPDEST PUSH2 0x187B SWAP2 POP PUSH1 0x20 RETURNDATASIZE PUSH1 0x20 GT PUSH2 0x1817 JUMPI PUSH2 0x1809 DUP2 DUP4 PUSH2 0x2A02 JUMP JUMPDEST DUP8 PUSH2 0x10ED JUMP JUMPDEST PUSH1 0x64 PUSH1 0x40 MLOAD PUSH3 0x461BCD PUSH1 0xE5 SHL DUP2 MSTORE PUSH1 0x20 PUSH1 0x4 DUP3 ADD MSTORE PUSH1 0xE PUSH1 0x24 DUP3 ADD MSTORE PUSH32 0x5469746C65207265717569726564000000000000000000000000000000000000 PUSH1 0x44 DUP3 ADD MSTORE REVERT JUMPDEST POP PUSH1 0x44 CALLDATALOAD PUSH1 0x64 CALLDATALOAD LT ISZERO PUSH2 0x1093 JUMP JUMPDEST POP PUSH3 0x278D00 DUP5 GT ISZERO PUSH2 0x107F JUMP JUMPDEST CALLVALUE PUSH2 0x163 JUMPI PUSH2 0x18EE CALLDATASIZE PUSH2 0x2BB8 JUMP JUMPDEST SWAP1 PUSH1 0x0 MSTORE PUSH1 0x4 PUSH1 0x20 MSTORE PUSH1 0x40 PUSH1 0x0 KECCAK256 DUP1 SLOAD DUP3 LT ISZERO PUSH2 0x163 JUMPI PUSH1 0x80 SWAP2 PUSH2 0x1911 SWAP2 PUSH2 0x2BCE JUMP JUMPDEST POP PUSH1 0x1 PUSH1 0x1 PUSH1 0xA0 SHL SUB DUP2 SLOAD AND SWAP1 PUSH1 0x1 DUP2 ADD SLOAD SWAP1 PUSH1 0x3 PUSH1 0x2 DUP3 ADD SLOAD SWAP2 ADD SLOAD SWAP2 PUSH1 0x40 MLOAD SWAP4 DUP5 MSTORE PUSH1 0x20 DUP5 ADD MSTORE PUSH1 0x40 DUP4 ADD MSTORE PUSH1 0x60 DUP3 ADD MSTORE RETURN JUMPDEST PUSH2 0x194F CALLDATASIZE PUSH2 0x2BB8 JUMP JUMPDEST SWAP1 PUSH2 0x1958 PUSH2 0x2F37 JUMP JUMPDEST DUP1 PUSH1 0x0 MSTORE PUSH1 0x3 PUSH1 0x20 MSTORE PUSH1 0x40 PUSH1 0x0 KECCAK256 PUSH1 0xFF PUSH1 0xB DUP3 ADD SLOAD AND PUSH1 0x3 DUP2 LT ISZERO PUSH2 0x3E1 JUMPI PUSH2 0x1981 SWAP1 ISZERO PUSH2 0x2E94 JUMP JUMPDEST PUSH1 0x9 DUP2 ADD SWAP1 DUP2 SLOAD TIMESTAMP LT ISZERO PUSH2 0x1D1B JUMPI PUSH1 0x1 PUSH1 0x1 PUSH1 0xA0 SHL SUB PUSH1 0x4 DUP3 ADD SLOAD AND CALLER EQ PUSH2 0x1CD7 JUMPI PUSH1 0x5 DUP2 ADD SLOAD DUP1 CALLVALUE SUB PUSH2 0x1C93 JUMPI PUSH1 0x7 DUP3 ADD SLOAD PUSH2 0x19BD SWAP2 PUSH2 0x2DE5 JUMP JUMPDEST DUP5 LT PUSH2 0x1C4F JUMPI PUSH1 0xC DUP2 ADD PUSH2 0x3E8 DUP2 SLOAD LT ISZERO PUSH2 0x1C0B JUMPI PUSH1 0x0 DUP5 DUP2 MSTORE PUSH1 0x5 PUSH1 0x20 SWAP1 DUP2 MSTORE PUSH1 0x40 DUP1 DUP4 KECCAK256 CALLER DUP5 MSTORE SWAP1 SWAP2 MSTORE SWAP1 KECCAK256 SLOAD SWAP1 DUP2 ISZERO PUSH2 0x1ADC JUMPI POP DUP4 PUSH1 0x0 MSTORE PUSH1 0x4 PUSH1 0x20 MSTORE PUSH1 0x40 PUSH1 0x0 KECCAK256 SWAP1 PUSH1 0x0 NOT DUP2 ADD SWAP1 DUP2 GT PUSH2 0x3F7 JUMPI PUSH2 0x1A18 SWAP2 PUSH2 0x2BCE JUMP JUMPDEST POP PUSH1 0x1 DUP2 ADD DUP1 SLOAD DUP7 GT ISZERO PUSH2 0x1A98 JUMPI DUP6 SWAP1 SSTORE PUSH1 0x2 TIMESTAMP SWAP2 ADD SSTORE JUMPDEST PUSH1 0xA DUP3 SLOAD SWAP2 ADD SLOAD PUSH2 0x1A41 DUP2 DUP4 PUSH2 0x2EDF JUMP JUMPDEST TIMESTAMP LT ISZERO PUSH2 0x1A85 JUMPI JUMPDEST POP POP POP PUSH1 0x40 MLOAD SWAP2 DUP3 MSTORE TIMESTAMP PUSH1 0x20 DUP4 ADD MSTORE PUSH32 0x51DB8E23B3F4479B162FD48823B8402895442B8F6CFD94F66239391881EC7B6F PUSH1 0x40 CALLER SWAP4 LOG3 PUSH1 0x1 PUSH1 0x0 SSTORE STOP JUMPDEST PUSH2 0x1A8E SWAP2 PUSH2 0x2DE5 JUMP JUMPDEST SWAP1 SSTORE DUP3 DUP1 DUP1 PUSH2 0x1A49 JUMP JUMPDEST PUSH1 0x64 PUSH1 0x40 MLOAD PUSH3 0x461BCD PUSH1 0xE5 SHL DUP2 MSTORE PUSH1 0x20 PUSH1 0x4 DUP3 ADD MSTORE PUSH1 0x16 PUSH1 0x24 DUP3 ADD MSTORE PUSH32 0x4E657720626964206D7573742062652068696768657200000000000000000000 PUSH1 0x44 DUP3 ADD MSTORE REVERT JUMPDEST SWAP1 POP DUP4 PUSH1 0x0 MSTORE PUSH1 0x4 PUSH1 0x20 MSTORE PUSH1 0x40 PUSH1 0x0 KECCAK256 PUSH1 0x40 MLOAD PUSH2 0x1AF8 DUP2 PUSH2 0x29E6 JUMP JUMPDEST CALLER DUP2 MSTORE PUSH1 0x20 DUP2 ADD SWAP2 DUP8 DUP4 MSTORE PUSH1 0x40 DUP3 ADD TIMESTAMP DUP2 MSTORE PUSH1 0x60 DUP4 ADD SWAP2 CALLVALUE DUP4 MSTORE DUP1 SLOAD PUSH9 0x10000000000000000 DUP2 LT ISZERO PUSH2 0x1BF5 JUMPI PUSH2 0x1B34 SWAP2 PUSH1 0x1 DUP3 ADD DUP2 SSTORE PUSH2 0x2BCE JUMP JUMPDEST SWAP5 SWAP1 SWAP5 PUSH2 0x1BDF JUMPI PUSH1 0x1 PUSH1 0x1 PUSH1 0xA0 SHL SUB DUP1 PUSH1 0x3 SWAP6 MLOAD AND AND PUSH1 0x1 PUSH1 0x1 PUSH1 0xA0 SHL SUB NOT DUP7 SLOAD AND OR DUP6 SSTORE MLOAD PUSH1 0x1 DUP6 ADD SSTORE MLOAD PUSH1 0x2 DUP5 ADD SSTORE MLOAD SWAP2 ADD SSTORE DUP4 PUSH1 0x0 MSTORE PUSH1 0x4 PUSH1 0x20 MSTORE PUSH1 0x40 PUSH1 0x0 KECCAK256 SLOAD DUP5 PUSH1 0x0 MSTORE PUSH1 0x5 PUSH1 0x20 MSTORE PUSH1 0x40 PUSH1 0x0 KECCAK256 PUSH1 0x1 PUSH1 0x1 PUSH1 0xA0 SHL SUB CALLER AND PUSH1 0x0 MSTORE PUSH1 0x20 MSTORE PUSH1 0x40 PUSH1 0x0 KECCAK256 SSTORE PUSH2 0x1BA6 DUP2 SLOAD PUSH2 0x2DD6 JUMP JUMPDEST SWAP1 SSTORE CALLER PUSH1 0x0 MSTORE PUSH1 0x7 PUSH1 0x20 MSTORE PUSH2 0x1BBF DUP4 PUSH1 0x40 PUSH1 0x0 KECCAK256 PUSH2 0x2E39 JUMP JUMPDEST DUP3 PUSH1 0x0 MSTORE PUSH1 0x8 PUSH1 0x20 MSTORE PUSH1 0x40 PUSH1 0x0 KECCAK256 PUSH2 0x1BD8 CALLVALUE DUP3 SLOAD PUSH2 0x2DE5 JUMP JUMPDEST SWAP1 SSTORE PUSH2 0x1A30 JUMP JUMPDEST PUSH4 0x4E487B71 PUSH1 0xE0 SHL PUSH1 0x0 MSTORE PUSH1 0x0 PUSH1 0x4 MSTORE PUSH1 0x24 PUSH1 0x0 REVERT JUMPDEST PUSH4 0x4E487B71 PUSH1 0xE0 SHL PUSH1 0x0 MSTORE PUSH1 0x41 PUSH1 0x4 MSTORE PUSH1 0x24 PUSH1 0x0 REVERT JUMPDEST PUSH1 0x64 PUSH1 0x40 MLOAD PUSH3 0x461BCD PUSH1 0xE5 SHL DUP2 MSTORE PUSH1 0x20 PUSH1 0x4 DUP3 ADD MSTORE PUSH1 0x10 PUSH1 0x24 DUP3 ADD MSTORE PUSH32 0x4D61782062696473207265616368656400000000000000000000000000000000 PUSH1 0x44 DUP3 ADD MSTORE REVERT JUMPDEST PUSH1 0x64 PUSH1 0x40 MLOAD PUSH3 0x461BCD PUSH1 0xE5 SHL DUP2 MSTORE PUSH1 0x20 PUSH1 0x4 DUP3 ADD MSTORE PUSH1 0xB PUSH1 0x24 DUP3 ADD MSTORE PUSH32 0x42696420746F6F206C6F77000000000000000000000000000000000000000000 PUSH1 0x44 DUP3 ADD MSTORE REVERT JUMPDEST PUSH1 0x64 PUSH1 0x40 MLOAD PUSH3 0x461BCD PUSH1 0xE5 SHL DUP2 MSTORE PUSH1 0x20 PUSH1 0x4 DUP3 ADD MSTORE PUSH1 0x11 PUSH1 0x24 DUP3 ADD MSTORE PUSH32 0x496E636F7272656374206465706F736974000000000000000000000000000000 PUSH1 0x44 DUP3 ADD MSTORE REVERT JUMPDEST PUSH1 0x64 PUSH1 0x40 MLOAD PUSH3 0x461BCD PUSH1 0xE5 SHL DUP2 MSTORE PUSH1 0x20 PUSH1 0x4 DUP3 ADD MSTORE PUSH1 0x11 PUSH1 0x24 DUP3 ADD MSTORE PUSH32 0x53656C6C65722063616E6E6F7420626964000000000000000000000000000000 PUSH1 0x44 DUP3 ADD MSTORE REVERT JUMPDEST PUSH1 0x64 PUSH1 0x40 MLOAD PUSH3 0x461BCD PUSH1 0xE5 SHL DUP2 MSTORE PUSH1 0x20 PUSH1 0x4 DUP3 ADD MSTORE PUSH1 0xD PUSH1 0x24 DUP3 ADD MSTORE PUSH32 0x41756374696F6E20656E64656400000000000000000000000000000000000000 PUSH1 0x44 DUP3 ADD MSTORE REVERT JUMPDEST CALLVALUE PUSH2 0x163 JUMPI PUSH1 0x20 CALLDATASIZE PUSH1 0x3 NOT ADD SLT PUSH2 0x163 JUMPI PUSH1 0x4 CALLDATALOAD PUSH1 0x0 MSTORE PUSH1 0x3 PUSH1 0x20 MSTORE PUSH1 0x40 PUSH1 0x0 KECCAK256 DUP1 SLOAD PUSH1 0xC0 MSTORE PUSH1 0x1 DUP2 ADD SLOAD SWAP1 PUSH1 0x2 DUP2 ADD SLOAD SWAP1 PUSH1 0x4 DUP2 ADD SLOAD PUSH1 0x1 PUSH1 0x1 PUSH1 0xA0 SHL SUB AND PUSH1 0x5 DUP3 ADD SLOAD SWAP3 PUSH1 0x6 DUP4 ADD SLOAD SWAP2 PUSH1 0x7 DUP5 ADD SLOAD PUSH1 0x8 DUP6 ADD SLOAD PUSH1 0x9 DUP7 ADD SLOAD SWAP1 PUSH1 0xA DUP8 ADD SLOAD SWAP3 PUSH1 0xB DUP9 ADD SLOAD PUSH1 0xFF AND SWAP7 PUSH1 0xC DUP10 ADD SLOAD SWAP10 PUSH1 0xD DUP11 ADD SLOAD PUSH1 0x1 PUSH1 0x1 PUSH1 0xA0 SHL SUB AND PUSH1 0x80 MSTORE PUSH1 0xE DUP11 ADD SLOAD SWAP7 PUSH1 0xF DUP12 ADD PUSH2 0x1DF4 SWAP1 PUSH2 0x2AD3 JUMP JUMPDEST SWAP9 PUSH2 0x1E01 PUSH1 0x10 DUP14 ADD PUSH2 0x2AD3 JUMP JUMPDEST SWAP12 PUSH1 0x11 ADD SLOAD SWAP14 PUSH1 0x40 MLOAD PUSH1 0xA0 MSTORE PUSH1 0xC0 MLOAD PUSH1 0xA0 MLOAD MSTORE PUSH1 0xFF DUP2 AND PUSH1 0x2 GT ISZERO PUSH2 0x3E1 JUMPI DUP1 PUSH1 0xFF PUSH1 0x1 PUSH1 0x1 PUSH1 0xA0 SHL SUB SWAP3 AND PUSH1 0x20 PUSH1 0xA0 MLOAD ADD MSTORE PUSH1 0x8 SHR AND PUSH1 0x40 PUSH1 0xA0 MLOAD ADD MSTORE PUSH1 0x60 PUSH1 0xA0 MLOAD ADD MSTORE PUSH1 0x80 PUSH1 0xA0 MLOAD ADD MSTORE PUSH1 0xA0 DUP1 MLOAD ADD MSTORE PUSH1 0xC0 PUSH1 0xA0 MLOAD ADD MSTORE PUSH1 0xE0 PUSH1 0xA0 MLOAD ADD MSTORE PUSH2 0x100 PUSH1 0xA0 MLOAD ADD MSTORE PUSH2 0x120 PUSH1 0xA0 MLOAD ADD MSTORE PUSH2 0x140 PUSH1 0xA0 MLOAD ADD MSTORE PUSH1 0x3 DUP4 LT ISZERO PUSH2 0x3E1 JUMPI PUSH2 0x1ED8 SWAP5 PUSH2 0x1EC5 SWAP4 PUSH2 0x160 PUSH1 0xA0 MLOAD ADD MSTORE PUSH2 0x180 PUSH1 0xA0 MLOAD ADD MSTORE PUSH1 0x80 MLOAD PUSH2 0x1A0 PUSH1 0xA0 MLOAD ADD MSTORE PUSH2 0x1C0 PUSH1 0xA0 MLOAD ADD MSTORE PUSH2 0x240 PUSH2 0x1E0 PUSH1 0xA0 MLOAD ADD MSTORE PUSH2 0x240 PUSH1 0xA0 MLOAD ADD SWAP1 PUSH2 0x2B77 JUMP JUMPDEST SWAP1 PUSH1 0xA0 MLOAD DUP3 SUB PUSH2 0x200 PUSH1 0xA0 MLOAD ADD MSTORE PUSH2 0x2B77 JUMP JUMPDEST SWAP1 PUSH2 0x220 PUSH1 0xA0 MLOAD ADD MSTORE PUSH1 0xA0 MLOAD SWAP1 SUB PUSH1 0xA0 MLOAD RETURN JUMPDEST CALLVALUE PUSH2 0x163 JUMPI PUSH1 0x0 CALLDATASIZE PUSH1 0x3 NOT ADD SLT PUSH2 0x163 JUMPI PUSH1 0x20 PUSH1 0x40 MLOAD PUSH1 0x64 DUP2 MSTORE RETURN JUMPDEST CALLVALUE PUSH2 0x163 JUMPI PUSH1 0x0 CALLDATASIZE PUSH1 0x3 NOT ADD SLT PUSH2 0x163 JUMPI PUSH1 0x20 PUSH1 0x40 MLOAD PUSH3 0x278D00 DUP2 MSTORE RETURN JUMPDEST CALLVALUE PUSH2 0x163 JUMPI PUSH1 0x0 CALLDATASIZE PUSH1 0x3 NOT ADD SLT PUSH2 0x163 JUMPI PUSH1 0x20 PUSH1 0x40 MLOAD PUSH1 0xFA DUP2 MSTORE RETURN JUMPDEST CALLVALUE PUSH2 0x163 JUMPI PUSH1 0x0 CALLDATASIZE PUSH1 0x3 NOT ADD SLT PUSH2 0x163 JUMPI PUSH1 0x20 PUSH1 0x40 MLOAD PUSH2 0x3E8 DUP2 MSTORE RETURN JUMPDEST CALLVALUE PUSH2 0x163 JUMPI PUSH2 0x100 CALLDATASIZE PUSH1 0x3 NOT ADD SLT PUSH2 0x163 JUMPI PUSH2 0x1F78 PUSH2 0x299D JUMP JUMPDEST PUSH1 0x24 CALLDATALOAD SWAP1 PUSH8 0xFFFFFFFFFFFFFFFF DUP3 GT PUSH2 0x163 JUMPI CALLDATASIZE PUSH1 0x23 DUP4 ADD SLT ISZERO PUSH2 0x163 JUMPI PUSH8 0xFFFFFFFFFFFFFFFF DUP3 PUSH1 0x4 ADD CALLDATALOAD GT PUSH2 0x163 JUMPI CALLDATASIZE PUSH1 0x24 DUP4 PUSH1 0x4 ADD CALLDATALOAD PUSH1 0x5 SHL DUP5 ADD ADD GT PUSH2 0x163 JUMPI PUSH1 0xC4 CALLDATALOAD PUSH8 0xFFFFFFFFFFFFFFFF DUP2 GT PUSH2 0x163 JUMPI PUSH2 0x1FDC SWAP1 CALLDATASIZE SWAP1 PUSH1 0x4 ADD PUSH2 0x2A6B JUMP JUMPDEST SWAP1 PUSH1 0xE4 CALLDATALOAD PUSH8 0xFFFFFFFFFFFFFFFF DUP2 GT PUSH2 0x163 JUMPI PUSH2 0x1FFD SWAP1 CALLDATASIZE SWAP1 PUSH1 0x4 ADD PUSH2 0x2A6B JUMP JUMPDEST SWAP5 SWAP1 SWAP2 PUSH2 0x2008 PUSH2 0x2F37 JUMP JUMPDEST PUSH2 0x2014 PUSH2 0x106E DUP7 PUSH2 0x2F72 JUMP JUMPDEST PUSH2 0xE10 PUSH1 0xA4 CALLDATALOAD LT ISZERO DUP1 PUSH2 0x290F JUMPI JUMPDEST PUSH2 0x202B SWAP1 PUSH2 0x2C63 JUMP JUMPDEST PUSH1 0x44 CALLDATALOAD ISZERO ISZERO DUP1 PUSH2 0x2901 JUMPI JUMPDEST PUSH2 0x203F SWAP1 PUSH2 0x2CAE JUMP JUMPDEST PUSH2 0x2054 PUSH7 0x38D7EA4C68000 PUSH1 0x84 CALLDATALOAD LT ISZERO PUSH2 0x2CF9 JUMP JUMPDEST DUP4 ISZERO ISZERO DUP1 PUSH2 0x28F3 JUMPI JUMPDEST DUP1 PUSH2 0x28E4 JUMPI JUMPDEST ISZERO PUSH2 0x28A0 JUMPI PUSH1 0x0 JUMPDEST DUP3 PUSH1 0x4 ADD CALLDATALOAD DUP2 LT PUSH2 0x2682 JUMPI POP PUSH1 0x2 SLOAD SWAP5 PUSH2 0x2084 DUP7 PUSH2 0x2DD6 JUMP JUMPDEST PUSH1 0x2 SSTORE PUSH2 0x2093 PUSH1 0xA4 CALLDATALOAD TIMESTAMP PUSH2 0x2DE5 JUMP JUMPDEST SWAP4 PUSH1 0x40 MLOAD SWAP1 PUSH2 0x20A1 DUP3 PUSH2 0x29C9 JUMP JUMPDEST DUP8 DUP3 MSTORE PUSH1 0x1 PUSH1 0x20 DUP4 ADD MSTORE PUSH1 0x1 PUSH1 0x1 PUSH1 0xA0 SHL SUB DUP4 AND PUSH1 0x40 DUP4 ADD MSTORE PUSH1 0x0 PUSH1 0x60 DUP4 ADD MSTORE PUSH2 0x20CE DUP6 PUSH1 0x4 ADD CALLDATALOAD PUSH2 0x2DF2 JUMP JUMPDEST SWAP9 PUSH2 0x20DC PUSH1 0x40 MLOAD SWAP11 DUP12 PUSH2 0x2A02 JUMP JUMPDEST PUSH1 0x4 DUP7 ADD CALLDATALOAD DUP11 MSTORE PUSH1 0x0 SWAP10 PUSH1 0x24 DUP8 ADD PUSH1 0x20 DUP3 ADD JUMPDEST PUSH1 0x24 DUP10 PUSH1 0x4 ADD CALLDATALOAD PUSH1 0x5 SHL DUP11 ADD ADD DUP3 LT PUSH2 0x2672 JUMPI POP POP SWAP1 PUSH2 0x2179 SWAP3 SWAP2 PUSH1 0x80 DUP6 ADD MSTORE CALLER PUSH1 0xA0 DUP6 ADD MSTORE PUSH1 0x44 CALLDATALOAD PUSH1 0xC0 DUP6 ADD MSTORE PUSH1 0x64 CALLDATALOAD PUSH1 0xE0 DUP6 ADD MSTORE PUSH1 0x84 CALLDATALOAD PUSH2 0x100 DUP6 ADD MSTORE TIMESTAMP PUSH2 0x120 DUP6 ADD MSTORE DUP8 PUSH2 0x140 DUP6 ADD MSTORE PUSH2 0x258 PUSH2 0x160 DUP6 ADD MSTORE DUP11 PUSH2 0x180 DUP6 ADD MSTORE DUP11 PUSH2 0x1A0 DUP6 ADD MSTORE DUP11 PUSH2 0x1C0 DUP6 ADD MSTORE DUP11 PUSH2 0x1E0 DUP6 ADD MSTORE PUSH2 0x216C CALLDATASIZE DUP11 DUP9 PUSH2 0x2A24 JUMP JUMPDEST PUSH2 0x200 DUP6 ADD MSTORE CALLDATASIZE SWAP2 PUSH2 0x2A24 JUMP JUMPDEST PUSH2 0x220 DUP3 ADD MSTORE DUP8 PUSH2 0x240 DUP3 ADD MSTORE DUP7 DUP9 MSTORE PUSH1 0x3 PUSH1 0x20 MSTORE PUSH1 0x40 DUP9 KECCAK256 SWAP1 DUP1 MLOAD DUP3 SSTORE PUSH1 0x20 DUP2 ADD MLOAD PUSH1 0x2 DUP2 LT ISZERO PUSH2 0x2618 JUMPI PUSH1 0x1 DUP4 ADD SLOAD PUSH21 0xFFFFFFFFFFFFFFFFFFFFFFFFFFFFFFFFFFFFFFFFFF NOT PUSH1 0xFF PUSH21 0xFFFFFFFFFFFFFFFFFFFFFFFFFFFFFFFFFFFFFFFF00 PUSH1 0x40 DUP7 ADD MLOAD PUSH1 0x8 SHL AND SWAP4 AND SWAP2 AND OR OR PUSH1 0x1 DUP4 ADD SSTORE PUSH1 0x60 DUP2 ADD MLOAD PUSH1 0x2 DUP4 ADD SSTORE PUSH1 0x80 DUP2 ADD MLOAD DUP1 MLOAD SWAP1 PUSH8 0xFFFFFFFFFFFFFFFF DUP3 GT PUSH2 0x265E JUMPI PUSH9 0x10000000000000000 DUP3 GT PUSH2 0x265E JUMPI PUSH1 0x20 SWAP1 DUP12 PUSH1 0x3 DUP7 ADD SLOAD DUP5 PUSH1 0x3 DUP9 ADD SSTORE DUP5 DUP2 DUP2 LT PUSH2 0x2640 JUMPI JUMPDEST POP POP POP ADD PUSH1 0x3 DUP5 ADD DUP12 MSTORE PUSH1 0x20 DUP12 KECCAK256 DUP12 JUMPDEST DUP4 DUP2 LT PUSH2 0x262C JUMPI POP POP POP POP PUSH1 0x1 PUSH1 0x1 PUSH1 0xA0 SHL SUB PUSH1 0xA0 DUP3 ADD MLOAD AND PUSH1 0x1 PUSH1 0x1 PUSH1 0xA0 SHL SUB PUSH1 0x4 DUP5 ADD SWAP2 AND PUSH1 0x1 PUSH1 0x1 PUSH1 0xA0 SHL SUB NOT DUP3 SLOAD AND OR SWAP1 SSTORE PUSH1 0xC0 DUP2 ADD MLOAD PUSH1 0x5 DUP4 ADD SSTORE PUSH1 0xE0 DUP2 ADD MLOAD PUSH1 0x6 DUP4 ADD SSTORE PUSH2 0x100 DUP2 ADD MLOAD PUSH1 0x7 DUP4 ADD SSTORE PUSH2 0x120 DUP2 ADD MLOAD PUSH1 0x8 DUP4 ADD SSTORE PUSH2 0x140 DUP2 ADD MLOAD PUSH1 0x9 DUP4 ADD SSTORE PUSH2 0x160 DUP2 ADD MLOAD PUSH1 0xA DUP4 ADD SSTORE PUSH2 0x180 DUP2 ADD MLOAD PUSH1 0x3 DUP2 LT ISZERO PUSH2 0x2618 JUMPI PUSH2 0x22D8 SWAP1 PUSH1 0xB DUP5 ADD PUSH2 0x2E21 JUMP JUMPDEST PUSH2 0x1A0 DUP2 ADD MLOAD PUSH1 0xC DUP4 ADD SSTORE PUSH1 0x1 PUSH1 0x1 PUSH1 0xA0 SHL SUB PUSH2 0x1C0 DUP3 ADD MLOAD AND PUSH1 0x1 PUSH1 0x1 PUSH1 0xA0 SHL SUB PUSH1 0xD DUP5 ADD SWAP2 AND PUSH1 0x1 PUSH1 0x1 PUSH1 0xA0 SHL SUB NOT DUP3 SLOAD AND OR SWAP1 SSTORE PUSH2 0x1E0 DUP2 ADD MLOAD PUSH1 0xE DUP4 ADD SSTORE PUSH1 0xF DUP3 ADD PUSH2 0x200 DUP3 ADD MLOAD DUP1 MLOAD SWAP1 PUSH8 0xFFFFFFFFFFFFFFFF DUP3 GT PUSH2 0x2566 JUMPI DUP2 SWAP1 DUP13 PUSH2 0x2343 DUP6 SLOAD PUSH2 0x2A99 JUMP JUMPDEST PUSH1 0x1F DUP2 GT PUSH2 0x25E8 JUMPI JUMPDEST POP POP PUSH1 0x20 SWAP1 DUP14 PUSH1 0x1F DUP5 GT PUSH1 0x1 EQ PUSH2 0x2585 JUMPI SWAP3 PUSH2 0x257A JUMPI JUMPDEST POP POP DUP2 PUSH1 0x1 SHL SWAP2 PUSH1 0x0 NOT SWAP1 PUSH1 0x3 SHL SHR NOT AND OR SWAP1 SSTORE JUMPDEST PUSH1 0x10 DUP3 ADD PUSH2 0x220 DUP3 ADD MLOAD DUP1 MLOAD SWAP1 PUSH8 0xFFFFFFFFFFFFFFFF DUP3 GT PUSH2 0x2566 JUMPI DUP12 PUSH2 0x239F DUP5 SLOAD PUSH2 0x2A99 JUMP JUMPDEST PUSH1 0x1F DUP2 GT PUSH2 0x2536 JUMPI JUMPDEST POP POP PUSH1 0x20 SWAP1 DUP13 PUSH1 0x1F DUP5 GT PUSH1 0x1 EQ PUSH2 0x24CC JUMPI SWAP3 PUSH2 0x240 SWAP5 SWAP3 DUP2 SWAP3 PUSH1 0x11 SWAP8 SWAP6 SWAP3 PUSH2 0x24C1 JUMPI JUMPDEST POP POP DUP2 PUSH1 0x1 SHL SWAP2 PUSH1 0x0 NOT SWAP1 PUSH1 0x3 SHL SHR NOT AND OR SWAP1 SSTORE JUMPDEST ADD MLOAD SWAP2 ADD SSTORE CALLER DUP8 MSTORE PUSH1 0x6 PUSH1 0x20 MSTORE PUSH2 0x23FA DUP7 PUSH1 0x40 DUP10 KECCAK256 PUSH2 0x2E39 JUMP JUMPDEST PUSH1 0x40 MLOAD SWAP3 PUSH1 0x1 DUP5 MSTORE DUP8 PUSH1 0x20 DUP6 ADD MSTORE PUSH1 0xC0 PUSH1 0x40 DUP6 ADD MSTORE DUP1 PUSH1 0x4 ADD CALLDATALOAD PUSH1 0xC0 DUP6 ADD MSTORE PUSH32 0x7FFFFFFFFFFFFFFFFFFFFFFFFFFFFFFFFFFFFFFFFFFFFFFFFFFFFFFFFFFFFFF DUP2 PUSH1 0x4 ADD CALLDATALOAD GT PUSH2 0x24BD JUMPI DUP4 PUSH1 0x1 SWAP7 SWAP5 PUSH2 0x158F PUSH1 0x20 SWAP11 SWAP8 SWAP6 PUSH1 0x1 PUSH1 0x1 PUSH1 0xA0 SHL SUB DUP12 SWAP7 DUP7 PUSH32 0xED64E6C300AB5F25F3A8E69B83450E8787C7246008FFD6B98A2E36EE7AABDDB6 SWAP8 PUSH1 0x4 ADD CALLDATALOAD PUSH1 0x5 SHL PUSH1 0x24 DUP3 ADD PUSH1 0xE0 DUP9 ADD CALLDATACOPY PUSH1 0x4 ADD CALLDATALOAD PUSH1 0x5 SHL DUP6 ADD SWAP9 PUSH1 0x44 CALLDATALOAD PUSH1 0x60 DUP8 ADD MSTORE PUSH1 0x80 DUP7 ADD MSTORE PUSH1 0xE0 DUP6 DUP11 SUB ADD PUSH1 0xA0 DUP7 ADD MSTORE AND SWAP8 PUSH1 0xE0 CALLER SWAP9 ADD SWAP2 PUSH2 0x2E73 JUMP JUMPDEST DUP8 DUP1 REVERT JUMPDEST ADD MLOAD SWAP1 POP DUP15 DUP1 PUSH2 0x23CB JUMP JUMPDEST SWAP2 SWAP1 PUSH1 0x1F NOT DUP5 AND DUP6 DUP5 MSTORE DUP3 DUP5 KECCAK256 SWAP4 JUMPDEST DUP2 DUP2 LT PUSH2 0x251E JUMPI POP SWAP3 PUSH1 0x1 SWAP3 DUP6 SWAP3 PUSH1 0x11 SWAP9 SWAP7 PUSH2 0x240 SWAP9 SWAP7 LT PUSH2 0x2505 JUMPI JUMPDEST POP POP POP DUP2 SHL ADD SWAP1 SSTORE PUSH2 0x23E0 JUMP JUMPDEST ADD MLOAD PUSH1 0x0 NOT PUSH1 0xF8 DUP5 PUSH1 0x3 SHL AND SHR NOT AND SWAP1 SSTORE DUP15 DUP1 DUP1 PUSH2 0x24F8 JUMP JUMPDEST SWAP3 SWAP4 PUSH1 0x20 PUSH1 0x1 DUP2 SWAP3 DUP8 DUP7 ADD MLOAD DUP2 SSTORE ADD SWAP6 ADD SWAP4 ADD PUSH2 0x24DB JUMP JUMPDEST PUSH1 0x20 DUP3 DUP7 PUSH2 0x255F SWAP5 MSTORE KECCAK256 PUSH1 0x1F DUP6 ADD PUSH1 0x5 SHR DUP2 ADD SWAP2 PUSH1 0x20 DUP7 LT PUSH2 0x165E JUMPI PUSH1 0x1F ADD PUSH1 0x5 SHR ADD SWAP1 PUSH2 0x2E0A JUMP JUMPDEST DUP12 DUP14 PUSH2 0x23A8 JUMP JUMPDEST PUSH1 0x24 DUP13 PUSH4 0x4E487B71 PUSH1 0xE0 SHL DUP2 MSTORE PUSH1 0x41 PUSH1 0x4 MSTORE REVERT JUMPDEST ADD MLOAD SWAP1 POP DUP13 DUP1 PUSH2 0x2363 JUMP JUMPDEST DUP6 DUP2 MSTORE DUP3 DUP2 KECCAK256 SWAP4 POP PUSH1 0x1F NOT DUP6 AND SWAP1 JUMPDEST DUP2 DUP2 LT PUSH2 0x25D0 JUMPI POP SWAP1 DUP5 PUSH1 0x1 SWAP6 SWAP5 SWAP4 SWAP3 LT PUSH2 0x25B7 JUMPI JUMPDEST POP POP POP DUP2 SHL ADD SWAP1 SSTORE PUSH2 0x2378 JUMP JUMPDEST ADD MLOAD PUSH1 0x0 NOT PUSH1 0xF8 DUP5 PUSH1 0x3 SHL AND SHR NOT AND SWAP1 SSTORE DUP13 DUP1 DUP1 PUSH2 0x25AA JUMP JUMPDEST SWAP3 SWAP4 PUSH1 0x20 PUSH1 0x1 DUP2 SWAP3 DUP8 DUP7 ADD MLOAD DUP2 SSTORE ADD SWAP6 ADD SWAP4 ADD PUSH2 0x2594 JUMP JUMPDEST PUSH1 0x20 DUP3 DUP8 PUSH2 0x2611 SWAP5 MSTORE KECCAK256 PUSH1 0x1F DUP6 ADD PUSH1 0x5 SHR DUP2 ADD SWAP2 PUSH1 0x20 DUP7 LT PUSH2 0x165E JUMPI PUSH1 0x1F ADD PUSH1 0x5 SHR ADD SWAP1 PUSH2 0x2E0A JUMP JUMPDEST DUP13 DUP15 PUSH2 0x234C JUMP JUMPDEST PUSH1 0x24 DUP11 PUSH4 0x4E487B71 PUSH1 0xE0 SHL DUP2 MSTORE PUSH1 0x21 PUSH1 0x4 MSTORE REVERT JUMPDEST PUSH1 0x1 SWAP1 PUSH1 0x20 DUP5 MLOAD SWAP5 ADD SWAP4 DUP2 DUP5 ADD SSTORE ADD PUSH2 0x2246 JUMP JUMPDEST DUP5 PUSH2 0x2656 SWAP4 PUSH1 0x3 DUP11 ADD DUP2 MSTORE KECCAK256 SWAP2 DUP3 ADD SWAP2 ADD PUSH2 0x2E0A JUMP JUMPDEST DUP12 DUP14 DUP5 PUSH2 0x2236 JUMP JUMPDEST PUSH1 0x24 DUP12 PUSH4 0x4E487B71 PUSH1 0xE0 SHL DUP2 MSTORE PUSH1 0x41 PUSH1 0x4 MSTORE REVERT JUMPDEST DUP2 CALLDATALOAD DUP2 MSTORE PUSH1 0x20 SWAP2 DUP3 ADD SWAP2 ADD PUSH2 0x20EF JUMP JUMPDEST PUSH2 0x2694 DUP2 DUP5 PUSH1 0x4 ADD CALLDATALOAD PUSH1 0x24 DUP7 ADD PUSH2 0x2D44 JUMP JUMPDEST CALLDATALOAD PUSH1 0x40 MLOAD SWAP1 PUSH4 0x31A9108F PUSH1 0xE1 SHL DUP3 MSTORE PUSH1 0x4 DUP3 ADD MSTORE PUSH1 0x20 DUP2 PUSH1 0x24 DUP2 PUSH1 0x1 PUSH1 0x1 PUSH1 0xA0 SHL SUB DUP12 AND GAS STATICCALL SWAP1 DUP2 ISZERO PUSH2 0x2FB JUMPI PUSH1 0x0 SWAP2 PUSH2 0x2882 JUMPI JUMPDEST POP PUSH1 0x1 PUSH1 0x1 PUSH1 0xA0 SHL SUB CALLER SWAP2 AND SUB PUSH2 0x283E JUMPI PUSH2 0x26EC DUP2 DUP5 PUSH1 0x4 ADD CALLDATALOAD PUSH1 0x24 DUP7 ADD PUSH2 0x2D44 JUMP JUMPDEST CALLDATALOAD PUSH1 0x40 MLOAD SWAP1 PUSH4 0x20604BF PUSH1 0xE2 SHL DUP3 MSTORE PUSH1 0x4 DUP3 ADD MSTORE PUSH1 0x20 DUP2 PUSH1 0x24 DUP2 PUSH1 0x1 PUSH1 0x1 PUSH1 0xA0 SHL SUB DUP12 AND GAS STATICCALL SWAP1 DUP2 ISZERO PUSH2 0x2FB JUMPI PUSH1 0x0 SWAP2 PUSH2 0x2820 JUMPI JUMPDEST POP PUSH1 0x1 PUSH1 0x1 PUSH1 0xA0 SHL SUB AND ADDRESS EQ DUP1 ISZERO PUSH2 0x27BC JUMPI JUMPDEST PUSH2 0x273D SWAP1 PUSH2 0x2D8B JUMP JUMPDEST PUSH2 0x274F DUP2 DUP5 PUSH1 0x4 ADD CALLDATALOAD PUSH1 0x24 DUP7 ADD PUSH2 0x2D44 JUMP JUMPDEST CALLDATALOAD SWAP1 PUSH1 0x1 PUSH1 0x1 PUSH1 0xA0 SHL SUB DUP8 AND EXTCODESIZE ISZERO PUSH2 0x163 JUMPI PUSH1 0x40 MLOAD PUSH4 0x21421707 PUSH1 0xE1 SHL DUP2 MSTORE CALLER PUSH1 0x4 DUP3 ADD MSTORE ADDRESS PUSH1 0x24 DUP3 ADD MSTORE PUSH1 0x44 DUP2 ADD SWAP3 SWAP1 SWAP3 MSTORE PUSH1 0x0 DUP3 PUSH1 0x64 DUP2 DUP4 PUSH1 0x1 PUSH1 0x1 PUSH1 0xA0 SHL SUB DUP13 AND GAS CALL SWAP2 DUP3 ISZERO PUSH2 0x2FB JUMPI PUSH1 0x1 SWAP3 PUSH2 0x27AB JUMPI JUMPDEST POP ADD PUSH2 0x206B JUMP JUMPDEST PUSH1 0x0 PUSH2 0x27B6 SWAP2 PUSH2 0x2A02 JUMP JUMPDEST DUP9 PUSH2 0x27A4 JUMP JUMPDEST POP PUSH1 0x40 MLOAD PUSH4 0xE985E9C5 PUSH1 0xE0 SHL DUP2 MSTORE CALLER PUSH1 0x4 DUP3 ADD MSTORE ADDRESS PUSH1 0x24 DUP3 ADD MSTORE PUSH1 0x20 DUP2 PUSH1 0x44 DUP2 PUSH1 0x1 PUSH1 0x1 PUSH1 0xA0 SHL SUB DUP12 AND GAS STATICCALL DUP1 ISZERO PUSH2 0x2FB JUMPI PUSH2 0x273D SWAP2 PUSH1 0x0 SWAP2 PUSH2 0x2802 JUMPI JUMPDEST POP SWAP1 POP PUSH2 0x2734 JUMP JUMPDEST PUSH2 0x281A SWAP2 POP PUSH1 0x20 RETURNDATASIZE DUP2 GT PUSH2 0x17E8 JUMPI PUSH2 0x17DA DUP2 DUP4 PUSH2 0x2A02 JUMP JUMPDEST DUP10 PUSH2 0x27FA JUMP JUMPDEST PUSH2 0x2838 SWAP2 POP PUSH1 0x20 RETURNDATASIZE DUP2 GT PUSH2 0x1817 JUMPI PUSH2 0x1809 DUP2 DUP4 PUSH2 0x2A02 JUMP JUMPDEST DUP9 PUSH2 0x2721 JUMP JUMPDEST PUSH1 0x64 PUSH1 0x40 MLOAD PUSH3 0x461BCD PUSH1 0xE5 SHL DUP2 MSTORE PUSH1 0x20 PUSH1 0x4 DUP3 ADD MSTORE PUSH1 0x9 PUSH1 0x24 DUP3 ADD MSTORE PUSH32 0x4E6F74206F776E65720000000000000000000000000000000000000000000000 PUSH1 0x44 DUP3 ADD MSTORE REVERT JUMPDEST PUSH2 0x289A SWAP2 POP PUSH1 0x20 RETURNDATASIZE DUP2 GT PUSH2 0x1817 JUMPI PUSH2 0x1809 DUP2 DUP4 PUSH2 0x2A02 JUMP JUMPDEST DUP9 PUSH2 0x26C9 JUMP JUMPDEST PUSH1 0x64 PUSH1 0x40 MLOAD PUSH3 0x461BCD PUSH1 0xE5 SHL DUP2 MSTORE PUSH1 0x20 PUSH1 0x4 DUP3 ADD MSTORE PUSH1 0x10 PUSH1 0x24 DUP3 ADD MSTORE PUSH32 0x496E76616C696420746F6B656E49647300000000000000000000000000000000 PUSH1 0x44 DUP3 ADD MSTORE REVERT JUMPDEST POP PUSH1 0x64 DUP3 PUSH1 0x4 ADD CALLDATALOAD GT ISZERO PUSH2 0x2063 JUMP JUMPDEST POP PUSH1 0x1 DUP3 PUSH1 0x4 ADD CALLDATALOAD GT PUSH2 0x205D JUMP JUMPDEST POP PUSH1 0x44 CALLDATALOAD PUSH1 0x64 CALLDATALOAD LT ISZERO PUSH2 0x2036 JUMP JUMPDEST POP PUSH3 0x278D00 PUSH1 0xA4 CALLDATALOAD GT ISZERO PUSH2 0x2022 JUMP JUMPDEST CALLVALUE PUSH2 0x163 JUMPI PUSH1 0x80 CALLDATASIZE PUSH1 0x3 NOT ADD SLT PUSH2 0x163 JUMPI PUSH2 0x2937 PUSH2 0x299D JUMP JUMPDEST POP PUSH2 0x2940 PUSH2 0x29B3 JUMP JUMPDEST POP PUSH1 0x64 CALLDATALOAD PUSH8 0xFFFFFFFFFFFFFFFF DUP2 GT PUSH2 0x163 JUMPI CALLDATASIZE PUSH1 0x23 DUP3 ADD SLT ISZERO PUSH2 0x163 JUMPI PUSH2 0x2972 SWAP1 CALLDATASIZE SWAP1 PUSH1 0x24 DUP2 PUSH1 0x4 ADD CALLDATALOAD SWAP2 ADD PUSH2 0x2A24 JUMP JUMPDEST POP PUSH1 0x20 PUSH1 0x40 MLOAD PUSH32 0x150B7A0200000000000000000000000000000000000000000000000000000000 DUP2 MSTORE RETURN JUMPDEST PUSH1 0x4 CALLDATALOAD SWAP1 PUSH1 0x1 PUSH1 0x1 PUSH1 0xA0 SHL SUB DUP3 AND DUP3 SUB PUSH2 0x163 JUMPI JUMP JUMPDEST PUSH1 0x24 CALLDATALOAD SWAP1 PUSH1 0x1 PUSH1 0x1 PUSH1 0xA0 SHL SUB DUP3 AND DUP3 SUB PUSH2 0x163 JUMPI JUMP JUMPDEST PUSH2 0x260 DUP2 ADD SWAP1 DUP2 LT PUSH8 0xFFFFFFFFFFFFFFFF DUP3 GT OR PUSH2 0x1BF5 JUMPI PUSH1 0x40 MSTORE JUMP JUMPDEST PUSH1 0x80 DUP2 ADD SWAP1 DUP2 LT PUSH8 0xFFFFFFFFFFFFFFFF DUP3 GT OR PUSH2 0x1BF5 JUMPI PUSH1 0x40 MSTORE JUMP JUMPDEST SWAP1 PUSH1 0x1F DUP1 NOT SWAP2 ADD AND DUP2 ADD SWAP1 DUP2 LT PUSH8 0xFFFFFFFFFFFFFFFF DUP3 GT OR PUSH2 0x1BF5 JUMPI PUSH1 0x40 MSTORE JUMP JUMPDEST SWAP3 SWAP2 SWAP3 PUSH8 0xFFFFFFFFFFFFFFFF DUP3 GT PUSH2 0x1BF5 JUMPI PUSH1 0x40 MLOAD SWAP2 PUSH2 0x2A4E PUSH1 0x1F DUP3 ADD PUSH1 0x1F NOT AND PUSH1 0x20 ADD DUP5 PUSH2 0x2A02 JUMP JUMPDEST DUP3 SWAP5 DUP2 DUP5 MSTORE DUP2 DUP4 ADD GT PUSH2 0x163 JUMPI DUP3 DUP2 PUSH1 0x20 SWAP4 DUP5 PUSH1 0x0 SWAP7 ADD CALLDATACOPY ADD ADD MSTORE JUMP JUMPDEST SWAP2 DUP2 PUSH1 0x1F DUP5 ADD SLT ISZERO PUSH2 0x163 JUMPI DUP3 CALLDATALOAD SWAP2 PUSH8 0xFFFFFFFFFFFFFFFF DUP4 GT PUSH2 0x163 JUMPI PUSH1 0x20 DUP4 DUP2 DUP7 ADD SWAP6 ADD ADD GT PUSH2 0x163 JUMPI JUMP JUMPDEST SWAP1 PUSH1 0x1 DUP3 DUP2 SHR SWAP3 AND DUP1 ISZERO PUSH2 0x2AC9 JUMPI JUMPDEST PUSH1 0x20 DUP4 LT EQ PUSH2 0x2AB3 JUMPI JUMP JUMPDEST PUSH4 0x4E487B71 PUSH1 0xE0 SHL PUSH1 0x0 MSTORE PUSH1 0x22 PUSH1 0x4 MSTORE PUSH1 0x24 PUSH1 0x0 REVERT JUMPDEST SWAP2 PUSH1 0x7F AND SWAP2 PUSH2 0x2AA8 JUMP JUMPDEST SWAP1 PUSH1 0x40 MLOAD SWAP2 DUP3 PUSH1 0x0 DUP3 SLOAD SWAP3 PUSH2 0x2AE7 DUP5 PUSH2 0x2A99 JUMP JUMPDEST DUP1 DUP5 MSTORE SWAP4 PUSH1 0x1 DUP2 AND SWAP1 DUP2 ISZERO PUSH2 0x2B55 JUMPI POP PUSH1 0x1 EQ PUSH2 0x2B0E JUMPI JUMPDEST POP PUSH2 0x2B0C SWAP3 POP SUB DUP4 PUSH2 0x2A02 JUMP JUMPDEST JUMP JUMPDEST SWAP1 POP PUSH1 0x0 SWAP3 SWAP2 SWAP3 MSTORE PUSH1 0x20 PUSH1 0x0 KECCAK256 SWAP1 PUSH1 0x0 SWAP2 JUMPDEST DUP2 DUP4 LT PUSH2 0x2B39 JUMPI POP POP SWAP1 PUSH1 0x20 PUSH2 0x2B0C SWAP3 DUP3 ADD ADD CODESIZE PUSH2 0x2AFF JUMP JUMPDEST PUSH1 0x20 SWAP2 SWAP4 POP DUP1 PUSH1 0x1 SWAP2 SLOAD DUP4 DUP6 DUP10 ADD ADD MSTORE ADD SWAP2 ADD SWAP1 SWAP2 DUP5 SWAP3 PUSH2 0x2B20 JUMP JUMPDEST SWAP1 POP PUSH1 0x20 SWAP3 POP PUSH2 0x2B0C SWAP5 SWAP2 POP PUSH1 0xFF NOT AND DUP3 DUP5 ADD MSTORE ISZERO ISZERO PUSH1 0x5 SHL DUP3 ADD ADD CODESIZE PUSH2 0x2AFF JUMP JUMPDEST SWAP2 SWAP1 DUP3 MLOAD SWAP3 DUP4 DUP3 MSTORE PUSH1 0x0 JUMPDEST DUP5 DUP2 LT PUSH2 0x2BA3 JUMPI POP POP DUP3 PUSH1 0x0 PUSH1 0x20 DUP1 SWAP5 SWAP6 DUP5 ADD ADD MSTORE PUSH1 0x1F DUP1 NOT SWAP2 ADD AND ADD ADD SWAP1 JUMP JUMPDEST DUP1 PUSH1 0x20 DUP1 SWAP3 DUP5 ADD ADD MLOAD DUP3 DUP3 DUP7 ADD ADD MSTORE ADD PUSH2 0x2B82 JUMP JUMPDEST PUSH1 0x40 SWAP1 PUSH1 0x3 NOT ADD SLT PUSH2 0x163 JUMPI PUSH1 0x4 CALLDATALOAD SWAP1 PUSH1 0x24 CALLDATALOAD SWAP1 JUMP JUMPDEST DUP1 SLOAD DUP3 LT ISZERO PUSH2 0x2BEA JUMPI PUSH1 0x0 MSTORE PUSH1 0x20 PUSH1 0x0 KECCAK256 SWAP1 PUSH1 0x2 SHL ADD SWAP1 PUSH1 0x0 SWAP1 JUMP JUMPDEST PUSH4 0x4E487B71 PUSH1 0xE0 SHL PUSH1 0x0 MSTORE PUSH1 0x32 PUSH1 0x4 MSTORE PUSH1 0x24 PUSH1 0x0 REVERT JUMPDEST DUP1 SLOAD DUP3 LT ISZERO PUSH2 0x2BEA JUMPI PUSH1 0x0 MSTORE PUSH1 0x20 PUSH1 0x0 KECCAK256 ADD SWAP1 PUSH1 0x0 SWAP1 JUMP JUMPDEST ISZERO PUSH2 0x2C1F JUMPI JUMP JUMPDEST PUSH1 0x64 PUSH1 0x40 MLOAD PUSH3 0x461BCD PUSH1 0xE5 SHL DUP2 MSTORE PUSH1 0x20 PUSH1 0x4 DUP3 ADD MSTORE PUSH1 0x14 PUSH1 0x24 DUP3 ADD MSTORE PUSH32 0x496E76616C6964204E465420636F6E7472616374000000000000000000000000 PUSH1 0x44 DUP3 ADD MSTORE REVERT JUMPDEST ISZERO PUSH2 0x2C6A JUMPI JUMP JUMPDEST PUSH1 0x64 PUSH1 0x40 MLOAD PUSH3 0x461BCD PUSH1 0xE5 SHL DUP2 MSTORE PUSH1 0x20 PUSH1 0x4 DUP3 ADD MSTORE PUSH1 0x10 PUSH1 0x24 DUP3 ADD MSTORE PUSH32 0x496E76616C6964206475726174696F6E00000000000000000000000000000000 PUSH1 0x44 DUP3 ADD MSTORE REVERT JUMPDEST ISZERO PUSH2 0x2CB5 JUMPI JUMP JUMPDEST PUSH1 0x64 PUSH1 0x40 MLOAD PUSH3 0x461BCD PUSH1 0xE5 SHL DUP2 MSTORE PUSH1 0x20 PUSH1 0x4 DUP3 ADD MSTORE PUSH1 0xD PUSH1 0x24 DUP3 ADD MSTORE PUSH32 0x496E76616C696420707269636500000000000000000000000000000000000000 PUSH1 0x44 DUP3 ADD MSTORE REVERT JUMPDEST ISZERO PUSH2 0x2D00 JUMPI JUMP JUMPDEST PUSH1 0x64 PUSH1 0x40 MLOAD PUSH3 0x461BCD PUSH1 0xE5 SHL DUP2 MSTORE PUSH1 0x20 PUSH1 0x4 DUP3 ADD MSTORE PUSH1 0x11 PUSH1 0x24 DUP3 ADD MSTORE PUSH32 0x496E6372656D656E7420746F6F206C6F77000000000000000000000000000000 PUSH1 0x44 DUP3 ADD MSTORE REVERT JUMPDEST SWAP2 SWAP1 DUP2 LT ISZERO PUSH2 0x2BEA JUMPI PUSH1 0x5 SHL ADD SWAP1 JUMP JUMPDEST SWAP1 DUP2 PUSH1 0x20 SWAP2 SUB SLT PUSH2 0x163 JUMPI MLOAD PUSH1 0x1 PUSH1 0x1 PUSH1 0xA0 SHL SUB DUP2 AND DUP2 SUB PUSH2 0x163 JUMPI SWAP1 JUMP JUMPDEST SWAP1 DUP2 PUSH1 0x20 SWAP2 SUB SLT PUSH2 0x163 JUMPI MLOAD DUP1 ISZERO ISZERO DUP2 SUB PUSH2 0x163 JUMPI SWAP1 JUMP JUMPDEST ISZERO PUSH2 0x2D92 JUMPI JUMP JUMPDEST PUSH1 0x64 PUSH1 0x40 MLOAD PUSH3 0x461BCD PUSH1 0xE5 SHL DUP2 MSTORE PUSH1 0x20 PUSH1 0x4 DUP3 ADD MSTORE PUSH1 0x15 PUSH1 0x24 DUP3 ADD MSTORE PUSH32 0x436F6E7472616374206E6F7420617070726F7665640000000000000000000000 PUSH1 0x44 DUP3 ADD MSTORE REVERT JUMPDEST PUSH1 0x0 NOT DUP2 EQ PUSH2 0x3F7 JUMPI PUSH1 0x1 ADD SWAP1 JUMP JUMPDEST SWAP2 SWAP1 DUP3 ADD DUP1 SWAP3 GT PUSH2 0x3F7 JUMPI JUMP JUMPDEST PUSH8 0xFFFFFFFFFFFFFFFF DUP2 GT PUSH2 0x1BF5 JUMPI PUSH1 0x5 SHL PUSH1 0x20 ADD SWAP1 JUMP JUMPDEST DUP2 DUP2 LT PUSH2 0x2E15 JUMPI POP POP JUMP JUMPDEST PUSH1 0x0 DUP2 SSTORE PUSH1 0x1 ADD PUSH2 0x2E0A JUMP JUMPDEST SWAP1 PUSH1 0x3 DUP2 LT ISZERO PUSH2 0x3E1 JUMPI PUSH1 0xFF DUP1 NOT DUP4 SLOAD AND SWAP2 AND OR SWAP1 SSTORE JUMP JUMPDEST DUP1 SLOAD PUSH9 0x10000000000000000 DUP2 LT ISZERO PUSH2 0x1BF5 JUMPI PUSH2 0x2E5B SWAP2 PUSH1 0x1 DUP3 ADD DUP2 SSTORE PUSH2 0x2C00 JUMP JUMPDEST DUP2 SWAP3 SWAP2 SLOAD SWAP1 PUSH1 0x3 SHL SWAP2 DUP3 SHL SWAP2 PUSH1 0x0 NOT SWAP1 SHL NOT AND OR SWAP1 SSTORE JUMP JUMPDEST SWAP1 DUP1 PUSH1 0x20 SWAP4 SWAP3 DUP2 DUP5 MSTORE DUP5 DUP5 ADD CALLDATACOPY PUSH1 0x0 DUP3 DUP3 ADD DUP5 ADD MSTORE PUSH1 0x1F ADD PUSH1 0x1F NOT AND ADD ADD SWAP1 JUMP JUMPDEST ISZERO PUSH2 0x2E9B JUMPI JUMP JUMPDEST PUSH1 0x64 PUSH1 0x40 MLOAD PUSH3 0x461BCD PUSH1 0xE5 SHL DUP2 MSTORE PUSH1 0x20 PUSH1 0x4 DUP3 ADD MSTORE PUSH1 0x12 PUSH1 0x24 DUP3 ADD MSTORE PUSH32 0x41756374696F6E206E6F74206163746976650000000000000000000000000000 PUSH1 0x44 DUP3 ADD MSTORE REVERT JUMPDEST SWAP2 SWAP1 DUP3 SUB SWAP2 DUP3 GT PUSH2 0x3F7 JUMPI JUMP JUMPDEST ISZERO PUSH2 0x2EF3 JUMPI JUMP JUMPDEST PUSH1 0x64 PUSH1 0x40 MLOAD PUSH3 0x461BCD PUSH1 0xE5 SHL DUP2 MSTORE PUSH1 0x20 PUSH1 0x4 DUP3 ADD MSTORE PUSH1 0x15 PUSH1 0x24 DUP3 ADD MSTORE PUSH32 0x41756374696F6E206E6F742066696E616C697A65640000000000000000000000 PUSH1 0x44 DUP3 ADD MSTORE REVERT JUMPDEST PUSH1 0x2 PUSH1 0x0 SLOAD EQ PUSH2 0x2F48 JUMPI PUSH1 0x2 PUSH1 0x0 SSTORE JUMP JUMPDEST PUSH32 0x3EE5AEB500000000000000000000000000000000000000000000000000000000 PUSH1 0x0 MSTORE PUSH1 0x4 PUSH1 0x0 REVERT JUMPDEST PUSH1 0x20 PUSH1 0x1 PUSH1 0x1 PUSH1 0xA0 SHL SUB SWAP2 PUSH1 0x24 PUSH1 0x40 MLOAD DUP1 SWAP5 DUP2 SWAP4 PUSH32 0x1FFC9A700000000000000000000000000000000000000000000000000000000 DUP4 MSTORE PUSH32 0x80AC58CD00000000000000000000000000000000000000000000000000000000 PUSH1 0x4 DUP5 ADD MSTORE AND GAS STATICCALL SWAP1 DUP2 ISZERO PUSH2 0x2FB JUMPI PUSH1 0x0 SWAP2 PUSH2 0x2FE4 JUMPI POP SWAP1 JUMP JUMPDEST PUSH2 0x2FFD SWAP2 POP PUSH1 0x20 RETURNDATASIZE PUSH1 0x20 GT PUSH2 0x17E8 JUMPI PUSH2 0x17DA DUP2 DUP4 PUSH2 0x2A02 JUMP JUMPDEST SWAP1 JUMP JUMPDEST PUSH1 0x1 PUSH1 0x1 PUSH1 0xA0 SHL SUB PUSH1 0x1 SLOAD AND CALLER SUB PUSH2 0x3014 JUMPI JUMP JUMPDEST PUSH32 0x118CDAA700000000000000000000000000000000000000000000000000000000 PUSH1 0x0 MSTORE CALLER PUSH1 0x4 MSTORE PUSH1 0x24 PUSH1 0x0 REVERT JUMPDEST SWAP2 DUP3 PUSH1 0x0 MSTORE PUSH1 0x3 PUSH1 0x20 MSTORE PUSH1 0x40 PUSH1 0x0 KECCAK256 SWAP2 PUSH1 0xB DUP4 ADD PUSH1 0x2 PUSH1 0xFF NOT DUP3 SLOAD AND OR SWAP1 SSTORE PUSH1 0x0 JUMPDEST DUP5 PUSH1 0x0 MSTORE PUSH1 0x4 PUSH1 0x20 MSTORE PUSH1 0x40 PUSH1 0x0 KECCAK256 SLOAD DUP2 LT ISZERO PUSH2 0x30E7 JUMPI DUP5 PUSH1 0x0 MSTORE PUSH1 0x4 PUSH1 0x20 MSTORE PUSH2 0x3091 DUP2 PUSH1 0x40 PUSH1 0x0 KECCAK256 PUSH2 0x2BCE JUMP JUMPDEST POP SWAP1 PUSH1 0x0 DUP1 DUP1 DUP1 PUSH1 0x3 PUSH1 0x1 PUSH1 0x1 PUSH1 0xA0 SHL SUB DUP8 SLOAD AND SWAP7 ADD SWAP6 DUP7 SLOAD SWAP1 DUP3 DUP3 ISZERO PUSH2 0x30DE JUMPI JUMPDEST CALL ISZERO PUSH2 0x2FB JUMPI PUSH1 0x1 SWAP2 SLOAD DUP7 PUSH1 0x0 MSTORE PUSH1 0x8 PUSH1 0x20 MSTORE PUSH2 0x30D6 PUSH1 0x40 PUSH1 0x0 KECCAK256 SWAP2 DUP3 SLOAD PUSH2 0x2EDF JUMP JUMPDEST SWAP1 SSTORE ADD PUSH2 0x3064 JUMP JUMPDEST POP PUSH2 0x8FC PUSH2 0x30B3 JUMP JUMPDEST POP SWAP2 SWAP3 SWAP1 SWAP3 PUSH1 0x1 DUP2 ADD PUSH1 0xFF DUP2 SLOAD AND PUSH1 0x2 DUP2 LT ISZERO PUSH2 0x3E1 JUMPI PUSH2 0x31D0 JUMPI PUSH1 0x1 PUSH1 0x1 PUSH1 0xA0 SHL SUB SWAP1 SLOAD PUSH1 0x8 SHR AND SWAP1 PUSH1 0x1 PUSH1 0x1 PUSH1 0xA0 SHL SUB PUSH1 0x4 DUP3 ADD SLOAD AND PUSH1 0x2 DUP3 ADD SLOAD DUP4 EXTCODESIZE ISZERO PUSH2 0x163 JUMPI PUSH1 0x40 MLOAD PUSH4 0x21421707 PUSH1 0xE1 SHL DUP2 MSTORE ADDRESS PUSH1 0x4 DUP3 ADD MSTORE PUSH1 0x1 PUSH1 0x1 PUSH1 0xA0 SHL SUB SWAP3 SWAP1 SWAP3 AND PUSH1 0x24 DUP4 ADD MSTORE PUSH1 0x44 DUP3 ADD MSTORE SWAP2 PUSH1 0x0 SWAP1 DUP4 SWAP1 PUSH1 0x64 SWAP1 DUP3 SWAP1 DUP5 SWAP1 GAS CALL SWAP2 DUP3 ISZERO PUSH2 0x2FB JUMPI PUSH1 0x4 PUSH2 0x31BA SWAP3 PUSH1 0x1 PUSH1 0x1 PUSH1 0xA0 SHL SUB SWAP3 PUSH32 0xCDB034D750ED0C5924FFBC3EE3C5CBCA328261D8301D42E9C176788DDCA9AC47 SWAP6 PUSH2 0x31BF JUMPI JUMPDEST POP JUMPDEST ADD SLOAD AND SWAP4 PUSH1 0x40 MLOAD SWAP2 DUP3 SWAP2 PUSH1 0x20 DUP4 MSTORE PUSH1 0x20 DUP4 ADD SWAP1 PUSH2 0x2B77 JUMP JUMPDEST SUB SWAP1 LOG3 JUMP JUMPDEST PUSH1 0x0 PUSH2 0x31CA SWAP2 PUSH2 0x2A02 JUMP JUMPDEST CODESIZE PUSH2 0x31A0 JUMP JUMPDEST SWAP1 SWAP3 SWAP4 PUSH1 0x0 SWAP5 PUSH1 0x3 DUP6 ADD SWAP4 PUSH1 0x4 DUP7 ADD SWAP7 JUMPDEST DUP6 SLOAD DUP2 LT ISZERO PUSH2 0x327B JUMPI PUSH1 0x1 PUSH1 0x1 PUSH1 0xA0 SHL SUB DUP6 SLOAD PUSH1 0x8 SHR AND SWAP1 PUSH1 0x1 PUSH1 0x1 PUSH1 0xA0 SHL SUB DUP10 SLOAD AND PUSH2 0x320E DUP3 DUP10 PUSH2 0x2C00 JUMP JUMPDEST SWAP1 SLOAD SWAP1 PUSH1 0x3 SHL SHR DUP4 EXTCODESIZE ISZERO PUSH2 0x163 JUMPI PUSH1 0x40 MLOAD PUSH4 0x21421707 PUSH1 0xE1 SHL DUP2 MSTORE ADDRESS PUSH1 0x4 DUP3 ADD MSTORE PUSH1 0x1 PUSH1 0x1 PUSH1 0xA0 SHL SUB SWAP3 SWAP1 SWAP3 AND PUSH1 0x24 DUP4 ADD MSTORE PUSH1 0x44 DUP3 ADD MSTORE SWAP2 PUSH1 0x0 SWAP1 DUP4 SWAP1 PUSH1 0x64 SWAP1 DUP3 SWAP1 DUP5 SWAP1 GAS CALL SWAP2 DUP3 ISZERO PUSH2 0x2FB JUMPI PUSH1 0x1 SWAP3 PUSH2 0x326A JUMPI JUMPDEST POP ADD PUSH2 0x31E1 JUMP JUMPDEST PUSH1 0x0 PUSH2 0x3275 SWAP2 PUSH2 0x2A02 JUMP JUMPDEST CODESIZE PUSH2 0x3263 JUMP JUMPDEST POP SWAP4 POP SWAP4 PUSH2 0x31BA SWAP2 SWAP6 POP PUSH32 0xCDB034D750ED0C5924FFBC3EE3C5CBCA328261D8301D42E9C176788DDCA9AC47 SWAP3 POP PUSH1 0x4 PUSH1 0x1 PUSH1 0x1 PUSH1 0xA0 SHL SUB SWAP2 PUSH2 0x31A2 JUMP INVALID LOG2 PUSH5 0x6970667358 0x22 SLT KECCAK256 0xAE 0xAF 0xD8 PUSH20 0xBC20114948E8D54CA86BF863D1142C08640C47E7 DUP15 EQ 0xA9 RETURN 0xC0 DIV BYTE CALLDATACOPY PUSH5 0x736F6C6343 STOP ADDMOD SHR STOP CALLER "},"methodIdentifiers":{"BID_EXTENSION_TIME()":"b73b959f","CLAIM_DURATION()":"ff844a63","MAX_AUCTION_DURATION()":"3fb35178","MAX_BIDS_PER_AUCTION()":"328fbcde","MAX_COLLECTION_SIZE()":"4035cc6c","MAX_EXTENSIONS()":"c07780f6","MIN_AUCTION_DURATION()":"c2f50a7a","MIN_BID_INCREMENT()":"71943bce","PLATFORM_FEE()":"34fbc9a1","auctionBids(uint256,uint256)":"5f93de49","auctionDeposits(uint256)":"bba25058","auctions(uint256)":"571a26a0","bidderToIndex(uint256,address)":"93f19970","cancelAuction(uint256)":"96b5a755","claimNFT(uint256)":"fe5c873a","createCollectionAuction(address,uint256[],uint256,uint256,uint256,uint256,string,string)":"2b51e6ca","createSingleNFTAuction(address,uint256,uint256,uint256,uint256,uint256,string,string)":"64a22438","finalizeAuction(uint256)":"e8083863","getAuctionBids(uint256)":"70b4768e","onERC721Received(address,address,uint256,bytes)":"150b7a02","owner()":"8da5cb5b","placeBid(uint256,uint256)":"57c90de5","reclaimNFT(uint256)":"a08db82e","renounceOwnership()":"715018a6","transferOwnership(address)":"f2fde38b","userAuctions(address,uint256)":"b4fbe80a","userBids(address,uint256)":"96ec50c3"}}}}}