{
  "_format": "hh-sol-artifact-1",
  "contractName": "NFTMarket",
  "sourceName": "contracts/marketPlace.sol",
  "abi": [
    {
      "inputs": [
        {
          "internalType": "address",
          "name": "initialOwner",
          "type": "address"
        }
      ],
      "stateMutability": "nonpayable",
      "type": "constructor"
    },
    {
      "inputs": [
        {
          "internalType": "address",
          "name": "owner",
          "type": "address"
        }
      ],
      "name": "OwnableInvalidOwner",
      "type": "error"
    },
    {
      "inputs": [
        {
          "internalType": "address",
          "name": "account",
          "type": "address"
        }
      ],
      "name": "OwnableUnauthorizedAccount",
      "type": "error"
    },
    {
      "inputs": [],
      "name": "ReentrancyGuardReentrantCall",
      "type": "error"
    },
    {
      "anonymous": false,
      "inputs": [
        {
          "indexed": true,
          "internalType": "uint256",
          "name": "collectionId",
          "type": "uint256"
        },
        {
          "indexed": false,
          "internalType": "uint256",
          "name": "oldPrice",
          "type": "uint256"
        },
        {
          "indexed": false,
          "internalType": "uint256",
          "name": "newPrice",
          "type": "uint256"
        }
      ],
      "name": "BundlePriceUpdated",
      "type": "event"
    },
    {
      "anonymous": false,
      "inputs": [
        {
          "indexed": true,
          "internalType": "uint256",
          "name": "collectionId",
          "type": "uint256"
        },
        {
          "indexed": true,
          "internalType": "address",
          "name": "nftContract",
          "type": "address"
        },
        {
          "indexed": true,
          "internalType": "address",
          "name": "seller",
          "type": "address"
        },
        {
          "indexed": false,
          "internalType": "uint256[]",
          "name": "tokenIds",
          "type": "uint256[]"
        },
        {
          "indexed": false,
          "internalType": "uint256",
          "name": "bundlePrice",
          "type": "uint256"
        },
        {
          "indexed": false,
          "internalType": "string",
          "name": "collectionName",
          "type": "string"
        }
      ],
      "name": "CollectionBundleListed",
      "type": "event"
    },
    {
      "anonymous": false,
      "inputs": [
        {
          "indexed": true,
          "internalType": "uint256",
          "name": "collectionId",
          "type": "uint256"
        },
        {
          "indexed": true,
          "internalType": "address",
          "name": "seller",
          "type": "address"
        },
        {
          "indexed": true,
          "internalType": "address",
          "name": "buyer",
          "type": "address"
        },
        {
          "indexed": false,
          "internalType": "uint256[]",
          "name": "tokenIds",
          "type": "uint256[]"
        },
        {
          "indexed": false,
          "internalType": "uint256",
          "name": "bundlePrice",
          "type": "uint256"
        }
      ],
      "name": "CollectionBundleSold",
      "type": "event"
    },
    {
      "anonymous": false,
      "inputs": [
        {
          "indexed": true,
          "internalType": "uint256",
          "name": "collectionId",
          "type": "uint256"
        },
        {
          "indexed": true,
          "internalType": "address",
          "name": "seller",
          "type": "address"
        },
        {
          "indexed": false,
          "internalType": "enum NFTMarket.ListingType",
          "name": "listingType",
          "type": "uint8"
        }
      ],
      "name": "CollectionCancelled",
      "type": "event"
    },
    {
      "anonymous": false,
      "inputs": [
        {
          "indexed": true,
          "internalType": "uint256",
          "name": "collectionId",
          "type": "uint256"
        },
        {
          "indexed": true,
          "internalType": "address",
          "name": "nftContract",
          "type": "address"
        },
        {
          "indexed": true,
          "internalType": "address",
          "name": "seller",
          "type": "address"
        },
        {
          "indexed": false,
          "internalType": "uint256[]",
          "name": "tokenIds",
          "type": "uint256[]"
        },
        {
          "indexed": false,
          "internalType": "uint256[]",
          "name": "prices",
          "type": "uint256[]"
        },
        {
          "indexed": false,
          "internalType": "string",
          "name": "collectionName",
          "type": "string"
        }
      ],
      "name": "CollectionIndividualListed",
      "type": "event"
    },
    {
      "anonymous": false,
      "inputs": [
        {
          "indexed": true,
          "internalType": "uint256",
          "name": "collectionId",
          "type": "uint256"
        },
        {
          "indexed": true,
          "internalType": "uint256",
          "name": "listingId",
          "type": "uint256"
        },
        {
          "indexed": true,
          "internalType": "address",
          "name": "seller",
          "type": "address"
        },
        {
          "indexed": false,
          "internalType": "address",
          "name": "buyer",
          "type": "address"
        },
        {
          "indexed": false,
          "internalType": "uint256",
          "name": "tokenId",
          "type": "uint256"
        },
        {
          "indexed": false,
          "internalType": "uint256",
          "name": "price",
          "type": "uint256"
        }
      ],
      "name": "CollectionItemSold",
      "type": "event"
    },
    {
      "anonymous": false,
      "inputs": [
        {
          "indexed": true,
          "internalType": "uint256",
          "name": "listingId",
          "type": "uint256"
        },
        {
          "indexed": true,
          "internalType": "address",
          "name": "seller",
          "type": "address"
        },
        {
          "indexed": false,
          "internalType": "enum NFTMarket.ListingType",
          "name": "listingType",
          "type": "uint8"
        }
      ],
      "name": "ListingCancelled",
      "type": "event"
    },
    {
      "anonymous": false,
      "inputs": [
        {
          "indexed": true,
          "internalType": "uint256",
          "name": "listingId",
          "type": "uint256"
        },
        {
          "indexed": true,
          "internalType": "address",
          "name": "nftContract",
          "type": "address"
        },
        {
          "indexed": true,
          "internalType": "uint256",
          "name": "tokenId",
          "type": "uint256"
        },
        {
          "indexed": false,
          "internalType": "address",
          "name": "seller",
          "type": "address"
        },
        {
          "indexed": false,
          "internalType": "uint256",
          "name": "price",
          "type": "uint256"
        },
        {
          "indexed": false,
          "internalType": "enum NFTMarket.ListingType",
          "name": "listingType",
          "type": "uint8"
        }
      ],
      "name": "NFTListed",
      "type": "event"
    },
    {
      "anonymous": false,
      "inputs": [
        {
          "indexed": true,
          "internalType": "uint256",
          "name": "listingId",
          "type": "uint256"
        },
        {
          "indexed": true,
          "internalType": "address",
          "name": "seller",
          "type": "address"
        },
        {
          "indexed": true,
          "internalType": "address",
          "name": "buyer",
          "type": "address"
        },
        {
          "indexed": false,
          "internalType": "uint256",
          "name": "price",
          "type": "uint256"
        },
        {
          "indexed": false,
          "internalType": "enum NFTMarket.ListingType",
          "name": "listingType",
          "type": "uint8"
        }
      ],
      "name": "NFTSold",
      "type": "event"
    },
    {
      "anonymous": false,
      "inputs": [
        {
          "indexed": true,
          "internalType": "address",
          "name": "previousOwner",
          "type": "address"
        },
        {
          "indexed": true,
          "internalType": "address",
          "name": "newOwner",
          "type": "address"
        }
      ],
      "name": "OwnershipTransferred",
      "type": "event"
    },
    {
      "anonymous": false,
      "inputs": [
        {
          "indexed": true,
          "internalType": "uint256",
          "name": "listingId",
          "type": "uint256"
        },
        {
          "indexed": false,
          "internalType": "uint256",
          "name": "oldPrice",
          "type": "uint256"
        },
        {
          "indexed": false,
          "internalType": "uint256",
          "name": "newPrice",
          "type": "uint256"
        }
      ],
      "name": "PriceUpdated",
      "type": "event"
    },
    {
      "inputs": [],
      "name": "MAX_COLLECTION_SIZE",
      "outputs": [
        {
          "internalType": "uint256",
          "name": "",
          "type": "uint256"
        }
      ],
      "stateMutability": "view",
      "type": "function"
    },
    {
      "inputs": [],
      "name": "MAX_FEE",
      "outputs": [
        {
          "internalType": "uint256",
          "name": "",
          "type": "uint256"
        }
      ],
      "stateMutability": "view",
      "type": "function"
    },
    {
      "inputs": [
        {
          "internalType": "uint256",
          "name": "collectionId",
          "type": "uint256"
        }
      ],
      "name": "buyCollectionBundle",
      "outputs": [],
      "stateMutability": "payable",
      "type": "function"
    },
    {
      "inputs": [
        {
          "internalType": "uint256",
          "name": "listingId",
          "type": "uint256"
        }
      ],
      "name": "buyNFT",
      "outputs": [],
      "stateMutability": "payable",
      "type": "function"
    },
    {
      "inputs": [
        {
          "internalType": "uint256",
          "name": "id",
          "type": "uint256"
        }
      ],
      "name": "buyNFTUnified",
      "outputs": [],
      "stateMutability": "payable",
      "type": "function"
    },
    {
      "inputs": [
        {
          "internalType": "uint256",
          "name": "collectionId",
          "type": "uint256"
        }
      ],
      "name": "cancelCollection",
      "outputs": [],
      "stateMutability": "nonpayable",
      "type": "function"
    },
    {
      "inputs": [
        {
          "internalType": "uint256",
          "name": "listingId",
          "type": "uint256"
        }
      ],
      "name": "cancelListing",
      "outputs": [],
      "stateMutability": "nonpayable",
      "type": "function"
    },
    {
      "inputs": [
        {
          "internalType": "uint256",
          "name": "id",
          "type": "uint256"
        }
      ],
      "name": "cancelListingUnified",
      "outputs": [],
      "stateMutability": "nonpayable",
      "type": "function"
    },
    {
      "inputs": [
        {
          "internalType": "uint256",
          "name": "",
          "type": "uint256"
        }
      ],
      "name": "collectionListings",
      "outputs": [
        {
          "internalType": "uint256",
          "name": "collectionId",
          "type": "uint256"
        },
        {
          "internalType": "address",
          "name": "nftContract",
          "type": "address"
        },
        {
          "internalType": "address",
          "name": "seller",
          "type": "address"
        },
        {
          "internalType": "uint256",
          "name": "bundlePrice",
          "type": "uint256"
        },
        {
          "internalType": "uint256",
          "name": "totalItems",
          "type": "uint256"
        },
        {
          "internalType": "uint256",
          "name": "soldItems",
          "type": "uint256"
        },
        {
          "internalType": "bool",
          "name": "isActive",
          "type": "bool"
        },
        {
          "internalType": "bool",
          "name": "isBundleType",
          "type": "bool"
        },
        {
          "internalType": "uint256",
          "name": "createdAt",
          "type": "uint256"
        },
        {
          "internalType": "string",
          "name": "collectionName",
          "type": "string"
        },
        {
          "internalType": "enum NFTMarket.ListingType",
          "name": "listingType",
          "type": "uint8"
        }
      ],
      "stateMutability": "view",
      "type": "function"
    },
    {
      "inputs": [],
      "name": "getActiveCollections",
      "outputs": [
        {
          "internalType": "uint256[]",
          "name": "",
          "type": "uint256[]"
        }
      ],
      "stateMutability": "view",
      "type": "function"
    },
    {
      "inputs": [],
      "name": "getActiveListings",
      "outputs": [
        {
          "internalType": "uint256[]",
          "name": "",
          "type": "uint256[]"
        }
      ],
      "stateMutability": "view",
      "type": "function"
    },
    {
      "inputs": [
        {
          "internalType": "uint256",
          "name": "offset",
          "type": "uint256"
        },
        {
          "internalType": "uint256",
          "name": "limit",
          "type": "uint256"
        }
      ],
      "name": "getActiveListingsPaginated",
      "outputs": [
        {
          "internalType": "uint256[]",
          "name": "",
          "type": "uint256[]"
        },
        {
          "internalType": "uint256",
          "name": "totalCount",
          "type": "uint256"
        }
      ],
      "stateMutability": "view",
      "type": "function"
    },
    {
      "inputs": [],
      "name": "getAllAvailableNFTs",
      "outputs": [
        {
          "internalType": "uint256[]",
          "name": "",
          "type": "uint256[]"
        }
      ],
      "stateMutability": "view",
      "type": "function"
    },
    {
      "inputs": [],
      "name": "getBundleCollections",
      "outputs": [
        {
          "internalType": "uint256[]",
          "name": "",
          "type": "uint256[]"
        }
      ],
      "stateMutability": "view",
      "type": "function"
    },
    {
      "inputs": [
        {
          "internalType": "uint256",
          "name": "collectionId",
          "type": "uint256"
        }
      ],
      "name": "getCollection",
      "outputs": [
        {
          "components": [
            {
              "internalType": "uint256",
              "name": "collectionId",
              "type": "uint256"
            },
            {
              "internalType": "address",
              "name": "nftContract",
              "type": "address"
            },
            {
              "internalType": "address",
              "name": "seller",
              "type": "address"
            },
            {
              "internalType": "uint256[]",
              "name": "tokenIds",
              "type": "uint256[]"
            },
            {
              "internalType": "uint256[]",
              "name": "prices",
              "type": "uint256[]"
            },
            {
              "internalType": "uint256",
              "name": "bundlePrice",
              "type": "uint256"
            },
            {
              "internalType": "uint256",
              "name": "totalItems",
              "type": "uint256"
            },
            {
              "internalType": "uint256",
              "name": "soldItems",
              "type": "uint256"
            },
            {
              "internalType": "bool",
              "name": "isActive",
              "type": "bool"
            },
            {
              "internalType": "bool",
              "name": "isBundleType",
              "type": "bool"
            },
            {
              "internalType": "uint256",
              "name": "createdAt",
              "type": "uint256"
            },
            {
              "internalType": "string",
              "name": "collectionName",
              "type": "string"
            },
            {
              "internalType": "enum NFTMarket.ListingType",
              "name": "listingType",
              "type": "uint8"
            }
          ],
          "internalType": "struct NFTMarket.CollectionListing",
          "name": "",
          "type": "tuple"
        }
      ],
      "stateMutability": "view",
      "type": "function"
    },
    {
      "inputs": [
        {
          "internalType": "uint256",
          "name": "collectionId",
          "type": "uint256"
        }
      ],
      "name": "getCollectionItems",
      "outputs": [
        {
          "internalType": "uint256[]",
          "name": "",
          "type": "uint256[]"
        }
      ],
      "stateMutability": "view",
      "type": "function"
    },
    {
      "inputs": [],
      "name": "getFeesBalance",
      "outputs": [
        {
          "internalType": "uint256",
          "name": "",
          "type": "uint256"
        }
      ],
      "stateMutability": "view",
      "type": "function"
    },
    {
      "inputs": [],
      "name": "getIndividualCollections",
      "outputs": [
        {
          "internalType": "uint256[]",
          "name": "",
          "type": "uint256[]"
        }
      ],
      "stateMutability": "view",
      "type": "function"
    },
    {
      "inputs": [
        {
          "internalType": "uint256",
          "name": "listingId",
          "type": "uint256"
        }
      ],
      "name": "getListing",
      "outputs": [
        {
          "components": [
            {
              "internalType": "uint256",
              "name": "tokenId",
              "type": "uint256"
            },
            {
              "internalType": "address",
              "name": "nftContract",
              "type": "address"
            },
            {
              "internalType": "address",
              "name": "seller",
              "type": "address"
            },
            {
              "internalType": "uint256",
              "name": "price",
              "type": "uint256"
            },
            {
              "internalType": "bool",
              "name": "isActive",
              "type": "bool"
            },
            {
              "internalType": "uint256",
              "name": "createdAt",
              "type": "uint256"
            },
            {
              "internalType": "uint256",
              "name": "collectionId",
              "type": "uint256"
            }
          ],
          "internalType": "struct NFTMarket.Listing",
          "name": "",
          "type": "tuple"
        }
      ],
      "stateMutability": "view",
      "type": "function"
    },
    {
      "inputs": [
        {
          "internalType": "uint256",
          "name": "id",
          "type": "uint256"
        }
      ],
      "name": "getListingInfo",
      "outputs": [
        {
          "internalType": "bool",
          "name": "isBundle",
          "type": "bool"
        },
        {
          "internalType": "uint256",
          "name": "tokenId",
          "type": "uint256"
        },
        {
          "internalType": "address",
          "name": "nftContract",
          "type": "address"
        },
        {
          "internalType": "address",
          "name": "seller",
          "type": "address"
        },
        {
          "internalType": "uint256",
          "name": "price",
          "type": "uint256"
        },
        {
          "internalType": "bool",
          "name": "isActive",
          "type": "bool"
        },
        {
          "internalType": "string",
          "name": "collectionName",
          "type": "string"
        },
        {
          "internalType": "uint256[]",
          "name": "tokenIds",
          "type": "uint256[]"
        }
      ],
      "stateMutability": "view",
      "type": "function"
    },
    {
      "inputs": [],
      "name": "getMarketplaceStats",
      "outputs": [
        {
          "internalType": "uint256",
          "name": "totalListings",
          "type": "uint256"
        },
        {
          "internalType": "uint256",
          "name": "totalCollections",
          "type": "uint256"
        },
        {
          "internalType": "uint256",
          "name": "activeListings",
          "type": "uint256"
        },
        {
          "internalType": "uint256",
          "name": "activeBundles",
          "type": "uint256"
        },
        {
          "internalType": "uint256",
          "name": "activeIndividualCollections",
          "type": "uint256"
        }
      ],
      "stateMutability": "view",
      "type": "function"
    },
    {
      "inputs": [
        {
          "internalType": "uint256",
          "name": "specialId",
          "type": "uint256"
        }
      ],
      "name": "getRealCollectionId",
      "outputs": [
        {
          "internalType": "uint256",
          "name": "",
          "type": "uint256"
        }
      ],
      "stateMutability": "pure",
      "type": "function"
    },
    {
      "inputs": [
        {
          "internalType": "address",
          "name": "seller",
          "type": "address"
        }
      ],
      "name": "getSellerCollections",
      "outputs": [
        {
          "internalType": "uint256[]",
          "name": "",
          "type": "uint256[]"
        }
      ],
      "stateMutability": "view",
      "type": "function"
    },
    {
      "inputs": [
        {
          "internalType": "address",
          "name": "seller",
          "type": "address"
        }
      ],
      "name": "getSellerListings",
      "outputs": [
        {
          "internalType": "uint256[]",
          "name": "",
          "type": "uint256[]"
        }
      ],
      "stateMutability": "view",
      "type": "function"
    },
    {
      "inputs": [],
      "name": "getTotalCollections",
      "outputs": [
        {
          "internalType": "uint256",
          "name": "",
          "type": "uint256"
        }
      ],
      "stateMutability": "view",
      "type": "function"
    },
    {
      "inputs": [],
      "name": "getTotalListings",
      "outputs": [
        {
          "internalType": "uint256",
          "name": "",
          "type": "uint256"
        }
      ],
      "stateMutability": "view",
      "type": "function"
    },
    {
      "inputs": [
        {
          "internalType": "uint256",
          "name": "id",
          "type": "uint256"
        }
      ],
      "name": "isBundleCollectionId",
      "outputs": [
        {
          "internalType": "bool",
          "name": "",
          "type": "bool"
        }
      ],
      "stateMutability": "pure",
      "type": "function"
    },
    {
      "inputs": [
        {
          "internalType": "address",
          "name": "nftContract",
          "type": "address"
        },
        {
          "internalType": "uint256",
          "name": "tokenId",
          "type": "uint256"
        }
      ],
      "name": "isTokenListed",
      "outputs": [
        {
          "internalType": "bool",
          "name": "",
          "type": "bool"
        },
        {
          "internalType": "uint256",
          "name": "",
          "type": "uint256"
        }
      ],
      "stateMutability": "view",
      "type": "function"
    },
    {
      "inputs": [
        {
          "internalType": "address",
          "name": "nftContract",
          "type": "address"
        },
        {
          "internalType": "uint256[]",
          "name": "tokenIds",
          "type": "uint256[]"
        },
        {
          "internalType": "uint256",
          "name": "bundlePrice",
          "type": "uint256"
        },
        {
          "internalType": "string",
          "name": "collectionName",
          "type": "string"
        }
      ],
      "name": "listCollectionBundle",
      "outputs": [],
      "stateMutability": "nonpayable",
      "type": "function"
    },
    {
      "inputs": [
        {
          "internalType": "address",
          "name": "nftContract",
          "type": "address"
        },
        {
          "internalType": "uint256[]",
          "name": "tokenIds",
          "type": "uint256[]"
        },
        {
          "internalType": "uint256[]",
          "name": "prices",
          "type": "uint256[]"
        },
        {
          "internalType": "string",
          "name": "collectionName",
          "type": "string"
        }
      ],
      "name": "listCollectionIndividual",
      "outputs": [],
      "stateMutability": "nonpayable",
      "type": "function"
    },
    {
      "inputs": [
        {
          "internalType": "address",
          "name": "nftContract",
          "type": "address"
        },
        {
          "internalType": "uint256[]",
          "name": "tokenIds",
          "type": "uint256[]"
        },
        {
          "internalType": "uint256",
          "name": "pricePerItem",
          "type": "uint256"
        },
        {
          "internalType": "string",
          "name": "collectionName",
          "type": "string"
        }
      ],
      "name": "listCollectionSamePrice",
      "outputs": [],
      "stateMutability": "nonpayable",
      "type": "function"
    },
    {
      "inputs": [
        {
          "internalType": "address",
          "name": "nftContract",
          "type": "address"
        },
        {
          "internalType": "uint256",
          "name": "tokenId",
          "type": "uint256"
        },
        {
          "internalType": "uint256",
          "name": "price",
          "type": "uint256"
        }
      ],
      "name": "listSingleNFT",
      "outputs": [],
      "stateMutability": "nonpayable",
      "type": "function"
    },
    {
      "inputs": [
        {
          "internalType": "uint256",
          "name": "",
          "type": "uint256"
        }
      ],
      "name": "listings",
      "outputs": [
        {
          "internalType": "uint256",
          "name": "tokenId",
          "type": "uint256"
        },
        {
          "internalType": "address",
          "name": "nftContract",
          "type": "address"
        },
        {
          "internalType": "address",
          "name": "seller",
          "type": "address"
        },
        {
          "internalType": "uint256",
          "name": "price",
          "type": "uint256"
        },
        {
          "internalType": "bool",
          "name": "isActive",
          "type": "bool"
        },
        {
          "internalType": "uint256",
          "name": "createdAt",
          "type": "uint256"
        },
        {
          "internalType": "uint256",
          "name": "collectionId",
          "type": "uint256"
        }
      ],
      "stateMutability": "view",
      "type": "function"
    },
    {
      "inputs": [],
      "name": "marketplaceFee",
      "outputs": [
        {
          "internalType": "uint256",
          "name": "",
          "type": "uint256"
        }
      ],
      "stateMutability": "view",
      "type": "function"
    },
    {
      "inputs": [],
      "name": "owner",
      "outputs": [
        {
          "internalType": "address",
          "name": "",
          "type": "address"
        }
      ],
      "stateMutability": "view",
      "type": "function"
    },
    {
      "inputs": [],
      "name": "paused",
      "outputs": [
        {
          "internalType": "bool",
          "name": "",
          "type": "bool"
        }
      ],
      "stateMutability": "view",
      "type": "function"
    },
    {
      "inputs": [],
      "name": "renounceOwnership",
      "outputs": [],
      "stateMutability": "nonpayable",
      "type": "function"
    },
    {
      "inputs": [
        {
          "internalType": "address",
          "name": "",
          "type": "address"
        },
        {
          "internalType": "uint256",
          "name": "",
          "type": "uint256"
        }
      ],
      "name": "sellerCollections",
      "outputs": [
        {
          "internalType": "uint256",
          "name": "",
          "type": "uint256"
        }
      ],
      "stateMutability": "view",
      "type": "function"
    },
    {
      "inputs": [
        {
          "internalType": "address",
          "name": "",
          "type": "address"
        },
        {
          "internalType": "uint256",
          "name": "",
          "type": "uint256"
        }
      ],
      "name": "sellerListings",
      "outputs": [
        {
          "internalType": "uint256",
          "name": "",
          "type": "uint256"
        }
      ],
      "stateMutability": "view",
      "type": "function"
    },
    {
      "inputs": [
        {
          "internalType": "uint256",
          "name": "newFee",
          "type": "uint256"
        }
      ],
      "name": "setMarketplaceFee",
      "outputs": [],
      "stateMutability": "nonpayable",
      "type": "function"
    },
    {
      "inputs": [
        {
          "internalType": "bool",
          "name": "_paused",
          "type": "bool"
        }
      ],
      "name": "setPaused",
      "outputs": [],
      "stateMutability": "nonpayable",
      "type": "function"
    },
    {
      "inputs": [
        {
          "internalType": "address",
          "name": "",
          "type": "address"
        },
        {
          "internalType": "uint256",
          "name": "",
          "type": "uint256"
        }
      ],
      "name": "tokenToListingId",
      "outputs": [
        {
          "internalType": "uint256",
          "name": "",
          "type": "uint256"
        }
      ],
      "stateMutability": "view",
      "type": "function"
    },
    {
      "inputs": [
        {
          "internalType": "address",
          "name": "newOwner",
          "type": "address"
        }
      ],
      "name": "transferOwnership",
      "outputs": [],
      "stateMutability": "nonpayable",
      "type": "function"
    },
    {
      "inputs": [
        {
          "internalType": "uint256",
          "name": "collectionId",
          "type": "uint256"
        },
        {
          "internalType": "uint256",
          "name": "newBundlePrice",
          "type": "uint256"
        }
      ],
      "name": "updateBundlePrice",
      "outputs": [],
      "stateMutability": "nonpayable",
      "type": "function"
    },
    {
      "inputs": [
        {
          "internalType": "uint256",
          "name": "listingId",
          "type": "uint256"
        },
        {
          "internalType": "uint256",
          "name": "newPrice",
          "type": "uint256"
        }
      ],
      "name": "updatePrice",
      "outputs": [],
      "stateMutability": "nonpayable",
      "type": "function"
    },
    {
      "inputs": [],
      "name": "withdrawFees",
      "outputs": [],
      "stateMutability": "nonpayable",
      "type": "function"
    }
  ],
  "bytecode": "0x60803460d957601f614cc038819003918201601f19168301916001600160401b0383118484101760de5780849260209460405283398101031260d957516001600160a01b0381169081900360d9576001600055801560c357600180546001600160a01b03198116831790915560405191906001600160a01b03167f8be0079c531659141344cd1fd0a4f28419497f9722a3daafe3b4186f6b6457e0600080a360fa60045560ff19600a5416600a5560016002556001600355614bcb90816100f58239f35b631e4fbdf760e01b600052600060045260246000fd5b600080fd5b634e487b7160e01b600052604160045260246000fdfe6080604052600436101561001257600080fd5b6000803560e01c8063054564f0146134e45780630d40ec331461342b578063107a274a1461332d57806316a491861461331157806316c38b3c146132d95780631796a1851461315757806317d42a7a14612ad5578063305a67a81461298057806330a40b6c146127ed5780634035cc6c146127d15780634492baa2146127ae578063476343ee1461272357806351ed82881461246c57806351eee10f1461236e5780635471b47a146123385780635a1f3c28146120f75780635c975abb146120d45780635f42da091461209157806363f2c7f414611afb5780636a16696414612073578063715018a61461201857806378436e0114611f315780637b189f5b14611e345780637c5180be14611df2578063812d966a14611cc357806382367b2d14611b0057806387c35bc014611afb5780638da5cb5b14611ad4578063939bf6dd14611aa85780639407ea9814611a385780639b9489941461181c578063a6b9e794146117d2578063a876855d1461126f578063b9314135146111f0578063bc063e1a146111d3578063c316a13214611100578063c45c687914610d85578063ce05cfb514610d51578063d2da06e014610c4e578063d4910254146109d0578063de74e57b1461094d578063e24bc63614610908578063e344c9dc146108b1578063f2fde38b14610811578063fb615906146102595763fbf30c351461021757600080fd5b3461025657806003193601126102565760025460001981019190821161024257602082604051908152f35b80634e487b7160e01b602492526011600452fd5b80fd5b50346102565761026836613608565b92909391610274614743565b61028360ff600a541615613a54565b60018211156107cd576102996064831115613b12565b8015610763576102aa841515613b5d565b865b8281106107445750600354936102c1856139d1565b6003556020916040516102d4848261390b565b8981526000368137604051906102e9826138ee565b8782526001600160a01b038a1685830152604082019033825261030d36888a613bb8565b906060840191825260808401528360a08401528660c08401528b60e0840152600161010084015260016101208401524261014084015261034e36868c613c04565b6101608401526001610180840152888c52600686526001600160a01b0360408d209284518455818886015116826001860191166001600160a01b031982541617905551166001600160a01b036002840191166001600160a01b03198254161790555180519067ffffffffffffffff8211610700576801000000000000000082116107005786908d60038501548460038701558484828210610726575b5050505001600383018d52868d208d5b8381106107145750505050608082015180519067ffffffffffffffff8211610700576801000000000000000082116107005786908d600485015484600487015584848282106106e2575b5050505001600483018d52868d208d5b8381106106d0575050505060a0820151600582015560c0820151600682015560e082015160078201556008810161049e6101008401511515829060ff801983541691151516179055565b610120830151815461ff00191690151560081b61ff001617905561014082015160098201556101608201518051600a83019167ffffffffffffffff82116106bc578d906104eb8454613882565b601f8111610683575b508891601f84116001146106195792600b9492819261018097959261060e575b50508160011b916000199060031b1c19161790555b0191015160038110156105fa5760ff80198354169116179055885b8481106105c75750916105bd917ff62a26216db7058f6f783fd8278dce1204c87b0f2b394a415d7b24c70561e7d8959493338b52600983526105898860408d20613a9f565b6105a0604051968796606088526060880191613c6e565b9285015283820360408501526001600160a01b0333991697613cab565b0390a46001815580f35b6001906001600160a01b038a168b526007855260408b206105e982888a613ba8565b358c5285528760408c205501610544565b60248b634e487b7160e01b81526021600452fd5b015190503880610514565b9190601f1984168584528a8420935b8b82821061066d5750509260019285926101809896600b989610610654575b505050811b019055610529565b015160001960f88460031b161c19169055388080610647565b6001859682939686015181550195019301610628565b6106ac908584528a8420601f860160051c8101918c87106106b2575b601f0160051c0190613c57565b386104f4565b909150819061069f565b60248e634e487b7160e01b81526041600452fd5b82518282015591880191600101610454565b6106f793600489018152209182019101613c57565b8d388484610444565b60248d634e487b7160e01b81526041600452fd5b825182820155918801916001016103fa565b61073b93600389018152209182019101613c57565b8d3884846103ea565b8061075d836107566001948789613ba8565b358a61477e565b016102ac565b608460405162461bcd60e51b815260206004820152602360248201527f42756e646c65207072696365206d75737420626520677265617465722074686160448201527f6e203000000000000000000000000000000000000000000000000000000000006064820152fd5b606460405162461bcd60e51b815260206004820152602060248201527f42756e646c65206d7573742068617665206174206c656173742032204e4654736044820152fd5b5034610256576020366003190112610256576001600160a01b0361083361352c565b61083b614701565b168015610885576001600160a01b03600154826001600160a01b0319821617600155167f8be0079c531659141344cd1fd0a4f28419497f9722a3daafe3b4186f6b6457e08380a380f35b6024827f1e4fbdf700000000000000000000000000000000000000000000000000000000815280600452fd5b5034610256576040366003190112610256576108cb61352c565b6001600160a01b03168152600960205260408120805460243592908310156102565760206108f98484613547565b90549060031b1c604051908152f35b50346102565760203660031901126102565760043590620f424082111561094457620f423f19820191821161024257506020905b604051908152f35b5060209061093c565b503461025657602036600319011261025657604060e09160043581526005602052208054906001600160a01b03600182015416906001600160a01b03600282015416600382015460ff6004840154169160066005850154940154946040519687526020870152604086015260608501521515608084015260a083015260c0820152f35b5034610256576109df3661386c565b9082600192600254935b848110610c1a57506003549060015b828110610bc457508301808411610bb057828111610ba9575b8380821115610ba157610a23916141fc565b945b610a2e86613a0e565b918193829760015b88811080610b98575b15610aad57808552600560205260ff600460408720015416610a6a575b610a65906139d1565b610a36565b9587811015610a88575b610a80610a65916139d1565b969050610a5c565b98610a80610aa48289610a9e610a65958b613a40565b526139d1565b9a915050610a74565b509088949295969160015b87811080610b8f575b15610b6c57808652600660205260ff60086040882001541680610b50575b610af2575b610aed906139d1565b610ab8565b9783811015610b10575b610b08610aed916139d1565b989050610ae4565b95620f42408901808a11610b3c57610b3382610b0892610a9e610aed958a613a40565b97915050610afc565b602487634e487b7160e01b81526011600452fd5b50808652600660205260ff600860408820015460081c16610adf565b610b858584604051928392604084526040840190613575565b9060208301520390f35b50818710610ac1565b50818a10610a3f565b505084610a25565b5081610a11565b602486634e487b7160e01b81526011600452fd5b808752600660205260ff60086040892001541680610bfe575b610bea575b6001016109f8565b92610bf66001916139d1565b939050610be2565b50808752600660205260ff600860408920015460081c16610bdd565b808652600560205260ff600460408820015416610c3a575b6001016109e9565b91610c466001916139d1565b929050610c32565b50346102565780600319360112610256576003548160015b828110610cfa5750610c7790613a0e565b918060015b838110610c9d5760405160208082528190610c9990820188613575565b0390f35b808252600660205260ff60086040842001541680610cdd575b610cc3575b600101610c7c565b91610cd58184610a9e60019489613a40565b929050610cbb565b50808252600660205260ff600860408420015460081c1615610cb6565b808452600660205260ff60086040862001541680610d34575b610d20575b600101610c66565b90610d2c6001916139d1565b919050610d18565b50808452600660205260ff600860408620015460081c1615610d13565b503461025657602036600319011261025657610c99610d71600435614528565b604051918291602083526020830190613575565b50346102565760203660031901126102565760043590610da3614743565b620f4240821115610fc157620f423f198201918211610242578181526006602052604081209060028201926001600160a01b0384541633148015610fa8575b610deb90613d88565b60ff60088401805490610dff838316613df9565b82198216905560081c1615610eb3576001830193926003810191835b8354811015610e5f576001906001600160a01b038854168652600760205260408620610e478287613547565b90549060031b1c875260205285604081205501610e1b565b50929450927fdc5ead55dd48e8e5efda7cd38e07a916521f6e3c148b3b9e77a9aaeed47ca816915060ff600b6001600160a01b036020935b541695015416610eaa60405180926136b3565ba35b6001815580f35b6003830193926001810191835b8654811015610f6c5780610ed660019289613547565b90549060031b1c6001600160a01b038654168752600760205260408720818852602052604087205480151580610f53575b610f14575b505001610ec0565b875260056020526004604088200160ff1981541690556001600160a01b0386541687526007602052604087209087526020528560408120553880610f0c565b50808852600560205260ff600460408a20015416610f07565b50929450927fdc5ead55dd48e8e5efda7cd38e07a916521f6e3c148b3b9e77a9aaeed47ca816915060ff600b6001600160a01b03602093610e97565b50610deb6001600160a01b036001541633149050610de2565b908082526005602052604082209060028201916001600160a01b03835416331480156110e7575b610ff190613ccc565b60048101805461100360ff8216613d3d565b60ff1916905560068101908154806110be575b506001600160a01b0360018201541685526007602052604085209054855260205283604081205554151560001461108c577fbcd90e03d79e4632f324d681a7b699d3e20eea44ee9a57e2b556f986151328bf60206001600160a01b036002945b54169361108660405180926136b3565ba3610eac565b7fbcd90e03d79e4632f324d681a7b699d3e20eea44ee9a57e2b556f986151328bf60206001600160a01b038594611076565b808652600660205260ff600860408820015460081c16611016576110e190614a1f565b38611016565b50610ff16001600160a01b036001541633149050610fe8565b503461025657602036600319011261025657604090600435815260066020522080546001600160a01b0360018301541691610c996111c76001600160a01b0360028401541692600581015460ff6006830154600784015460088501549160098601549484600b611172600a8a0161392d565b98015416996040519c8d9c8d5260208d015260408c015260608b015260808a015260a0890152818116151560c089015260081c16151560e0870152610100860152610160610120860152610160850190613672565b916101408401906136b3565b503461025657806003193601126102565760206040516103e88152f35b5034610256576020366003190112610256576001600160a01b0380610c9961126161121c60043561432c565b9796999293919460409b91969b519b8c9b15158c5260208c01521660408a01521660608801526080870152151560a086015261010060c0860152610100850190613672565b9083820360e0850152613575565b50602036600319011261025657600435611287614743565b61129660ff600a541615613a54565b620f424081111561151b57620f423f1981019081116115075780825260066020526040822091600883018054906112cf60ff8316614209565b6112de60ff8360081c166141b1565b600585016112ef8154341015613e8f565b60028601916001600160a01b038354169361130c85331415614254565b85976003810195600187549201996001600160a01b038b5416905b838110611474575050505060ff19169055835b835481101561141f576001600160a01b038754166001600160a01b03845416906113648387613547565b90549060031b1c91813b1561141b57604051632142170760e11b81526001600160a01b03919091166004820152336024820152604481019290925286908290606490829084905af18015611410579086916113f7575b50506001906001600160a01b0388541686526007602052604086206113df8287613547565b90549060031b1c87526020528560408120550161133a565b816114019161390b565b61140c5784386113ba565b8480fd5b6040513d88823e3d90fd5b8780fd5b509294506105bd6001600160a01b037f7067ec4d74acf8b7a0c7016b4c760807811b23974808ee0b444e7318862df6fe9295939561146282825416875490614ad9565b54169354604051918291339783614310565b61147e818a613547565b90549060031b1c604051906331a9108f60e11b82526004820152602081602481865afa9081156114fc57846001600160a01b03600194936114c8938f916114ce575b50161461429f565b01611327565b6114ef915060203d81116114f5575b6114e7818361390b565b810190613f25565b386114c0565b503d6114dd565b6040513d8d823e3d90fd5b602482634e487b7160e01b81526011600452fd5b8082526005602052604082206004810191825461153a60ff8216613e44565b600383019261154c8454341015613e8f565b60028101946001600160a01b038654169261156984331415613eda565b60018301936001600160a01b0385541690602085546024604051809581936331a9108f60e11b835260048301525afa9182156117c7576115bb926001600160a01b03918c916117a8575b501614613f44565b60ff1916905560068101918254806116ff575b506115e56001600160a01b03875416865490614ad9565b866001600160a01b038254166001600160a01b038854168454823b156116fb57604051632142170760e11b81526001600160a01b0392909216600483015233602483015260448201529082908290606490829084905af180156116f0576116d7575b50506001600160a01b039054168652600760205260408620905486526020528460408120555415156000146116c55761169a6001600160a01b036002945b541692549360405194855260208501906136b3565b7f54b68cf87fc5a8ca9fb6c2907055c98b559710d037e907a8ad031fefa3caa6de60403394a4610eac565b61169a6001600160a01b038594611685565b816116e19161390b565b6116ec578638611647565b8680fd5b6040513d84823e3d90fd5b8380fd5b8752600660205260408720600881019081549060ff8260081c1615611726575b50506115ce565b6006600782019161173783546139d1565b8093550154111561179b575b505082548654835487546040805133815260208101939093528201526001600160a01b039091169186917fbd52b6cd44c39a32faa73265e074137d84ad807d755ae2929e25b83d4bf5436590606090a438808061171f565b60ff191690553880611743565b6117c1915060203d6020116114f5576114e7818361390b565b386115b3565b6040513d8c823e3d90fd5b503461025657602036600319011261025657611815610d716040610c99936001600160a01b0361180061352c565b16815260096020522060405192838092613fda565b038261390b565b50602036600319011261025657600435611834614743565b61184360ff600a541615613a54565b808252600660205260408220916008830180549061186360ff8316614209565b61187260ff8360081c166141b1565b600585016118838154341015613e8f565b60028601916001600160a01b03835416936118a085331415614254565b85976003810195600187549201996001600160a01b038b5416905b8381106119df575050505060ff19169055835b83548110156119a0576001600160a01b038754166001600160a01b03845416906118f88387613547565b90549060031b1c91813b1561141b57604051632142170760e11b81526001600160a01b03919091166004820152336024820152604481019290925286908290606490829084905af180156114105790869161198b575b50506001906001600160a01b0388541686526007602052604086206119738287613547565b90549060031b1c8752602052856040812055016118ce565b816119959161390b565b61140c57843861194e565b50907f7067ec4d74acf8b7a0c7016b4c760807811b23974808ee0b444e7318862df6fe6105bd6001600160a01b03879361146282825416875490614ad9565b6119e9818a613547565b90549060031b1c604051906331a9108f60e11b82526004820152602081602481865afa9081156114fc57846001600160a01b0360019493611a32938f916114ce5750161461429f565b016118bb565b503461025657602036600319011261025657600435611a55614701565b6103e88111611a645760045580f35b606460405162461bcd60e51b815260206004820152601960248201527f4665652063616e6e6f7420657863656564206d6178696d756d000000000000006044820152fd5b503461025657806003193601126102565760035460001981019190821161024257602082604051908152f35b503461025657806003193601126102565760206001600160a01b0360015416604051908152f35b6136d6565b503461025657611b0f3661386c565b611b17614743565b81835260056020526040832090611b3c6001600160a01b036002840154163314614166565b60ff60048301541615611c7f57611b54811515613f8f565b60038201918183549355600681015480611ba2575b50507f15819dd2fd9f6418b142e798d08a18d0bf06ea368f4480b7b0d3f75bd966bc489160409182519182526020820152a26001815580f35b85526006602052604085209060ff600883015460081c16611b69579391859391959460038701955b8654811015611c4f57611bdd8188613547565b90549060031b1c825414611bf357600101611bca565b6040949650611c469150611c2d839160047f15819dd2fd9f6418b142e798d08a18d0bf06ea368f4480b7b0d3f75bd966bc48989a01613547565b90919082549060031b91821b91600019901b1916179055565b91819350611b69565b50507f15819dd2fd9f6418b142e798d08a18d0bf06ea368f4480b7b0d3f75bd966bc489395506040929450611c46565b606460405162461bcd60e51b815260206004820152601260248201527f4c697374696e67206e6f742061637469766500000000000000000000000000006044820152fd5b5034610256578060031936011261025657600254600019810190808211611dde576003546000198101818111611dca5784908592869460015b818110611d9657505060015b818110611d3157505060a095506040519485526020850152604084015260608301526080820152f35b808852600660205260ff600860408a20015416611d51575b600101611d08565b93848852600660205260ff600860408a20015460081c16600014611d8357611d7a6001916139d1565b945b9050611d49565b9394611d906001916139d1565b95611d7c565b808952600560205260ff600460408b20015416611db6575b600101611cfc565b93611dc26001916139d1565b949050611dae565b602485634e487b7160e01b81526011600452fd5b602483634e487b7160e01b81526011600452fd5b50346102565760403660031901126102565760406020916001600160a01b03611e1961352c565b16815260078352818120602435825283522054604051908152f35b50346102565780600319360112610256576003548160015b828110611edb5750611e5d90613a0e565b918060015b838110611e7f5760405160208082528190610c9990820188613575565b808252600660205260ff60086040842001541680611ebf575b611ea5575b600101611e62565b91611eb78184610a9e60019489613a40565b929050611e9d565b50808252600660205260ff600860408420015460081c16611e98565b808452600660205260ff60086040862001541680611f15575b611f01575b600101611e4c565b90611f0d6001916139d1565b919050611ef9565b50808452600660205260ff600860408620015460081c16611ef4565b503461025657611f403661386c565b611f48614743565b818352600660205260408320611f6c6001600160a01b036002830154163314614166565b60088101549160ff831615611fd4576005604092611fb060ff7f72de6a1593eb666e4946662c2c658c367eae1eef89ecc7124bd6e30f66f646a79660081c166141b1565b611fbb831515613f8f565b0190808254925582519182526020820152a26001815580f35b606460405162461bcd60e51b815260206004820152601560248201527f436f6c6c656374696f6e206e6f742061637469766500000000000000000000006044820152fd5b5034610256578060031936011261025657612031614701565b806001600160a01b036001546001600160a01b03198116600155167f8be0079c531659141344cd1fd0a4f28419497f9722a3daafe3b4186f6b6457e08280a380f35b50346102565780600319360112610256576020600454604051908152f35b503461025657602036600319011261025657611815610d716040610c99936001600160a01b036120bf61352c565b16815260086020522060405192838092613fda565b5034610256578060031936011261025657602060ff600a54166040519015158152f35b50346102565760203660031901126102565780604051612116816138ee565b818152816020820152816040820152606081016060905260808101606090528160a08201528160c08201528160e082015281610100820152816101208201528161014082015261016081016060905261018001526004358152600660205260409020604051612184816138ee565b8154815260018201546001600160a01b0316916020820192835260028101546001600160a01b0316906040830191825260405190818060038301906121c891613fda565b036121d3908361390b565b6060840191825260405191826121ec8160048501613fda565b036121f7908461390b565b6080850192835260058201549260a0860193845260068301549060c08701918252600784015460e0880190815260088501549261010089019260ff8516151584526101208a019460081c60ff16151585526009870154956101408b01968752600a88016122639061392d565b976101608c01988952600b015460ff16996101808c019a612284908c613c4b565b6040519c8d809d60208252519060200152516001600160a01b031660408d0152516001600160a01b031660608c01525160808b016101a090526101c08b016122cb91613575565b90518a8203601f190160a08c01526122e39190613575565b965160c08a01525160e0890152516101008801525115156101208701525115156101408601525161016085015251838203601f19016101808501526123289190613672565b90516101a08301610c99916136b3565b503461025657604036600319011261025657604061236061235761352c565b60243590614014565b825191151582526020820152f35b50346102565761237d36613608565b92939195949061238e851515613ac7565b612399871515613f8f565b6123a285613a0e565b96865b868110612457575050958596303b156116ec5786946124216124339361240f6001600160a01b03976040519a8b998a997f17d42a7a000000000000000000000000000000000000000000000000000000008b521660048a0152608060248a01526084890191613c6e565b86810360031901604488015290613575565b84810360031901606486015291613cab565b038183305af180156116f0576124465750f35b816124509161390b565b6102565780f35b80826124656001938c613a40565b52016123a5565b50602036600319011261025657600435612484614743565b61249360ff600a541615613a54565b808252600560205260408220600481019182546124b260ff8216613e44565b60038301926124c48454341015613e8f565b60028101946001600160a01b03865416926124e184331415613eda565b60018301936001600160a01b0385541690602085546024604051809581936331a9108f60e11b835260048301525afa9182156117c757612532926001600160a01b03918c916117a857501614613f44565b60ff19169055600681019182548061267a575b5061255c6001600160a01b03875416865490614ad9565b6001600160a01b03815416876001600160a01b0388541691845490803b1561267657604051632142170760e11b81526001600160a01b0394909416600485015233602485015260448401919091528290606490829084905af1801561266b57612650575b506001600160a01b0390541686526007602052604086209054865260205284604081205554151560001461263e576126116001600160a01b03600294541692549360405194855260208501906136b3565b7f54b68cf87fc5a8ca9fb6c2907055c98b559710d037e907a8ad031fefa3caa6de60403394a46001815580f35b6126116001600160a01b038594611685565b96612664816001600160a01b03939961390b565b96906125c0565b6040513d8a823e3d90fd5b8280fd5b8752600660205260408720600881019081549060ff8260081c16156126a1575b5050612545565b600660078201916126b283546139d1565b80935501541115612716575b505082548654835487546040805133815260208101939093528201526001600160a01b039091169186917fbd52b6cd44c39a32faa73265e074137d84ad807d755ae2929e25b83d4bf5436590606090a438808061269a565b60ff1916905538806126be565b503461025657806003193601126102565761273c614701565b47801561276a5781808080936001600160a01b036001541682f11561275e5780f35b604051903d90823e3d90fd5b606460405162461bcd60e51b815260206004820152601360248201527f4e6f206665657320746f207769746864726177000000000000000000000000006044820152fd5b5034610256576020366003190112610256576020604051620f4240600435118152f35b5034610256578060031936011261025657602060405160648152f35b5034610256576020366003190112610256576004359061280b614743565b8181526006602052604081209060028201926001600160a01b0384541633148015612967575b61283a90613d88565b60ff6008840180549061284e838316613df9565b82198216905560081c16156128ae576001830193926003810191835b8354811015610e5f576001906001600160a01b0388541686526007602052604086206128968287613547565b90549060031b1c87526020528560408120550161286a565b6003830193926001810191835b8654811015610f6c57806128d160019289613547565b90549060031b1c6001600160a01b03865416875260076020526040872081885260205260408720548015158061294e575b61290f575b5050016128bb565b875260056020526004604088200160ff1981541690556001600160a01b0386541687526007602052604087209087526020528560408120553880612907565b50808852600560205260ff600460408a20015416612902565b5061283a6001600160a01b036001541633149050612831565b50346102565760203660031901126102565760043561299d614743565b8082526005602052604082209060028201916001600160a01b0383541633148015612abc575b6129cc90613ccc565b6004810180546129de60ff8216613d3d565b60ff191690556006810190815480612a93575b506001600160a01b03600182015416855260076020526040852090548552602052836040812055541515600014612a61577fbcd90e03d79e4632f324d681a7b699d3e20eea44ee9a57e2b556f986151328bf60206001600160a01b036002945b541693610eaa60405180926136b3565b7fbcd90e03d79e4632f324d681a7b699d3e20eea44ee9a57e2b556f986151328bf60206001600160a01b038594612a51565b808652600660205260ff600860408820015460081c166129f157612ab690614a1f565b386129f1565b506129cc6001600160a01b0360015416331490506129c3565b503461025657608036600319011261025657612aef61352c565b9060243567ffffffffffffffff811161315357612b109036906004016135a9565b929060443567ffffffffffffffff81116116fb57612b329036906004016135a9565b91909460643567ffffffffffffffff811161314f57612b559036906004016135da565b9093612b5f614743565b612b6e60ff600a541615613a54565b612b79831515613ac7565b80830361310b57612b8d6064841115613b12565b612b98821515613b5d565b865b8381106130df57509686978487876001600160a01b0387816040612bf49c9d9e612c3c6003549e8f99612bcc8b6139d1565b60035584519a612bdb8c6138ee565b8b528560208c019a168a52848b01963388523691613bb8565b60608a0190815296612c07368c8e613bb8565b60808b01528260a08b01528d60c08b01528260e08b015260016101008b0152826101208b0152426101408b01528c3691613c04565b61016089015260026101808901528d815260066020522094865186555116826001860191166001600160a01b031982541617905551166001600160a01b036002840191166001600160a01b03198254161790555180519067ffffffffffffffff821161070057680100000000000000008211610700576020908d6003850154846003870155848181106130c1575b50505001600383018d5260208d208d5b8381106130ad5750505050608082015180519067ffffffffffffffff821161070057680100000000000000008211610700576020908d60048501548460048701558481811061308f575b50505001600483018d5260208d208d5b83811061307b575050505060a0820151600582015560c0820151600682015560e0820151600782015560088101612d7e6101008401511515829060ff801983541691151516179055565b610120830151815461ff00191690151560081b61ff001617905561014082015160098201556101608201518051600a83019167ffffffffffffffff82116106bc578d90612dcb8454613882565b601f811161304b575b50602091601f8411600114612fe15792600b94928192610180979592612fd6575b50508160011b916000199060031b1c19161790555b0191015160038110156105fa5760ff801983541691161790558589805b8a878210612eb1575050927f192e2bd717ba2c5fea9b536f6b4830c8d8125e8ab645633b694641bb0b263ed796959492612e72612e979360406105bd97338152600960205220613a9f565b612e89604051978897606089526060890191613c6e565b918683036020880152613c6e565b9083820360408501526001600160a01b0333991697613cab565b612ee2604083946001600160a01b038c948a600660019a8f8a8e612eea612fcd9d612ef1946002549e8f9e8f6139d1565b600255613ba8565b3595613ba8565b3592612f94898951958693612f05856138bc565b8452888a8160208701818c1681528e8089019333855260608a0196875260808a01976001895260c060a08c019b428d52019b8c5281526005602052209a518b555116600183908b0191166001600160a01b03198254161790555116896002890191166001600160a01b0319825416179055516003870155511515600486019060ff801983541691151516179055565b516005840155519101551681526007602052818120612fb4878d8f613ba8565b3582526020522055338d52600860205260408d20613a9f565b01898791612e27565b015190503880612df5565b9190601f198416858452828420935b81811061303357509260019285926101809896600b98961061301a575b505050811b019055612e0a565b015160001960f88460031b161c1916905538808061300d565b92936020600181928786015181550195019301612ff0565b6130759085845260208420601f860160051c810191602087106106b257601f0160051c0190613c57565b38612dd4565b600190602084519401938184015501612d34565b846130a593600489018152209182019101613c57565b8d3884612d24565b600190602084519401938184015501612cda565b846130d793600389018152209182019101613c57565b8d3884612cca565b806131058a6130fd83866130f66001978b8d613ba8565b3593613ba8565b35908a61477e565b01612b9a565b606460405162461bcd60e51b815260206004820152601660248201527f417272617973206c656e677468206d69736d61746368000000000000000000006044820152fd5b8580fd5b5080fd5b50346102565760603660031901126102565761317161352c565b60243590604435613180614743565b61318f60ff600a541615613a54565b61319a81848461477e565b7fa6730af3fc9c329b107536e5f7c96cab5132ac72b52afac07aaae37e06aca7466060600254926131ca846139d1565b6002556040516131d9816138bc565b868152600685896132886001600160a01b03602086019a16998a8152604086013381526001600160a01b03898801918983528160808a019460018652604060a08c0198428a5260c08d019a818c5281526005602052209a518b5551168260018b0191166001600160a01b031982541617905551166001600160a01b036002890191166001600160a01b0319825416179055516003870155511515600486019060ff801983541691151516179055565b5160058401555191015584875260076020526040872086885260205283604088205533875260086020526132bf8460408920613a9f565b604051903382526020820152866040820152a46001815580f35b50346102565760203660031901126102565760043580151580910361315357613300614701565b60ff8019600a5416911617600a5580f35b5034610256578060031936011261025657602047604051908152f35b50346102565760203660031901126102565760408160e09260c08351613352816138bc565b82815282602082015282858201528260608201528260808201528260a08201520152600435815260056020522060405161338b816138bc565b8154918282526001600160a01b03600182015416602083019081526001600160a01b03600283015416604084019081526001600160a01b03600384015491606086019283528160ff6004870154169460808801951515865260c0600660058901549860a08b01998a5201549801978852604051988952511660208801525116604086015251606085015251151560808401525160a08301525160c0820152f35b50346102565780600319360112610256576003548160015b8281106134b0575061345490613a0e565b918060015b8381106134765760405160208082528190610c9990820188613575565b808252600660205260ff600860408420015416613496575b600101613459565b916134a88184610a9e60019489613a40565b92905061348e565b808452600660205260ff6008604086200154166134d0575b600101613443565b906134dc6001916139d1565b9190506134c8565b5034610256576040366003190112610256576134fe61352c565b6001600160a01b03168152600860205260408120805460243592908310156102565760206108f98484613547565b600435906001600160a01b038216820361354257565b600080fd5b805482101561355f5760005260206000200190600090565b634e487b7160e01b600052603260045260246000fd5b906020808351928381520192019060005b8181106135935750505090565b8251845260209384019390920191600101613586565b9181601f840112156135425782359167ffffffffffffffff8311613542576020808501948460051b01011161354257565b9181601f840112156135425782359167ffffffffffffffff8311613542576020838186019501011161354257565b6080600319820112613542576004356001600160a01b0381168103613542579160243567ffffffffffffffff81116135425782613647916004016135a9565b92909291604435916064359067ffffffffffffffff82116135425761366e916004016135da565b9091565b919082519283825260005b84811061369e575050826000602080949584010152601f8019910116010190565b8060208092840101518282860101520161367d565b9060038210156136c05752565b634e487b7160e01b600052602160045260246000fd5b346135425760003660031901126135425760025460008060015b83811061383857506003549060015b8281106137e2575061371090613a0e565b91809360015b8181106137a857505060015b82811061373f5760405160208082528190610c9990820187613575565b808252600660205260ff6008604084200154168061378c575b613765575b600101613722565b93620f42408501808611611dde578161378491610a9e60019488613a40565b94905061375d565b50808252600660205260ff600860408420015460081c16613758565b808352600560205260ff6004604085200154166137c8575b600101613716565b946137da8187610a9e60019489613a40565b9590506137c0565b808452600660205260ff6008604086200154168061381c575b613808575b6001016136ff565b906138146001916139d1565b919050613800565b50808452600660205260ff600860408620015460081c166137fb565b808352600560205260ff600460408520015416613858575b6001016136f0565b906138646001916139d1565b919050613850565b6040906003190112613542576004359060243590565b90600182811c921680156138b2575b602083101461389c57565b634e487b7160e01b600052602260045260246000fd5b91607f1691613891565b60e0810190811067ffffffffffffffff8211176138d857604052565b634e487b7160e01b600052604160045260246000fd5b6101a0810190811067ffffffffffffffff8211176138d857604052565b90601f8019910116810190811067ffffffffffffffff8211176138d857604052565b906040519182600082549261394184613882565b80845293600181169081156139af5750600114613968575b506139669250038361390b565b565b90506000929192526020600020906000915b8183106139935750509060206139669282010138613959565b602091935080600191548385890101520191019091849261397a565b90506020925061396694915060ff191682840152151560051b82010138613959565b60001981146139e05760010190565b634e487b7160e01b600052601160045260246000fd5b67ffffffffffffffff81116138d85760051b60200190565b90613a18826139f6565b613a25604051918261390b565b8281528092613a36601f19916139f6565b0190602036910137565b805182101561355f5760209160051b010190565b15613a5b57565b606460405162461bcd60e51b815260206004820152601260248201527f436f6e74726163742069732070617573656400000000000000000000000000006044820152fd5b90815491680100000000000000008310156138d85782611c2d91600161396695018155613547565b15613ace57565b606460405162461bcd60e51b815260206004820152601060248201527f456d70747920636f6c6c656374696f6e000000000000000000000000000000006044820152fd5b15613b1957565b606460405162461bcd60e51b815260206004820152601460248201527f436f6c6c656374696f6e20746f6f206c617267650000000000000000000000006044820152fd5b15613b6457565b606460405162461bcd60e51b815260206004820152601860248201527f436f6c6c656374696f6e206e616d6520726571756972656400000000000000006044820152fd5b919081101561355f5760051b0190565b929190613bc4816139f6565b93613bd2604051958661390b565b602085838152019160051b810192831161354257905b828210613bf457505050565b8135815260209182019101613be8565b92919267ffffffffffffffff82116138d85760405191613c2e601f8201601f19166020018461390b565b829481845281830111613542578281602093846000960137010152565b60038210156136c05752565b818110613c62575050565b60008155600101613c57565b90918281527f07ffffffffffffffffffffffffffffffffffffffffffffffffffffffffffffff83116135425760209260051b809284830137010190565b908060209392818452848401376000828201840152601f01601f1916010190565b15613cd357565b608460405162461bcd60e51b815260206004820152602560248201527f4e6f7420617574686f72697a656420746f2063616e63656c2074686973206c6960448201527f7374696e670000000000000000000000000000000000000000000000000000006064820152fd5b15613d4457565b606460405162461bcd60e51b815260206004820152601860248201527f4c697374696e6720616c726561647920696e61637469766500000000000000006044820152fd5b15613d8f57565b608460405162461bcd60e51b815260206004820152602860248201527f4e6f7420617574686f72697a656420746f2063616e63656c207468697320636f60448201527f6c6c656374696f6e0000000000000000000000000000000000000000000000006064820152fd5b15613e0057565b606460405162461bcd60e51b815260206004820152601b60248201527f436f6c6c656374696f6e20616c726561647920696e61637469766500000000006044820152fd5b15613e4b57565b606460405162461bcd60e51b815260206004820152601a60248201527f54686973206c697374696e67206973206e6f74206163746976650000000000006044820152fd5b15613e9657565b606460405162461bcd60e51b815260206004820152601460248201527f496e73756666696369656e74207061796d656e740000000000000000000000006044820152fd5b15613ee157565b606460405162461bcd60e51b815260206004820152601760248201527f43616e6e6f742062757920796f7572206f776e204e46540000000000000000006044820152fd5b9081602091031261354257516001600160a01b03811681036135425790565b15613f4b57565b606460405162461bcd60e51b815260206004820152601e60248201527f53656c6c6572206e6f206c6f6e676572206f776e732074686973204e465400006044820152fd5b15613f9657565b606460405162461bcd60e51b815260206004820152601c60248201527f5072696365206d7573742062652067726561746572207468616e2030000000006044820152fd5b906020825491828152019160005260206000209060005b818110613ffe5750505090565b8254845260209093019260019283019201613ff1565b6001600160a01b03166000526007602052604060002090600052602052604060002054801561415d5760025481106141455760035481106140585750600090600090565b90816000526006602052604060002061413e604051614076816138ee565b825481526001600160a01b0360018401541660208201526001600160a01b0360028401541660408201526040516140b4816118158160038801613fda565b60608201526040516140cd816118158160048801613fda565b6080820152600583015460a0820152600683015460c0820152600783015460e082015261018060ff600b600886015495826101008601978181161515895260081c161515610120860152600981015461014086015261412e600a820161392d565b6101608601520154169101613c4b565b5115159190565b60008181526005602052604090206004015460ff1691565b50600090600090565b1561416d57565b606460405162461bcd60e51b815260206004820152601c60248201527f4f6e6c792073656c6c65722063616e20757064617465207072696365000000006044820152fd5b156141b857565b606460405162461bcd60e51b815260206004820152601c60248201527f54686973206973206e6f7420612062756e646c65206c697374696e67000000006044820152fd5b919082039182116139e057565b1561421057565b606460405162461bcd60e51b815260206004820152601860248201527f436f6c6c656374696f6e206973206e6f742061637469766500000000000000006044820152fd5b1561425b57565b606460405162461bcd60e51b815260206004820152601e60248201527f43616e6e6f742062757920796f7572206f776e20636f6c6c656374696f6e00006044820152fd5b156142a657565b608460405162461bcd60e51b815260206004820152602c60248201527f53656c6c6572206e6f206c6f6e676572206f776e7320616c6c204e465473206960448201527f6e20636f6c6c656374696f6e00000000000000000000000000000000000000006064820152fd5b929190614327602091604086526040860190613fda565b930152565b620f424081111561445e57620f423f1981019081116139e0576000526006602052604060002060405161435e816138ee565b815481526001600160a01b0360018301541690602081019182526001600160a01b0360028401541692604082019384526040516143a2816118158160038601613fda565b606083019081526040516143bd816118158160048701613fda565b60808401526001600160a01b038060058401549560a08601968752600685015460c0870152600785015460e087015261444160088601549660ff61010082019881811615158a5260081c161515610120820152600987015461014082015261018060ff600b61442e600a8b0161392d565b9961016085019a8b520154169101613c4b565b511695511693519251151591519051600196600096959493929190565b6000526005602052604060002090604051614478816138bc565b825481526001600160a01b0360018401541692602082019384526001600160a01b03600282015416926040830193845260038201549260608101938452600660ff60048501541693608083019415158552600581015460a0840152015460c08201526020906001600160a01b0380604051926144f4858561390b565b60008452600036813751985116965116945193511515926000979695949392614520604051918261390b565b600081529190565b6000526006602052604060002090604051614542816138ee565b825481526001600160a01b0360018401541692602082019384526001600160a01b03600282015416604083015261460a6040519261458e846145878160038701613fda565b038561390b565b606081019384526040516145a9816118158160048801613fda565b6080820152600583015460a0820152600683015460c0820152600783015460e082015261018060ff600b60088601549582871615156101008601528261012086019760081c1615158752600981015461014086015261412e600a820161392d565b516146e45761461a815151613a0e565b90600090815b8151518110156146a5576001600160a01b038651166000526007602052604060002061464d828451613a40565b516000526020526040600020548015158061468a575b614671575b50600101614620565b8361468391610a9e6001949688613a40565b9290614668565b5080600052600560205260ff60046040600020015416614663565b50509092506146b381613a0e565b9060005b8181106146c5575090925050565b806146d260019287613a40565b516146dd8286613a40565b52016146b7565b5090506040516146f560208261390b565b60008152600036813790565b6001600160a01b0360015416330361471557565b7f118cdaa7000000000000000000000000000000000000000000000000000000006000523360045260246000fd5b600260005414614754576002600055565b7f3ee5aeb50000000000000000000000000000000000000000000000000000000060005260046000fd5b6147926001600160a01b0392931515613f8f565b166040516331a9108f60e11b8152826004820152602081602481855afa90811561492d57600091614a00575b506001600160a01b03339116036149bc5780600052600760205260406000208260005260205260406000205461497857604051917fe985e9c5000000000000000000000000000000000000000000000000000000008352336004840152306024840152602083604481855afa92831561492d57600093614939575b5082156148b4575b50501561484a57565b608460405162461bcd60e51b815260206004820152602d60248201527f4d61726b6574706c616365206e6f7420617070726f76656420746f207472616e60448201527f736665722074686973204e4654000000000000000000000000000000000000006064820152fd5b60209192506024604051809481937f081812fc00000000000000000000000000000000000000000000000000000000835260048301525afa90811561492d5760009161490e575b506001600160a01b031630143880614841565b614927915060203d6020116114f5576114e7818361390b565b386148fb565b6040513d6000823e3d90fd5b6020939193813d602011614970575b816149556020938361390b565b81010312613153575190811515820361025657509138614839565b3d9150614948565b606460405162461bcd60e51b815260206004820152601260248201527f4e465420616c7265616479206c697374656400000000000000000000000000006044820152fd5b606460405162461bcd60e51b815260206004820152601660248201527f596f7520646f6e2774206f776e2074686973204e4654000000000000000000006044820152fd5b614a19915060203d6020116114f5576114e7818361390b565b386147be565b60005260066020526040600020600080600383018054916001600160a01b03600186015416905b838110614a66575050505015614a595750565b600801805460ff19169055565b8160005260076020526040600020614a7e8285613547565b90549060031b1c6000526020526040600020548015159081614abd575b50614aa9575b600101614a46565b93614ab56001916139d1565b949050614aa1565b9050600052600560205260ff6004604060002001541638614a9b565b6004548083029083820414831517156139e0576000808061271081940494614b0186886141fc565b9082908215614b8b575b6001600160a01b031690f11561492d5780158015614b5a575b5050803411614b305750565b60008080614b3f8194346141fc565b818115614b51575b3390f11561492d57565b506108fc614b47565b600080809381936001600160a01b0360015416908390614b82575bf11561492d573880614b24565b506108fc614b75565b6108fc9150614b0b56fea2646970667358221220fd331cdcb49a03f7cd833921006a909937a8f03022b9b7faf7197da5855e861c64736f6c634300081c0033",
  "linkReferences": {},
  "deployedLinkReferences": {}
}