{
  "_format": "hh-sol-artifact-1",
  "contractName": "SealedBidAuction",
  "sourceName": "contracts/sealedBidAuction.sol",
  "abi": [
    {
      "inputs": [
        {
          "internalType": "address",
          "name": "initialOwner",
          "type": "address"
        }
      ],
      "stateMutability": "nonpayable",
      "type": "constructor"
    },
    {
      "inputs": [
        {
          "internalType": "address",
          "name": "owner",
          "type": "address"
        }
      ],
      "name": "OwnableInvalidOwner",
      "type": "error"
    },
    {
      "inputs": [
        {
          "internalType": "address",
          "name": "account",
          "type": "address"
        }
      ],
      "name": "OwnableUnauthorizedAccount",
      "type": "error"
    },
    {
      "inputs": [],
      "name": "ReentrancyGuardReentrantCall",
      "type": "error"
    },
    {
      "anonymous": false,
      "inputs": [
        {
          "indexed": true,
          "internalType": "uint256",
          "name": "auctionId",
          "type": "uint256"
        },
        {
          "indexed": true,
          "internalType": "address",
          "name": "seller",
          "type": "address"
        },
        {
          "indexed": false,
          "internalType": "string",
          "name": "reason",
          "type": "string"
        }
      ],
      "name": "AuctionCancelled",
      "type": "event"
    },
    {
      "anonymous": false,
      "inputs": [
        {
          "indexed": true,
          "internalType": "uint256",
          "name": "auctionId",
          "type": "uint256"
        },
        {
          "indexed": true,
          "internalType": "address",
          "name": "seller",
          "type": "address"
        },
        {
          "indexed": true,
          "internalType": "address",
          "name": "nftContract",
          "type": "address"
        },
        {
          "indexed": false,
          "internalType": "enum SealedBidAuction.AuctionType",
          "name": "auctionType",
          "type": "uint8"
        },
        {
          "indexed": false,
          "internalType": "uint256",
          "name": "tokenId",
          "type": "uint256"
        },
        {
          "indexed": false,
          "internalType": "uint256[]",
          "name": "tokenIds",
          "type": "uint256[]"
        },
        {
          "indexed": false,
          "internalType": "uint256",
          "name": "startingPrice",
          "type": "uint256"
        },
        {
          "indexed": false,
          "internalType": "uint256",
          "name": "endTime",
          "type": "uint256"
        },
        {
          "indexed": false,
          "internalType": "string",
          "name": "title",
          "type": "string"
        }
      ],
      "name": "AuctionCreated",
      "type": "event"
    },
    {
      "anonymous": false,
      "inputs": [
        {
          "indexed": true,
          "internalType": "uint256",
          "name": "auctionId",
          "type": "uint256"
        },
        {
          "indexed": true,
          "internalType": "address",
          "name": "winner",
          "type": "address"
        },
        {
          "indexed": false,
          "internalType": "uint256",
          "name": "finalPrice",
          "type": "uint256"
        },
        {
          "indexed": false,
          "internalType": "uint256",
          "name": "platformFeeAmount",
          "type": "uint256"
        },
        {
          "indexed": false,
          "internalType": "uint256",
          "name": "sellerAmount",
          "type": "uint256"
        }
      ],
      "name": "AuctionFinalized",
      "type": "event"
    },
    {
      "anonymous": false,
      "inputs": [
        {
          "indexed": true,
          "internalType": "uint256",
          "name": "auctionId",
          "type": "uint256"
        },
        {
          "indexed": true,
          "internalType": "address",
          "name": "bidder",
          "type": "address"
        },
        {
          "indexed": false,
          "internalType": "uint256",
          "name": "timestamp",
          "type": "uint256"
        }
      ],
      "name": "BidPlaced",
      "type": "event"
    },
    {
      "anonymous": false,
      "inputs": [
        {
          "indexed": true,
          "internalType": "uint256",
          "name": "auctionId",
          "type": "uint256"
        },
        {
          "indexed": true,
          "internalType": "address",
          "name": "winner",
          "type": "address"
        },
        {
          "indexed": false,
          "internalType": "uint256",
          "name": "amountPaid",
          "type": "uint256"
        }
      ],
      "name": "NFTClaimed",
      "type": "event"
    },
    {
      "anonymous": false,
      "inputs": [
        {
          "indexed": true,
          "internalType": "uint256",
          "name": "auctionId",
          "type": "uint256"
        },
        {
          "indexed": true,
          "internalType": "address",
          "name": "seller",
          "type": "address"
        }
      ],
      "name": "NFTReclaimed",
      "type": "event"
    },
    {
      "anonymous": false,
      "inputs": [
        {
          "indexed": true,
          "internalType": "address",
          "name": "previousOwner",
          "type": "address"
        },
        {
          "indexed": true,
          "internalType": "address",
          "name": "newOwner",
          "type": "address"
        }
      ],
      "name": "OwnershipTransferred",
      "type": "event"
    },
    {
      "inputs": [],
      "name": "BID_EXTENSION_TIME",
      "outputs": [
        {
          "internalType": "uint256",
          "name": "",
          "type": "uint256"
        }
      ],
      "stateMutability": "view",
      "type": "function"
    },
    {
      "inputs": [],
      "name": "CLAIM_DURATION",
      "outputs": [
        {
          "internalType": "uint256",
          "name": "",
          "type": "uint256"
        }
      ],
      "stateMutability": "view",
      "type": "function"
    },
    {
      "inputs": [],
      "name": "MAX_AUCTION_DURATION",
      "outputs": [
        {
          "internalType": "uint256",
          "name": "",
          "type": "uint256"
        }
      ],
      "stateMutability": "view",
      "type": "function"
    },
    {
      "inputs": [],
      "name": "MAX_BIDS_PER_AUCTION",
      "outputs": [
        {
          "internalType": "uint256",
          "name": "",
          "type": "uint256"
        }
      ],
      "stateMutability": "view",
      "type": "function"
    },
    {
      "inputs": [],
      "name": "MAX_COLLECTION_SIZE",
      "outputs": [
        {
          "internalType": "uint256",
          "name": "",
          "type": "uint256"
        }
      ],
      "stateMutability": "view",
      "type": "function"
    },
    {
      "inputs": [],
      "name": "MAX_EXTENSIONS",
      "outputs": [
        {
          "internalType": "uint256",
          "name": "",
          "type": "uint256"
        }
      ],
      "stateMutability": "view",
      "type": "function"
    },
    {
      "inputs": [],
      "name": "MIN_AUCTION_DURATION",
      "outputs": [
        {
          "internalType": "uint256",
          "name": "",
          "type": "uint256"
        }
      ],
      "stateMutability": "view",
      "type": "function"
    },
    {
      "inputs": [],
      "name": "MIN_BID_INCREMENT",
      "outputs": [
        {
          "internalType": "uint256",
          "name": "",
          "type": "uint256"
        }
      ],
      "stateMutability": "view",
      "type": "function"
    },
    {
      "inputs": [],
      "name": "PLATFORM_FEE",
      "outputs": [
        {
          "internalType": "uint256",
          "name": "",
          "type": "uint256"
        }
      ],
      "stateMutability": "view",
      "type": "function"
    },
    {
      "inputs": [
        {
          "internalType": "uint256",
          "name": "",
          "type": "uint256"
        }
      ],
      "name": "auctions",
      "outputs": [
        {
          "internalType": "uint256",
          "name": "auctionId",
          "type": "uint256"
        },
        {
          "internalType": "enum SealedBidAuction.AuctionType",
          "name": "auctionType",
          "type": "uint8"
        },
        {
          "internalType": "address",
          "name": "nftContract",
          "type": "address"
        },
        {
          "internalType": "uint256",
          "name": "tokenId",
          "type": "uint256"
        },
        {
          "internalType": "address",
          "name": "seller",
          "type": "address"
        },
        {
          "internalType": "uint256",
          "name": "startingPrice",
          "type": "uint256"
        },
        {
          "internalType": "uint256",
          "name": "reservePrice",
          "type": "uint256"
        },
        {
          "internalType": "uint256",
          "name": "minBidIncrement",
          "type": "uint256"
        },
        {
          "internalType": "uint256",
          "name": "startTime",
          "type": "uint256"
        },
        {
          "internalType": "uint256",
          "name": "endTime",
          "type": "uint256"
        },
        {
          "internalType": "uint256",
          "name": "bidExtensionTime",
          "type": "uint256"
        },
        {
          "internalType": "enum SealedBidAuction.AuctionState",
          "name": "state",
          "type": "uint8"
        },
        {
          "internalType": "uint256",
          "name": "totalBids",
          "type": "uint256"
        },
        {
          "internalType": "address",
          "name": "highestBidder",
          "type": "address"
        },
        {
          "internalType": "uint256",
          "name": "highestBid",
          "type": "uint256"
        },
        {
          "internalType": "string",
          "name": "title",
          "type": "string"
        },
        {
          "internalType": "string",
          "name": "description",
          "type": "string"
        },
        {
          "internalType": "uint256",
          "name": "claimDeadline",
          "type": "uint256"
        }
      ],
      "stateMutability": "view",
      "type": "function"
    },
    {
      "inputs": [
        {
          "internalType": "uint256",
          "name": "auctionId",
          "type": "uint256"
        }
      ],
      "name": "cancelAuction",
      "outputs": [],
      "stateMutability": "nonpayable",
      "type": "function"
    },
    {
      "inputs": [
        {
          "internalType": "uint256",
          "name": "auctionId",
          "type": "uint256"
        }
      ],
      "name": "claimNFT",
      "outputs": [],
      "stateMutability": "payable",
      "type": "function"
    },
    {
      "inputs": [
        {
          "internalType": "address",
          "name": "nftContract",
          "type": "address"
        },
        {
          "internalType": "uint256[]",
          "name": "tokenIds",
          "type": "uint256[]"
        },
        {
          "internalType": "uint256",
          "name": "startingPrice",
          "type": "uint256"
        },
        {
          "internalType": "uint256",
          "name": "reservePrice",
          "type": "uint256"
        },
        {
          "internalType": "uint256",
          "name": "minBidIncrement",
          "type": "uint256"
        },
        {
          "internalType": "uint256",
          "name": "duration",
          "type": "uint256"
        },
        {
          "internalType": "string",
          "name": "title",
          "type": "string"
        },
        {
          "internalType": "string",
          "name": "description",
          "type": "string"
        }
      ],
      "name": "createCollectionAuction",
      "outputs": [
        {
          "internalType": "uint256",
          "name": "",
          "type": "uint256"
        }
      ],
      "stateMutability": "nonpayable",
      "type": "function"
    },
    {
      "inputs": [
        {
          "internalType": "address",
          "name": "nftContract",
          "type": "address"
        },
        {
          "internalType": "uint256",
          "name": "tokenId",
          "type": "uint256"
        },
        {
          "internalType": "uint256",
          "name": "startingPrice",
          "type": "uint256"
        },
        {
          "internalType": "uint256",
          "name": "reservePrice",
          "type": "uint256"
        },
        {
          "internalType": "uint256",
          "name": "minBidIncrement",
          "type": "uint256"
        },
        {
          "internalType": "uint256",
          "name": "duration",
          "type": "uint256"
        },
        {
          "internalType": "string",
          "name": "title",
          "type": "string"
        },
        {
          "internalType": "string",
          "name": "description",
          "type": "string"
        }
      ],
      "name": "createSingleNFTAuction",
      "outputs": [
        {
          "internalType": "uint256",
          "name": "",
          "type": "uint256"
        }
      ],
      "stateMutability": "nonpayable",
      "type": "function"
    },
    {
      "inputs": [
        {
          "internalType": "uint256",
          "name": "auctionId",
          "type": "uint256"
        }
      ],
      "name": "finalizeAuction",
      "outputs": [],
      "stateMutability": "nonpayable",
      "type": "function"
    },
    {
      "inputs": [
        {
          "internalType": "uint256",
          "name": "auctionId",
          "type": "uint256"
        }
      ],
      "name": "getAuctionBids",
      "outputs": [
        {
          "components": [
            {
              "internalType": "address",
              "name": "bidder",
              "type": "address"
            },
            {
              "internalType": "uint256",
              "name": "amount",
              "type": "uint256"
            },
            {
              "internalType": "uint256",
              "name": "timestamp",
              "type": "uint256"
            },
            {
              "internalType": "uint256",
              "name": "deposit",
              "type": "uint256"
            }
          ],
          "internalType": "struct SealedBidAuction.Bid[]",
          "name": "",
          "type": "tuple[]"
        }
      ],
      "stateMutability": "view",
      "type": "function"
    },
    {
      "inputs": [
        {
          "internalType": "address",
          "name": "",
          "type": "address"
        },
        {
          "internalType": "address",
          "name": "",
          "type": "address"
        },
        {
          "internalType": "uint256",
          "name": "",
          "type": "uint256"
        },
        {
          "internalType": "bytes",
          "name": "",
          "type": "bytes"
        }
      ],
      "name": "onERC721Received",
      "outputs": [
        {
          "internalType": "bytes4",
          "name": "",
          "type": "bytes4"
        }
      ],
      "stateMutability": "nonpayable",
      "type": "function"
    },
    {
      "inputs": [],
      "name": "owner",
      "outputs": [
        {
          "internalType": "address",
          "name": "",
          "type": "address"
        }
      ],
      "stateMutability": "view",
      "type": "function"
    },
    {
      "inputs": [
        {
          "internalType": "uint256",
          "name": "auctionId",
          "type": "uint256"
        },
        {
          "internalType": "uint256",
          "name": "bidAmount",
          "type": "uint256"
        }
      ],
      "name": "placeBid",
      "outputs": [],
      "stateMutability": "payable",
      "type": "function"
    },
    {
      "inputs": [
        {
          "internalType": "uint256",
          "name": "auctionId",
          "type": "uint256"
        }
      ],
      "name": "reclaimNFT",
      "outputs": [],
      "stateMutability": "nonpayable",
      "type": "function"
    },
    {
      "inputs": [],
      "name": "renounceOwnership",
      "outputs": [],
      "stateMutability": "nonpayable",
      "type": "function"
    },
    {
      "inputs": [
        {
          "internalType": "address",
          "name": "newOwner",
          "type": "address"
        }
      ],
      "name": "transferOwnership",
      "outputs": [],
      "stateMutability": "nonpayable",
      "type": "function"
    }
  ],
  "bytecode": "0x60803460c557601f61320338819003918201601f19168301916001600160401b0383118484101760ca5780849260209460405283398101031260c557516001600160a01b0381169081900360c5576001600055801560af57600180546001600160a01b03198116831790915560405191906001600160a01b03167f8be0079c531659141344cd1fd0a4f28419497f9722a3daafe3b4186f6b6457e0600080a3600160025561312290816100e18239f35b631e4fbdf760e01b600052600060045260246000fd5b600080fd5b634e487b7160e01b600052604160045260246000fdfe60e0604052600436101561001257600080fd5b60003560e01c8063150b7a02146127685780632b51e6ca14611da8578063328fbcde14611d8b57806334fbc9a114611d6f5780633fb3517814611d515780634035cc6c14611d35578063571a26a014611ba957806357c90de5146117bf57806364a2243814610ed657806370b4768e14610d3f578063715018a614610ce457806371943bce14610cc25780638da5cb5b14610c9b57806396b5a75514610ba0578063a08db82e146108ed578063b73b959f146108d0578063c07780f6146108b4578063c2f50a7a14610897578063e808386314610544578063f2fde38b146104a2578063fe5c873a146101315763ff844a631461010e57600080fd5b3461012c57600036600319011261012c5760206040516203f4808152f35b600080fd5b602036600319011261012c57600435610148612d6b565b80600052600360205260406000209060ff600b8301541660038110156103aa5760016101749114612d20565b6001600160a01b03600d83015416330361045e576011820154421161041a57600e82015460058301926101a8845483612d13565b938434036103d65760fa830283810460fa14841517156103c0576127106101d191048094612d13565b906001830160ff81541660028110156103aa576102f257546002840154919060081c6001600160a01b0316803b1561012c57604051632142170760e11b815230600482015233602482015260448101939093526000908390606490829084905af19081156102c457610262600095946001600160a01b0360048897889788976102e2575b505b015416925490612d13565b908282156102d9575bf1156102c4576000808080936001600160a01b03600154168282156102d0575bf1156102c4576040519182527f92ffae31901780890e35bdc724fedb7601577492b5d4e3df85f785de59d737ab60203393a36001600055005b6040513d6000823e3d90fd5b506108fc61028b565b506108fc61026b565b876102ec9161284c565b8d610255565b939060009693959260038701975b8854811015610387576001600160a01b03875460081c1690610322818b612c39565b90549060031b1c91803b1561012c57604051632142170760e11b815230600482015233602482015260448101939093526000908390606490829084905af19182156102c457600192610376575b5001610300565b60006103819161284c565b8a61036f565b506000949750849396849396508392916001600160a01b03600461026293610257565b634e487b7160e01b600052602160045260246000fd5b634e487b7160e01b600052601160045260246000fd5b606460405162461bcd60e51b815260206004820152601060248201527f496e636f727265637420616d6f756e74000000000000000000000000000000006044820152fd5b606460405162461bcd60e51b815260206004820152601460248201527f436c61696d20706572696f6420657870697265640000000000000000000000006044820152fd5b606460405162461bcd60e51b815260206004820152600a60248201527f4e6f742077696e6e6572000000000000000000000000000000000000000000006044820152fd5b3461012c57602036600319011261012c576001600160a01b036104c36127e7565b6104cb612e34565b168015610515576001600160a01b03600154826001600160a01b0319821617600155167f8be0079c531659141344cd1fd0a4f28419497f9722a3daafe3b4186f6b6457e0600080a3005b7f1e4fbdf700000000000000000000000000000000000000000000000000000000600052600060045260246000fd5b3461012c57602036600319011261012c57600435610560612d6b565b806000526003602052604060002090600b820160ff81541660038110156103aa5761058b9015612cac565b6009830154421061085357805460ff19166001179055600081815260046020526040812080549192918391600019835b8381106107b957505050506001600160a01b0390600d85018282166001600160a01b031982541617905583600e8601551692831515806107ab575b15610760576203f48042018042116103c057601182015560fa830283810460fa14841517156103c05761271090049261062f8482612d13565b60005b84600052600460205260406000205481101561071f5784600052600460205261065f816040600020612cf7565b5080549091906001600160a01b031688146106c957600080808060036001600160a01b038754169601958654908282156106c0575bf1156102c457600191548660005260086020526106b76040600020918254612d13565b90555b01610632565b506108fc610694565b600080808060036001600160a01b0360048b015416960195865490828215610716575bf1156102c4576001915486600052600860205261070f6040600020918254612d13565b90556106ba565b506108fc6106ec565b50606092507f4cf70fe07783506b8e02682ddebd0688a2a16b3373c5fec55f74095cecd67aa8939460405192835260208301526040820152a35b6001600055005b5090506107a691506040519061077760408361284c565b600f82527f52657365727665206e6f74206d657400000000000000000000000000000000006020830152612e76565b610759565b5060068101548310156105f6565b8660016107c68386612cf7565b500154118015610824575b6107de575b6001016105bb565b8260019397508195506107f19250612cf7565b500154936001600160a01b036108078483612cf7565b50541692600160026108198385612cf7565b5001549190506107d6565b508660016108328386612cf7565b5001541480156107d1575081600261084a8386612cf7565b500154106107d1565b606460405162461bcd60e51b815260206004820152601460248201527f41756374696f6e207374696c6c206163746976650000000000000000000000006044820152fd5b3461012c57600036600319011261012c576020604051610e108152f35b3461012c57600036600319011261012c576020604051600a8152f35b3461012c57600036600319011261012c5760206040516102588152f35b3461012c57602036600319011261012c57600435610909612d6b565b806000526003602052604060002060ff600b8201541660038110156103aa5760016109349114612d20565b600481016001600160a01b038154163303610b5c57601182015442118015610b47575b15610add576001820160ff81541660028110156103aa57610a27576001600160a01b03905460081c169160026001600160a01b03835416910154833b1561012c57604051632142170760e11b81523060048201526001600160a01b039290921660248301526044820152916000908390606490829084905af19182156102c4576001600160a01b0392610a16575b505b5416907f56c922176dd9b2a1fdcf8a3aa048b543fc88a2750fcd5341c0b635bb9d11f817600080a36001600055005b6000610a219161284c565b836109e5565b9092916003019060005b8254811015610acb576001600160a01b03825460081c16906001600160a01b03865416610a5e8286612c39565b90549060031b1c833b1561012c57604051632142170760e11b81523060048201526001600160a01b039290921660248301526044820152916000908390606490829084905af19182156102c457600192610aba575b5001610a31565b6000610ac59161284c565b86610ab3565b505050906001600160a01b03906109e7565b608460405162461bcd60e51b815260206004820152602360248201527f436c61696d20706572696f64206e6f742065787069726564206f72206e6f206260448201527f69647300000000000000000000000000000000000000000000000000000000006064820152fd5b506001600160a01b03600d8301541615610957565b606460405162461bcd60e51b815260206004820152600a60248201527f4e6f742073656c6c6572000000000000000000000000000000000000000000006044820152fd5b3461012c57602036600319011261012c57600435610bbc612d6b565b806000526003602052604060002060ff600b8201541660038110156103aa576001600160a01b0391610bf060049215612cac565b01541633148015610c87575b15610c43576107599060405190610c1460408361284c565b601c82527f43616e63656c6c65642062792073656c6c6572206f72206f776e6572000000006020830152612e76565b606460405162461bcd60e51b815260206004820152600e60248201527f4e6f7420617574686f72697a65640000000000000000000000000000000000006044820152fd5b506001600160a01b03600154163314610bfc565b3461012c57600036600319011261012c5760206001600160a01b0360015416604051908152f35b3461012c57600036600319011261012c57602060405166038d7ea4c680008152f35b3461012c57600036600319011261012c57610cfd612e34565b60006001600160a01b036001546001600160a01b03198116600155167f8be0079c531659141344cd1fd0a4f28419497f9722a3daafe3b4186f6b6457e08280a3005b3461012c57602036600319011261012c5760043580151580610ecb575b15610e875780600052600360205260ff600b604060002001541660038110156103aa576001610d8b9114612d20565b60005260046020526040600020805490610da482612bf2565b91610db2604051938461284c565b80835260208301809260005260206000206000915b838310610e3d5784866040519182916020830190602084525180915260408301919060005b818110610dfa575050500390f35b9193509160206080600192606087516001600160a01b03815116835284810151858401526040810151604084015201516060820152019401910191849392610dec565b60046020600192604051610e5081612830565b6001600160a01b03865416815284860154838201526002860154604082015260038601546060820152815201920192019190610dc7565b606460405162461bcd60e51b815260206004820152601260248201527f496e76616c69642061756374696f6e20494400000000000000000000000000006044820152fd5b506002548110610d5c565b3461012c5761010036600319011261012c57610ef06127e7565b60a43560c43567ffffffffffffffff811161012c57610f139036906004016128b5565b60e49291923567ffffffffffffffff811161012c57610f369036906004016128b5565b919093610f41612d6b565b610f52610f4d87612da6565b612a02565b610e10841015806117b2575b610f6790612a4d565b6044351515806117a4575b610f7b90612a98565b610f9066038d7ea4c680006084351015612ae3565b8115611760576040516331a9108f60e11b815260243560048201526020816024816001600160a01b038b165afa9081156102c457600091611741575b506001600160a01b03339116036116fd5760405163020604bf60e21b815260243560048201526020816024816001600160a01b038b165afa9081156102c4576000916116ce575b506001600160a01b031630148015611659575b61102f90612b8b565b6001600160a01b0386163b1561012c57604051632142170760e11b815233600482015230602480830191909152356044820152600081606481836001600160a01b038c165af180156102c457611648575b5061109a6002549461109186612bd6565b60025542612be5565b611157602096604051956110ae898861284c565b600087526000368137604051966110c488612813565b88885260008a8901526001600160a01b038b166040890152602435606089015260808801523360a088015260443560c088015260643560e08801526084356101008801524261012088015283610140880152610258610160880152600061018088015260006101a088015260006101c088015260006101e088015261114a36878761286e565b610200880152369161286e565b61022085015260006102408501528460005260038652604060002084518155868501519460028610156103aa57600095600183015474ffffffffffffffffffffffffffffffffffffffffff1960ff74ffffffffffffffffffffffffffffffffffffffff00604086015160081b16931691161717600183015560608101516002830155608081015180519067ffffffffffffffff821161154757680100000000000000008211611547578990600385015483600387015580841061162b575b5001600384018852898820885b83811061161957505050506001600160a01b0360a0820151166001600160a01b036004840191166001600160a01b031982541617905560c0810151600583015560e08101516006830155610100810151600783015561012081015160088301556101408101516009830155610160810151600a8301556101808101516003811015611605576112b490600b8401612c21565b6101a0810151600c8301556001600160a01b036101c0820151166001600160a01b03600d840191166001600160a01b03198254161790556101e0810151600e83015561020081015180519067ffffffffffffffff821161154757819061131d600f8601546128e3565b8b601f82116115d4575b50508a90601f831160011461156657899261155b575b50508160011b916000199060031b1c191617600f8301555b61022081015180519067ffffffffffffffff82116115475761137a60108501546128e3565b601f811161150b575b508990601f831160011461149957918060119492610240948b9261148e575b50508160011b916000199060031b1c19161760108501555b0151910155338452600686526113d38560408620612c51565b604051966113e1878961284c565b848852843681376040519160c083018684526024358985015260c0604085015289518091528860e085019a0190875b81811061147a57505050918061146e88999a6001600160a01b037fed64e6c300ab5f25f3a8e69b83450e8787c7246008ffd6b98a2e36ee7aabddb69560019b976044356060870152608086015284830360a086015216973397612c8b565b0390a455604051908152f35b82518c529a8a019a918a0191600101611410565b015190508d806113a2565b906010850189528a892091895b8c601f19861682106114f557505092601194926001926102409583601f198116106114dc575b505050811b0160108501556113ba565b015160001960f88460031b161c191690558d80806114cc565b60018495829395850151815501940192016114a6565b61153790601086018a528b8a20601f850160051c8101918d861061153d575b601f0160051c0190612c0a565b8b611383565b909150819061152a565b602488634e487b7160e01b81526041600452fd5b015190508b8061133d565b9250600f850189528a89209089935b8c601f19851686106115bb57506001945083601f198116106115a2575b505050811b01600f830155611355565b015160001960f88460031b161c191690558b8080611592565b8282015184559485019460019093019290910190611575565b600f87018b52808b206115fe92601f860160051c820192861061153d57601f0160051c0190612c0a565b8c8b611327565b602487634e487b7160e01b81526021600452fd5b825182820155918b0191600101611222565b600386018a52828a20611642918101908501612c0a565b8c611215565b60006116539161284c565b86611080565b5060405163e985e9c560e01b81523360048201523060248201526020816044816001600160a01b038b165afa80156102c45761102f9160009161169f575b509050611026565b6116c1915060203d6020116116c7575b6116b9818361284c565b810190612b73565b88611697565b503d6116af565b6116f0915060203d6020116116f6575b6116e8818361284c565b810190612b54565b87611013565b503d6116de565b606460405162461bcd60e51b815260206004820152600d60248201527f4e6f74204e4654206f776e6572000000000000000000000000000000000000006044820152fd5b61175a915060203d6020116116f6576116e8818361284c565b87610fcc565b606460405162461bcd60e51b815260206004820152600e60248201527f5469746c652072657175697265640000000000000000000000000000000000006044820152fd5b506044356064351015610f72565b5062278d00841115610f5e565b604036600319011261012c576004356024356117d9612d6b565b816000526003602052604060002060ff600b8201541660038110156103aa576118029015612cac565b6009810154421015611b65576001600160a01b036004820154163314611b21576005810154803403611add57600782015461183c91612be5565b8210611a9957600c016103e881541015611a55576000838152600560209081526040808320338452909152902054908115611925575082600052600460205260406000209060001981019081116103c05761189691612cf7565b50906001820180548211156118e157556002429101555b604051904282527f0e54eff26401bf69b81b26f60bd85ef47f5d85275c1d268d84f68d6897431c4760203393a36001600055005b606460405162461bcd60e51b815260206004820152601660248201527f4e657720626964206d75737420626520686967686572000000000000000000006044820152fd5b91905082600052600460205260406000206040519061194382612830565b33825260208201928352604082014281526060830191348352805468010000000000000000811015611a3f5761197e91600182018155612cf7565b949094611a29576001600160a01b03806003955116166001600160a01b03198654161785555160018501555160028401555191015581600052600460205260406000205482600052600560205260406000206001600160a01b0333166000526020526040600020556119f08154612bd6565b9055336000526007602052611a09816040600020612c51565b8060005260086020526040600020611a22348254612be5565b90556118ad565b634e487b7160e01b600052600060045260246000fd5b634e487b7160e01b600052604160045260246000fd5b606460405162461bcd60e51b815260206004820152601060248201527f4d617820626964732072656163686564000000000000000000000000000000006044820152fd5b606460405162461bcd60e51b815260206004820152600b60248201527f42696420746f6f206c6f770000000000000000000000000000000000000000006044820152fd5b606460405162461bcd60e51b815260206004820152601160248201527f496e636f7272656374206465706f7369740000000000000000000000000000006044820152fd5b606460405162461bcd60e51b815260206004820152601160248201527f53656c6c65722063616e6e6f74206269640000000000000000000000000000006044820152fd5b606460405162461bcd60e51b815260206004820152600d60248201527f41756374696f6e20656e646564000000000000000000000000000000000000006044820152fd5b3461012c57602036600319011261012c5760043560005260036020526040600020805460c05260018101549060028101549060048101546001600160a01b031660058201549260068301549160078401546008850154600986015490600a87015492600b88015460ff1696600c89015499600d8a01546001600160a01b0316608052600e8a015496600f8b01611c3e9061291d565b98611c4b60108d0161291d565b9b601101549d60405160a05260c05160a0515260ff8116600211156103aa578060ff6001600160a01b039216602060a051015260081c16604060a0510152606060a0510152608060a051015260a08051015260c060a051015260e060a051015261010060a051015261012060a051015261014060a051015260038310156103aa57611d2294611d0f9361016060a051015261018060a05101526080516101a060a05101526101c060a05101526102406101e060a051015261024060a05101906129c1565b9060a051820361020060a05101526129c1565b9061022060a051015260a051900360a051f35b3461012c57600036600319011261012c57602060405160648152f35b3461012c57600036600319011261012c57602060405162278d008152f35b3461012c57600036600319011261012c57602060405160fa8152f35b3461012c57600036600319011261012c5760206040516103e88152f35b3461012c5761010036600319011261012c57611dc26127e7565b6024359067ffffffffffffffff821161012c573660238301121561012c5767ffffffffffffffff82600401351161012c57366024836004013560051b8401011161012c5760c43567ffffffffffffffff811161012c57611e269036906004016128b5565b9060e43567ffffffffffffffff811161012c57611e479036906004016128b5565b949091611e52612d6b565b611e5e610f4d86612da6565b610e1060a435101580612759575b611e7590612a4d565b60443515158061274b575b611e8990612a98565b611e9e66038d7ea4c680006084351015612ae3565b8315158061273d575b8061272e575b156126ea5760005b826004013581106124cc575060025494611ece86612bd6565b600255611edd60a43542612be5565b9360405190611eeb82612813565b878252600160208301526001600160a01b038316604083015260006060830152611f188560040135612bf2565b98611f266040519a8b61284c565b60048601358a5260009960248701602082015b6024896004013560051b8a010182106124bc57505090611fc3929160808501523360a085015260443560c085015260643560e085015260843561010085015242610120850152876101408501526102586101608501528a6101808501528a6101a08501528a6101c08501528a6101e0850152611fb6368a8861286e565b610200850152369161286e565b6102208201528761024082015286885260036020526040882090805182556020810151600281101561246257600183015474ffffffffffffffffffffffffffffffffffffffffff1960ff74ffffffffffffffffffffffffffffffffffffffff00604086015160081b16931691161717600183015560608101516002830155608081015180519067ffffffffffffffff82116124a8576801000000000000000082116124a8576020908b60038601548460038801558481811061248a575b50505001600384018b5260208b208b5b83811061247657505050506001600160a01b0360a0820151166001600160a01b036004840191166001600160a01b031982541617905560c0810151600583015560e08101516006830155610100810151600783015561012081015160088301556101408101516009830155610160810151600a83015561018081015160038110156124625761212290600b8401612c21565b6101a0810151600c8301556001600160a01b036101c0820151166001600160a01b03600d840191166001600160a01b03198254161790556101e0810151600e830155600f820161020082015180519067ffffffffffffffff82116123b05781908c61218d85546128e3565b601f8111612432575b50506020908d601f84116001146123cf57926123c4575b50508160011b916000199060031b1c19161790555b6010820161022082015180519067ffffffffffffffff82116123b0578b6121e984546128e3565b601f8111612380575b50506020908c601f8411600114612316579261024094928192601197959261230b575b50508160011b916000199060031b1c19161790555b015191015533875260066020526122448660408920612c51565b604051926001845287602085015260c06040850152806004013560c08501527f07ffffffffffffffffffffffffffffffffffffffffffffffffffffffffffffff81600401351161230757836001969461146e60209a97956001600160a01b038b96867fed64e6c300ab5f25f3a8e69b83450e8787c7246008ffd6b98a2e36ee7aabddb6976004013560051b6024820160e08801376004013560051b8501986044356060870152608086015260e0858a030160a0860152169760e033980191612c8b565b8780fd5b015190508e80612215565b9190601f198416858452828420935b81811061236857509260019285926011989661024098961061234f575b505050811b01905561222a565b015160001960f88460031b161c191690558e8080612342565b92936020600181928786015181550195019301612325565b602082866123a9945220601f850160051c8101916020861061153d57601f0160051c0190612c0a565b8b8d6121f2565b60248c634e487b7160e01b81526041600452fd5b015190508c806121ad565b8581528281209350601f198516905b81811061241a5750908460019594939210612401575b505050811b0190556121c2565b015160001960f88460031b161c191690558c80806123f4565b929360206001819287860151815501950193016123de565b6020828761245b945220601f850160051c8101916020861061153d57601f0160051c0190612c0a565b8c8e612196565b60248a634e487b7160e01b81526021600452fd5b600190602084519401938184015501612090565b846124a09360038a018152209182019101612c0a565b8b8d84612080565b60248b634e487b7160e01b81526041600452fd5b8135815260209182019101611f39565b6124de81846004013560248601612b2e565b35604051906331a9108f60e11b825260048201526020816024816001600160a01b038b165afa9081156102c4576000916126cc575b506001600160a01b03339116036126885761253681846004013560248601612b2e565b356040519063020604bf60e21b825260048201526020816024816001600160a01b038b165afa9081156102c45760009161266a575b506001600160a01b031630148015612606575b61258790612b8b565b61259981846004013560248601612b2e565b35906001600160a01b0387163b1561012c57604051632142170760e11b81523360048201523060248201526044810192909252600082606481836001600160a01b038c165af19182156102c4576001926125f5575b5001611eb5565b60006126009161284c565b886125ee565b5060405163e985e9c560e01b81523360048201523060248201526020816044816001600160a01b038b165afa80156102c4576125879160009161264c575b50905061257e565b612664915060203d81116116c7576116b9818361284c565b89612644565b612682915060203d81116116f6576116e8818361284c565b8861256b565b606460405162461bcd60e51b815260206004820152600960248201527f4e6f74206f776e657200000000000000000000000000000000000000000000006044820152fd5b6126e4915060203d81116116f6576116e8818361284c565b88612513565b606460405162461bcd60e51b815260206004820152601060248201527f496e76616c696420746f6b656e496473000000000000000000000000000000006044820152fd5b50606482600401351115611ead565b506001826004013511611ea7565b506044356064351015611e80565b5062278d0060a4351115611e6c565b3461012c57608036600319011261012c576127816127e7565b5061278a6127fd565b5060643567ffffffffffffffff811161012c573660238201121561012c576127bc90369060248160040135910161286e565b5060206040517f150b7a02000000000000000000000000000000000000000000000000000000008152f35b600435906001600160a01b038216820361012c57565b602435906001600160a01b038216820361012c57565b610260810190811067ffffffffffffffff821117611a3f57604052565b6080810190811067ffffffffffffffff821117611a3f57604052565b90601f8019910116810190811067ffffffffffffffff821117611a3f57604052565b92919267ffffffffffffffff8211611a3f5760405191612898601f8201601f19166020018461284c565b82948184528183011161012c578281602093846000960137010152565b9181601f8401121561012c5782359167ffffffffffffffff831161012c576020838186019501011161012c57565b90600182811c92168015612913575b60208310146128fd57565b634e487b7160e01b600052602260045260246000fd5b91607f16916128f2565b9060405191826000825492612931846128e3565b808452936001811690811561299f5750600114612958575b506129569250038361284c565b565b90506000929192526020600020906000915b8183106129835750509060206129569282010138612949565b602091935080600191548385890101520191019091849261296a565b90506020925061295694915060ff191682840152151560051b82010138612949565b919082519283825260005b8481106129ed575050826000602080949584010152601f8019910116010190565b806020809284010151828286010152016129cc565b15612a0957565b606460405162461bcd60e51b815260206004820152601460248201527f496e76616c6964204e465420636f6e74726163740000000000000000000000006044820152fd5b15612a5457565b606460405162461bcd60e51b815260206004820152601060248201527f496e76616c6964206475726174696f6e000000000000000000000000000000006044820152fd5b15612a9f57565b606460405162461bcd60e51b815260206004820152600d60248201527f496e76616c6964207072696365000000000000000000000000000000000000006044820152fd5b15612aea57565b606460405162461bcd60e51b815260206004820152601160248201527f496e6372656d656e7420746f6f206c6f770000000000000000000000000000006044820152fd5b9190811015612b3e5760051b0190565b634e487b7160e01b600052603260045260246000fd5b9081602091031261012c57516001600160a01b038116810361012c5790565b9081602091031261012c5751801515810361012c5790565b15612b9257565b606460405162461bcd60e51b815260206004820152601560248201527f436f6e7472616374206e6f7420617070726f76656400000000000000000000006044820152fd5b60001981146103c05760010190565b919082018092116103c057565b67ffffffffffffffff8111611a3f5760051b60200190565b818110612c15575050565b60008155600101612c0a565b9060038110156103aa5760ff80198354169116179055565b8054821015612b3e5760005260206000200190600090565b805468010000000000000000811015611a3f57612c7391600182018155612c39565b819291549060031b91821b91600019901b1916179055565b908060209392818452848401376000828201840152601f01601f1916010190565b15612cb357565b606460405162461bcd60e51b815260206004820152601260248201527f41756374696f6e206e6f742061637469766500000000000000000000000000006044820152fd5b8054821015612b3e5760005260206000209060021b0190600090565b919082039182116103c057565b15612d2757565b606460405162461bcd60e51b815260206004820152601560248201527f41756374696f6e206e6f742066696e616c697a656400000000000000000000006044820152fd5b600260005414612d7c576002600055565b7f3ee5aeb50000000000000000000000000000000000000000000000000000000060005260046000fd5b60206001600160a01b03916024604051809481937f01ffc9a70000000000000000000000000000000000000000000000000000000083527f80ac58cd000000000000000000000000000000000000000000000000000000006004840152165afa9081156102c457600091612e18575090565b612e31915060203d6020116116c7576116b9818361284c565b90565b6001600160a01b03600154163303612e4857565b7f118cdaa7000000000000000000000000000000000000000000000000000000006000523360045260246000fd5b91826000526003602052604060002091600b8301600260ff1982541617905560005b846000526004602052604060002054811015612f1b57846000526004602052612ec5816040600020612cf7565b5090600080808060036001600160a01b03875416960195865490828215612f12575bf1156102c45760019154866000526008602052612f0a6040600020918254612d13565b905501612e98565b506108fc612ee7565b50919290926001810160ff81541660028110156103aa57613004576001600160a01b03905460081c16906001600160a01b036004820154166002820154833b1561012c57604051632142170760e11b81523060048201526001600160a01b039290921660248301526044820152916000908390606490829084905af19182156102c4576004612fee926001600160a01b03927fcdb034d750ed0c5924ffbc3ee3c5cbca328261d8301d42e9c176788ddca9ac4795612ff3575b505b015416936040519182916020835260208301906129c1565b0390a3565b6000612ffe9161284c565b38612fd4565b909293600094600385019360048601965b85548110156130af576001600160a01b03855460081c16906001600160a01b038954166130428289612c39565b90549060031b1c833b1561012c57604051632142170760e11b81523060048201526001600160a01b039290921660248301526044820152916000908390606490829084905af19182156102c45760019261309e575b5001613015565b60006130a99161284c565b38613097565b50935093612fee9195507fcdb034d750ed0c5924ffbc3ee3c5cbca328261d8301d42e9c176788ddca9ac47925060046001600160a01b0391612fd656fea26469706673582212204c5a469abfdaa35334a861206a207a204ea9caa42ebeef6bdbdb585ebd48275964736f6c634300081c0033",
  "linkReferences": {},
  "deployedLinkReferences": {}
}